:100000000C94AB010C94DC010C94DC010C94DC012D
:100010000C94DC010C94DC010C94DC010C94DC01EC
:100020000C94DC010C94CA0E0C94CA0E0C94CA0EEB
:100030000C94DC010C94E4020C94DC010C94DC01C3
:100040000C94DC010C94160B0C94DC010C94DC0178
:100050000C94DC010C94DC010C94DC010C949A02ED
:100060000C94DC010C9453040C9429040C94DC01D2
:100070000C94DC010C94DC010C94DC010C94DC018C
:100080000C94DC010C94DC010C94DC010C94DC017C
:100090000C94DC010C94DC010C94DC010C94D40E67
:1000A0000C94DC010C94DC010C94DC010C94DC015C
:1000B0000C94DC010C94DC010C94DC010C943E09E2
:1000C0000C94DC010C94DC010C94DC010C94FF0317
:1000D0000C94D5030C94DC010C94AB030C948103B9
:1000E0000C94DC015D0A620A670A710A7B0AF40A51
:1000F000850A8D0A950A9F0AA90AB30AC20ACC0A80
:10010000F40AD60AE00AEA0A530E560E450E490EC4
:100110004F0E8D0E5A0E5E0E640E680E6C0E720E31
:10012000760E7A0E8D0E800E840E880E0C941708B3
:100130000C94620A0C94450E0C94530E0C945A0EB7
:100140000C945E0E0C94090E0C94DE010C945D0A66
:100150000C94F40A0C947B0A0C942B070C949507CE
:100160000C94640E0C94AE0D0C94560E0C94140862
:100170000C94D3160C94EA0A0C94880E0C94680E16
:100180000C9480040C94B10D0C9486050C948D0A8B
:100190000C94800E0C94D60A0C94B30A0C94670A43
:1001A0000C94850A0C945C070C94AF0D0C949F0A78
:1001B0000C94DE160C94E00A0C9480080C94710ADE
:1001C0000C94A90A0C94C00D0C942C080C946C0E81
:1001D0000C94A1080C9454050C943A070C94950ABD
:1001E0000C94E8080C94B00D0C9418170C94840E21
:1001F0000C942B160C948D0E0C9441080C94720EDA
:100200000C94DC0D0C9408020C94760E0C944F0E9A
:100210000C944E070C94D40D0C9428020C94CC0A28
:100220000C94C20A0C947A0E0C94490E0C94130888
:100230000200002100240027002A002D0030003396
:100240000001010000040107010A0100002200254D
:100250000028002B002E00310034000201000005B0
:100260000108010B01000020002300260029002CBA
:10027000002F003200000100000301060109010502
:10028000050505070508080808020202020A0A080F
:100290000804040404010101010101010103030335
:1002A0000303030303040707070C0C0C0C0C0C0CD2
:1002B0000C0202020206060606060606060B0B0BD9
:1002C0000B0B0B0B0B010210202008081020401014
:1002D000204080020102010804020101020408100A
:1002E0002040808040201008040201800402018028
:1002F0004020100804020108040201010204081051
:10030000204080010204081020408000000A0B02F7
:10031000090C0D0E08070304010000000000000096
:1003200000000000000000000000000000000000CD
:10033000000000000000001211100000000000008A
:1003400000000000000000000000000000000000AD
:1003500000001817DE1611241FBECFEFD1E2DEBF5A
:10036000CDBF00E00CBF12E0A0E0B2E0E8E3FAE3AA
:1003700000E00BBF02C007900D92A23DB107D9F774
:1003800028E0A2EDB2E001C01D92A530B207E1F76E
:1003900011E0CAEAD1E000E006C021970109802FF0
:1003A000FE010E94AC1AC93AD10780E00807A9F7FC
:1003B0000E948C110C940A1D0C940000CF92DF92C5
:1003C000EF92FF920F931F93CF93DF936C017A010B
:1003D0008B01C0E0D0E0CE15DF0581F0D8016D9132
:1003E0008D01D601ED91FC910190F081E02DC601C7
:1003F0001995892B11F02196EECF7E01C701DF916F
:10040000CF911F910F91FF90EF90DF90CF900895C3
:100410000E94F51C8AE693E00E945C0721E0892B8C
:1004200009F420E0822F089587E094E00E945C07A1
:1004300021E0892B09F420E0822F089584EA94E0DA
:100440000E945C0721E0892B09F420E0822F0895A7
:10045000EF92FF920F931F93CF93DF93EC0181E014
:10046000888F9B8D8C8D981305C0E889F9898081D0
:1004700085FD26C0F62E0B8D10E00F5F1F4F0F730A
:100480001127E02E8C8DE8120CC00FB607FCFACFB6
:10049000E889F989808185FFF5CFCE010E94C608E1
:1004A000F1CF8B8DFE01E80FF11DE35AFF4FF08273
:1004B0009FB7F8940B8FEA89FB89808180620AC01C
:1004C0009FB7F894EE89FF896083E889F989808174
:1004D0008370806480839FBF81E090E0DF91CF9143
:1004E0001F910F91FF90EF9008953FB7F89480917E
:1004F000E3029091E402A091E502B091E60226B5F4
:10050000A89B05C02F3F19F00196A11DB11D3FBF4B
:10051000BA2FA92F982F8827820F911DA11DB11DD9
:10052000BC01CD0142E0660F771F881F991F4A95D5
:10053000D1F708951F920F920FB60F9211242F93A7
:100540003F938F939F93AF93BF938091D8029091E5
:10055000D902A091DA02B091DB023091E20223E0ED
:10056000230F2D3720F40196A11DB11D05C026E8EB
:10057000230F0296A11DB11D2093E2028093D802A1
:100580009093D902A093DA02B093DB028091E30248
:100590009091E402A091E502B091E6020196A11DBE
:1005A000B11D8093E3029093E402A093E502B0931F
:1005B000E602BF91AF919F918F913F912F910F9044
:1005C0000FBE0F901F9018951F920F920FB60F92AB
:1005D00011240BB60F922F933F934F935F936F931A
:1005E0007F938F939F93AF93BF93EF93FF938091EC
:1005F000DD029091DE02A091DF02B091E002892B32
:100600008A2B8B2B49F19091DC0280910000892785
:10061000809300008091DD029091DE02A091DF02C4
:10062000B091E002181619061A061B060CF056C007
:100630008091DD029091DE02A091DF02B091E00294
:100640000197A109B1098093DD029093DE02A09386
:10065000DF02B093E00242C080910002E0E3F2E0EA
:10066000E4919FEF90930002E230C9F050F4EE2342
:1006700099F0E13081F590916F009D7F90936F002C
:100680002AC0E43019F1E0F0E53029F590917300CB
:100690009D7F909373001FC010926E001CC09091BC
:1006A00070009D7F9093700091E09093B0009091C6
:1006B000B100987F94609093B1001092B3000BC08A
:1006C000909171009D7F9093710005C09091720090
:1006D0009D7F9093720060E00E94B510FF91EF91B2
:1006E000BF91AF919F918F917F916F915F914F914A
:1006F0003F912F910F900BBE0F900FBE0F901F9048
:1007000018951F920F920FB60F9211240BB60F92ED
:100710002F933F934F935F936F937F938F939F9309
:10072000AF93BF93EF93FF938AE693E00E94C608CE
:10073000FF91EF91BF91AF919F918F917F916F91B9
:100740005F914F913F912F910F900BBE0F900FBE75
:100750000F901F9018951F920F920FB60F921124B1
:100760000BB60F922F933F934F935F936F937F93AB
:100770008F939F93AF93BF93EF93FF938AE693E09A
:100780000E94B10EFF91EF91BF91AF919F918F9118
:100790007F916F915F914F913F912F910F900BBE81
:1007A0000F900FBE0F901F9018951F920F920FB6CB
:1007B0000F9211240BB60F922F933F934F935F9399
:1007C0006F937F938F939F93AF93BF93EF93FF9319
:1007D00087E094E00E94C608FF91EF91BF91AF912E
:1007E0009F918F917F916F915F914F913F912F9149
:1007F0000F900BBE0F900FBE0F901F9018951F9279
:100800000F920FB60F9211240BB60F922F933F93B6
:100810004F935F936F937F938F939F93AF93BF9308
:10082000EF93FF9387E094E00E94B10EFF91EF9168
:10083000BF91AF919F918F917F916F915F914F91F8
:100840003F912F910F900BBE0F900FBE0F901F90F6
:1008500018951F920F920FB60F9211240BB60F929C
:100860002F933F934F935F936F937F938F939F93B8
:10087000AF93BF93EF93FF9384EA94E00E94C6087E
:10088000FF91EF91BF91AF919F918F917F916F9168
:100890005F914F913F912F910F900BBE0F900FBE24
:1008A0000F901F9018951F920F920FB60F92112460
:1008B0000BB60F922F933F934F935F936F937F935A
:1008C0008F939F93AF93BF93EF93FF9384EA94E04A
:1008D0000E94B10EFF91EF91BF91AF919F918F91C7
:1008E0007F916F915F914F913F912F910F900BBE30
:1008F0000F900FBE0F901F901895E0E0F0E0199454
:1009000086E992E00E94FF0B41E060E073E086E838
:1009100096E00E949507E0E0F3E081E090E021910D
:1009200031912132334060F4019689309105B9F755
:1009300040E050E0BA018AE797E00E94FC0908C055
:10094000059734F040E050E0BA018AE797E006C02E
:1009500040E050E060E070E88CE797E00C94FC0920
:10096000EF92FF920F931F93CF93DF937C018B0144
:10097000EA01682F8FE20E94B510B701FF0C880BC7
:10098000990B0E94460C602F80E30E94B510B801BD
:10099000110F880B990B0E94460C6C2F81E30E946B
:1009A000B510BE01DD0F880B990B0E94460C8DE936
:1009B00092E0DF91CF911F910F91FF90EF900C94F7
:1009C000ED0B40E050E060E070E081E090E00E94DC
:1009D000B00440E050E0BA018AE797E00E94FC09C9
:1009E00040E050E060E070E88CE797E00C94FC0990
:1009F0001F93CF93DF93C5E1D2E0199161E080E2CC
:100A00000E94B51061E08DE10E94B51061E08CE1BB
:100A10000E94B51061E08AE10E94B51061E081E2B8
:100A20000E94B51060E0812F0E94B51061E070E077
:100A300080E090E00E94521182E0CA31D807E9F6C6
:100A400061E081E2DF91CF911F910C94B51080EAB3
:100A500092E00E94FF0B40E050E060E070E081E037
:100A600090E00E94B0048EE20E948C10892B29F441
:100A700085EA92E00E94F804F6CF8BEA92E00E94A9
:100A8000FF0B8EE20E948C100197D9F362E370E0B5
:100A900080E090E00E94521140E050E061E070E0A0
:100AA00080E090E00C94B00481EB92E00E94FF0B98
:100AB0008EE20E948C10019779F48EE20E948C10D5
:100AC0000197D9F30E94E10462E370E080E090E0D6
:100AD0000E9452110E94270560E08FE20C94B5102D
:100AE000CF93DF93EC010E94E1048EE20E948C1010
:100AF000892B21F4CE010E94F804F7CF68EE73E051
:100B000080E090E0DF91CF910C9452112F923F92B0
:100B10004F925F926F927F928F929F92AF92BF920D
:100B2000CF92DF92EF92FF920F931F93CF93DF93B9
:100B3000CDB7DEB764970FB6F894DEBF0FBECDBF5A
:100B400088EB92E00E94FF0BCE0101967C014E01E2
:100B500095E1890E911CF70111921192E815F905A2
:100B6000D9F787012AE0222E312C35E0432E512C73
:100B700066246394712C0E948E0E80E40E94500DB6
:100B80006C010E948E0E82E40E94500D5C010E9456
:100B90008E0E84E40E94500DAC14BD0454F48A15EA
:100BA0009B05ECF48F359140ECF0F8017182608286
:100BB00019C0CA14DB047CF48C159D0564F48F35D0
:100BC000F1E09F0744F021E9C21621E0D2061CF0B3
:100BD000F801518240828A159B050CF417C1F80177
:100BE000118210820E5F1F4F0815190521F680E053
:100BF00090E0F701219131917F01820F931FE81559
:100C0000F905B9F78D329105C1F04CF488309105A2
:100C1000D4F08B309105D4F0889779F014C08035EA
:100C2000910571F01CF4C29741F00DC08A35910511
:100C300039F08436910521F006C002E010E008C0CA
:100C400003E010E005C000E010E002C001E010E0A9
:100C50000115110509F4E6C00E94E10441E050E0ED
:100C600061E070E081E090E00E94B00482E090E0FA
:100C70000E94B90C60E273E080E090E00E94460CB4
:100C80008DE992E00E94ED0B61E08CE00E94B510CE
:100C900060E08AE00E94B5109FE1E92E93E0F92E12
:100CA00061E08BE00E94B51061E070E080E090E0D0
:100CB0000E94521160E08BE00E94B51061E070E08C
:100CC00080E090E00E945211F1E0EF1AF10841F744
:100CD00081E090E00E94B90C60E273E080E090E077
:100CE0000E94460C8DE992E00E94ED0B60E08CE0E2
:100CF0000E94B5108FE1E82E83E0F82E61E08BE0D2
:100D00000E94B51061E070E080E090E00E94521116
:100D100060E08BE00E94B51061E070E080E090E060
:100D20000E94521121E0E21AF10841F761E08AE0E5
:100D30000E94B5100230110569F003301105A1F0D1
:100D40008091D6029091D70201969093D70280931A
:100D5000D60213C08091D4029091D502019690934F
:100D6000D5028093D40209C08091D2029091D3021F
:100D700001969093D3028093D2028091D6029091F3
:100D8000D702039764F58091D4029091D50203971E
:100D90006CF58091D2029091D302039774F540E0F4
:100DA00050E061E070E080E090E064960FB6F89467
:100DB000DEBF0FBECDBFDF91CF911F910F91FF908E
:100DC000EF90DF90CF90BF90AF909F908F907F90EB
:100DD0006F905F904F903F902F900C94B0041092C2
:100DE000D7021092D60280EC92E00DC01092D5028C
:100DF0001092D40286EC92E006C01092D3021092B8
:100E0000D2028CEC92E00E947005C9CFC816D906B8
:100E10000CF0E8CE8F3591400CF4E4CEF80131822D
:100E20002082E0CE64960FB6F894DEBF0FBECDBF31
:100E3000DF91CF911F910F91FF90EF90DF90CF90B6
:100E4000BF90AF909F908F907F906F905F904F90EA
:100E50003F902F900895FC01538D448D252F30E055
:100E6000842F90E0821B930B541710F0CF960895B7
:100E700001970895FC01918D828D981761F0828D04
:100E8000DF01A80FB11D5D968C91928D9F5F9F73BE
:100E9000928F90E008958FEF9FEF0895FC01918D60
:100EA000828D981731F0828DE80FF11D858D90E0CD
:100EB00008958FEF9FEF0895FC01918D228D892F6A
:100EC00090E0805C9F4F821B91098F739927089552
:100ED00080E090E0892B21F00E941E02811119C050
:100EE00080E090E0892B41F080E090E0892B21F0B8
:100EF0000E940000811110C00E94140281110FC0D5
:100F000080E090E0892B81F00E940A0281110AC0E2
:100F100008950E940000E4CF0E940000EDCF0E94DF
:100F20007D04EECF0C9400000895DF92EF92FF92C3
:100F30000F931F93CF93DF93CDB7DEB7EE970FB626
:100F4000F894DEBF0FBECDBF8C017B01D42E8FEF96
:100F5000840FD801ED91FC91823020F40480F5815A
:100F6000E02D05C0411105C00280F381E02DC801CC
:100F70001995D801ED91FC910084F185E02D20E0D8
:100F800041E0B701C8011995B5E0DB16F1F1D801D0
:100F9000ED91FC910280F381E02DC8011995B2E03A
:100FA000DB1233C0D801ED91FC910084F185E02D76
:100FB00020E041E0BE016F5F7F4FC801199540E01E
:100FC000F8018485481708F5842F90E0880F991F51
:100FD000F701E80FF91F21E030E02C0F3D1F820FD1
:100FE000931FD8011E962D913C911F97DC018D9186
:100FF0009C91B901681B790BCB0120813181820F53
:10100000931F918380834F5FDBCFEE960FB6F894EA
:10101000DEBF0FBECDBFDF91CF911F910F91FF902B
:10102000EF90DF900895089580E090E00895CF93C9
:10103000DF93FC0185858F3F61F0EF0161E00E9445
:10104000161161E08D850E94B5108BE193E0019748
:10105000F1F7DF91CF910895CF93DF93FC01858560
:101060008F3F61F0EF0161E00E94161160E08D8515
:101070000E94B5108BE193E00197F1F7DF91CF91DA
:101080000895FF920F931F93CF93DF93EC018B0191
:10109000F22E1B821A821D821C821F821E821986DA
:1010A0001886198A188A403218F08FE18C8701C09F
:1010B0004C878A859B85892B11F080E009C08C853F
:1010C00090E00E94EF1A9B878A87892BB1F712C0A4
:1010D0009C85891770F4282F30E0F801E20FF31F88
:1010E00090814A855B85FA01E20FF31F90838F5F41
:1010F000EFCFFD86DF91CF911F910F91FF90089563
:101100000F931F93CF93DF93EC01122F202FE881D1
:10111000F9813697808191818C0F9D1F0E94410833
:101120001A83E881F981369780819181C80FD91F90
:101130008FEF93E09F878E87DF91CF911F910F9163
:1011400008950F931F93CF93DF938C01C62FD62F53
:10115000D07FD1606D2F0E9462106D2FC8010E9458
:10116000771080E1C89FB0011124C62FC1606C2F99
:10117000C8010E9462106C2FC8010E94771081E0A4
:1011800090E0DF91CF911F910F910895FC01848D24
:10119000DF01A80FB11DA35ABF4F2C91848D90E0A1
:1011A00001968F739927848FA689B7892C93A0897C
:1011B000B1898C91837080648C93938D848D981306
:1011C00006C00288F389E02D80818F7D8083089599
:1011D000CF93DF93EC01888D8823C9F0EA89FB89DE
:1011E000808185FD05C0A889B9898C9186FD0FC0D5
:1011F0000FB607FCF5CF808185FFF2CFA889B989AA
:101200008C9185FFEDCFCE010E94C608E7CFDF911C
:10121000CF910895FC018081882379F12FB7F8944C
:101220008091D8029091D902A091DA02B091DB02AC
:101230002FBF4181528163817481841B950BA60B62
:10124000B70B458156816781708584179507A6077E
:10125000B70798F02FB7F8948091D8029091D902EF
:10126000A091DA02B091DB022FBF81839283A38326
:10127000B4830184F285E02D199408951F920F9292
:101280000FB60F9211240BB60F922F933F934F93EB
:101290005F936F937F938F939F93AF93BF93EF93DE
:1012A000FF93809142050E948C1020914605309159
:1012B00047052F5F3F4F3093470520934605909198
:1012C0004505953618F096E09093410590914105BB
:1012D0009430C9F128F4923069F09330D1F05EC0B7
:1012E000953009F451C0963009F058C091E09093C0
:1012F000120651C0811152C0209146053091470518
:101300002436310508F442C01092120610924505A9
:101310001CC0813009F042C0E091450591E09E0F6C
:1013200090934505F0E02091460530914705EE0F7A
:10133000FF1FEF5BFA4F308727831092470510920B
:10134000460594E029C0811117C0E091450591E060
:101350009E0F90934505F0E020914605309147059A
:10136000EE0FFF1FEF5BFA4F308727831092470580
:101370001092460593E010C0209146053091470534
:101380002536310558F007C0811108C01092470575
:101390001092460503C095E0909341059091440555
:1013A0009923B9F081110AC080914305882321F067
:1013B0008091430561E009C02F9A0BC080914305DD
:1013C000882331F08091430560E00E94B51001C090
:1013D0002F98FF91EF91BF91AF919F918F917F9146
:1013E0006F915F914F913F912F910F900BBE0F9096
:1013F0000FBE0F901F9018958F929F92AF92BF9241
:10140000CF92DF92EF92FF920F931F93CF93DF93D0
:101410008C016A017B0120E030E04FE753E4C70113
:10142000B6010E94AC194B015C0120E030E0A9013B
:101430000E94EA1A18161CF4C501B40103C0C501C4
:10144000B40190580E94B41AEB0120E030E0A901E9
:10145000C701B6010E94EA1A181614F460E001C030
:1014600061E0F80181810E94B510CF3FD10509F0FC
:1014700014F4DD2702C0CFEFD0E0F801108161E065
:10148000812F0E941611209709F4B1C0CF3FD105DA
:1014900009F4AFC0E12FF0E0E55FFC4FE4918E2F3F
:1014A00090E0FC013197E231F10508F09DC08827FA
:1014B000EE58FF4F8F4F0C94AC1A84B5806884BDF2
:1014C000C7BDA7C084B5806284BDC8BDA2C08091DD
:1014D0008000806880938000D0938900C09388004A
:1014E00098C080918000806280938000D0938B00B0
:1014F000C0938A008EC080918000886080938000B5
:10150000D0938D00C0938C0084C08091B00080681F
:101510008093B000C093B3007CC08091B000806223
:101520008093B000C093B40074C080919000806834
:1015300080939000D0939900C09398006AC08091E6
:101540009000806280939000D0939B00C0939A009B
:1015500060C080919000886080939000D0939D003F
:10156000C0939C0056C08091A00080688093A0002A
:101570008091A0008F7B8093A000D093A900C0939E
:10158000A80047C08091A00080628093A000D09303
:10159000AB00C093AA003DC08091A00088608093FA
:1015A000A000D093AD00C093AC0033C08091200167
:1015B000806880932001D0932901C093280129C01D
:1015C00080912001806280932001D0932B01C093F1
:1015D0002A011FC080912001886080932001D09350
:1015E0002D01C0932C0115C0C038D10514F460E062
:1015F00001C061E0812FDF91CF911F910F91FF908A
:10160000EF90DF90CF90BF90AF909F908F900C9411
:10161000B510DF91CF911F910F91FF90EF90DF9068
:10162000CF90BF90AF909F908F9008951F920F9290
:101630000FB60F9211240BB60F922F933F934F9337
:101640005F936F937F938F939F93AF93BF93EF932A
:10165000FF938091100387FF05C0109285001092C0
:10166000840016C020911003022E000C330B8091D1
:101670004F0690E0281739075CF43091100325E0FD
:101680003203F0011124ED5EF94F808186FD15C013
:10169000809110038F5F8093100320911003022E1E
:1016A000000C330B80914F0690E02817390794F413
:1016B000809110038C302CF10DC030911003320357
:1016C000F0011124ED5EF94F808160E08F730E947C
:1016D000B510DECF809184009091850084349C49C0
:1016E00018F480E49CE905C0809184009091850005
:1016F000049690938900809388008FEF8093100365
:101700002AC040918400509185003091100325E05B
:101710003203F0011124ED5EF94F81819281840F33
:10172000951F9093890080938800309110033203B5
:10173000F0011124ED5EF94F808186FF0CC03091DD
:1017400010033203F0011124ED5EF94F808161E056
:101750008F730E94B510FF91EF91BF91AF919F9150
:101760008F917F916F915F914F913F912F910F904A
:101770000BBE0F900FBE0F901F9018958EBD0000EE
:101780000DB407FEFDCF8EB50895E4EAF4E0A0891C
:10179000B18982E08C93A485B5851C92A685B78516
:1017A0008FEC8C93108EA489B58986E08C93A289E6
:1017B000B3898C9180618C93A289B3898C91886064
:1017C0008C93A289B3898C9180688C930288F38969
:1017D000E02D80818F7D80830895009769F0FC0162
:1017E00001900020E9F73197AF01481B590BBC016C
:1017F00084EA94E00C94DE0180E090E00895CF93B9
:10180000DF930E94ED0BEC018DE992E00E94ED0B5D
:101810008C0F9D1FDF91CF9108950F931F93CF934E
:10182000DF93162F072FC1E6D7E09C8521E0209398
:101830005D0390935C0310925B0310925A03AA8598
:10184000BB85ED91FC9111970190F081E02D682FFF
:10185000CD0119958A859B85DC01ED91FC91019064
:10186000F081E02D602F19958A859B85DC01ED9133
:10187000FC910190F081E02D612F19958A859B855F
:10188000DF91CF911F910F910C9406108F929F9230
:10189000AF92BF92CF92DF92EF92FF920F931F937E
:1018A000CF93DF93CDB7DEB7A1970FB6F894DEBF25
:1018B0000FBECDBF6B017C0197FF2BC06DE284EAA8
:1018C00094E00E9428028C0122273327A9012C19B9
:1018D0003D094E095F0919A2CE0181967C019AE06B
:1018E000892E912CA12CB12CCA01B901A50194011A
:1018F0000E946A1A605DF70162937F01211531052C
:101900004105510589F7CF010E94ED0B800F911F12
:101910001DC09B01AC0119A28E010F5D1F4F8AE013
:10192000C82ED12CE12CF12CCA01B901A7019601D6
:101930000E946A1A605DF80162938F0121153105DA
:101940004105510589F7CF010E94ED0BA1960FB615
:10195000F894DEBF0FBECDBFDF91CF911F910F91E5
:10196000FF90EF90DF90CF90BF90AF909F908F90BF
:1019700008958F929F92AF92BF92CF92DF92EF9293
:10198000FF92CF93DF93C2E3D0E04C01092E000C0D
:10199000AA08BB0824E130E06901C81AD90A0D2C55
:1019A000000CEE08FF0861E088E00E94B510C50158
:1019B000B4010E94521160E088E00E94B510C70196
:1019C000B6010E945211219771F7DF91CF91FF90DC
:1019D000EF90DF90CF90BF90AF909F908F90089541
:1019E00091E090935D0394E790935C0310925B0306
:1019F00010925A03682F8EE593E00E94090E8EE53F
:101A000093E00E940610809137038111FCCF81E0A2
:101A100080933703809336039FEF909335031092A2
:101A20003403109233038093320380913203886E23
:101A30008093320380913103813061F4109231033D
:101A4000809132038093BB008091BC0083FDF8CF6E
:101A500085EC01C085EE8093BC0080913703813016
:101A6000E1F380913403811103C09091340301C0EC
:101A700091E0E1E1F3E0AAE3B3E080E0891721F02F
:101A800021912D938F5FFACF109239038093380301
:101A9000811101C0FFCF8EE593E00E94C00D089533
:101AA000CF93DF93C82F0E94F00CD82F81E08C0FCA
:101AB0000E94F00C90E0982F88278D0F911DDF91E8
:101AC000CF910895CF93C82F81E080935D0384E781
:101AD00080935C0310925B0310925A038EE593E0AF
:101AE0000E94090E6C2F8EE593E00E94090E8EE590
:101AF00093E0CF910C94061085ED8093BC0080910B
:101B0000BC0084FDFCCF1092370308954091DA07A2
:101B1000262F30E0240F311D21323105DCF42091D5
:101B200037032430C9F4FC0180E090E0861758F4B4
:101B30003091DA072191DC01A854B84FA30FB11DF1
:101B40002C930196F3CF8091DA07680F6093DA0740
:101B500080E0089581E0089582E008950895089551
:101B60000895E091390380913803E81730F4F0E0EC
:101B7000E65CFC4F808190E008958FEF9FEF089521
:101B80009091390380913803981750F4E92FF0E0D1
:101B9000E65CFC4F208130E09F5F9093390302C0E8
:101BA0002FEF3FEFC90108958091380390E0209115
:101BB0003903821B91090895CF92DF92EF92FF9231
:101BC0000F931F93CF93DF937C01CB018A01209168
:101BD0005D03222389F0EB016B01C40ED51ECC15E9
:101BE000DD0569F06991D701ED91FC910190F081DB
:101BF000E02DC7011995F3CF642F0E94860DC8010F
:101C0000DF91CF911F910F91FF90EF90DF90CF90D8
:101C10000895CF93DF931F92CDB7DEB769832091EC
:101C20005D032223D1F020915A03203240F021E0BD
:101C300030E0FC013383228380E090E015C0809186
:101C40005B03E82FF0E0E856F84F998190838F5FAF
:101C500080935B0380935A0305C061E0CE01019637
:101C60000E94860D81E090E00F90DF91CF91089562
:101C700090E0FC013197E231F10508F04EC0882771
:101C8000EC57FF4F8F4F0C94AC1A809180008F77E8
:101C900003C0809180008F7D8093800008958091A3
:101CA0008000877FF9CF84B58F7702C084B58F7DA0
:101CB00084BD08958091B0008F7703C08091B000FB
:101CC0008F7D8093B0000895809190008F7707C03A
:101CD000809190008F7D03C080919000877F8093DA
:101CE000900008958091A0008F7707C08091A00098
:101CF0008F7D03C08091A000877F8093A00008950E
:101D0000809120018F7707C0809120018F7D03C0D3
:101D100080912001877F80932001089560E081E019
:101D20000E94620D80E00E94F00C8111FBCF0895AB
:101D30000F931F93CF93611590E1790774F48B0192
:101D4000C82F682F802F0E94620D61E06C0F812FD9
:101D5000CF911F910F910C94620DCF911F910F9114
:101D60000895FC01A089B1898C91A689B78982FD6B
:101D70000FC09C91818D8F5F8F73228D821749F0E8
:101D8000218DDF01A20FB11D5D969C93818F089577
:101D90008C9108951F920F920FB60F9211240F90FD
:101DA0000FBE0F901F9018951F920F920FB60F92B3
:101DB00011240BB60F922F933F934F935F936F9322
:101DC0007F938F939F93AF93BF93EF93FF938091F4
:101DD000B900887F803609F49CC068F5883209F420
:101DE0005BC090F4803109F454C038F4882309F4BE
:101DF000F6C0883009F44DC0F6C0883109F44CC0F3
:101E0000803209F45DC0EFC0803409F468C048F442
:101E1000803309F455C0883309F0E5C08093350359
:101E2000D8C0803509F44FC0883509F45DC08834C6
:101E300009F0D9C0D6C0883909F4C7C0A8F48837DA
:101E400009F467C038F4883609F463C0803709F4B0
:101E500060C0C9C0883809F4B8C0803909F45FC0CF
:101E6000803809F0C0C05BC0803B09F486C038F4FC
:101E7000803A09F466C0883A09F47FC0B4C0803C57
:101E800009F4A7C0883C09F4A4C0883B09F48AC0BF
:101E9000AAC08091320310C0909134038091330323
:101EA000981770F5E091340381E08E0F809334032E
:101EB000F0E0EF5EFC4F80818093BB0085EC86C034
:101EC000809335038EC0E091340381E08E0F8093C0
:101ED00034038091BB00F0E0EF5EFC4F8083909173
:101EE0003403809133036EC0E091340381E08E0FA0
:101EF000809334038091BB00F0E0EF5EFC4F808361
:101F00008091360381116DC081E08093310384EAB2
:101F100061C083E0809337031092FE07CFCF80919A
:101F2000FE07803208F051C0E091FE0781E08E0F7D
:101F30008093FE078091BB00F0E0E252F84F80836F
:101F4000BDCF85EC8093BC00109237038091FE07D3
:101F5000803230F4E091FE07F0E0E252F84F108258
:101F60006091FE0770E0E091DC07F091DD078EEDF7
:101F700097E019951092FE0736C084E080933703EE
:101F80001092DB071092DA07E091D807F091D90799
:101F900019958091DA07811105C081E08093DA07F5
:101FA0001092B807E091DB0781E08E0F8093DB078A
:101FB000F0E0E854F84F80818093BB009091DB07FC
:101FC0008091DA07981708F479CF85E88093BC00F0
:101FD0000AC085EC8093BC001092370304C01092B5
:101FE00035030E947C0DFF91EF91BF91AF919F91BE
:101FF0008F917F916F915F914F913F912F910F90B2
:102000000BBE0F900FBE0F901F90189530915A0382
:10201000313208F04BC0809137038111FCCF909191
:102020005C0322E02093370321E0209336032FEF57
:10203000209335031092340330933303E8E9F7E03B
:10204000A1E1B3E020E0321721F041914D932F5FE1
:10205000FACF1092320320913203990F922B909372
:10206000320390913103913061F4109231039091D9
:1020700032039093BB009091BC0093FDF8CF95EC98
:1020800001C095EE9093BC00909137039230E1F33C
:10209000909135039F3F79F080913503803241F074
:1020A00080913503803331F084E005C081E003C0C6
:1020B00082E001C083E010925B0310925A031092F9
:1020C0005D030895FC01248131E030935D0320938A
:1020D0005C0310925B0310925A038485682B8EE593
:1020E00093E00E94090E8EE593E00C9406100F9386
:1020F0001F93CF938C01C62F64600E9462106C2FD7
:102100006B7FC8010E94621083EC90E00197F1F7A9
:10211000CF911F910F910895CF93DF93282F30E037
:10212000F901E55FFC4F8491F901EB53FD4FD49128
:10213000F901E158FD4FC491CC2391F081110E9427
:10214000380EEC2FF0E0EE0FFF1FEB59FD4FA5917D
:10215000B491EC91ED2381E090E021F480E002C0A5
:1021600080E090E0DF91CF9108951F93CF93DF93AC
:10217000282F30E0F901E55FFC4F8491F901EB5322
:10218000FD4FD491F901E158FD4FC491CC23C1F02A
:10219000162F81110E94380EEC2FF0E0EE0FFF1F7A
:1021A000E55BFD4FA591B4919FB7F894111104C060
:1021B0008C91D095D82302C0EC91DE2BDC939FBF8D
:1021C000DF91CF911F910895109239031092380337
:1021D00010925B0310925A031092370381E08093B0
:1021E00036031092310361E084E10E94B51061E092
:1021F00085E10E94B510E9EBF0E080818E7F80835D
:1022000080818D7F808388E48093B80085E480930B
:10221000BC008EEA9DE09093D9078093D8078FEA9F
:102220009DE09093DD078093DC070895CF93DF93C3
:1022300090E0FC01EB53FD4F2491FC01E158FD4F70
:102240008491882361F190E0880F991FFC01EF5C75
:10225000FD4FC591D491FC01E55BFD4FA591B49173
:10226000611109C09FB7F8948881209582238883E3
:10227000EC912E230BC0623061F49FB7F8948881F3
:10228000322F309583238883EC912E2B2C939FBF84
:1022900006C08FB7F894E8812E2B28838FBFDF917B
:1022A000CF9108958F929F92AF92BF92CF92DF927B
:1022B000EF92FF926B017C010E9475024B015C0161
:1022C000C114D104E104F104F1F00E947502DC01B3
:1022D000CB0188199909AA09BB09883E9340A10539
:1022E000B10570F321E0C21AD108E108F10888EEC7
:1022F000880E83E0981EA11CB11CC114D104E10416
:10230000F10419F7DDCFFF90EF90DF90CF90BF90F1
:10231000AF909F908F900895CF93DF9300D01F923E
:102320001F92CDB7DEB7789484B5826084BD84B542
:10233000816084BD85B5826085BD85B5816085BDC0
:1023400080916E00816080936E0010928100809178
:102350008100826080938100809181008160809300
:102360008100809180008160809380008091B10025
:1023700084608093B1008091B00081608093B00050
:1023800080919100826080939100809191008160A2
:102390008093910080919000816080939000809163
:1023A000A10082608093A1008091A1008160809350
:1023B000A1008091A00081608093A0008091210104
:1023C00082608093210180912101816080932101AD
:1023D0008091200181608093200180917A00846047
:1023E00080937A0080917A00826080937A00809155
:1023F0007A00816080937A0080917A00806880936F
:102400007A001092C1000E94C50B61E080916207C2
:102410000E94161160E0809162070E94B51060E092
:10242000809161070E9416118EE593E090936C07EE
:1024300080936B070E94E41080E090E1A0E0B0E0A0
:1024400080936E0790936F07A0937007B093710706
:102450008AE090E0A0E0B0E0809372079093730769
:10246000A0937407B093750780E090E0A0E0B0E41B
:102470008093760790937707A0937807B0937907B6
:1024800060E070E185E00E940D0C6FE979E380E087
:102490000E940D0C01E617E0780142E0542E54EB47
:1024A000652E52E0752E6AEF862E62E0962E7BEC4A
:1024B000C72E77E0D72EEBE8AE2EBB24B394D7011E
:1024C00014969C91149712968C91F801818F928F9B
:1024D00061E00E94161161E0D8015A968C910E9429
:1024E0001611F70190858681D8015D968C935D97D2
:1024F0005E969C9361E00E94161160E0F801868D63
:102500000E94161161E0D8015D968C910E94B51071
:102510004FB6F8948091E102811126C0F3018491B5
:10252000F4012491E82FF0E0EE0FFF1FEF5CFD4F68
:10253000A591B4919C91822F892321F461E085E3D8
:102540000E94B51061E085E30E9416118CB5806190
:102550008CBD8CB580648CBD61E084E30E94161153
:1025600061E083E30E9416118091E1028F5F809306
:10257000E1024FBEC6010197F1F760E0D8015D9618
:102580008C910E94B51088E80E94BE0B83E00E94E7
:10259000BE0B61E0F801858D0E94B510C601019760
:1025A000F1F760E0D8015D968C910E94B51088E942
:1025B0000E94BE0B80E00E94BE0B80E00E94BE0B1A
:1025C00080E00E94BE0B80E00E94BE0B61E0F8013B
:1025D000858D0E94B510C5010197F1F760E0D80123
:1025E0005D968C910E94B51080EE0E94BE0B61E05A
:1025F000F801858D0E94B5105A94FFEFEF1AFF0A7B
:102600000E5F1F4F51105BCF96E8E92E97E0F92E31
:102610000AE817E060E0D7018D917D010E94161154
:102620000E151F05B9F7F2E8EF2EF7E0FF2EA5E033
:10263000DA2EBCE0BB2E82E0C82EF801A1908F01FB
:1026400087818C3008F048C061E08A2D0E94161105
:10265000D80117968C91D89EF0011124ED5EF94FA8
:102660009A2D9F732081207CA22EA92AA0821382FA
:1026700014826B2D0E948C1ABCE08B9FA001112448
:1026800020E030E0BA01620F731FD69EF001D79EA2
:10269000F00D1124ED5EF94F908196FD12C02F5F71
:1026A0003F4F2C30310571F781110BC01092800023
:1026B000C09281001092850010928400C6BAC09228
:1026C0006F00D8011796EC91DE9EF0011124ED5EAB
:1026D000F94F808180648083F80195818381D701DF
:1026E00052968C93529753969C9360E00E941611D9
:1026F00061E0F70183890E94161160E0D7015396CB
:102700008C910E94B510B2E0EB0EF11CE7E00C38A2
:102710001E0709F092CFF8941092200109E000936F
:10272000210180E293E09093290180932801109287
:1027300025011092240112E01093730078941093F5
:102740004105109245058091420560E00E941611F6
:1027500040E050E0BA018AE797E00E94FC0940E0BF
:1027600050E060E070E88CE797E00E94FC090E946E
:10277000C50B82E892E00E94FF0B61E08FE20E94AD
:10278000161160E08FE20E94B51061E080E30E94C4
:10279000161160E080E30E94B51061E081E30E94C1
:1027A000161160E081E30E94B51060E08EE20E94A5
:1027B000161161E08AE00E94161161E08AE00E9431
:1027C000B51061E08CE00E94161160E08CE00E9480
:1027D000B51061E08BE00E94161160E08BE00E9472
:1027E000B51061E08FE10E94161161E08BE10E945B
:1027F000161161E088E10E94161161E087E10E94F4
:10280000161161E086E10E94161161E08EE10E94DE
:10281000161161E089E10E94161161E080E20E94D8
:10282000161161E08DE10E94161161E08CE10E94B9
:10283000161161E08AE10E94161161E081E20E94B6
:10284000161161E088E00E94161161E080E20E94AA
:10285000B51061E08DE10E94B51061E08CE10E944D
:10286000B51061E08AE10E94B51061E081E20E944A
:10287000B5100E94270588E892E00E94FF0B4FEFF9
:1028800050E060E070E080E090E00E94B00461E021
:10289000809171060E9416118EE593E00E94E4106B
:1028A00061E070E080E090E00E94521100937306B6
:1028B000009374061093750685E08093760666E0B3
:1028C00089E00E94620D8091740667E08F700E941B
:1028D000620D8091750668E08F700E94620D809194
:1028E000760669E08F700E94620D80E098E0909318
:1028F00078068093770690937A0680937906909372
:102900007C0680937B0690937E0680937D066AE02A
:1029100080E00E94620D80917706909178069F7109
:102920006BE0892F0E94620D6EE080917B060E9411
:10293000620D80917B0690917C069F716FE0892FDC
:102940000E94620D6CE0809179060E94620D809178
:10295000790690917A069F716DE0892F0E94620D31
:1029600060E180917D060E94620D80917D069091CC
:102970007E069F7161E1892F0E94620D61E0809166
:1029800071060E94B51062E070E080E090E00E9465
:102990005211E12CF12CC12CE0E1DE2E86010E1942
:1029A0001F0917FF02C00F5F1F4F159507950E0DEA
:1029B0001F1D0E151F05D9F1B8018AE090E00E9495
:1029C000980EB8018CE090E00E94980EB8018EE05D
:1029D00090E00E94980E0E948E0E80E40E94500D9E
:1029E00097FD05C080E40E94500D5C0102C0A12C3F
:1029F000B12C82E40E94500D8A159B0524F082E4DC
:102A00000E94500D5C0184E40E94500D8A159B05C4
:102A100024F084E40E94500D5C01F9EEAF16F3E05F
:102A2000BF0664F528EEA21623E0B20649F5E12CB4
:102A3000F12CC12C90E1D92E86010E191F0917FF28
:102A400002C00F5F1F4F159507950E0D1F1D0E1528
:102A50001F05C1F0B80180E190E00E94980E0E942D
:102A60008E0E86E40E94500D893E43E094070CF0E0
:102A7000B8C0883E934009F0B2C004C06801870125
:102A800078018CCF88E8282E83E1382EA12CB12C38
:102A9000612C712C412C512C66E0842D0E94620D1A
:102AA00067E0862D0E94620D68E08A2D0E94620D0B
:102AB0008AE00E94500D8C01BC018AE090E00E94E7
:102AC000980EB8018CE090E00E94980EB8018EE05C
:102AD00090E00E94980E54E0852E912CC12CD12CB0
:102AE00000E010E0E12CF12C0E948E0E80E40E94A8
:102AF000500DE80EF91E82E40E94500D080F191FB8
:102B000084E40E94500DC80ED91EB1E08B1A9108C2
:102B100059F7F7FE03C0E3E0EE0EF11CF594E794DD
:102B2000F594E79417FF02C00D5F1F4F15950795A9
:102B300015950795D7FE03C0F3E0CF0ED11CD594B1
:102B4000C794D594C7943E2D2F2DE016F10614F4AA
:102B5000302F212F832F922F97FF02C080E090E02B
:102B60008C159D050CF4C6015E2D4F2D0E151F050D
:102B700014F4502F412F252F342F213040E13407FA
:102B800014F020E030E1A6012C153D050CF4A9015C
:102B90009C01241B350B2215330539F1E816F90683
:102BA00041F4AFE04A16510424F4BFEF4B1A5B0A1C
:102BB0001AC00817190741F4EFE06E16710424F4E7
:102BC000FFEF6F1A7F0A0FC0C816D90661F44FE0F5
:102BD000A416B10444F48FEFA81AB80A04C078010F
:102BE0008601680129CF190157CF82E992E00E943E
:102BF000FF0B0E94270584E992E00E94FF0B86E606
:102C000096E00E940A098BE596E00E940A0980E599
:102C100096E00E940A098DE892E00E94FF0B85E091
:102C2000EFE0F2E0DE01119601900D928A95E1F756
:102C30008091D602805D89838091D402805D8B83F0
:102C40008091D202805D8D83CE0101960E94F804AE
:102C50000E946807D4CFCF92DF92EF92FF920F933A
:102C60001F93CF93DF93FC01EB016081718166506C
:102C70007109DB018D919C91DC01AE0FBF1F1A968B
:102C80008D919C911B97892B09F484C0822FDB01C5
:102C90000D911C91D801AE0FBF1F1C969C918917F6
:102CA00010F050E04DC0DE01A80FB11DA80FB11DFE
:102CB0001D921C92840FEBCF032F10E01A968D917A
:102CC0009C911B97800F911FDC018C91863308F03B
:102CD000865390917B00682F6870977F962B909316
:102CE0007B008770806480937C0080917A00806490
:102CF00080937A0080917A0086FDFCCF80917800E5
:102D000060917900D801AA0FBB1FAC0FBD1F90E0E6
:102D1000962B6D917C911197860F971F8D939C93A5
:102D2000340FA081B18116978D919C918E0F9F1FBA
:102D3000DC011C966C911C97361708F4BDCF5F5FC1
:102D40008281581710F4322FECCFE080F180B6E08A
:102D5000EB1AF108D7018D919C91DC01AE0FBF1FDA
:102D60001C968C912817B0F48E01020F111D020FD2
:102D7000111D628170E06B01D594C794D8018D91CB
:102D80009C918C0D9D1D0E94981AD8016D937C9387
:102D9000240FE0CFDF91CF911F910F91FF90EF9023
:102DA000DF90CF900895DC01ED91FC913E9701906A
:102DB000F081E02D8E0F9F1F0C942B168AE592E078
:102DC00090938406809383068AE492E0909387062A
:102DD000809386068091900690919106009711F05D
:102DE0000E94871B80918A0690918B06009711F0B4
:102DF0000E94871B80918E0690918F06009711F09C
:102E00000E94871B8091880690918906009711F097
:102E10000E94871B80918C0690918D06009711F07F
:102E20000E94871B80919806909199060C94871BAD
:102E30000F93109261031092600388EE93E0A0E07C
:102E4000B0E08093620390936303A0936403B09314
:102E5000650326E232E030935F0320935E03109215
:102E60006D0310926C0380936E0390936F03A09395
:102E70007003B093710328E332E030936B03209327
:102E80006A0345E351E0509377034093760344E3AC
:102E900051E0509379034093780340E351E050931D
:102EA0007B0340937A0341E351E050937D034093C9
:102EB0007C0342E351E050937F0340937E0346E35B
:102EC00051E050938103409380031092830310924A
:102ED0008403109285031092860310920A041092C4
:102EE000090480930B0490930C04A0930D04B093F9
:102EF0000E04309308042093070445ED50E05093EE
:102F000014044093130444ED50E05093160440938E
:102F1000150440ED50E0509318044093170441ED20
:102F200050E050931A044093190442ED50E050933E
:102F30001C0440931B0446ED50E050931E04409344
:102F40001D04109220041092210410922204109269
:102F500023041092A7041092A6048093A8049093CF
:102F6000A904A093AA04B093AB043093A5042093C2
:102F7000A40485EC90E09093B1048093B00484ECB9
:102F800090E09093B3048093B20480EC90E090932F
:102F9000B5048093B40481EC90E09093B7048093DF
:102FA000B60482EC90E09093B9048093B80486EC68
:102FB00090E09093BB048093BA041092BD041092E9
:102FC000BE041092BF041092C00480911A02909126
:102FD0001B02A0911C02B0911D0280938207909366
:102FE0008307A0938407B093850780911E02909178
:102FF0001F02A0912002B091210280938607909336
:103000008707A0938807B093890784E080938A0795
:1030100087E080938B0710928C0784EB80938D0759
:1030200086E180938E0788E180938F0787E1809304
:10303000900789E180939107E0914F06EC3020F0F2
:103040008FEF8093920710C081E08E0F80934F0620
:10305000E093920785E0E89FF0011124ED5EF94FBF
:1030600088EB9BE092838183E0914F06EC3020F067
:103070008FEF8093930710C081E08E0F80934F06EF
:10308000E093930785E0E89FF0011124ED5EF94F8E
:1030900088EB9BE0928381838CE08093610784E2DC
:1030A0008093620786E08093630785E080936407DE
:1030B0008FE1809365078EE18093660783E28093BA
:1030C000670782E28093680785E48093690784E458
:1030D00080936A0780E480936D07109272071092C4
:1030E000730710927407109275071092760710926A
:1030F00077071092780710927907E3EAF6E021E665
:1031000037E08FEF9FEFDC01128213821482158269
:10311000168217821086118683879487A587B687C3
:103120008787908BA18BB28B128611821082739647
:103130002E173F0749F78DE090E00E94EF1AFC013F
:10314000138212828AE792E091838083118687E25C
:10315000848384E1828784E083871486F093A006C9
:10316000E0939F061092A1061092A20685E280933A
:1031700042051092440510929906109298061092FA
:103180009B0610929A0610929D0610929C0661E092
:1031900070E080E090E00E94101C009791F0909306
:1031A00099068093980610929B0610929A06209199
:1031B0009C0630919D06232B09F09DC0FC011082D6
:1031C0009AC08091980690919906009711F00E94FC
:1031D000871B109299061092980610929D061092E5
:1031E0009C0610929B0610929A06109289061092E5
:1031F000880610928B0610928A0610928D06109205
:103200008C0610928F0610928E06109291061092E4
:1032100090068AE592E090938406809383068CE67C
:1032200092E0909387068093860602E024E048E0CF
:1032300061E072E083E896E00E9480088AE290E014
:10324000909372068093710681E0809366061092D7
:103250006706109268061092690610926A0642E3A9
:1032600050E060E070E040936B0650936C06609312
:103270006D0670936E0624E535E03093700620935A
:103280006F0680935B0610925C0610925D061092AA
:103290005E0610925F0644EF51E060E070E04093FC
:1032A000600650936106609362067093630626E899
:1032B00035E03093650620936406809350061092A3
:1032C000510610925206109253061092540684E64C
:1032D00090E0A0E0B0E08093550690935606A0934E
:1032E0005706B093580680E894E090935A0680936E
:1032F00059060F91089510929D0610929C066FE951
:1033000072E080919806909199060E94031D6DCFFE
:10331000990F0008550FAA0BE0E8FEEF16161706E6
:10332000E807F907C0F012161306E407F50798F04E
:10333000621B730B840B950B39F40A2661F0232B67
:10334000242B252B21F408950A2609F4A140A695E3
:103350008FEF811D811D08950E94BF190C94301AB2
:103360000E94221A38F00E94291A20F0952311F0A9
:103370000C94191A0C941F1A11240C94641A0E94AC
:10338000411A70F3959FC1F3950F50E0551F629F4E
:10339000F001729FBB27F00DB11D639FAA27F00DAE
:1033A000B11DAA1F649F6627B00DA11D661F829FD5
:1033B0002227B00DA11D621F739FB00DA11D621FBA
:1033C000839FA00D611D221F749F3327A00D611DD7
:1033D000231F849F600D211D822F762F6A2F1124B9
:1033E0009F5750409AF0F1F088234AF0EE0FFF1FEC
:1033F000BB1F661F771F881F91505040A9F79E3F43
:10340000510580F00C94191A0C94641A5F3FE4F390
:10341000983ED4F3869577956795B795F795E79598
:103420009F5FC1F7FE2B880F911D9695879597F9A1
:10343000089597F99F6780E870E060E008959FEF36
:1034400080EC089500240A9416161706180609063B
:10345000089500240A94121613061406050608950A
:10346000092E0394000C11F4882352F0BB0F40F492
:10347000BF2B11F460FF04C06F5F7F4F8F4F9F4FD2
:10348000089557FD9058440F551F59F05F3F71F054
:103490004795880F97FB991F61F09F3F79F08795BB
:1034A0000895121613061406551FF2CF4695F1DF44
:1034B00008C0161617061806991FF1CF86957105D4
:1034C000610508940895E894BB2766277727CB0108
:1034D00097F90895A1E21A2EAA1BBB1BFD010DC08E
:1034E000AA1FBB1FEE1FFF1FA217B307E407F507B4
:1034F00020F0A21BB30BE40BF50B661F771F881F90
:10350000991F1A9469F760957095809590959B0125
:10351000AC01BD01CF010895991B79E004C0991F4A
:10352000961708F0961B881F7A95C9F7809508951D
:10353000AA1BBB1B51E107C0AA1FBB1FA617B707D9
:1035400010F0A61BB70B881F991F5A95A9F78095F5
:103550009095BC01CD010895EE0FFF1F881F8BBF12
:103560000790F691E02D19940E94BB1A6894B1114E
:103570000C94641A08950E94491A88F09F5798F095
:10358000B92F9927B751B0F0E1F0660F771F881F68
:10359000991F1AF0BA95C9F714C0B13091F00E9482
:1035A000631AB1E008950C94631A672F782F882767
:1035B000B85F39F0B93FCCF3869577956795B395A9
:1035C000D9F73EF490958095709561957F4F8F4F18
:1035D0009F4F08950E94881908F48FEF08950F9364
:1035E0001F93CF93DF938230910510F482E090E037
:1035F000E0910308F091040820E030E0A0E0B0E0A2
:10360000309719F140815181028113814817590780
:10361000C8F08417950769F4109731F012960C934F
:10362000129713961C9327C0009303081093040865
:1036300022C02115310519F04217530718F49A01D9
:10364000BD01EF01DF01F801DBCF21153105F9F0F4
:10365000281B390B2430310580F48A819B81611548
:10366000710521F0FB019383828304C090930408C9
:1036700080930308FE01329644C0FE01E20FF31F5F
:103680008193919322503109398328833AC0209144
:10369000010830910208232B41F420910B02309154
:1036A0000C02309302082093010820910902309106
:1036B0000A022115310541F42DB73EB740910D02A4
:1036C00050910E02241B350BE0910108F091020885
:1036D000E217F307A0F42E1B3F0B2817390778F0E9
:1036E000AC014E5F5F4F2417350748F04E0F5F1F48
:1036F00050930208409301088193919302C0E0E047
:10370000F0E0CF01DF91CF911F910F910895CF93FA
:10371000DF93009709F481C0FC0132971382128273
:10372000A0910308B0910408109781F420813181A1
:10373000820F931F20910108309102082817390742
:1037400051F5F0930208E093010867C0ED0120E015
:1037500030E0CE17DF0740F44A815B819E014115BE
:103760005105F1F0EA01F5CFD383C2834081518145
:10377000840F951FC817D90759F488819981840F40
:10378000951F0296918380838A819B819383828394
:103790002115310529F4F0930408E09303083DC096
:1037A000E901FB83EA8349915991C40FD51FEC17B6
:1037B000FD0761F480819181840F951F0296E901D4
:1037C00099838883828193819B838A83E0E0F0E000
:1037D00012968D919C911397009719F0FD01DC01D1
:1037E000F7CF8D919C9111979D012E5F3F4F820FD6
:1037F000931F20910108309102082817390769F4B6
:10380000309729F4109204081092030802C0138222
:103810001282B0930208A0930108DF91CF9108951E
:103820006F927F928F929F92AF92BF92CF92DF92D0
:10383000EF92FF920F931F93CF93DF93009789F43A
:10384000CB01DF91CF911F910F91FF90EF90DF900F
:10385000CF90BF90AF909F908F907F906F900C947F
:10386000EF1AFC01E60FF71F9C0122503109E21705
:10387000F30708F4A9C0EC01D9010D911C9111972F
:1038800006171707B0F00530110508F49BC0C801F2
:1038900004978617970708F495C002501109061B74
:1038A000170B019311936D937C93CF010E94871B9B
:1038B00089C05B01A01AB10A4C01800E911EA09133
:1038C0000308B0910408612C712CE12CF12C1097A5
:1038D00009F446C08D919C911197A815B905B1F5D1
:1038E0006C0142E0C40ED11CCA14DB0478F14C0117
:1038F0008A189B08640142E0C40ED11C1296BC9049
:1039000012971396AC91B5E0CB16D10440F0B28279
:10391000A38391828082D9016D937C9309C00E5F4D
:103920001F4F800F911FF90191838083EB2DFA2F98
:10393000E114F10431F0D7011396FC93EE93129742
:1039400041C0F0930408E09303083CC06816790670
:1039500008F43C017D0112960D90BC91A02DB7CFCB
:10396000809101089091020888169906E1F4661684
:103970007706C8F48091090290910A02009741F4F9
:103980008DB79EB740910D0250910E02841B950B8E
:10399000E817F907C8F4F0930208E0930108F90169
:1039A000718360830FC0CB010E94EF1A7C010097E6
:1039B00059F0A801BE010E94FA1CCE010E94871B8B
:1039C000C70104C0CE0102C080E090E0DF91CF913A
:1039D0001F910F91FF90EF90DF90CF90BF90AF902D
:1039E0009F908F907F906F90089581E090E0F89481
:1039F0000C940A1DFB01DC0102C001900D924150A4
:103A00005040D8F70895FB01DC0101900D92002091
:103A1000E1F7089511E0CAEAD1E000E006C0802F86
:103A2000FE010E94AC1A2196011DCB3AD10780E01D
:083A30000807A9F7F894FFCF85
:103A3800FF030405060708090A0000050880002B93
:103A48002B2B2B2B00201D1C1A21363738391B1D18
:103A58001A1C00000000090EDC0D1408B00DD40D6E
:103A6800C00DB10D000000002802DE012B07E80898
:103A78005C073A074E070000000095072C08170856
:103A88004108080203000000000080082B16FDFF13
:103A98000000000000000000FDFF000095072C0852
:103AA80017084108D31600000000A108DE01140819
:103AB800130873746172740074657374006C6F6FAB
:103AC800700031003200626F75676572000D0A0080
:103AD80073746F700053746F702B00706573657228
:103AE80000626F75746F6E00636F756C6575720038
:103AF800726F754765004A61756E6500426C655561
:023B08000000BB
:00000001FF
