:100000000C9432020C9463020C9463020C9463020D
:100010000C9463020C9463020C9463020C946302CC
:100020000C9463020C94E0110C94E0110C94E01118
:100030000C9463020C9471080C9463020C94630298
:100040000C9463020C9459100C9463020C94630298
:100050000C9463020C9463020C9463020C942708C2
:100060000C9463020C94240E0C94FA0D0C9463020D
:100070000C9463020C9463020C9463020C9463026C
:100080000C9463020C9463020C9463020C9463025C
:100090000C9463020C9463020C9463020C94EA11B6
:1000A0000C9463020C9463020C9463020C9463023C
:1000B0000C9463020C9463020C9463020C94820E01
:1000C0000C9463020C9463020C9463020C94D00DA4
:1000D0000C94A60D0C9463020C947C0D0C94520DA0
:1000E0000C94630212041F0422042D043A043D04FC
:1000F000460449045004550460046004600460042C
:10010000600460046004E3035004960312049E0339
:10011000A103460404041F04AE030404B703C5038B
:10012000C5031204D3035504E3033D04ED030104A6
:100130000104010404040D0422046004600460044A
:10014000600460046004E3038703960399039E033D
:10015000A103A603A9031F04AE030404B703BE034F
:10016000BE03CC03D3035504DA033D04E603F603D0
:10017000F603F60304040D042204760779076807E2
:100180006C077207B0077D07810787078B078F070A
:10019000950799079D07B007A307A707AB07A00F0F
:1001A000A50FAA0FB40FBE0F3710C80FD00FD80F6E
:1001B000E20FEC0FF60F05100F1037101910231077
:1001C0002D100C9487070C94590B0C944B0B0C942A
:1001D00034110C942D040C9433110C94F60F0C94E0
:1001E000E40C0C94A3070C94D3030C9405100C940A
:1001F000D0040C94CF0C0C9418070C94D80F0C94CA
:10020000E40A0C9496020C948B070C94B0070C949F
:100210008F070C9419100C947D070C943D1B0C94C3
:10022000D00F0C94BE030C94280B0C9468070C940C
:10023000B7030C9404040C94AE030C9460040C9467
:10024000370B0C9466020C9423100C9472070C94D8
:100250003A040C9499030C94E20F0C945F110C94E3
:10026000CC030C94310D0C94BB020C9479070C94C4
:10027000A1030C9496030C94E51B0C94ED030C94D1
:1002800022040C9412040C94E3030C94F0130C94C9
:100290003D040C94C80F0C94A50F0C949E030C9471
:1002A000AA0F0C94A9030C94DA030C94E6030C94A3
:1002B000F6030C9443110C943A0C0C9455040C94D2
:1002C000A00F0C94EC0F0C9476070C9450040C9433
:1002D000A6030C94EB0B0C9401040C94C5030C9432
:1002E0008F110C94DA180C946C070C942D100C944C
:1002F0001F040C9437100C9449040C9459070C9467
:1003000057110C9465020C9481070C9495070C947A
:10031000A40B0C94BA0C0C94AB070C94BE0F0C9469
:100320000F100C94B40F0C9487030C9446040C9497
:100330000D040C9499070C94A7070C949D070200D8
:10034000002100240027002A002D00300033000186
:10035000010000040107010A010000220025002815
:10036000002B002E003100340002010000050108BE
:10037000010B01000020002300260029002C002F83
:100380000032000001000003010601090105050516
:1003900005070508080808020202020A0A080804FC
:1003A000040404010101010101010103030303032A
:1003B000030303040707070C0C0C0C0C0C0C0C02B9
:1003C00002020206060606060606060B0B0B0B0BC0
:1003D0000B0B0B01021020200808102040102040B9
:1003E00080020102010804020101020408102040F9
:1003F0008080402010080402018004020180402017
:10040000100804020108040201010204081020403F
:1004100080010204081020408000000A0B02090C31
:100420000D0E08070304010000000000000000009A
:1004300000000000000000000000000000000000BC
:100440000000000000121110000000000000000079
:10045000000000000000000000000000000000009C
:10046000DA18F01311241FBECFEFD1E2DEBFCDBFEB
:1004700000E00CBF12E0A0E0B2E0EAEAFFE300E037
:100480000BBF02C007900D92A63EB107D9F728E036
:10049000A6EEB2E001C01D92AB31B207E1F712E067
:1004A000C1E3D2E000E006C021970109802FFE01E0
:1004B0000E94551DC033D10780E00807A9F70E94AC
:1004C0002A140C94C31F0C940000089580E090E05F
:1004D0000895E0E0F0E01994FC01248131E03093CC
:1004E0007203209371031092700310926F0384853E
:1004F000682B83E793E00E948F1183E793E00C94CD
:100500001C130F931F93CF938C01C62F64600E941E
:100510006C026C2F6B7FC8010E946C0283EC90E030
:100520000197F1F7CF911F910F9108950F931F93AA
:10053000CF93DF938C01C62FD62FD07FD1606D2F44
:100540000E946C026D2FC8010E94810280E1C89F49
:10055000B0011124C62FC1606C2FC8010E946C022B
:100560006C2FC8010E94810281E090E0DF91CF9161
:100570001F910F910895CF93DF938AE792E00E9435
:100580004A0941E06FEF72E08BE996E00E943A0C75
:10059000EFEFF2E0C1E0D0E08191919181329340A0
:1005A00030F42196C930D105B9F7C0E0D0E0BE01E2
:1005B0000D2E000C880B990B0E94A20981E892E095
:1005C0000E9438092097A9F025977CF440E050E07C
:1005D00060E070E881E997E00E94400F40E050E061
:1005E00060E07FE38FE897E012C040E050E0BA019E
:1005F00004C040E050E060E07FE38FE897E00E94B5
:10060000400F40E050E060E07FEB81E997E0DF9150
:10061000CF910C94400F8EBD00000DB407FEFDCFAE
:100620008EB50895EF92FF920F931F93CF93DF93B0
:100630007C018B01EA01682F8FE20E94A213B701AF
:10064000FF0C880B990B0E94A209602F80E30E9487
:10065000A213B801110F880B990B0E94A2096C2FED
:1006600081E30E94A213BE01DD0F880B990B0E944B
:10067000A20981E892E0DF91CF911F910F91FF9045
:10068000EF900C94380940E050E060E070E081E0C9
:1006900090E00E94120340E050E0BA018FE897E03A
:1006A0000E94400F40E050E060E070E881E997E090
:1006B0000C94400FAF92BF92CF92DF92EF92FF92D5
:1006C0000F931F93CF93DF93CDB7DEB72F970FB65E
:1006D000F894DEBF0FBECDBF6C018FE0E82E82E044
:1006E000F82E01E010E0D601ED916D014E2FEE0FD6
:1006F000550B660B770BFA01F097EB34F10508F018
:10070000DFC08827EE58FF4F8F4F0C94551D1A827B
:1007100019821C821B821E830D8318870F831A8700
:1007200009871C870B871E870D87D8C01A8309830A
:1007300020C01A8219821C830B8332C01A8309835A
:1007400047C01A8309831C821B8231C01A83098324
:1007500066C01A8219821C821B825AC01A821982B0
:100760001C830B831E830D8318870F83B1C01A82ED
:1007700019821C821B821E821D825AC01A82198213
:100780001C821B821E830D831BC01A8309831C835A
:100790000B831E830D8327C01A8219821C821B8241
:1007A0001E830D8355C01A8309831C830B831E820D
:1007B0001D8230C01A8219821C821B821E821D82F9
:1007C00018861F8247C01A83098320C01A821982A3
:1007D0001C821B821E821D82A0CF1A8309831C8269
:1007E0001B821E821D8218861F8224C01A821982D3
:1007F0001C821B821E830D8318870F831A8709872B
:1008000069C01A82198210C01A8219821C830B8354
:100810001E830D8318861F8282CF1A8219821C8341
:100820000B832FC01A8309831C830B831E830D83C4
:1008300018870F831A8709871C870B874DC01A8278
:10084000198229C01A8309831C830B831E821D828F
:1008500018870F831A8709870AC01A8309831C83A4
:100860000B831E830D8318870F831A8619861C86B7
:100870001B8659CF1A8219821AC01A8309831C82D7
:100880001B821E830D8318870F8317C01A83098369
:1008900040CF1A8309831C830B831E830D8316C0EC
:1008A0001A8309831C830B8336CF1A8309831C8325
:1008B0000B831E830D8318861F821A86198631CFFB
:1008C0001A8219821C821B821E821D8218861F8238
:1008D0001A8619861C861B861E861D86F701B19016
:1008E0007F0161E08DE10E94A21361E080E20E943D
:1008F000A21361E085E20E94A21361E086E20E94F9
:10090000A21361E087E20E94A21360E08B2D0E9497
:10091000A213CE0101965C0196E1D5016C91B2E083
:10092000AB0EB11C892F9F870E94A2139F859F5FEA
:100930009D3199F761E070E080E090E00E94ED0762
:10094000E4E1EE16E2E0FE0609F0CDCE61E087E2DA
:100950002F960FB6F894DEBF0FBECDBFDF91CF91BB
:100960001F910F91FF90EF90DF90CF90BF90AF90CD
:100970000C94A213CF93DF93EC010E9443038EE209
:100980000E947913892B21F4CE010E945A03F7CFDC
:1009900068EE73E080E090E0DF91CF910C94ED077A
:1009A0002F923F924F925F926F927F928F929F927F
:1009B000AF92BF92CF92DF92EF92FF920F931F936D
:1009C000CF93DF93CDB7DEB764970FB6F894DEBF51
:1009D0000FBECDBF84E892E00E944A0961E0809199
:1009E00086060E94A2139E012F5F3F4F79015E0190
:1009F00035E1A30EB11C87018BE796E00E944E0EF5
:100A0000F801119211928F01EA15FB05A9F78701F0
:100A100075E0272E312C88248394912CFAE06F2ED8
:100A2000712C8BE796E00E944E0E0E94BE1180E46E
:100A30000E94B70A6C010E94BE1182E40E94B70AAC
:100A40002C010E94BE1184E40E94B70A4C145D047C
:100A50005CF484159505D4F48F35F1E09F07B4F06C
:100A6000F8019182808212C0C414D5047CF48C15E4
:100A70009D0564F48F35F1E09F0744F021E9C2162B
:100A800021E0D2061CF0F801318220828415950500
:100A900054F4C816D90654F48F3591403CF0F8014F
:100AA0007182608203C0F801118210820E5F1F4FB5
:100AB0000A151B0509F0B5CF00E010E08BE796E0C2
:100AC0000E944E0EF701819191917F01080F191F2D
:100AD000EA15FB0599F70D321105D1F054F40830F1
:100AE0001105E4F00B301105E4F00832110581F036
:100AF00015C00035110579F024F40233110541F0D9
:100B00000DC00A35110539F00436110521F006C073
:100B100002E010E008C003E010E005C000E010E0D3
:100B200002C001E010E00115110509F420C10E9486
:100B3000430360E0809186060E94A21341E050E0EA
:100B400061E070E081E090E00E94120382E090E0BA
:100B50000E941B0A68E572E080E090E00E94A20912
:100B600081E892E00E94380961E08CE00E94A213C3
:100B700060E08AE00E94A21367E5E62E62E0F62EAE
:100B80008BE796E00E944E0E61E08BE00E94A2137C
:100B900061E070E080E090E00E94ED0760E08BE0B3
:100BA0000E94A21361E070E080E090E00E94ED07F7
:100BB000F1E0EF1AF10821F70230110539F00330A6
:100BC000110511F0AAE503C0A4EB01C0A0E0B0E05C
:100BD0009091A107A91720F09091A2079A1728F4E5
:100BE0008CE892E00E944A0949C08091A7078C30A6
:100BF00008F044C025E0829FC0011124FC01E85D9B
:100C0000F94F5F01838128E830E06901C81AD108F3
:100C100087FDD394CC0CDD1CCC0CDD1C0D2C000C02
:100C2000EE08FF08848128E532E0281B310987FDA2
:100C30003395220F331F220F331FA901330F660B89
:100C4000770B9A01AB012C193D094E095F090E94EF
:100C5000FC1C24EB30E040E050E00E94D21CC20EAD
:100C6000D31EE41EF51EF6E0CF1AD108CC0CDD1C15
:100C70008FB7F894F501D282C1828FBF68EC70E023
:100C800080E090E00E94ED0781E090E00E941B0A66
:100C900068E572E080E090E00E94A20981E892E0BD
:100CA0000E94380960E08CE00E94A21387E5E82EDC
:100CB00082E0F82E8BE796E00E944E0E61E08BE01A
:100CC0000E94A21361E070E080E090E00E94ED07D6
:100CD00060E08BE00E94A21361E070E080E090E0B1
:100CE0000E94ED07F1E0EF1AF10821F761E08AE0D8
:100CF0000E94A2130230110569F003301105A1F022
:100D000080911303909114030196909314038093A0
:100D1000130313C0809111039091120301969093D5
:100D200012038093110309C080910F039091100367
:100D300001969093100380930F0380911303909179
:100D4000140304978CF5809111039091120304977A
:100D500094F580910F039091100304979CF540E067
:100D600050E061E070E080E090E00E94120360E0FB
:100D70008091860664960FB6F894DEBF0FBECDBF95
:100D8000DF91CF911F910F91FF90EF90DF90CF9067
:100D9000BF90AF909F908F907F906F905F904F909B
:100DA0003F902F900C94A2131092140310921303EF
:100DB00089EA92E00DC010921203109211038FEA9B
:100DC00092E006C01092100310920F0385EB92E0A0
:100DD0000E94BA04C4CF8AEB92E00E944A0940E024
:100DE00050E060E070E081E090E00E9412038EE24B
:100DF0000E947913892B29F48FEB92E00E945A0309
:100E0000F6CF85EC92E00E944A098EE20E947913A7
:100E10000197D9F362E370E080E090E00E94ED0773
:100E200040E050E061E070E080E090E00C9412035C
:100E30008BEC92E00E944A098EE20E94791301979E
:100E400079F40E9443038EE20E9479130197D9F34B
:100E500062E370E080E090E00E94ED070E94EB0604
:100E600060E08FE20C94A2133FB7F89480912203C4
:100E700090912303A0912403B091250326B5A89B4C
:100E800005C02F3F19F00196A11DB11D3FBFBA2F1C
:100E9000A92F982F8827820F911DA11DB11DBC017C
:100EA000CD0142E0660F771F881F991F4A95D1F741
:100EB00008950E94AE1F90E0FC013197E231F105E8
:100EC00008F04EC08827E354FF4F8F4F0C94551DF8
:100ED000809180008F7703C0809180008F7D809308
:100EE0008000089580918000877FF9CF84B58F7747
:100EF00002C084B58F7D84BD08958091B0008F7746
:100F000003C08091B0008F7D8093B00008958091E0
:100F100090008F7707C0809190008F7D03C08091F3
:100F20009000877F8093900008958091A0008F7734
:100F300007C08091A0008F7D03C08091A000877FB3
:100F40008093A0000895809120018F7707C0809141
:100F500020018F7D03C080912001877F8093200135
:100F60000895CF93DF9390E0FC01ED52FC4F249164
:100F7000FC01E357FC4F8491882361F190E0880FD6
:100F8000991FFC01E15CFC4FC591D491FC01E75A2B
:100F9000FC4FA591B491611109C09FB7F894888165
:100FA000209582238883EC912E230BC0623061F45C
:100FB0009FB7F8943881822F809583238883EC91A2
:100FC0002E2B2C939FBF06C08FB7F894E8812E2B51
:100FD00028838FBFDF91CF9108958F929F92AF9218
:100FE000BF92CF92DF92EF92FF926B017C010E9441
:100FF00034074B015C01C114D104E104F104F1F0A8
:101000000E943407DC01CB0188199909AA09BB09A0
:10101000883E9340A105B10570F321E0C21AD108C2
:10102000E108F10888EE880E83E0981EA11CB11C2F
:10103000C114D104E104F10419F7DDCFFF90EF9062
:10104000DF90CF90BF90AF909F908F9008951F92A8
:101050000F920FB60F9211242F933F938F939F936C
:10106000AF93BF938091150390911603A09117033E
:10107000B09118033091210323E0230F2D3720F482
:101080000196A11DB11D05C026E8230F0296A11DE2
:10109000B11D209321038093150390931603A09311
:1010A0001703B09318038091220390912303A0911A
:1010B0002403B09125030196A11DB11D8093220345
:1010C00090932303A0932403B0932503BF91AF9182
:1010D0009F918F913F912F910F900FBE0F901F9076
:1010E00018951F920F920FB60F9211240BB60F9204
:1010F0002F933F934F935F936F937F938F939F9320
:10110000AF93BF93EF93FF9380911C0390911D03C6
:10111000A0911E03B0911F03892B8A2B8B2B59F1B1
:1011200080911B03E0911903F0911A0390818927A4
:10113000808380911C0390911D03A0911E03B091A8
:101140001F03181619061A061B060CF056C08091CC
:101150001C0390911D03A0911E03B0911F030197E2
:10116000A109B10980931C0390931D03A0931E0352
:10117000B0931F0342C080910002EEE3F3E0E491DC
:101180009FEF90930002E230C9F050F4EE2399F003
:10119000E13081F590916F009D7F90936F002AC0A0
:1011A000E43019F1E0F0E53029F5909173009D7F6E
:1011B000909373001FC010926E001CC0909170003D
:1011C0009D7F9093700091E09093B0009091B1005A
:1011D000987F94609093B1001092B3000BC09091EF
:1011E00071009D7F9093710005C0909172009D7F6A
:1011F0009093720060E00E94A213FF91EF91BF9163
:10120000AF919F918F917F916F915F914F913F919E
:101210002F910F900BBE0F900FBE0F901F9018953F
:10122000E9EBF4E0A089B18982E08C93A485B585CF
:101230001C92A685B7858FEC8C93108EA489B589F6
:1012400086E08C93A289B3898C9180618C93A2896A
:10125000B3898C9188608C93A289B3898C918068C2
:101260008C930288F389E02D80818F7D808308959F
:10127000009769F0FC0101900020E9F73197AF0178
:10128000481B590BBC0189EB94E00C94E40A80E004
:1012900090E00895CF93DF930E943809EC0181E834
:1012A00092E00E9438098C0F9D1FDF91CF91089525
:1012B000EF92FF921F93CF93DF931F92CDB7DEB7CC
:1012C000162F96E7E92E97E0F92ED7011C969C91F0
:1012D0001C9721E020937203909371031092700386
:1012E00010926F031A960D90BC91A02DED91FC9178
:1012F00011970190F081E02D682FCD017983199528
:10130000F70182859385DC01ED91FC910190F081DC
:10131000E02D7981672F1995F70182859385DC018E
:10132000ED91FC910190F081E02D612F1995F7016D
:10133000828593850F90DF91CF911F91FF90EF9061
:101340000C941C138F929F92AF92BF92CF92DF9218
:10135000EF92FF920F931F93CF93DF93CDB7DEB73A
:10136000A1970FB6F894DEBF0FBECDBF6B017C0115
:1013700097FF31C0E091B904F091BA040190F08177
:10138000E02D6DE289EB94E019958C01222733273B
:10139000A9012C193D094E095F0919A2CE018196B8
:1013A0007C019AE0892E912CA12CB12CCA01B901A3
:1013B000A50194010E94041D605DF70162937F0105
:1013C000211531054105510589F7CF010E943809E2
:1013D000800F911F1DC09B01AC0119A28E010F5DF2
:1013E0001F4F8AE0C82ED12CE12CF12CCA01B90183
:1013F000A70196010E94041D605DF80162938F01B0
:10140000211531054105510589F7CF010E943809A1
:10141000A1960FB6F894DEBF0FBECDBFDF91CF917E
:101420001F910F91FF90EF90DF90CF90BF90AF9002
:101430009F908F9008958F929F92AF92BF92CF927C
:10144000DF92EF92FF92CF93DF93C2E3D0E04C01A3
:10145000092E000CAA08BB0824E130E06901C81A73
:10146000D90A0D2C000CEE08FF088BE796E00E94CD
:101470004E0E61E088E00E94A213C501B4010E94F3
:10148000ED0760E088E00E94A213C701B6010E9448
:10149000ED07219751F7DF91CF91FF90EF90DF900B
:1014A000CF90BF90AF909F908F90089591E09093D0
:1014B000720394E7909371031092700310926F037C
:1014C000682F83E793E00E948F1183E793E00E94E7
:1014D0001C1380914C038111FCCF81E080934C035D
:1014E00080934B039FEF90934A031092490310920D
:1014F00048038093470380914703886E8093470396
:1015000080914603813061F4109246038091470335
:101510008093BB008091BC0083FDF8CF85EC01C0B7
:1015200085EE8093BC0080914C038130E1F3809183
:101530004903811103C08091490301C081E0A6E203
:10154000B3E02FE433E0F9019E2F921B981718F4B3
:101550009D919193F9CF10924E0380934D03811189
:1015600001C0FFCF83E793E00E9443110895CF931A
:10157000DF93C82F0E94560AD82F81E08C0F0E945B
:10158000560A282F30E0922F88278D0F911DDF916A
:10159000CF910895CF93C82F81E08093720384E7A1
:1015A000809371031092700310926F0383E793E0AE
:1015B0000E948F116C2F83E793E00E948F1183E7C5
:1015C00093E0CF910C941C13CF92DF92EF92FF9295
:1015D0000F931F93CF93DF936C017A018B01C0E0CF
:1015E000D0E0CE15DF0589F0D8016D918D01D601CF
:1015F000ED91FC910190F081E02DC6011995892BA8
:1016000011F47E0102C02196ECCFC701DF91CF918A
:101610001F910F91FF90EF90DF90CF900895FC0104
:10162000A089B1898C91A689B78982FD0FC09C9150
:10163000818D8F5F8F73228D821749F0218DDF019D
:10164000A20FB11D5D969C93818F08958C91089592
:10165000FC01538D448D252F30E0842F90E0821BB8
:10166000930B541710F0CF96089501970895FC013D
:10167000918D828D981761F0828DDF01A80FB11DC9
:101680005D968C91928D9F5F9F73928F90E00895ED
:101690008FEF9FEF0895FC01918D828D981731F0A7
:1016A000828DE80FF11D858D90E008958FEF9FEFFB
:1016B0000895FC01918D228D892F90E0805C9F4FD1
:1016C000821B91098F73992708958FE793E00E94F9
:1016D000590B21E0892B09F420E0822F08958CE139
:1016E00094E00E94590B21E0892B09F420E0822F1D
:1016F000089589EB94E00E94590B21E0892B09F4AD
:1017000020E0822F0895FC01848DDF01A80FB11D18
:10171000A35ABF4F2C91848D90E001968F73992727
:10172000848FA689B7892C93A089B1898C91806414
:101730008C93938D848D981306C00288F389E02DD5
:1017400080818F7D80830895EF92FF920F931F9386
:10175000CF93DF93EC0181E0888F9B8D8C8D981364
:1017600005C0E889F989808185FD24C0F62E0B8D9E
:1017700010E00F5F1F4F0F731127E02E8C8DE812C2
:101780000CC00FB607FCFACFE889F989808185FF84
:10179000F5CFCE010E94830BF1CF8B8DFE01E80FB8
:1017A000F11DE35AFF4FF0820B8FEA89FB8980819C
:1017B000806207C0EE89FF896083E889F9898081AA
:1017C0008064808381E090E0DF91CF911F910F9141
:1017D000FF90EF900895CF93DF93EC01888D8823DD
:1017E000C9F0EA89FB89808185FD05C0A889B9898E
:1017F0008C9186FD0FC00FB607FCF5CF808185FF69
:10180000F2CFA889B9898C9185FFEDCFCE010E94D6
:10181000830BE7CFDF91CF91089580E090E0892B93
:1018200021F00E94790B811119C080E090E0892B92
:1018300041F080E090E0892B21F00E9400008111AE
:1018400010C00E946F0B81110FC080E090E0892BC7
:1018500081F00E94650B81110AC008950E9400006A
:10186000E4CF0E940000EDCF0E946902EECF0C94FD
:1018700000000895DF92EF92FF920F931F93CF9392
:10188000DF93CDB7DEB7EE970FB6F894DEBF0FBE8D
:10189000CDBF8C017B01D42E8FEF840FD801ED9149
:1018A000FC91823020F40480F581E02D05C04111C7
:1018B00005C00280F381E02DC8011995D801ED9192
:1018C000FC910084F185E02D20E041E0B701C801E2
:1018D0001995B5E0DB1609F43FC0D801ED91FC91F4
:1018E0000280F381E02DC8011995B2E0DB1234C00B
:1018F000D801ED91FC910084F185E02D20E041E0DC
:10190000BE016F5F7F4FC801199540E0D8011C965A
:101910008C91481708F5842F90E0880F991FF701E4
:10192000E80FF91F21E030E02C0F3D1F820F931FBD
:10193000D8011E962D913C911F97DC018D919C91B1
:10194000B901681B790BCB0120813181820F931F74
:10195000918380834F5FDACFEE960FB6F894DEBFA7
:101960000FBECDBFDF91CF911F910F91FF90EF90F0
:10197000DF900895CF93DF93FC0185858F3F61F061
:10198000EF0161E00E94B10761E08D850E94A21322
:101990008BE193E00197F1F7DF91CF910895CF9319
:1019A000DF93FC0185858F3F61F0EF0161E00E94CC
:1019B000B10760E08D850E94A2138BE193E001974F
:1019C000F1F7DF91CF910895EF92FF920F931F935C
:1019D000CF93DF931F92CDB7DEB77C018B01FC0163
:1019E0001382128215821482178216821186108643
:1019F000118A108A403218F08FE1848702C0FC01FE
:101A00004487F70182859385892B11F080E00DC012
:101A1000F701848590E029830E94981DF701938740
:101A200082872981892B91F714C0F7019485891742
:101A300078F4482F50E0F801E40FF51F9081F7018A
:101A400062857385FB01E40FF51F90838F5FEDCFF7
:101A500025870F90DF91CF911F910F91FF90EF900D
:101A600008950F931F93CF93DF93EC01122F202F34
:101A7000E881F9813697808191818C0F9D1F0E94AA
:101A8000E40C1A83E881F981369780819181C80F2F
:101A9000D91F8FEF93E09F878E87DF91CF911F91A2
:101AA0000F9108951F920F920FB60F9211240BB64B
:101AB0000F922F933F934F935F936F937F938F93E7
:101AC0009F93AF93BF93EF93FF938FE793E00E94B1
:101AD000830BFF91EF91BF91AF919F918F917F9178
:101AE0006F915F914F913F912F910F900BBE0F908F
:101AF0000FBE0F901F9018951F920F920FB60F9266
:101B000011240BB60F922F933F934F935F936F93D4
:101B10007F938F939F93AF93BF93EF93FF938FE741
:101B200093E00E940F0BFF91EF91BF91AF919F91B6
:101B30008F917F916F915F914F913F912F910F9076
:101B40000BBE0F900FBE0F901F9018951F920F9213
:101B50000FB60F9211240BB60F922F933F934F9312
:101B60005F936F937F938F939F93AF93BF93EF9305
:101B7000FF938CE194E00E94830BFF91EF91BF9162
:101B8000AF919F918F917F916F915F914F913F9115
:101B90002F910F900BBE0F900FBE0F901F901895B6
:101BA0001F920F920FB60F9211240BB60F922F9324
:101BB0003F934F935F936F937F938F939F93AF93D5
:101BC000BF93EF93FF938CE194E00E940F0BFF9182
:101BD000EF91BF91AF919F918F917F916F915F91A5
:101BE0004F913F912F910F900BBE0F900FBE0F9012
:101BF0001F9018951F920F920FB60F9211240BB6DB
:101C00000F922F933F934F935F936F937F938F9395
:101C10009F93AF93BF93EF93FF9389EB94E00E9460
:101C2000830BFF91EF91BF91AF919F918F917F9126
:101C30006F915F914F913F912F910F900BBE0F903D
:101C40000FBE0F901F9018951F920F920FB60F9214
:101C500011240BB60F922F933F934F935F936F9383
:101C60007F938F939F93AF93BF93EF93FF9389EBF2
:101C700094E00E940F0BFF91EF91BF91AF919F9164
:101C80008F917F916F915F914F913F912F910F9025
:101C90000BBE0F900FBE0F901F901895FC01808116
:101CA000882379F12FB7F89480911503909116034A
:101CB000A0911703B09118032FBF41815281638116
:101CC0007481841B950BA60BB70B458156816781E8
:101CD000708584179507A607B70798F02FB7F89473
:101CE0008091150390911603A0911703B0911803EA
:101CF0002FBF81839283A383B4830184F285E02D77
:101D0000199408951F920F920FB60F9211240BB6DB
:101D10000F922F933F934F935F936F937F938F9384
:101D20009F93AF93BF93EF93FF93809157050E94CA
:101D3000791320915B0530915C052F5F3F4F309305
:101D40005C0520935B0590915A05953618F096E056
:101D500090935605909156059430C9F128F492302D
:101D600069F09330D1F05EC0953009F451C09630DF
:101D700009F058C091E09093270651C0811152C0DC
:101D800020915B0530915C052436310508F442C092
:101D90001092270610925A051CC0813009F042C0EB
:101DA000E0915A0591E09E0F90935A05F0E0209142
:101DB0005B0530915C05EE0FFF1FEA5AFA4F308742
:101DC000278310925C0510925B0594E029C0811175
:101DD00017C0E0915A0591E09E0F90935A05F0E0EC
:101DE00020915B0530915C05EE0FFF1FEA5AFA4F18
:101DF0003087278310925C0510925B0593E010C03A
:101E000020915B0530915C052536310558F007C0FF
:101E1000811108C010925C0510925B0503C095E02B
:101E200090935605909159059923B9F081110AC0F4
:101E300080915805882321F08091580561E009C000
:101E40002F9A0BC080915805882331F08091580556
:101E500060E00E94A21301C02F98FF91EF91BF9103
:101E6000AF919F918F917F916F915F914F913F9132
:101E70002F910F900BBE0F900FBE0F901F901895D3
:101E80008F929F92AF92BF92CF92DF92EF92FF928A
:101E90000F931F93CF93DF93EC016A017B0120E046
:101EA00030E04FE753E4C701B6010E94141C4B0118
:101EB0005C0120E030E0A9010E94931D18161CF47B
:101EC000C501B40103C0C501B40190580E945D1D55
:101ED0008B0120E030E0A901C701B6010E94931DEB
:101EE000181614F460E001C061E089810E94A21319
:101EF0000F3F110509F014F4112702C00FEF10E095
:101F0000C88161E08C2F0E94B1070115110509F409
:101F1000B1C00F3F110509F4AFC0EC2FF0E0E75E50
:101F2000FB4FE4914E2F50E0FA013197E231F10579
:101F300008F09DC08827E153FF4F8F4F0C94551D2B
:101F400084B5806884BD07BDA7C084B5806284BDA8
:101F500008BDA2C0809180008068809380001093AB
:101F600089000093880098C08091800080628093EF
:101F7000800010938B0000938A008EC080918000B7
:101F800088608093800010938D0000938C0084C043
:101F90008091B00080688093B0000093B3007CC053
:101FA0008091B00080628093B0000093B40074C050
:101FB0008091900080688093900010939900009326
:101FC00098006AC080919000806280939000109386
:101FD0009B0000939A0060C080919000886080937D
:101FE000900010939D0000939C0056C08091A0002B
:101FF00080688093A0008091A0008F7B8093A000D8
:102000001093A9000093A80047C08091A0008062AF
:102010008093A0001093AB000093AA003DC0809174
:10202000A00088608093A0001093AD000093AC00E6
:1020300033C0809120018068809320011093290192
:102040000093280129C080912001806280932001A3
:1020500010932B0100932A011FC0809120018860FA
:102060008093200110932D0100932C0115C000389E
:10207000110514F460E001C061E08C2FDF91CF9175
:102080001F910F91FF90EF90DF90CF90BF90AF9096
:102090009F908F900C94A213DF91CF911F910F917D
:1020A000FF90EF90DF90CF90BF90AF909F908F9078
:1020B00008951F920F920FB60F9211240BB60F9234
:1020C0002F933F934F935F936F937F938F939F9340
:1020D000AF93BF93EF93FF938091AD0787FF05C048
:1020E000109285001092840016C02091AD07022E38
:1020F000000C330B8091640690E0281739075CF4DC
:102100003091AD0725E03203F0011124E85DF94F6D
:10211000808186FD15C08091AD078F5F8093AD07EC
:102120002091AD07022E000C330B8091640690E0E5
:102130002817390794F48091AD078C302CF10DC02D
:102140003091AD073203F0011124E85DF94F808131
:1021500060E08F730E94A213DECF80918400909183
:10216000850084349C4918F480E49CE905C0809182
:102170008400909185000496909389008093880054
:102180008FEF8093AD072AC0409184005091850065
:102190003091AD0725E03203F0011124E85DF94FDD
:1021A00081819281840F951F90938900809388008C
:1021B0003091AD073203F0011124E85DF94F8081C1
:1021C00086FF0CC03091AD073203F0011124E85DA9
:1021D000F94F808161E08F730E94A213FF91EF910C
:1021E000BF91AF919F918F917F916F915F914F912F
:1021F0003F912F910F900BBE0F900FBE0F901F902D
:10220000189585ED8093BC008091BC0084FDFCCFC7
:1022100010924C0308954091F007262F30E0240FD0
:10222000311D21323105DCF420914C032430C9F4F6
:10223000FC0180E090E0861758F43091F00721917E
:10224000DC01A253B84FA30FB11D2C930196F3CF1D
:102250008091F007680F6093F00780E0089581E0B7
:10226000089582E008950895E0914E0380914D0312
:10227000E81730F4F0E0E15BFC4F808190E00895D6
:102280008FEF9FEF089590914E0380914D03981723
:1022900050F4E92FF0E0E15BFC4F208130E09F5FDC
:1022A00090934E0302C02FEF3FEFC9010895809134
:1022B0004D0390E020914E03821B91090895CF9227
:1022C000DF92EF92FF920F931F93CF93DF937C01E6
:1022D000262F972F8A0180917203882391F0C62FB1
:1022E000D72F6E01C40ED51ECC15DD0571F0699196
:1022F000D701ED91FC910190F081E02DC701199576
:10230000F3CF642F822F0E940B11C801DF91CF9170
:102310001F910F91FF90EF90DF90CF900895CF9392
:10232000DF931F92CDB7DEB769832091720322231A
:10233000D1F020916F03203240F021E030E0FC0129
:102340003383228380E090E015C080917003E82FF2
:10235000F0E0E255F84F998190838F5F809370038E
:1023600080936F0305C061E0CE0101960E940B11BE
:1023700081E090E00F90DF91CF91089560E081E0DF
:102380000E94CA0A80E00E94560A8111FBCF08957C
:102390000F931F93CF93C82F8B016115704164F485
:1023A0006C2F802F0E94CA0A61E06C0F812FCF91A1
:1023B0001F910F910C94CA0ACF911F910F9108950C
:1023C0001F920F920FB60F9211240F900FBE0F9015
:1023D0001F9018951F920F920FB60F9211240BB6F3
:1023E0000F922F933F934F935F936F937F938F93AE
:1023F0009F93AF93BF93EF93FF938091B900887F32
:10240000803609F49CC068F5883209F45BC090F40A
:10241000803109F454C038F4882309F4F6C08830B8
:1024200009F44DC0F6C0883109F44CC0803209F47B
:102430005DC0EFC0803409F468C048F4803309F40B
:1024400055C0883309F0E5C080934A03D8C0803571
:1024500009F44FC0883509F45DC0883409F0D9C04B
:10246000D6C0883909F4C7C0A8F4883709F467C012
:1024700038F4883609F463C0803709F460C0C9C0F5
:10248000883809F4B8C0803909F45FC0803809F091
:10249000C0C05BC0803B09F486C038F4803A09F4C0
:1024A00066C0883A09F47FC0B4C0803C09F4A7C074
:1024B000883C09F4A4C0883B09F48AC0AAC0809172
:1024C000470310C09091490380914803981770F515
:1024D000E091490381E08E0F80934903F0E0EA5DCB
:1024E000FC4F80818093BB0085EC86C080934A03BB
:1024F0008EC0E091490381E08E0F80934903809163
:10250000BB00F0E0EA5DFC4F80839091490380912D
:1025100048036EC0E091490381E08E0F8093490328
:102520008091BB00F0E0EA5DFC4F808380914B031B
:1025300081116DC081E08093460384EA61C083E02D
:1025400080934C0310921408CFCF809114088032EE
:1025500008F051C0E091140881E08E0F80931408B8
:102560008091BB00F0E0EC50F84F8083BDCF85EC4C
:102570008093BC0010924C0380911408803230F498
:10258000E0911408F0E0EC50F84F108260911408CC
:1025900070E0E091F207F091F30784EF97E019956E
:1025A0001092140836C084E080934C031092F10717
:1025B0001092F007E091EE07F091EF0719958091E6
:1025C000F007811105C081E08093F0071092CE07DB
:1025D000E091F10781E08E0F8093F107F0E0E25384
:1025E000F84F80818093BB009091F1078091F007B4
:1025F000981708F479CF85E88093BC000AC085EC71
:102600008093BC0010924C0304C010924A030E94B5
:102610000111FF91EF91BF91AF919F918F917F91A8
:102620006F915F914F913F912F910F900BBE0F9043
:102630000FBE0F901F90189520916F03909171031A
:10264000213208F04AC080914C038111FCCF32E066
:1026500030934C0331E030934B033FEF30934A0308
:102660001092490320934803AEEAB7E046E253E0F4
:10267000FA013E2F341B321718F43D913193F9CFF4
:102680001092470320914703990F922B9093470391
:1026900090914603913061F4109246039091470364
:1026A0009093BB009091BC0093FDF8CF95EC01C0D6
:1026B00095EE9093BC0090914C039230E1F3909191
:1026C0004A039F3F79F080914A03803241F0809124
:1026D0004A03803331F084E005C081E003C082E02A
:1026E00001C083E01092700310926F031092720386
:1026F0000895CF93DF93282F30E0F901E75EFB4F79
:102700008491F901ED52FC4FD491F901E357FC4F4C
:10271000C491CC2391F081110E945B07EC2FF0E073
:10272000EE0FFF1FED58FC4FA591B491EC91ED23F6
:1027300081E090E021F480E002C080E090E0DF9151
:10274000CF9108951F93CF93DF93282F30E0F901A5
:10275000E75EFB4F8491F901ED52FC4FD491F901F2
:10276000E357FC4FC491CC23C9F0162F81110E946E
:102770005B07EC2FF0E0EE0FFF1FE75AFC4FA5912F
:10278000B4918FB7F894111105C09C91ED2FE0958D
:10279000E92302C0EC91ED2BEC938FBFDF91CF9139
:1027A0001F91089510924C0381E080934B03109287
:1027B000460361E084E10E94A21361E085E10E948A
:1027C000A213E9EBF0E080818E7F808380818D7F92
:1027D000808388E48093B80085E48093BC000895EA
:1027E00082E592E0909399068093980682E492E0C5
:1027F00090939C0680939B068091A5069091A606D7
:10280000009711F00E942D1E80919F069091A006C6
:10281000009711F00E942D1E8091A3069091A406AE
:10282000009711F00E942D1E80919D0690919E06AA
:10283000009711F00E942D1E8091A1069091A20692
:10284000009711F00E942D1E8091AD069091AE066A
:102850000C942D1ECF93DF9300D01F921F92CDB703
:10286000DEB7789484B5826084BD84B5816084BD10
:1028700085B5826085BD85B5816085BD80916E001E
:10288000816080936E00109281008091810082604F
:10289000809381008091810081608093810080918C
:1028A00080008160809380008091B100846080937B
:1028B000B1008091B00081608093B0008091910060
:1028C000826080939100809191008160809391005B
:1028D000809190008160809390008091A10082603F
:1028E0008093A1008091A10081608093A1008091DC
:1028F000A00081608093A00080912101826080937C
:10290000210180912101816080932101809120012A
:1029100081608093200180917A00846080937A00A6
:1029200080917A00826080937A0080917A00816041
:1029300080937A0080917A00806880937A00109268
:10294000C1000E94100961E0809177070E94B107E1
:1029500060E0809177070E94A21360E08091760783
:102960000E94B10783E793E09093810780938007EB
:1029700010924E0310924D031092700310926F0349
:102980000E94D21380E090E1A0E0B0E08093830742
:1029900090938407A0938507B09386078AE090E020
:1029A000A0E0B0E08093870790938807A093890701
:1029B000B0938A0780E090E0A0E0B0E480938B07BA
:1029C00090938C07A0938D07B0938E0760E070E121
:1029D00085E00E9458096FE979E380E00E94580978
:1029E00003E917E0A12CB12CC12CD12C52EC252EDF
:1029F00053E0352E6BEC862E67E0962E7BE8672E33
:102A00007724739496012A58384F2901D9011496D6
:102A10009C91149712968C91F501EA58F84F7F011A
:102A2000818F928F61E00E94B10761E0D7015A96D1
:102A30008C910E94B107F20190858681D8018C9318
:102A4000F701968F61E00E94B10760E0D7015E96C2
:102A50008C910E94B10761E0F80180810E94A2136D
:102A6000FFB6F89480912003811126C0F101849172
:102A7000E8E0F4E09491E82FF0E0EE0FFF1FE15C56
:102A8000FC4FA591B4918C91982321F461E085E3EA
:102A90000E94A21361E085E30E94B1078CB58061BA
:102AA0008CBD8CB580648CBD61E084E30E94B1076D
:102AB00061E083E30E94B107809120038F5F8093E0
:102AC0002003FFBEC4010197F1F760E0D8018C91AB
:102AD0000E94A21388E80E940B0383E00E940B036C
:102AE00061E0F80180810E94A213C4010197F1F70F
:102AF00060E0D8018C910E94A21388E90E940B0328
:102B000080E00E940B0380E00E940B0380E00E94A3
:102B10000B0380E00E940B0361E0F80180810E94BA
:102B2000A213C3010197F1F760E0D8018C910E94D4
:102B3000A21380EE0E940B0361E0F80180810E94E5
:102B4000A213F2E0AF0EB11C0E5F1F4FCA94CD2846
:102B500021F0CC24C394D12C55CF0BE917E024E00D
:102B6000F22EF00E60E0D8018D918D010E94B10728
:102B7000F012F8CFFAEAEF2EF7E0FF2E07EA17E09F
:102B8000A5E0AA2EBCE0CB2E82E0982E92E0B92ED2
:102B9000B00EF8013897D080F80180818C3008F0B1
:102BA00046C061E08D2D0E94B107D8018C91A89E8E
:102BB000F0011124E85DF94F9D2D9F732081207C49
:102BC000D22ED92AD082138214826C2D0E94351DF8
:102BD000BCE08B9FA001112420E030E0B901640F1C
:102BE000751FA69EF001A79EF00D1124E85DF94F18
:102BF000908196FD12C02F5F3F4F2C30310571F749
:102C000081110BC01092800090928100109285007B
:102C10001092840096BA90926F00D801EC91AE9E0B
:102C2000F0011124E85DF94F808180648083F80110
:102C30003297908132978081F70131978083F70135
:102C4000908360E00E94B10761E0D7018C910E94FF
:102C5000B10760E0F70180810E94A2130F5F1F4F50
:102C6000F2E0EF0EF11CB01294CFF8941092200114
:102C700009E00093210180E293E090932901809381
:102C80002801109225011092240112E01093730084
:102C900078941093560510925A058091570560E07C
:102CA0000E94B10740E050E0BA018FE897E00E942F
:102CB000400F40E050E060E070E881E997E00E945A
:102CC000400F0E94100982ED92E00E944A0961E0E3
:102CD0008FE20E94B10760E08FE20E94A21361E0E0
:102CE00080E30E94B10760E080E30E94A21361E0EC
:102CF00081E30E94B10760E081E30E94A21360E0DB
:102D00008EE20E94B10761E08AE00E94B10761E0B3
:102D10008AE00E94A21361E08CE00E94B10760E0AB
:102D20008CE00E94A21361E08BE00E94B10760E09A
:102D30008BE00E94A21361E086E10E94B10761E08E
:102D400087E10E94B10761E088E10E94B10761E07C
:102D500089E10E94B10761E08AE10E94B10761E068
:102D60008BE10E94B10761E08CE10E94B10761E054
:102D70008DE10E94B10761E080E20E94B10761E04D
:102D800085E20E94B10761E086E20E94B10761E03E
:102D900087E20E94B10761E088E00E94B10761E02C
:102DA0008DE10E94A21361E080E20E94A21361E023
:102DB00085E20E94A21361E086E20E94A21361E014
:102DC00087E20E94A2130E94EB0688ED92E00E9427
:102DD0004A094FEF50E060E070E080E090E00E9430
:102DE000120361E0809186060E94B10710924E03A3
:102DF00010924D031092700310926F030E94D21331
:102E000061E070E080E090E00E94ED0700938806AA
:102E10000093890610938A0685E080938B0666E00E
:102E200089E00E94CA0A8091890667E08F700E943B
:102E3000CA0A80918A0668E08F700E94CA0A80914F
:102E40008B0669E08F700E94CA0A80E098E0909338
:102E50008D0680938C0690938F0680938E069093B8
:102E600091068093900690939306809392066AE071
:102E700080E00E94CA0A80918C0690918D069F7115
:102E80006BE0892F0E94CA0A6EE0809190060E9432
:102E9000CA0A80919006909191069F716FE0892FE8
:102EA0000E94CA0A6CE080918E060E94CA0A809134
:102EB0008E0690918F069F716DE0892F0E94CA0A3D
:102EC00060E1809192060E94CA0A809192069091D8
:102ED00093069F7161E1892F0E94CA0A61E0809187
:102EE00086060E94A21362E070E080E090E00E94FB
:102EF000ED07E12CF12CC12CE0E1DE2E86010E194C
:102F00001F0917FF02C00F5F1F4F159507950E0D84
:102F10001F1D0E151F0509F43FC0B8018AE090E09F
:102F20000E94C811B8018CE090E00E94C811B8015D
:102F30008EE090E00E94C8110E94BE1180E40E94C1
:102F4000B70A97FD05C080E40E94B70A5C0102C081
:102F5000A12CB12C82E40E94B70A8A159B0524F0AB
:102F600082E40E94B70A5C0184E40E94B70A8A15D1
:102F70009B0524F084E40E94B70A5C0129EEA216A6
:102F800023E0B2063CF438EEA31633E0B30621F09A
:102F90007801B4CF6801B2CFE12CF12CC12C90E1C3
:102FA000D92E86010E191F0917FF02C00F5F1F4F90
:102FB000159507950E0D1F1D0E151F05A9F0B801DB
:102FC00080E190E00E94C8110E94BE1186E40E9438
:102FD000B70A893E43E094072CF4883E934021F0E1
:102FE0007801DFCF6801DDCF88E8282E83E1382E15
:102FF000812C912CA12CB12C612C712C66E0862D9A
:103000000E94CA0A67E08A2D0E94CA0A68E0882DD9
:103010000E94CA0A8AE00E94B70A8C01BC018AE0B9
:1030200090E00E94C811B8018CE090E00E94C811A5
:10303000B8018EE090E00E94C81154E0452E512C5A
:10304000C12CD12C00E010E0E12CF12C0E94BE112B
:1030500080E40E94B70AE80EF91E82E40E94B70AD3
:10306000080F191F84E40E94B70AC80ED91E81E018
:10307000481A510859F7F7FE03C093E0E90EF11C16
:10308000F594E794F594E79417FF02C00D5F1F4F86
:103090001595079515950795D7FE03C0A3E0CA0EB1
:1030A000D11CD594C794D594C7943E2D2F2DE016EE
:1030B000F10614F4302F212F832F922F97FF02C097
:1030C00080E090E08C159D050CF4C6015E2D4F2D1F
:1030D0000E151F0514F4502F412F252F342F2130AA
:1030E000B0E13B0714F020E030E1C216D3060CF447
:1030F0009601FC01E21BF30B9F012E163F0611F116
:103100008E159F0541F4FFE06F16710424F44FEF14
:10311000641A740A15C08017910741F45FE0A51680
:10312000B10424F48FEFA81AB80A0AC08C159D05C3
:1031300039F49FE0891691041CF4AFEF8A1A9A0AB9
:1031400019015CCF60E0809186060E94A21382EE96
:1031500092E00E944A090E94EB0684EE92E00E94EF
:103160004A0915E08BE796E00E944E0E80E796E054
:103170000E944E0E8DED92E00E944A09E4E1F2E0D9
:10318000DE011196812F01900D928A95E1F78091D1
:103190001303805D898380911103805D8B8380910F
:1031A0000F03805D8D83CE0101960E945A030E9419
:1031B0000D0CD8CF0F93109276031092750388EE02
:1031C00093E0A0E0B0E08093770390937803A0931E
:1031D0007903B0937A032EE132E0309374032093A5
:1031E0007303109282031092810380938303909360
:1031F0008403A0938503B093860320E332E03093E9
:10320000800320937F0345E351E050938C03409368
:103210008B0344E351E050938E0340938D0340E3CE
:1032200051E05093900340938F0341E351E050935A
:1032300092034093910342E351E0509394034093EF
:10324000930346E351E05093960340939503109205
:1032500098031092990310929A0310929B03109274
:103260001F0410921E048093200490932104A093C5
:103270002204B093230430931D0420931C0445EDD5
:1032800050E0509329044093280444ED50E05093BB
:103290002B0440932A0440ED50E050932D044093BA
:1032A0002C0441ED50E050932F0440932E0442ED46
:1032B00050E0509331044093300446ED50E0509379
:1032C0003304409332041092350410923604109265
:1032D0003704109238041092BC041092BB048093FF
:1032E000BD049093BE04A093BF04B093C004309378
:1032F000BA042093B90485EC90E09093C6048093BF
:10330000C50484EC90E09093C8048093C70480ECDB
:1033100090E09093CA048093C90481EC90E090936C
:10332000CC048093CB0482EC90E09093CE04809305
:10333000CD0486EC90E09093D0048093CF0410925B
:10334000D2041092D3041092D4041092D50486E3D0
:103350008093970787E38093980788E38093990782
:1033600089E380939A078BE180939B078DE180939B
:103370009C078AE180939D078CE180939E0784E0FF
:1033800080939F0787E08093A0071092A10784EBAA
:103390008093A20786E18093A30788E18093A40726
:1033A00087E18093A50789E18093A607E0916406F1
:1033B000EC3020F08FEF8093A70710C081E08E0FD4
:1033C00080936406E093A70725E0E29FF0011124B3
:1033D000E85DF94F88EB9BE092838183E09164067E
:1033E000EC3020F08FEF8093A80710C081E08E0FA3
:1033F00080936406E093A80785E0E89FF00111241C
:10340000E85DF94F88EB9BE0928381838CE08093A9
:10341000760784E28093770786E08093780785E0DB
:10342000809379078FE180937A078EE180937B0701
:1034300083E280937C0782E280937D0785E480931A
:103440007E0784E480937F0780E480938207109254
:103450008707109288071092890710928A071092A6
:103460008B0710928C0710928D0710928E07E8EB55
:10347000F6E08FEF9FEFDC01128213821482158237
:10348000168217821086118683879487A587B68750
:103490008787908BA18BB28B1286118210827396D4
:1034A00027E0E637F20741F78DE090E00E94981D93
:1034B000FC011382128282E792E09183808311865D
:1034C00087E2848384E1828784E083871486F09393
:1034D000B506E093B4061092B6061092B70685E2E0
:1034E00080935705109259051092AE061092AD06C2
:1034F0001092B0061092AF061092B2061092B1066A
:1035000061E070E080E090E00E94C51E009791F0BD
:103510009093AE068093AD061092B0061092AF065F
:103520002091B1063091B206232B09F09DC0FC0119
:1035300010829AC08091AD069091AE06009711F06E
:103540000E942D1E1092AE061092AD061092B20689
:103550001092B1061092B0061092AF0610929E061D
:1035600010929D061092A00610929F061092A2063D
:103570001092A1061092A4061092A3061092A6061D
:103580001092A50682E592E09093990680939806A2
:1035900084E692E090939C0680939B0602E024E0F0
:1035A00048E061E072E088E996E00E94310D8AE22D
:1035B00090E0909387068093860681E080937B0657
:1035C00010927C0610927D0610927E0610927F0665
:1035D00042E350E060E070E0409380065093810643
:1035E000609382067093830628E137E03093850666
:1035F00020938406809370061092710610927206D2
:10360000109273061092740644EF51E060E070E08F
:10361000409375065093760660937706709378060C
:1036200020ED34E030937A06209379068093650686
:10363000109266061092670610926806109269064C
:1036400084E690E0A0E0B0E080936A0690936B0679
:10365000A0936C06B0936D068BEB92E090936F068F
:1036600080936E060F9108951092B2061092B106E3
:1036700063E872E00E94BC1F71CFCF92DF92EF929D
:10368000FF920F931F93CF93DF93FC01EB016081B7
:10369000718166507109DB018D919C91DC01AE0F47
:1036A000BF1F1A968D919C911B97892B09F484C09A
:1036B000822FDB010D911C91D801AE0FBF1F1C960C
:1036C0009C91891748F4DE01A80FB11DA80FB11D08
:1036D0001D921C92840FEDCF50E08281581708F0A4
:1036E00046C0322FA081B18116978D919C918E0F8B
:1036F0009F1FDC011C966C913617B8F5032F10E064
:10370000DC011A968D919C911B97800F911FDC0113
:103710008C91863308F0865390917B00682F6870F7
:10372000977F962B90937B008770806480937C00BA
:1037300080917A00806480937A0080917A0086FD7F
:10374000FCCF809178006091790090E0962BD801B1
:10375000AA0FBB1FAC0FBD1F6D917C911197860FF7
:10376000971F8D939C93340FBDCF5F5FB6CFE080E2
:10377000F180B6E0EB1AF108D7018D919C91DC0144
:10378000AE0FBF1F1C968C912817B0F48E01020F4C
:10379000111D020F111D628170E06B01D594C79459
:1037A000D8018D919C918C0D9D1D0E94411DD801C9
:1037B0006D937C93240FE0CFDF91CF911F910F91F8
:1037C000FF90EF90DF90CF900895DC01ED91FC9198
:1037D0003E970190F081E02D8E0F9F1F0C943D1BB2
:1037E000990F0008550FAA0BE0E8FEEF1616170612
:1037F000E807F907C0F012161306E407F50798F07A
:10380000621B730B840B950B39F40A2661F0232B92
:10381000242B252B21F408950A2609F4A140A6950E
:103820008FEF811D811D08950E94271C0C94981C08
:103830000E948A1C38F00E94911C20F0952311F000
:103840000C94811C0C94871C11240C94CC1C0E9499
:10385000A91C70F3959FC1F3950F50E0551F629F0F
:10386000F001729FBB27F00DB11D639FAA27F00DD9
:10387000B11DAA1F649F6627B00DA11D661F829F00
:103880002227B00DA11D621F739FB00DA11D621FE5
:10389000839FA00D611D221F749F3327A00D611D02
:1038A000231F849F600D211D822F762F6A2F1124E4
:1038B0009F5750409AF0F1F088234AF0EE0FFF1F17
:1038C000BB1F661F771F881F91505040A9F79E3F6E
:1038D000510580F00C94811C0C94CC1C5F3FE4F3E8
:1038E000983ED4F3869577956795B795F795E795C4
:1038F0009F5FC1F7FE2B880F911D9695879597F9CD
:10390000089597F99F6780E870E060E008959FEF61
:1039100080EC089500240A94161617061806090666
:10392000089500240A941216130614060506089535
:10393000092E0394000C11F4882352F0BB0F40F4BD
:10394000BF2B11F460FF04C06F5F7F4F8F4F9F4FFD
:10395000089557FD9058440F551F59F05F3F71F07F
:103960004795880F97FB991F61F09F3F79F08795E6
:103970000895121613061406551FF2CF4695F1DF6F
:1039800008C0161617061806991FF1CF86957105FF
:10399000610508940895E894BB2766277727CB0133
:1039A00097F90895052E97FB1EF400940E94E91CD8
:1039B00057FD07D00E94041D07FC03D04EF40C9461
:1039C000E91C50954095309521953F4F4F4F5F4FE3
:1039D000089590958095709561957F4F8F4F9F4F7B
:1039E00008950E94261DA59F900DB49F900DA49F41
:1039F000800D911D11240895B7FF0C94F11C0E94B5
:103A0000F11C821B930B0895A1E21A2EAA1BBB1B6B
:103A1000FD010DC0AA1FBB1FEE1FFF1FA217B3079A
:103A2000E407F50720F0A21BB30BE40BF50B661FB0
:103A3000771F881F991F1A9469F760957095809574
:103A400090959B01AC01BD01CF010895A29FB001EB
:103A5000B39FC001A39F700D811D1124911DB29FC2
:103A6000700D811D1124911D0895991B79E004C0EA
:103A7000991F961708F0961B881F7A95C9F78095AD
:103A80000895AA1BBB1B51E107C0AA1FBB1FA617A5
:103A9000B70710F0A61BB70B881F991F5A95A9F7F7
:103AA00080959095BC01CD010895EE0FFF1F881FF2
:103AB0008BBF0790F691E02D19940E94641D6894C5
:103AC000B1110C94CC1C08950E94B11C88F09F5732
:103AD00098F0B92F9927B751B0F0E1F0660F771F32
:103AE000881F991F1AF0BA95C9F714C0B13091F028
:103AF0000E94CB1CB1E008950C94CB1C672F782F4B
:103B00008827B85F39F0B93FCCF3869577956795EC
:103B1000B395D9F73EF490958095709561957F4F58
:103B20008F4F9F4F08950E94F01B08F48FEF089568
:103B3000CF93DF938230910510F482E090E0E09122
:103B40001908F0911A0820E030E0C0E0D0E030978A
:103B500011F14081518148175907C0F048175907A2
:103B600061F482819381209719F09B838A832BC013
:103B700090931A088093190826C02115310519F071
:103B80004217530718F49A01BE01DF01EF010280CA
:103B9000F381E02DDCCF2115310509F1281B390B0C
:103BA0002430310590F412968D919C9113976115F4
:103BB000710521F0FB019383828304C090931A085E
:103BC00080931908FD01329644C0FD01E20FF31FF6
:103BD00081939193225031092D933C933AC02091C7
:103BE000170830911808232B41F420910B023091D3
:103BF0000C02309318082093170820910902309185
:103C00000A022115310541F42DB73EB740910D024E
:103C100050910E02241B350BE0911708F091180803
:103C2000E217F307A0F42E1B3F0B2817390778F093
:103C3000AC014E5F5F4F2417350748F04E0F5F1FF2
:103C400050931808409317088193919302C0E0E0C5
:103C5000F0E0CF01DF91CF9108950F931F93CF93A1
:103C6000DF93009709F48CC0FC0132971382128213
:103C70000091190810911A080115110581F420818D
:103C80003181820F931F209117083091180828174F
:103C9000390779F5F0931808E093170871C0D80137
:103CA00040E050E0AE17BF0750F412962D913C91C2
:103CB0001397AD012115310509F1D901F3CF9D010C
:103CC000DA013383228360817181860F971F821707
:103CD000930769F4EC0128813981260F371F2E5F85
:103CE0003F4F318320838A819B8193838283452B3D
:103CF00029F4F0931A08E093190842C01396FC9334
:103D0000EE931297ED01499159919E01240F351FB1
:103D1000E217F30771F480819181840F951F029659
:103D200011969C938E938281938113969C938E938C
:103D30001297E0E0F0E0D80112968D919C911397D4
:103D4000009719F0F8018C01F6CF8D919C919801A4
:103D50002E5F3F4F820F931F209117083091180854
:103D60002817390769F4309729F410921A0810922D
:103D7000190802C0138212821093180800931708C2
:103D8000DF91CF911F910F9108956F927F928F9243
:103D90009F92AF92BF92CF92DF92EF92FF920F93DA
:103DA0001F93CF93DF93EC01009789F4CB01DF9150
:103DB000CF911F910F91FF90EF90DF90CF90BF9028
:103DC000AF909F908F907F906F900C94981DFC0106
:103DD000E60FF71F9C0122503109E217F30708F4A0
:103DE000ACC0D9010D911C91119706171707B0F0BF
:103DF0000530110508F49FC0C8010497861797077E
:103E000008F499C002501109061B170B0193119376
:103E10006D937C93CF010E942D1E8DC05B01A01A73
:103E2000B10A4C01800E911EA0911908B0911A0898
:103E300040E050E0E12CF12C109709F44AC0A8159D
:103E4000B905D1F56D907C901197630182E0C80EA1
:103E5000D11CCA14DB0480F1A3014A195B096A0171
:103E600082E0C80ED11C1296BC9012971396AC91AA
:103E7000B5E0CB16D10440F0B282A38351834083D6
:103E8000D9016D937C930AC00E5F1F4FC301800F51
:103E9000911FF90191838083EB2DFA2FE114F10436
:103EA00031F0D7011396FC93EE93129744C0F09330
:103EB0001A08E09319083FC08D919C9111974817FB
:103EC000590708F4AC017D0112960D90BC91A02D0C
:103ED000B3CF809117089091180888159905E1F4DF
:103EE00046175707C8F48091090290910A0200977B
:103EF00041F48DB79EB740910D0250910E02841B84
:103F0000950BE817F907C8F4F0931808E093170821
:103F1000F901718360830FC0CB010E94981D7C0161
:103F2000009759F0A801BE010E94B31FCE010E9464
:103F30002D1EC70104C0CE0102C080E090E0DF91D9
:103F4000CF911F910F91FF90EF90DF90CF90BF9096
:103F5000AF909F908F907F906F90089581E090E058
:103F6000F8940C94C31FFB01DC0102C001900D9278
:103F700041505040D8F70895FB01DC0101900D92AB
:103F80000020E1F7089512E0C1E3D2E000E006C0AE
:103F9000802FFE010E94551D2196011DC233D107BD
:0A3FA00080E00807A9F7F894FFCFAE
:103FAA00FF393A3B3C3D3E3F4000001B0820001DC4
:103FBA00202526272B2B2B2B2B00000000008F11EE
:103FCA005F116602331157114311341100000000CA
:103FDA00A40BE40A280BEB0B590B370B4B0B000015
:103FEA0000003A0CCF0CBA0CE40C5907030000008D
:103FFA000000310D3D1BFDFF000000000000000025
:10400A00FDFF00003A0CCF0CBA0CE40CE51B0000D3
:10401A0000009602E40A66026502626F75676572BD
:10402A00000D0A00636F756C6575720053657276D0
:10403A006F20616E676C65206973206F7574206FDD
:10404A00662072616E67652100726F754765004A66
:10405A0061756E6500426C65550073746F7000532C
:10406A00746F702B00706573657200626F75746F80
:10407A006E0073746172740074657374006C6F6F90
:06408A007000310032005D
:00000001FF
