:100000000C9422020C9453020C9453020C9453024D
:100010000C9453020C9453020C9453020C9453020C
:100020000C9453020C94440F0C94440F0C94440F02
:100030000C9453020C94280B0C9453020C9453020E
:100040000C9453020C9436060C9453020C945302F5
:100050000C9453020C9453020C9453020C94DE0A39
:100060000C9453020C944D030C9498030C9453027B
:100070000C9453020C9453020C9453020C945302AC
:100080000C9453020C9453020C9453020C9453029C
:100090000C9453020C9453020C9453020C944E0F84
:1000A0000C9453020C9453020C9453020C9453027C
:1000B0000C9453020C9453020C9453020C945F045E
:1000C0000C9453020C9453020C9453020C94450C60
:1000D0000C941B0C0C9453020C94F10B0C94C70B56
:1000E0000C9453027D058205870591059B05140636
:1000F000A505AD05B505BF05C905D305E205EC05A8
:100100001406F60500060A06CD07DA07DD07E8073C
:10011000F507F807010804080B0810081B081B085E
:100120001B081B081B081B081B089E070B08510710
:10013000CD0759075C070108BF07DA076907BF0742
:10014000720780078007CD078E0710089E07F80703
:10015000A807BC07BC07BC07BF07C807DD071B080B
:100160001B081B081B081B081B089E07420751079A
:10017000540759075C0761076407DA076907BF0777
:1001800072077907790787078E0710089507F80720
:10019000A107B107B107B107BF07C807DD07F10E17
:1001A000F40EE30EE70EED0E2B0FF80EFC0E020F11
:1001B000060F0A0F100F140F180F2B0F1E0F220F10
:1001C000260F0C94EC050C94E70E0C94140F0C9471
:1001D000A5050C949B050C94180F0C94100F0C940F
:1001E0004C0E0C941E0F0C94A8070C94B1070C94A1
:1001F0002B0F0C9469070C94260F0C94ED0E0C94A5
:1002000061070C9414060C945B0E0C94020F0C9472
:100210000B080C94F6050C9479070C9495070C9434
:1002200000060C94F80E0C946F0E0C9487050C9439
:10023000E8070C94CA110C94F8070C9404080C9469
:10024000FC0E0C94F1020C94B5050C94C2020C94B3
:10025000A70E0C94DA070C947B160C9472070C947E
:10026000C6020C9459070C94C8070C94C9050C9449
:10027000F10E0C9409040C941B080C9478020C9455
:10028000AD050C94BF050C946E0A0C94C2030C943B
:1002900064070C9486020C94F5070C94770E0C946A
:1002A0004B0E0C949A080C9454070C94C8080C94A8
:1002B0009E070C9487070C94BF070C94220F0C9494
:1002C0000A060C9401080C947D050C94DD070C942F
:1002D0005C070C94C3020C94060F0C94A1070C94B9
:1002E00010080C9491050C94E30E0C9482050C9468
:1002F000BC070C9442070C940A0F0C9480070C94D2
:10030000E2050C9455020C94CD070C94F40E0C9459
:100310008E070C9464020C9451070C94D3050200D0
:10032000002100240027002A002D003000330001A6
:10033000010000040107010A010000220025002835
:10034000002B002E003100340002010000050108DE
:10035000010B01000020002300260029002C002FA3
:100360000032000001000003010601090105050536
:1003700005070508080808020202020A0A0808041C
:10038000040404010101010101010103030303034A
:10039000030303040707070C0C0C0C0C0C0C0C02D9
:1003A00002020206060606060606060B0B0B0B0BE0
:1003B0000B0B0B01021020200808102040102040D9
:1003C0008002010201080402010102040810204019
:1003D0008080402010080402018004020180402037
:1003E0001008040201080402010102040810204060
:1003F00080010204081020408000000A0B02090C52
:100400000D0E0807030401000000000000000000BA
:1004100000000000000000000000000000000000DC
:100420000000000000121110000000000000000099
:1004300000000000000000000000000000000000BC
:100440007B16CA1111241FBECFEFD1E2DEBFCDBF94
:1004500000E00CBF12E0A0E0B2E0E6E8F8E300E064
:100460000BBF02C007900D92AC36B107D9F727E059
:10047000ACE6B2E001C01D92AC37B207E1F712E082
:10048000C1E2D2E000E006C021970109802FFE0101
:100490000E94C319C032D10780E00807A9F70E9463
:1004A000D0110C94311C0C940000FC01538D448D30
:1004B000252F30E0842F90E0821B930B541710F00F
:1004C000CF96089501970895FC01918D828D98171C
:1004D00061F0828DDF01A80FB11D5D968C91928D28
:1004E0009F5F9F73928F90E008958FEF9FEF089525
:1004F000FC01918D828D981731F0828DE80FF11DEE
:10050000858D90E008958FEF9FEF0895FC01918D08
:10051000228D892F90E0805C9F4F821B91098F7301
:1005200099270895E0E0F0E0199480E090E0892BAD
:1005300021F00E94AF0A811119C080E090E0892B60
:1005400041F080E090E0892B21F00E9400008111B1
:1005500010C00E94A50A81110FC080E090E0892B95
:1005600081F00E949B0A81110AC008950E94000038
:10057000E4CF0E940000EDCF0E949202EECF0C94D7
:1005800000000895089580E090E008950895FC012A
:10059000248131E03093E9022093E8021092E702CF
:1005A0001092E6028485682B8AEE92E00E94A70EE4
:1005B0008AEE92E00C9480100F931F93CF938C01DE
:1005C000C62F64600E94C7026C2F6B7FC8010E9417
:1005D000C70283EC90E00197F1F7CF911F910F9143
:1005E00008950F931F93CF93DF938C01C62FD62FBF
:1005F000D07FD1606D2F0E94C7026D2FC8010E946D
:10060000DC0280E1C89FB0011124C62FC1606C2FAD
:10061000C8010E94C7026C2FC8010E94DC0281E061
:1006200090E0DF91CF911F910F910895CF93DF93C9
:10063000EC0161E088E20E940611BE010D2E000C63
:10064000880B990B0E94901160E088E20E940611CD
:1006500064E170E06C1B7D0B072E000C880B990B7E
:10066000DF91CF910C949011FC01A089B1898C91FC
:10067000A689B78982FD0FC09C91818D8F5F8F7392
:10068000228D821749F0218DDF01A20FB11D5D96E9
:100690009C93818F08958C9108951F920F920FB6AD
:1006A0000F9211240BB60F922F933F934F935F93AA
:1006B0006F937F938F939F93AF93BF93EF93FF932A
:1006C00080E394E00E943403FF91EF91BF91AF91DA
:1006D0009F918F917F916F915F914F913F912F915A
:1006E0000F900BBE0F900FBE0F901F901895FC013E
:1006F000848DDF01A80FB11DA35ABF4F2C91848DAB
:1007000090E001968F739927848FA689B7892C93DF
:10071000A089B1898C9180648C93938D848D98137A
:1007200006C00288F389E02D80818F7D8083089543
:100730001F920F920FB60F9211240BB60F922F93A8
:100740003F934F935F936F937F938F939F93AF9359
:10075000BF93EF93FF9380E394E00E947703FF91B0
:10076000EF91BF91AF919F918F917F916F915F9129
:100770004F913F912F910F900BBE0F900FBE0F9096
:100780001F901895EF92FF920F931F93CF93DF93D3
:10079000EC0181E0888F9B8D8C8D981305C0E889D2
:1007A000F989808185FD24C0F62E0B8D10E00F5F46
:1007B0001F4F0F731127E02E8C8DE8120CC00FB65F
:1007C00007FCFACFE889F989808185FFF5CFCE0152
:1007D0000E947703F1CF8B8DFE01E80FF11DE35AE4
:1007E000FF4FF0820B8FEA89FB898081806207C00E
:1007F000EE89FF896083E889F9898081806480833C
:1008000081E090E0DF91CF911F910F91FF90EF90E9
:100810000895CF93DF93EC01888D8823C9F0EA898E
:10082000FB89808185FD05C0A889B9898C9186FDE9
:100830000FC00FB607FCF5CF808185FFF2CFA889E6
:10084000B9898C9185FFEDCFCE010E947703E7CF68
:10085000DF91CF910895FC018081882379F12FB732
:10086000F89480918C0290918D02A0918E02B091AB
:100870008F022FBF4181528163817481841B950B4C
:10088000A60BB70B45815681678170858417950744
:10089000A607B70798F02FB7F89480918C02909133
:1008A0008D02A0918E02B0918F022FBF818392831F
:1008B000A383B4830184F285E02D199408951F92D7
:1008C0000F920FB60F9211240BB60F922F933F93F6
:1008D0004F935F936F937F938F939F93AF93BF9348
:1008E000EF93FF938091CE040E94DD102091D204FB
:1008F0003091D3042F5F3F4F3093D3042093D20421
:100900009091D104953618F096E09093CD04909193
:10091000CD049430C9F128F4923069F09330D1F0CD
:100920005EC0953009F451C0963009F058C091E08E
:1009300090939E0551C0811152C02091D2043091F4
:10094000D3042436310508F442C010929E0510925B
:10095000D1041CC0813009F042C0E091D10491E083
:100960009E0F9093D104F0E02091D2043091D304F3
:10097000EE0FFF1FE353FB4F308727831092D30402
:100980001092D20494E029C0811117C0E091D104E3
:1009900091E09E0F9093D104F0E02091D204309129
:1009A000D304EE0FFF1FE353FB4F308727831092D2
:1009B000D3041092D20493E010C02091D20430915D
:1009C000D3042536310558F007C0811108C01092B4
:1009D000D3041092D20403C095E09093CD0490917B
:1009E000D0049923B9F081110AC08091CF048823E3
:1009F00021F08091CF0461E009C02F9A0BC0809153
:100A0000CF04882331F08091CF0460E00E9406116A
:100A100001C02F98FF91EF91BF91AF919F918F915E
:100A20007F916F915F914F913F912F910F900BBEEE
:100A30000F900FBE0F901F9018958F929F92AF92BC
:100A4000BF92CF92DF92EF92FF920F931F93CF93BB
:100A5000DF93EC016A017B0120E030E04FE753E4D3
:100A6000C701B6010E94D7184B015C0120E030E0BD
:100A7000A9010E94011A18161CF4C501B40103C093
:100A8000C501B40190580E94CB198B0120E030E0E1
:100A9000A901C701B6010E94011A181614F460E0FA
:100AA00001C061E089810E9406110F3F110509F024
:100AB00014F4112702C00FEF10E0C88161E08C2F01
:100AC0000E9454110115110509F4B1C00F3F110521
:100AD00009F4AFC0EC2FF0E0E750FC4FE4914E2F4B
:100AE00050E0FA013197E231F10508F09DC0882706
:100AF000EE58FF4F8F4F0C94C31984B5806884BDA6
:100B000007BDA7C084B5806284BD08BDA2C0809126
:100B10008000806880938000109389000093880093
:100B200098C08091800080628093800010938B0039
:100B300000938A008EC0809180008860809380003E
:100B400010938D0000938C0084C08091B000806869
:100B50008093B0000093B3007CC08091B0008062AD
:100B60008093B0000093B40074C0809190008068BE
:100B70008093900010939900009398006AC0809130
:100B8000900080628093900010939B0000939A00E5
:100B900060C08091900088608093900010939D00C9
:100BA00000939C0056C08091A00080688093A000B4
:100BB0008091A0008F7B8093A0001093A9000093E8
:100BC000A80047C08091A00080628093A00010938D
:100BD000AB000093AA003DC08091A0008860809384
:100BE000A0001093AD000093AC0033C080912001B1
:100BF000806880932001109329010093280129C067
:100C00008091200180628093200110932B0100933A
:100C10002A011FC0809120018860809320011093D9
:100C20002D0100932C0115C00038110514F460E06B
:100C300001C061E08C2FDF91CF911F910F91FF9048
:100C4000EF90DF90CF90BF90AF909F908F900C94DB
:100C50000611DF91CF911F910F91FF90EF90DF90E0
:100C6000CF90BF90AF909F908F9008951F920F925A
:100C70000FB60F9211240BB60F922F933F934F9301
:100C80005F936F937F938F939F93AF93BF93EF93F4
:100C9000FF938091850287FF05C010928500109216
:100CA000840016C020918502022E000C330B809127
:100CB000DB0590E0281739075CF43091850225E0C8
:100CC0003203F0011124E156FA4F808186FD15C0F0
:100CD000809185028F5F8093850220918502022E8C
:100CE000000C330B8091DB0590E02817390794F452
:100CF000809185028C302CF10DC030918502320339
:100D0000F0011124E156FA4F808160E08F730E9458
:100D10000611DECF809184009091850084349C4937
:100D200018F480E49CE905C08091840090918500CE
:100D3000049690938900809388008FEF80938502BA
:100D40002AC040918400509185003091850225E0B1
:100D50003203F0011124E156FA4F81819281840F10
:100D6000951F90938900809388003091850232030B
:100D7000F0011124E156FA4F808186FF0CC03091BA
:100D800085023203F0011124E156FA4F808161E0BF
:100D90008F730E940611FF91EF91BF91AF919F91C8
:100DA0008F917F916F915F914F913F912F910F9014
:100DB0000BBE0F900FBE0F901F9018958EBD0000B8
:100DC0000DB407FEFDCF8EB508951F93CF93DF932B
:100DD0001F92CDB7DEB7162F682F87E049830E9498
:100DE0000611612F88E00E9406114981642F89E075
:100DF0000F90DF91CF911F910C94061140E050E0CD
:100E000060E070E081E090E00E94E50640E050E0A4
:100E1000BA0181EF96E00E941D0540E050E060E0DD
:100E200070E883EF96E00C941D05AF92BF92CF92CD
:100E3000DF92EF92FF920F931F93CF93DF93CDB783
:100E4000DEB72F970FB6F894DEBF0FBECDBF6C0193
:100E500087E0E82E82E0F82E01E010E0D601ED9167
:100E60006D014E2FEE0F550B660B770BFA01F097C5
:100E7000EB34F10508F0DFC08827EC57FF4F8F4FA8
:100E80000C94C3191A8219821C821B821E830D8343
:100E900018870F831A8709871C870B871E870D8782
:100EA000D8C01A83098320C01A8219821C830B833D
:100EB00032C01A83098347C01A8309831C821B82AC
:100EC00031C01A83098366C01A8219821C821B8270
:100ED0005AC01A8219821C830B831E830D831887C4
:100EE0000F83B1C01A8219821C821B821E821D824E
:100EF0005AC01A8219821C821B821E830D831BC05A
:100F00001A8309831C830B831E830D8327C01A82D7
:100F100019821C821B821E830D8355C01A8309838C
:100F20001C830B831E821D8230C01A8219821C8290
:100F30001B821E821D8218861F8247C01A83098366
:100F400020C01A8219821C821B821E821D82A0CFA1
:100F50001A8309831C821B821E821D8218861F82AF
:100F600024C01A8219821C821B821E830D8318875B
:100F70000F831A87098769C01A82198210C01A82E2
:100F800019821C830B831E830D8318861F8282CFD8
:100F90001A8219821C830B832FC01A8309831C8336
:100FA0000B831E830D8318870F831A8709871C877D
:100FB0000B874DC01A82198229C01A8309831C83AA
:100FC0000B831E821D8218870F831A8709870AC028
:100FD0001A8309831C830B831E830D8318870F8359
:100FE0001A8619861C861B8659CF1A8219821AC046
:100FF0001A8309831C821B821E830D8318870F832B
:1010000017C01A83098340CF1A8309831C830B837B
:101010001E830D8316C01A8309831C830B8336CF6E
:101020001A8309831C830B831E830D8318861F82FA
:101030001A86198631CF1A8219821C821B821E825F
:101040001D8218861F821A8619861C861B861E869C
:101050001D86F701B1907F0161E08DE10E940611CC
:1010600061E08EE10E94061161E08FE10E940611AD
:1010700061E080E20E94061161E081E20E940611B7
:1010800060E08B2D0E940611CE0101965C0196E175
:10109000D5016C91B2E0AB0EB11C892F9F870E94E5
:1010A00006119F859F5F9D3199F761E070E080E0B8
:1010B00090E00E949011ECE0EE16E2E0FE0609F0EE
:1010C000CDCE61E081E22F960FB6F894DEBF0FBE61
:1010D000CDBFDF91CF911F910F91FF90EF90DF90E7
:1010E000CF90BF90AF900C94061140E050E060E0CC
:1010F00070E081E090E00E94E50685E20E94DD104C
:10110000892B29F482E492E00E941507F6CF85E24C
:101110000E94DD100197D9F362E370E080E090E077
:101120000E94901140E050E061E070E080E090E0CB
:101130000C94E50685E20E94DD10019779F485E2C2
:101140000E94DD100197D9F30E94FE0662E370E071
:1011500080E090E00E9490110E94750860E087E0B6
:101160000C940611CF93DF93EC010E94FE0685E2FA
:101170000E94DD10892B21F4CE010E941507F7CFC4
:1011800068EE73E080E090E0DF91CF910C949011D5
:101190002F923F924F925F926F927F928F929F9287
:1011A000AF92BF92CF92DF92EF92FF920F931F9375
:1011B000CF93DF93CDB7DEB764970FB6F894DEBF59
:1011C0000FBECDBFCE0101967C012E0195E1490EE7
:1011D000511CF70111921192E415F505D9F7870119
:1011E00045E0242E312C88248394912C6AE0662ECD
:1011F000712C0E94C50D80E40E94980D6C010E9424
:10120000C50D82E40E94980D5C010E94C50D84E426
:101210000E94980DAC14BD045CF48A159B05D4F4AF
:101220008F35E1E09E07B4F0F8019182808212C010
:10123000CA14DB047CF48C159D0564F48F35F1E051
:101240009F0744F021E9C21621E0D2061CF0F80104
:10125000318220828A159B0554F4C816D90654F4AD
:101260008F3591403CF0F8017182608203C0F80133
:10127000118210820E5F1F4F0415150509F0B9CFBA
:1012800080E090E0F701219131917F01820F931F5F
:10129000E415F505B9F78D329105C1F04CF48830AD
:1012A0009105D4F08B309105D4F0889779F014C073
:1012B0008035910571F01CF4C29741F00DC08A355C
:1012C000910539F08436910521F006C002E010E066
:1012D00008C003E010E005C000E010E002C001E03B
:1012E00010E00115110509F4E0C00E94FE0641E07E
:1012F00050E061E070E081E090E00E94E50632E3BA
:10130000E32EF12C82E090E00E941603F1E0EF1A48
:10131000F108C1F760E273E080E090E00E94180DF0
:1013200061E08BE00E94061160E08AE00E940611F5
:101330002FE1E22E23E0F22E61E08CE00E94061104
:1013400061E070E080E090E00E94901160E08CE04D
:101350000E94061161E070E080E090E00E94901130
:1013600021E0E21AF10841F792E3E92EF12C81E045
:1013700090E00E94160381E0E81AF108C1F760E2EC
:1013800073E080E090E00E94180D60E08BE00E9426
:1013900006118FE1E82E83E0F82E61E08CE00E94D8
:1013A000061161E070E080E090E00E94901160E042
:1013B0008CE00E94061161E070E080E090E00E9405
:1013C000901191E0E91AF10841F761E08AE00E948A
:1013D00006110230110569F003301105A1F080916A
:1013E0008A0290918B02019690938B0280938A02DD
:1013F00013C080918802909189020196909389028E
:101400008093880209C0809186029091870201969C
:10141000909387028093860280918A0290918B023A
:10142000039764F5809188029091890203976CF587
:101430008091860290918702039774F540E050E016
:1014400061E070E080E090E064960FB6F894DEBF53
:101450000FBECDBFDF91CF911F910F91FF90EF9005
:10146000DF90CF90BF90AF909F908F907F906F90C4
:101470005F904F903F902F900C94E50610928B0256
:1014800010928A0288E492E00DC0109289021092B4
:1014900088028EE492E006C01092870210928602C3
:1014A00084E592E00E94B208C9CF64960FB6F89422
:1014B000DEBF0FBECDBFDF91CF911F910F91FF9087
:1014C000EF90DF90CF90BF90AF909F908F907F90E4
:1014D0006F905F904F903F902F900895CF92DF9242
:1014E000EF92FF920F931F93CF93DF936C017A01DA
:1014F0008B01C0E0D0E0CE15DF0589F0D8016D91F9
:101500008D01D601ED91FC910190F081E02DC60195
:101510001995892B11F47E0102C02196ECCFC701E9
:10152000DF91CF911F910F91FF90EF90DF90CF90BF
:1015300008950E941C1C86EF92E00E94860221E022
:10154000892B09F420E0822F089583E993E00E941B
:10155000860221E0892B09F420E0822F089580E3A0
:1015600094E00E94860221E0892B09F420E0822F7A
:1015700008953FB7F8948091990290919A02A091B2
:101580009B02B0919C0226B5A89B05C02F3F19F085
:101590000196A11DB11D3FBFBA2FA92F982F8827F3
:1015A000820F911DA11DB11DBC01CD0142E0660F4E
:1015B000771F881F991F4A95D1F708951F920F92A0
:1015C0000FB60F9211242F933F938F939F93AF9356
:1015D000BF9380918C0290918D02A0918E02B09168
:1015E0008F023091980223E0230F2D3720F40196CB
:1015F000A11DB11D05C026E8230F0296A11DB11D36
:101600002093980280938C0290938D02A0938E0277
:10161000B0938F028091990290919A02A0919B02BF
:10162000B0919C020196A11DB11D809399029093E7
:101630009A02A0939B02B0939C02BF91AF919F919D
:101640008F913F912F910F900FBE0F901F90189583
:101650001F920F920FB60F9211240BB60F922F9379
:101660003F934F935F936F937F938F939F93AF932A
:10167000BF93EF93FF938091930290919402A09176
:101680009502B0919602892B8A2B8B2B59F1809170
:101690009202E0919002F0919102908189278083DB
:1016A0008091930290919402A0919502B09196023C
:1016B000181619061A061B060CF056C080919302E4
:1016C00090919402A0919502B09196020197A10980
:1016D000B1098093930290939402A0939502B093E2
:1016E000960242C080910002EEE1F3E0E4919FEFA8
:1016F00090930002E230C9F050F4EE2399F0E1300B
:1017000081F590916F009D7F90936F002AC0E43027
:1017100019F1E0F0E53029F5909173009D7F9093E9
:1017200073001FC010926E001CC0909170009D7FCE
:101730009093700091E09093B0009091B100987FE9
:1017400094609093B1001092B3000BC0909171001F
:101750009D7F9093710005C0909172009D7F909342
:10176000720060E00E940611FF91EF91BF91AF916E
:101770009F918F917F916F915F914F913F912F91A9
:101780000F900BBE0F900FBE0F901F9018951F92D9
:101790000F920FB60F9211240BB60F922F933F9317
:1017A0004F935F936F937F938F939F93AF93BF9369
:1017B000EF93FF9386EF92E00E947703FF91EF9102
:1017C000BF91AF919F918F917F916F915F914F9159
:1017D0003F912F910F900BBE0F900FBE0F901F9057
:1017E00018951F920F920FB60F9211240BB60F92FD
:1017F0002F933F934F935F936F937F938F939F9319
:10180000AF93BF93EF93FF9386EF92E00E94340370
:10181000FF91EF91BF91AF919F918F917F916F91C8
:101820005F914F913F912F910F900BBE0F900FBE84
:101830000F901F9018951F920F920FB60F921124C0
:101840000BB60F922F933F934F935F936F937F93BA
:101850008F939F93AF93BF93EF93FF9383E993E0AD
:101860000E947703FF91EF91BF91AF919F918F916C
:101870007F916F915F914F913F912F910F900BBE90
:101880000F900FBE0F901F9018951F920F920FB6DA
:101890000F9211240BB60F922F933F934F935F93A8
:1018A0006F937F938F939F93AF93BF93EF93FF9328
:1018B00083E993E00E943403FF91EF91BF91AF91D0
:1018C0009F918F917F916F915F914F913F912F9158
:1018D0000F900BBE0F900FBE0F901F9018950097A2
:1018E00069F0FC0101900020E9F73197AF01481B36
:1018F000590BBC0180E394E00C946E0A80E090E008
:10190000089591E09093E90294E79093E802109291
:10191000E7021092E602682F8AEE92E00E94A70E7C
:101920008AEE92E00E9480108091C3028111FCCF68
:1019300081E08093C3028093C2029FEF9093C10223
:101940001092C0021092BF028093BE028091BE022C
:10195000886E8093BE028091BD02813061F4109246
:10196000BD028091BE028093BB008091BC0083FDCC
:10197000F8CF85EC01C085EE8093BC008091C30256
:101980008130E1F38091C002811103C08091C002D7
:1019900001C081E0ADE9B2E026EC32E0F9019E2F12
:1019A000921B981718F49D919193F9CF1092C5024C
:1019B0008093C402811101C0FFCF8AEE92E00E94A1
:1019C0005B0E0895E0E3F4E0A089B18982E08C9396
:1019D000A485B5851C92A685B7858FEC8C93108E57
:1019E000A489B58986E08C93A289B3898C918061A2
:1019F0008C93A289B3898C9188608C93A289B389D6
:101A00008C9180688C930288F389E02D80818F7D92
:101A100080830895CF93DF930E946F0CEC0188E6DA
:101A200092E00E946F0C8C0F9D1FDF91CF91089563
:101A30008F929F92AF92BF92CF92DF92EF92FF92DE
:101A40000F931F93CF93DF93CDB7DEB7A1970FB658
:101A5000F894DEBF0FBECDBF6B017C0197FF31C094
:101A6000E0913004F09131040190F081E02D6DE2BD
:101A700080E394E019958C0122273327A9012C19C2
:101A80003D094E095F0919A2CE0181967C019AE0B9
:101A9000892E912CA12CB12CCA01B901A501940168
:101AA0000E949519605DF70162937F012115310550
:101AB0004105510589F7CF010E946F0C080F191FCE
:101AC0001EC09B01AC0119A28E010F5D1F4F8AE061
:101AD000C82ED12CE12CF12CCA01B901A701960125
:101AE0000E949519605DF80162938F0121153105FF
:101AF0004105510589F7CF010E946F0C8C0188E6E2
:101B000092E00E946F0C800F911FA1960FB6F8947F
:101B1000DEBF0FBECDBFDF91CF911F910F91FF9020
:101B2000EF90DF90CF90BF90AF909F908F900895EF
:101B3000CF93DF93C82F0E94810CD82F81E08C0FA8
:101B40000E94810C282F30E0922F88278D0F911D45
:101B5000DF91CF910895CF93C82F81E08093E90260
:101B600084E78093E8021092E7021092E6028AEE80
:101B700092E00E94A70E6C2F8AEE92E00E94A70EC0
:101B80008AEE92E0CF910C94801060E081E00E9498
:101B9000AB0D80E00E94810C8111FBCF0895EF9284
:101BA000FF921F93CF93DF931F92CDB7DEB7162F0F
:101BB00098EDE92E96E0F92ED7011C969C911C9782
:101BC00021E02093E9029093E8021092E70210923C
:101BD000E6021A960D90BC91A02DED91FC91119703
:101BE0000190F081E02D682FCD0179831995F701DF
:101BF00082859385DC01ED91FC910190F081E02DCF
:101C00007981672F1995F70182859385DC01ED9124
:101C1000FC910190F081E02D612F1995F7018285EB
:101C200093850F90DF91CF911F91FF90EF900C94CF
:101C3000801085ED8093BC008091BC0084FDFCCFBA
:101C40001092C302089540915107262F30E0240FCF
:101C5000311D21323105DCF42091C3022430C9F456
:101C6000FC0180E090E0861758F4309151072191F3
:101C7000DC01A15DB84FA30FB11D2C930196F3CFEA
:101C800080915107680F6093510780E0089581E0CB
:101C9000089582E008950895E091C5028091C402FC
:101CA000E81730F4F0E0EA53FD4F808190E00895AA
:101CB0008FEF9FEF08959091C5028091C40298170D
:101CC00050F4E92FF0E0EA53FD4F208130E09F5FB0
:101CD0009093C50202C02FEF3FEFC9010895809194
:101CE000C40290E02091C502821B91090895CF9211
:101CF000DF92EF92FF920F931F93CF93DF937C01BC
:101D0000262F972F8A018091E902882391F0C62F10
:101D1000D72F6E01C40ED51ECC15DD0571F069916B
:101D2000D701ED91FC910190F081E02DC70119954B
:101D3000F3CF642F822F0E94230EC801DF91CF9131
:101D40001F910F91FF90EF90DF90CF900895CF9368
:101D5000DF931F92CDB7DEB769832091E90222237A
:101D6000D1F02091E602203240F021E030E0FC0189
:101D70003383228380E090E015C08091E702E82F52
:101D8000F0E0E15FF84F998190838F5F8093E702E5
:101D90008093E60205C061E0CE0101960E94230E09
:101DA00081E090E00F90DF91CF91089590E0FC01E9
:101DB0003197E231F10508F04EC08827E153FF4F1B
:101DC0008F4F0C94C319809180008F7703C080914E
:101DD00080008F7D80938000089580918000877FB0
:101DE000F9CF84B58F7702C084B58F7D84BD089507
:101DF0008091B0008F7703C08091B0008F7D809379
:101E0000B0000895809190008F7707C08091900076
:101E10008F7D03C080919000877F8093900008950C
:101E20008091A0008F7707C08091A0008F7D03C0B4
:101E30008091A000877F8093A00008958091200169
:101E40008F7707C0809120018F7D03C08091200192
:101E5000877F8093200108950F931F93CF93C82FFE
:101E60008B016115704164F46C2F802F0E94AB0DC3
:101E700061E06C0F812FCF911F910F910C94AB0DEE
:101E8000CF911F910F9108951F920F920FB60F924D
:101E900011240F900FBE0F901F9018951F920F9254
:101EA0000FB60F9211240BB60F922F933F934F93BF
:101EB0005F936F937F938F939F93AF93BF93EF93B2
:101EC000FF938091B900887F803609F49CC068F543
:101ED000883209F45BC090F4803109F454C038F4BE
:101EE000882309F4F6C0883009F44DC0F6C0883163
:101EF00009F44CC0803209F45DC0EFC0803409F4AD
:101F000068C048F4803309F455C0883309F0E5C04F
:101F10008093C102D8C0803509F44FC0883509F4D8
:101F20005DC0883409F0D9C0D6C0883909F4C7C06B
:101F3000A8F4883709F467C038F4883609F463C018
:101F4000803709F460C0C9C0883809F4B8C0803946
:101F500009F45FC0803809F0C0C05BC0803B09F461
:101F600086C038F4803A09F466C0883A09F47FC024
:101F7000B4C0803C09F4A7C0883C09F4A4C0883BE5
:101F800009F48AC0AAC08091BE0210C09091C0021C
:101F90008091BF02981770F5E091C00281E08E0F2A
:101FA0008093C002F0E0E356FD4F80818093BB0038
:101FB00085EC86C08093C1028EC0E091C00281E0B2
:101FC0008E0F8093C0028091BB00F0E0E356FD4F7E
:101FD00080839091C0028091BF026EC0E091C002E8
:101FE00081E08E0F8093C0028091BB00F0E0E35649
:101FF000FD4F80838091C20281116DC081E080938A
:10200000BD0284EA61C083E08093C3021092750729
:10201000CFCF80917507803208F051C0E0917507ED
:1020200081E08E0F809375078091BB00F0E0EB5A42
:10203000F84F8083BDCF85EC8093BC001092C30223
:1020400080917507803230F4E0917507F0E0EB5A2B
:10205000F84F10826091750770E0E0915307F0919E
:10206000540785E597E019951092750736C084E00E
:102070008093C3021092520710925107E0914F07CC
:10208000F0915007199580915107811105C081E0A9
:102090008093510710922F07E091520781E08E0F35
:1020A00080935207F0E0E15DF84F80818093BB00A0
:1020B0009091520780915107981708F479CF85E8DD
:1020C0008093BC000AC085EC8093BC001092C302D0
:1020D00004C01092C1020E94190EFF91EF91BF91AE
:1020E000AF919F918F917F916F915F914F913F91B0
:1020F0002F910F900BBE0F900FBE0F901F90189551
:102100002091E6029091E802213208F04AC08091C5
:10211000C3028111FCCF32E03093C30231E030932F
:10212000C2023FEF3093C1021092C0022093BF025F
:10213000AFE0B7E04DE952E0FA013E2F341B321711
:1021400018F43D913193F9CF1092BE022091BE0256
:10215000990F922B9093BE029091BD02913061F441
:102160001092BD029091BE029093BB009091BC0072
:1021700093FDF8CF95EC01C095EE9093BC00909143
:10218000C3029230E1F39091C1029F3F79F08091B8
:10219000C102803241F08091C102803331F084E08D
:1021A00005C081E003C082E001C083E01092E70235
:1021B0001092E6021092E9020895CF93DF93282F40
:1021C00030E0F901E750FC4F8491F901ED54FC4FE8
:1021D000D491F901E359FC4FC491CC2391F08111C2
:1021E0000E94D60EEC2FF0E0EE0FFF1FED5AFC4FD1
:1021F000A591B491EC91ED2381E090E021F480E091
:1022000002C080E090E0DF91CF9108951F93CF93BB
:10221000DF93282F30E0F901E750FC4F8491F9015A
:10222000ED54FC4FD491F901E359FC4FC491CC23F8
:10223000C9F0162F81110E94D60EEC2FF0E0EE0FA0
:10224000FF1FE75CFC4FA591B4918FB7F894111173
:1022500005C09C91ED2FE095E92302C0EC91ED2B98
:10226000EC938FBFDF91CF911F9108951092C3021D
:1022700081E08093C2021092BD0261E084E10E947D
:10228000061161E085E10E940611E9EBF0E0808132
:102290008E7F808380818D7F808388E48093B800E7
:1022A00085E48093BC000895CF93DF9390E0FC0118
:1022B000ED54FC4F2491FC01E359FC4F8491882399
:1022C00061F190E0880F991FFC01E15EFC4FC59120
:1022D000D491FC01E75CFC4FA591B491611109C058
:1022E0009FB7F8948881209582238883EC912E23D0
:1022F0000BC0623061F49FB7F8943881822F8095CB
:1023000083238883EC912E2B2C939FBF06C08FB71D
:10231000F894E8812E2B28838FBFDF91CF91089509
:102320008F929F92AF92BF92CF92DF92EF92FF92E5
:102330006B017C010E94B90A4B015C01C114D104FC
:10234000E104F104F1F00E94B90ADC01CB01881923
:102350009909AA09BB09883E9340A105B10570F30C
:1023600021E0C21AD108E108F10888EE880E83E066
:10237000981EA11CB11CC114D104E104F10419F789
:10238000DDCFFF90EF90DF90CF90BF90AF909F9008
:102390008F90089580910F06909110060C949B1ACF
:1023A000CF93DF9300D01F921F92CDB7DEB7789402
:1023B00084B5826084BD84B5816084BD85B582604A
:1023C00085BD85B5816085BD80916E0081608093FB
:1023D0006E00109281008091810082608093810064
:1023E0008091810081608093810080918000816074
:1023F000809380008091B10084608093B1008091CF
:10240000B00081608093B0008091910082608093E1
:102410009100809191008160809391008091900063
:102420008160809390008091A10082608093A100E0
:102430008091A10081608093A1008091A0008160C3
:102440008093A0008091210182608093210180917E
:10245000210181608093210180912001816080931E
:10246000200180917A00846080937A0080917A00C4
:10247000826080937A0080917A00816080937A00F4
:1024800080917A00806880937A001092C1000E9447
:10249000E20C61E08091D9060E94541160E08091C5
:1024A000D9060E94061160E08091D8060E9454115E
:1024B0008AEE92E09093E3068093E2061092C502C2
:1024C0001092C4021092E7021092E6020E943611A6
:1024D00080E090E1A0E0B0E08093E5069093E6060E
:1024E000A093E706B093E8068AE090E0A0E0B0E0B1
:1024F0008093E9069093EA06A093EB06B093EC066E
:1025000080E090E0A0E0B0E48093ED069093EE06CA
:10251000A093EF06B093F00660E070E185E00E94C2
:10252000CF0D6FE979E380E00E94CF0D05EF16E053
:10253000A12CB12CC12CD12C52EA252E53E0352EE2
:102540006BEC862E67E0962E7BE8672E77247394DB
:1025500096012852394F2901D90114969C9114975C
:1025600012968C91F501E852F94F7F01818F928F7D
:1025700061E00E94541161E0D7015A968C910E944B
:102580005411F20190858681D8018C93F701968FC2
:1025900061E00E94541160E0D7015E968C910E9428
:1025A000541161E0F80180810E940611FFB6F89491
:1025B00080919702811126C0F1018491E8EEF3E049
:1025C0009491E82FF0E0EE0FFF1FE15EFC4FA59124
:1025D000B4918C91982321F461E085E30E94061167
:1025E00061E085E30E9454118CB580618CBD8CB58F
:1025F00080648CBD61E084E30E94541161E083E358
:102600000E945411809197028F5F80939702FFBEC2
:10261000C4010197F1F760E0D8018C910E94061186
:1026200088E80E94DE0683E00E94DE0661E0F80191
:1026300080810E940611C4010197F1F760E0D80182
:102640008C910E94061188E90E94DE0680E00E94BB
:10265000DE0680E00E94DE0680E00E94DE0680E06A
:102660000E94DE0661E0F80180810E940611C3012C
:102670000197F1F760E0D8018C910E94061180EE7D
:102680000E94DE0661E0F80180810E940611F2E0FE
:10269000AF0EB11C0E5F1F4FCA94CD2821F0CC2481
:1026A000C394D12C55CF0DEF16E024E0F22EF00E9E
:1026B00060E0D8018D918D010E945411F012F8CF85
:1026C000FCE0EF2EF7E0FF2E09E017E0A5E0AA2ED0
:1026D000BCE0CB2E82E0982E92E0B92EB00EF8012D
:1026E0003897D080F80180818C3008F046C061E0D6
:1026F0008D2D0E945411D8018C91A89EF0011124B7
:10270000E156FA4F9D2D9F732081207CD22ED92A2D
:10271000D082138214826C2D0E94B719BCE08B9F6B
:10272000A001112420E030E0B901640F751FA69EBE
:10273000F001A79EF00D1124E156FA4F908196FD0D
:1027400012C02F5F3F4F2C30310571F781110BC044
:102750001092800090928100109285001092840067
:1027600096BA90926F00D801EC91AE9EF0011124C0
:10277000E156FA4F808180648083F801329790811E
:1027800032978081F70131978083F701908360E071
:102790000E94541161E0D7018C910E94541160E0B5
:1027A000F70180810E9406110F5F1F4FF2E0EF0ECC
:1027B000F11CB01294CFF8941092200109E000931C
:1027C000210180E293E090932901809328011092E7
:1027D00025011092240112E0109373007894109355
:1027E000CD041092D1048091CE0460E00E94541177
:1027F00040E050E0BA0181EF96E00E941D0540E004
:1028000050E060E070E883EF96E00E941D050E94B2
:10281000E20C89E592E00E940A0D61E087E00E94E7
:10282000541160E087E00E94061161E088E00E9498
:10283000541160E088E00E94061161E089E00E9486
:10284000541160E089E00E94061160E085E20E9478
:10285000541161E08AE00E94541161E08AE00E9414
:10286000061161E08BE00E94541160E08BE00E9451
:10287000061161E08CE00E94541160E08CE00E943F
:10288000061161E086E10E94541161E087E10E9437
:10289000541161E088E10E94541161E089E10E94D5
:1028A000541161E08AE10E94541161E08BE10E94C1
:1028B000541161E08CE10E94541161E08DE10E94AD
:1028C000541161E08EE10E94541161E08FE10E9499
:1028D000541161E080E20E94541161E081E20E94A3
:1028E000541161E088E20E94541161E08DE10E9480
:1028F000061161E08EE10E94061161E08FE10E9405
:10290000061161E080E20E94061161E081E20E940E
:1029100006110E9475088FE592E00E940A0D4FEFA4
:1029200050E060E070E080E090E00E94E50661E049
:102930008091FD050E9454111092C5021092C402AC
:102940001092E7021092E6020E94361161E070E0F8
:1029500080E090E00E9490110093FF050093000634
:102960001093010685E08093020666E089E00E94EC
:10297000AB0D8091000667E08F700E94AB0D8091D7
:10298000010668E08F700E94AB0D8091020669E03D
:102990008F700E94AB0D80E098E0909304068093C6
:1029A000030690930606809305069093080680938D
:1029B000070690930A06809309066AE080E00E9469
:1029C000AB0D80910306909104069F716BE0892FF7
:1029D0000E94AB0D6EE0809107060E94AB0D8091C6
:1029E0000706909108069F716FE0892F0E94AB0D3A
:1029F0006CE0809105060E94AB0D809105069091D8
:102A000006069F716DE0892F0E94AB0D60E18091F9
:102A100009060E94AB0D8091090690910A069F71EC
:102A200061E1892F0E94AB0D61E08091FD050E945C
:102A3000061162E070E080E090E00E949011E12CCD
:102A4000F12CC12CE0E1DE2E86010E191F0917FFC3
:102A500002C00F5F1F4F159507950E0D1F1D0E1518
:102A60001F0509F43FC0B8018AE090E00E942C0FD6
:102A7000B8018CE090E00E942C0FB8018EE090E04D
:102A80000E942C0F0E94C50D80E40E94980D97FDB6
:102A900005C080E40E94980D5C0102C0A12CB12CFD
:102AA00082E40E94980D8A159B0524F082E40E941E
:102AB000980D5C0184E40E94980D8A159B0524F012
:102AC00084E40E94980D5C0129EEA21623E0B20670
:102AD0003CF438EEA31633E0B30621F07801B4CF0E
:102AE0006801B2CFE12CF12CC12C90E1D92E8601E6
:102AF0000E191F0917FF02C00F5F1F4F159507958D
:102B00000E0D1F1D0E151F05A9F0B80180E190E004
:102B10000E942C0F0E94C50D86E40E94980D893EEC
:102B200043E094072CF4883E934021F07801DFCFF6
:102B30006801DDCF88E8282E83E1382E812C912C86
:102B4000A12CB12C612C712C66E0862D0E94AB0D5E
:102B500067E08A2D0E94AB0D68E0882D0E94AB0DC6
:102B60008AE00E94980D8C01BC018AE090E00E94EE
:102B70002C0FB8018CE090E00E942C0FB8018EE081
:102B800090E00E942C0F54E0452E512CC12CD12CEA
:102B900000E010E0E12CF12C0E94C50D80E40E94C1
:102BA000980DE80EF91E82E40E94980D080F191F77
:102BB00084E40E94980DC80ED91E81E0481A51087D
:102BC00059F7F7FE03C093E0E90EF11CF594E79482
:102BD000F594E79417FF02C00D5F1F4F15950795F9
:102BE00015950795D7FE03C0A3E0CA0ED11CD59456
:102BF000C794D594C7943E2D2F2DE016F10614F4FA
:102C0000302F212F832F922F97FF02C080E090E07A
:102C10008C159D050CF4C6015E2D4F2D0E151F055C
:102C200014F4502F412F252F342F2130B0E13B07D2
:102C300014F020E030E1C216D3060CF49601FC013A
:102C4000E21BF30B9F012E163F0611F18E159F0517
:102C500041F4FFE06F16710424F44FEF641A740A14
:102C600015C08017910741F45FE0A516B10424F464
:102C70008FEFA81AB80A0AC08C159D0539F49FE099
:102C8000891691041CF4AFEF8A1A9A0A19015CCFD5
:102C900084E692E00E940A0D0E94750886E692E0A2
:102CA0000E940A0D15E082EF95E00E942B0487EE4A
:102CB00095E00E942B048CED95E00E942B04ECE043
:102CC000F2E0DE011196812F01900D928A95E1F7D5
:102CD00080918A02805D898380918802805D8B83E8
:102CE00080918602805D8D83CE0101960E9415073A
:102CF0000E949502D8CF1092ED021092EC0288EE5D
:102D000093E0A0E0B0E08093EE029093EF02A093F6
:102D1000F002B093F10226E132E03093EB0220930F
:102D2000EA021092F9021092F8028093FA0290934C
:102D3000FB02A093FC02B093FD0228E232E0309344
:102D4000F7022093F60245E351E0509303034093CA
:102D5000020344E351E0509305034093040340E32E
:102D600051E0509307034093060341E351E0509331
:102D700009034093080342E351E050930B0340934F
:102D80000A0346E351E050930D0340930C03109265
:102D90000F0310921003109211031092120310925D
:102DA0009603109295038093970390939803A093B2
:102DB0009903B0939A03309394032093930345EDC2
:102DC00050E05093A00340939F0344ED50E0509394
:102DD000A2034093A10340ED50E05093A40340931D
:102DE000A30341ED50E05093A6034093A50342EDA9
:102DF00050E05093A8034093A70346ED50E0509352
:102E0000AA034093A9031092AC031092AD03109251
:102E1000AE031092AF0310923304109232048093E9
:102E2000340490933504A0933604B0933704309360
:102E300031042093300485EC90E090933D0480931E
:102E40003C0484EC90E090933F0480933E0480EC3B
:102E500090E0909341048093400481EC90E0909343
:102E600043048093420482EC90E090934504809365
:102E7000440486EC90E090934704809346041092BB
:102E8000490410924A0410924B0410924C0486E3B9
:102E90008093F90687E38093FA0688E38093FB0624
:102EA00089E38093FC068BE18093FD068DE180939E
:102EB000FE068AE18093FF068CE18093000784E0A0
:102EC0008093010787E0809302071092030784EB49
:102ED0008093040786E18093050788E180930607C5
:102EE00087E18093070789E180930807E091DB057C
:102EF000EC3020F08FEF8093090710C081E08E0F37
:102F00008093DB05E093090725E0E29FF00111249F
:102F1000E156FA4F88EB9BE092838183E091DB05D9
:102F2000EC3020F08FEF80930A0710C081E08E0F05
:102F30008093DB05E0930A0785E0E89FF001112408
:102F4000E156FA4F88EB9BE0928381838CE080937B
:102F5000D80684E28093D90686E08093DA0685E07D
:102F60008093DB068FE18093DC068EE18093DD06A3
:102F700083E28093DE0682E28093DF0685E480931D
:102F8000E00684E48093E10680E48093E4061092F6
:102F9000E9061092EA061092EB061092EC061092E7
:102FA000ED061092EE061092EF061092F006EAE19E
:102FB000F6E08FEF9FEFDC011282138214821582FC
:102FC000168217821086118683879487A587B68715
:102FD0008787908BA18BB28B128611821082739699
:102FE00026E0E83DF20741F78DE090E00E94061AE6
:102FF000FC01138212828AE392E09183808311861E
:1030000087E2848384E1828784E083871486F09357
:103010001706E0931606109218061092190685E21C
:103020008093CE041092D0041092100610920F06D6
:1030300010921206109211061092140610921306A6
:1030400061E070E080E090E00E94331B009791F017
:103050009093100680930F0610921206109211069C
:103060002091130630911406232B09F073C0FC0144
:10307000108270C080910F0690911006009711F099
:103080000E949B1A1092100610920F0610921406BE
:103090001092130610921206109211068EE290E022
:1030A0009093FE058093FD0581E08093F2051092D8
:1030B000F3051092F4051092F5051092F60542E31F
:1030C00050E060E070E04093F7055093F80560939E
:1030D000F9057093FA052AE938E03093FC0520934E
:1030E000FB058093E7051092E8051092E905109220
:1030F000EA051092EB0544EF51E060E070E0409388
:10310000EC055093ED056093EE057093EF0528EC08
:1031100038E03093F1052093F0058093DC051092A0
:10312000DD051092DE051092DF051092E00584E6C1
:1031300090E0A0E0B0E08093E1059093E205A093D9
:10314000E305B093E40586EC92E09093E605809366
:10315000E505089510921406109213066AE672E0CF
:103160000E942A1C9BCF990F0008550FAA0BE0E87C
:10317000FEEF16161706E807F907C0F01216130639
:10318000E407F50798F0621B730B840B950B39F479
:103190000A2661F0232B242B252B21F408950A26DF
:1031A00009F4A140A6958FEF811D811D08950E940D
:1031B000EA180C945B190E944D1938F00E945419BA
:1031C00020F0952311F00C9444190C944A19112401
:1031D0000C948F190E946C1970F3959FC1F3950F91
:1031E00050E0551F629FF001729FBB27F00DB11D8B
:1031F000639FAA27F00DB11DAA1F649F6627B00D1B
:10320000A11D661F829F2227B00DA11D621F739F03
:10321000B00DA11D621F839FA00D611D221F749F11
:103220003327A00D611D231F849F600D211D822F58
:10323000762F6A2F11249F5750409AF0F1F088237F
:103240004AF0EE0FFF1FBB1F661F771F881F9150AC
:103250005040A9F79E3F510580F00C9444190C94FE
:103260008F195F3FE4F3983ED4F386957795679581
:10327000B795F795E7959F5FC1F7FE2B880F911DD6
:103280009695879597F9089597F99F6780E870E07C
:1032900060E008959FEF80EC089500240A941616CC
:1032A000170618060906089500240A941216130634
:1032B000140605060895092E0394000C11F48823C2
:1032C00052F0BB0F40F4BF2B11F460FF04C06F5FDE
:1032D0007F4F8F4F9F4F089557FD9058440F551FB4
:1032E00059F05F3F71F04795880F97FB991F61F088
:1032F0009F3F79F087950895121613061406551FFF
:10330000F2CF4695F1DF08C0161617061806991F6A
:10331000F1CF86957105610508940895E894BB275F
:1033200066277727CB0197F90895A1E21A2EAA1BE9
:10333000BB1BFD010DC0AA1FBB1FEE1FFF1FA21765
:10334000B307E407F50720F0A21BB30BE40BF50B62
:10335000661F771F881F991F1A9469F760957095EB
:10336000809590959B01AC01BD01CF010895991BFB
:1033700079E004C0991F961708F0961B881F7A956C
:10338000C9F780950895EE0FFF1F881F8BBF079028
:10339000F691E02D19940E94D2196894B1110C9401
:1033A0008F1908950E94741988F09F5798F0B92FCB
:1033B0009927B751B0F0E1F0660F771F881F991F6A
:1033C0001AF0BA95C9F714C0B13091F00E948E1965
:1033D000B1E008950C948E19672F782F8827B85F75
:1033E00039F0B93FCCF3869577956795B395D9F7C2
:1033F0003EF490958095709561957F4F8F4F9F4FCC
:1034000008950E94B31808F48FEF0895CF93DF93C7
:103410008230910510F482E090E0E0917A07F0911B
:103420007B0720E030E0C0E0D0E0309711F1408130
:10343000518148175907C0F04817590761F4828134
:103440009381209719F09B838A832BC090937B07ED
:1034500080937A0726C02115310519F042175307CA
:1034600018F49A01BE01DF01EF010280F381E02D23
:10347000DCCF2115310509F1281B390B243031052A
:1034800090F412968D919C9113976115710521F01E
:10349000FB019383828304C090937B0780937A0718
:1034A000FD01329644C0FD01E20FF31F8193919319
:1034B000225031092D933C933AC0209178073091E6
:1034C0007907232B41F420910302309104023093B9
:1034D000790720937807209101023091020221158B
:1034E000310541F42DB73EB74091050250910602D7
:1034F000241B350BE0917807F0917907E217F30769
:10350000A0F42E1B3F0B2817390778F0AC014E5F53
:103510005F4F2417350748F04E0F5F1F5093790710
:10352000409378078193919302C0E0E0F0E0CF01EF
:10353000DF91CF9108950F931F93CF93DF9300975F
:1035400009F48CC0FC0132971382128200917A0731
:1035500010917B070115110581F420813181820FC3
:10356000931F20917807309179072817390779F54B
:10357000F0937907E093780771C0D80140E050E0FC
:10358000AE17BF0750F412962D913C911397AD01E1
:103590002115310509F1D901F3CF9D01DA013383FA
:1035A000228360817181860F971F8217930769F4C8
:1035B000EC0128813981260F371F2E5F3F4F318361
:1035C00020838A819B8193838283452B29F4F09306
:1035D0007B07E0937A0742C01396FC93EE93129711
:1035E000ED01499159919E01240F351FE217F30710
:1035F00071F480819181840F951F029611969C939E
:103600008E938281938113969C938E931297E0E020
:10361000F0E0D80112968D919C911397009719F0C4
:10362000F8018C01F6CF8D919C9198012E5F3F4F50
:10363000820F931F20917807309179072817390757
:1036400069F4309729F410927B0710927A0702C030
:10365000138212821093790700937807DF91CF913C
:103660001F910F9108956F927F928F929F92AF92C8
:10367000BF92CF92DF92EF92FF920F931F93CF935F
:10368000DF93EC01009789F4CB01DF91CF911F917B
:103690000F91FF90EF90DF90CF90BF90AF909F90F1
:1036A0008F907F906F900C94061AFC01E60FF71F25
:1036B0009C0122503109E217F30708F4ACC0D9018C
:1036C0000D911C91119706171707B0F005301105E1
:1036D00008F49FC0C80104978617970708F499C09B
:1036E00002501109061B170B019311936D937C93E4
:1036F000CF010E949B1A8DC05B01A01AB10A4C0138
:10370000800E911EA0917A07B0917B0740E050E0B7
:10371000E12CF12C109709F44AC0A815B905D1F590
:103720006D907C901197630182E0C80ED11CCA1481
:10373000DB0480F1A3014A195B096A0182E0C80E2B
:10374000D11C1296BC9012971396AC91B5E0CB1693
:10375000D10440F0B282A38351834083D9016D9399
:103760007C930AC00E5F1F4FC301800F911FF901A8
:1037700091838083EB2DFA2FE114F10431F0D7010E
:103780001396FC93EE93129744C0F0937B07E0935B
:103790007A073FC08D919C9111974817590708F4FB
:1037A000AC017D0112960D90BC91A02DB3CF8091FC
:1037B00078079091790788159905E1F4461757071E
:1037C000C8F48091010290910202009741F48DB7F4
:1037D0009EB74091050250910602841B950BE81795
:1037E000F907C8F4F0937907E0937807F90171833A
:1037F00060830FC0CB010E94061A7C01009759F02C
:10380000A801BE010E94211CCE010E949B1AC70183
:1038100004C0CE0102C080E090E0DF91CF911F9103
:103820000F91FF90EF90DF90CF90BF90AF909F905F
:103830008F907F906F90089581E090E0F8940C94C1
:10384000311CFB01DC0102C001900D92415050403F
:10385000D8F70895FB01DC0101900D920020E1F7FB
:10386000089512E0C1E2D2E000E006C0802FFE0120
:103870000E94C3192196011DC232D10780E00807BA
:06388000A9F7F894FFCF48
:10388600FF00007C0720001D1E1F20212B2B2B2B49
:103896002B0000000000A70E770EC3024B0E6F0E22
:1038A6005B0E4C0E00000000C2036E0A55020904AE
:1038B60086026402780200000000F1026E0AC3026A
:1038C600C20253746F702B00726F754765004A61B0
:1038D600756E6500426C6555007374617274007490
:0C38E60065737400310032000D0A000010
:00000001FF
