:100000000C9499010C94CA010C94CA010C94CA0175
:100010000C94CA010C94CA010C94CA010C94CA0134
:100020000C94CA010C94D40A0C94D40A0C94D40AEB
:100030000C94CA010C94FB050C94CA010C94CA01DF
:100040000C94CA010C9452080C94CA010C94CA0175
:100050000C94CA010C94CA010C94CA010C94B10509
:100060000C94CA010C946A070C9440070C94CA01C2
:100070000C94CA010C94CA010C94CA010C94CA01D4
:100080000C94CA010C94CA010C94CA010C94CA01C4
:100090000C94CA010C94CA010C94CA010C94DE0A97
:1000A0000C94CA010C94CA010C94CA010C94CA01A4
:1000B0000C94CA010C94CA010C94CA010C949407C4
:1000C0000C94CA010C94CA010C94CA010C94160732
:1000D0000C94EC060C94CA010C94C2060C9498067D
:1000E0000C94CA01E203E703EC03F603000479046D
:1000F0000A0412041A0424042E0438044704510488
:1001000079045B0465046F047605790568056C0560
:100110007205B0057D05810587058B058F05950561
:1001200099059D05B005A305A705AB050C94B5037E
:100130000C9412040C94E7030C9476050C940E03B3
:100140000C9491020C94A0020C94E2030C94A70569
:100150000C9479040C94F6030C9481050C94B4036C
:100160000C94A3050C940A040C9487050C941A04AF
:100170000C948B090C9499050C9451040C94720501
:100180000C9400040C946F040C942F050C947905C6
:100190000C94AE090C94B4020C94EC030C948809F2
:1001A0000C94170F0C94B8030C948A090C94AB05AB
:1001B0000C94C2020C9468050C9467020C944704DA
:1001C0000C946C050C94E3090C94B0050C948B050D
:1001D0000C949D050C94B6090C942E040C94950572
:1001E0000C94110F0C9465040C945B040C940A0598
:1001F0000C9438040C949A090C947D050C948F058A
:100200000C9489090C945B030C94240402000021D3
:1002100000240027002A002D0030003300010100D7
:1002200000040107010A0100002200250028002B1C
:10023000002E003100340002010000050108010B0E
:1002400001000020002300260029002C002F00328E
:10025000000001000003010601090105050505076D
:100260000508080808020202020A0A080804040431
:10027000040101010101010101030303030303035D
:1002800003040707070C0C0C0C0C0C0C0C020202EC
:100290000206060606060606060B0B0B0B0B0B0BDF
:1002A0000B0102102020080810204010204080027E
:1002B00001020108040201010204081020408080AC
:1002C0004020100804020180040201804020100830
:1002D0000402010804020101020408102040800108
:1002E0000204081020408000000A0B02090C0D0EC9
:1002F00008070304010000000000000000000000E7
:1003000000000000000000000000000000000000ED
:1003100000000012111000000000000000000000AA
:100320000000000000000000000000000000170FA7
:10033000110F11241FBECFEFD1E2DEBFCDBF00E011
:100340000CBF12E0A0E0B2E0E0E3F9E200E00BBF96
:1003500002C007900D92A834B107D9F727E0A8E4AE
:10036000B2E001C01D92A333B207E1F711E0C8E982
:10037000D1E000E006C021970109802FFE010E9414
:100380002812C739D10780E00807A9F70E94680C36
:100390000C9486140C940000CF93DF9390E0FC0142
:1003A000EF55FD4F2491FC01E55AFD4F84918823C0
:1003B00061F190E0880F991FFC01E35FFD4FC5914B
:1003C000D491FC01E95DFD4FA591B491611109C083
:1003D0009FB7F8948881209582238883EC912E23FF
:1003E0000BC0623061F49FB7F8948881322F30954A
:1003F00083238883EC912E2B2C939FBF06C08FB74D
:10040000F894E8812E2B28838FBFDF91CF91089538
:100410003FB7F89480916D0290916E02A0916F02A7
:10042000B091700226B5A89B05C02F3F19F0019628
:10043000A11DB11D3FBFBA2FA92F982F8827820F6A
:10044000911DA11DB11DBC01CD0142E0660F771FBA
:10045000881F991F4A95D1F708958F929F92AF9266
:10046000BF92CF92DF92EF92FF926B017C010E94CC
:1004700008024B015C01C114D104E104F104F1F064
:100480000E940802DC01CB0188199909AA09BB095D
:10049000883E9340A105B10570F321E0C21AD1084E
:1004A000E108F10888EE880E83E0981EA11CB11CBB
:1004B000C114D104E104F10419F7DDCFFF90EF90EE
:1004C000DF90CF90BF90AF909F908F900895CF9284
:1004D000DF92EF92FF920F931F93CF93DF936C0104
:1004E0007A018B01C0E0D0E0CE15DF0581F0D801A4
:1004F0006D918D01D601ED91FC910190F081E02D7F
:10050000C6011995892B11F02196EECF7E01C70106
:10051000DF91CF911F910F91FF90EF90DF90CF90DF
:100520000895FC01538D448D252F30E0842F90E0F9
:10053000821B930B541710F0CF96089501970895DE
:10054000FC01918D828D981761F0828DDF01A80FDB
:10055000B11D5D968C91928D9F5F9F73928F90E0FD
:1005600008958FEF9FEF0895FC01918D828D98176C
:1005700031F0828DE80FF11D858D90E008958FEFA9
:100580009FEF0895FC01918D228D892F90E0805C72
:100590009F4F821B91098F739927089588E892E0F5
:1005A0000E94C20221E0892B09F420E0822F0895E5
:1005B00085E293E00E94C20221E0892B09F420E049
:1005C000822F089582EC93E00E94C20221E0892BE1
:1005D00009F420E0822F0895FC01848DDF01A80F2B
:1005E000B11DA35ABF4F2C91848D90E001968F735B
:1005F0009927848FA689B7892C93A089B1898C917A
:10060000837080648C93938D848D981306C00288C8
:10061000F389E02D80818F7D80830895EF92FF9292
:100620000F931F93CF93DF93EC0181E0888F9B8D15
:100630008C8D981305C0E889F989808185FD26C0D5
:10064000F62E0B8D10E00F5F1F4F0F731127E02E5A
:100650008C8DE8120CC00FB607FCFACFE889F98937
:10066000808185FFF5CFCE010E94EC02F1CF8B8D0A
:10067000FE01E80FF11DE35AFF4FF0829FB7F89497
:100680000B8FEA89FB89808180620AC09FB7F8944A
:10069000EE89FF896083E889F989808183708064AD
:1006A00080839FBF81E090E0DF91CF911F910F91F8
:1006B000FF90EF900895CF93DF93EC01888D88230E
:1006C000C9F0EA89FB89808185FD05C0A889B989BF
:1006D0008C9186FD0FC00FB607FCF5CF808185FF9A
:1006E000F2CFA889B9898C9185FFEDCFCE010E9408
:1006F000EC02E7CFDF91CF910895E0E0F0E01994AC
:1007000080E090E0892B21F00E94E202811119C063
:1007100080E090E0892B41F080E090E0892B21F08F
:100720000E940000811110C00E94D80281110FC0E8
:1007300080E090E0892B81F00E94CE0281110AC0F6
:1007400008950E940000E4CF0E940000EDCF0E94B7
:100750007D03EECF0C94000008958EBD00000DB413
:1007600007FEFDCF8EB50895089580E090E00895CE
:1007700008951F93CF93DF93182FEB0161E00E9440
:10078000CC01209711F460E004C0CF3FD10539F4CB
:1007900061E0812FDF91CF911F910C94390CE12FF3
:1007A000F0E0E951FD4FE4918E2F90E0FC0131978C
:1007B000E231F10508F09DC08827EE58FF4F8F4FBA
:1007C0000C94281284B5806884BDC7BD97C084B5D9
:1007D000806284BDC8BD92C0809180008068809393
:1007E0008000D0938900C093880088C080918000E9
:1007F000806280938000D0938B00C0938A007EC07B
:1008000080918000886080938000D0938D00C09399
:100810008C0074C08091B00080688093B000C09359
:10082000B3006CC08091B00080628093B000C09330
:10083000B40064C080919000806880939000D09351
:100840009900C09398005AC0809190008062809374
:100850009000D0939B00C0939A0050C0809190006C
:10086000886080939000D0939D00C0939C0046C008
:100870008091A00080688093A0008091A0008F7B71
:100880008093A000D093A900C093A80037C08091A6
:10089000A00080628093A000D093AB00C093AA0018
:1008A0002DC08091A00088608093A000D093AD00FF
:1008B000C093AC0023C08091200180688093200108
:1008C000D0932901C093280119C080912001806232
:1008D00080932001D0932B01C0932A010FC08091F7
:1008E0002001886080932001D0932D01C0932C01BA
:1008F00005C0C038D1050CF04BCF45CFDF91CF916B
:100900001F9108950F931F93CF93DF938B01EA01FB
:10091000BC0182E00E94B903B80183E00E94B903E0
:10092000BE0185E0DF91CF911F910F910C94B90327
:100930008F929F92AF92BF92CF92DF92EF92FF92EF
:100940000F931F93CF93DF93EC016A017B0120E0AB
:1009500030E04FE753E4C701B6010E945E114B013E
:100960005C0120E030E0A9010E94661218161CF418
:10097000C501B40103C0C501B40190580E943012F2
:100980008B0120E030E0A901C701B6010E94661288
:10099000181614F460E001C061E089810E94390CEE
:1009A0000F3F110509F01CF4B801772702C06FEF63
:1009B00070E08881DF91CF911F910F91FF90EF90B0
:1009C000DF90CF90BF90AF909F908F900C94B90321
:1009D0000E94711440E050E060E070E08FEF90E022
:1009E0000E94820485E20E94100C892BD9F385E2D3
:1009F0000E94100C0197D9F362E370E080E090E070
:100A00000E942D0240E050E06FEF70E080E090E047
:100A10000C9482040F931F93CF93DF938C01C62F06
:100A2000D62FD07FD1606D2F0E94930A6D2FC80101
:100A30000E94A60A80E1C89FB0011124C62FC160A0
:100A40006C2FC8010E94930A6C2FC8010E94A60A4D
:100A500081E090E0DF91CF911F910F91089585E2A1
:100A60000E94100C019719F585E20E94100C019765
:100A7000D9F340E050E060E070E08FEF90E00E943A
:100A8000820440E050E0BA0189E995E00E949804B0
:100A900040E050E0BA0189E995E00E94980462E3E1
:100AA00070E080E090E00E942D020E94EA0460E085
:100AB00082E00C94390C90E0FC013197E231F105B1
:100AC00008F04EC08827EC57FF4F8F4F0C94281228
:100AD000809180008F7703C0809180008F7D80930C
:100AE0008000089580918000877FF9CF84B58F774B
:100AF00002C084B58F7D84BD08958091B0008F774A
:100B000003C08091B0008F7D8093B00008958091E4
:100B100090008F7707C0809190008F7D03C08091F7
:100B20009000877F8093900008958091A0008F7738
:100B300007C08091A0008F7D03C08091A000877FB7
:100B40008093A0000895809120018F7707C0809145
:100B500020018F7D03C080912001877F8093200139
:100B600008951F920F920FB60F9211242F933F9367
:100B70008F939F93AF93BF938091690290916A0284
:100B8000A0916B02B0916C023091680223E0230FB8
:100B90002D3720F40196A11DB11D05C026E8230FB5
:100BA0000296A11DB11D2093680280936902909363
:100BB0006A02A0936B02B0936C0280916D029091D7
:100BC0006E02A0916F02B09170020196A11DB11D3D
:100BD00080936D0290936E02A0936F02B0937002A7
:100BE000BF91AF919F918F913F912F910F900FBE29
:100BF0000F901F9018951F920F920FB60F9211240D
:100C00000BB60F922F933F934F935F936F937F9306
:100C10008F939F93AF93BF93EF93FF938091630262
:100C200090916402A0916502B0916602892B8A2B93
:100C30008B2B49F19091620280910000892780936B
:100C400000008091630290916402A0916502B091CE
:100C50006602181619061A061B060CF056C080917B
:100C6000630290916402A0916502B09166020197BF
:100C7000A109B1098093630290936402A093650275
:100C8000B093660242C080910002ECE0F2E0E49191
:100C90009FEF90930002E230C9F050F4EE2399F0F8
:100CA000E13081F590916F009D7F90936F002AC095
:100CB000E43019F1E0F0E53029F5909173009D7F63
:100CC000909373001FC010926E001CC09091700032
:100CD0009D7F9093700091E09093B0009091B1004F
:100CE000987F94609093B1001092B3000BC09091E4
:100CF00071009D7F9093710005C0909172009D7F5F
:100D00009093720060E00E94390CFF91EF91BF91C7
:100D1000AF919F918F917F916F915F914F913F9193
:100D20002F910F900BBE0F900FBE0F901F90189534
:100D30001F920F920FB60F9211240BB60F922F93A2
:100D40003F934F935F936F937F938F939F93AF9353
:100D5000BF93EF93FF9388E892E00E94EC02FF912B
:100D6000EF91BF91AF919F918F917F916F915F9123
:100D70004F913F912F910F900BBE0F900FBE0F9090
:100D80001F9018951F920F920FB60F9211240BB659
:100D90000F922F933F934F935F936F937F938F9314
:100DA0009F93AF93BF93EF93FF9388E892E00E94E5
:100DB000BB0AFF91EF91BF91AF919F918F917F916E
:100DC0006F915F914F913F912F910F900BBE0F90BC
:100DD0000FBE0F901F9018951F920F920FB60F9293
:100DE00011240BB60F922F933F934F935F936F9302
:100DF0007F938F939F93AF93BF93EF93FF9385E27E
:100E000093E00E94EC02FF91EF91BF91AF919F910F
:100E10008F917F916F915F914F913F912F910F90A3
:100E20000BBE0F900FBE0F901F9018951F920F9240
:100E30000FB60F9211240BB60F922F933F934F933F
:100E40005F936F937F938F939F93AF93BF93EF9332
:100E5000FF9385E293E00E94BB0AFF91EF91BF915F
:100E6000AF919F918F917F916F915F914F913F9142
:100E70002F910F900BBE0F900FBE0F901F901895E3
:100E80001F920F920FB60F9211240BB60F922F9351
:100E90003F934F935F936F937F938F939F93AF9302
:100EA000BF93EF93FF9382EC93E00E94EC02FF91DB
:100EB000EF91BF91AF919F918F917F916F915F91D2
:100EC0004F913F912F910F900BBE0F900FBE0F903F
:100ED0001F9018951F920F920FB60F9211240BB608
:100EE0000F922F933F934F935F936F937F938F93C3
:100EF0009F93AF93BF93EF93FF9382EC93E00E9495
:100F0000BB0AFF91EF91BF91AF919F918F917F911C
:100F10006F915F914F913F912F910F900BBE0F906A
:100F20000FBE0F901F9018951F920F920FB60F9241
:100F300011240BB60F922F933F934F935F936F93B0
:100F40007F938F939F93AF93BF93EF93FF93809182
:100F500060040E94100C20916404309165042F5F9E
:100F60003F4F309365042093640490916304953659
:100F700018F096E090935F0490915F049430C9F16B
:100F800028F4923069F09330D1F05EC0953009F4C6
:100F900051C0963009F058C091E09093300551C08F
:100FA000811152C0209164043091650424363105CA
:100FB00008F442C010923005109263041CC08130C6
:100FC00009F042C0E091630491E09E0F90936304A6
:100FD000F0E02091640430916504EE0FFF1FE15AA8
:100FE000FB4F30872783109265041092640494E0CD
:100FF00029C0811117C0E091630491E09E0F909386
:101000006304F0E02091640430916504EE0FFF1F4B
:10101000E15AFB4F308727831092650410926404D5
:1010200093E010C0209164043091650425363105A9
:1010300058F007C0811108C0109265041092640432
:1010400003C095E090935F04909162049923B9F0F6
:1010500081110AC080916104882321F0809161048C
:1010600061E009C02F9A0BC080916104882331F0A0
:101070008091610460E00E94390C01C02F98FF91BB
:10108000EF91BF91AF919F918F917F916F915F9100
:101090004F913F912F910F900BBE0F900FBE0F906D
:1010A0001F9018951F920F920FB60F9211240BB636
:1010B0000F922F933F934F935F936F937F938F93F1
:1010C0009F93AF93BF93EF93FF938091610287FF4C
:1010D00005C0109285001092840016C02091610214
:1010E000022E000C330B80916D0590E02817390714
:1010F0005CF43091610225E03203F0011124EF5CD1
:10110000FA4F808186FD15C0809161028F5F8093C8
:10111000610220916102022E000C330B80916D055B
:1011200090E02817390794F4809161028C302CF1FB
:101130000DC0309161023203F0011124EF5CFA4FCF
:10114000808160E08F730E94390CDECF8091840033
:101150009091850084349C4918F480E49CE905C092
:1011600080918400909185000496909389008093EB
:1011700088008FEF809361022AC0409184005091D3
:1011800085003091610225E03203F0011124EF5C0B
:10119000FA4F81819281840F951F909389008093EB
:1011A0008800309161023203F0011124EF5CFA4FA4
:1011B000808186FF0CC0309161023203F00111245E
:1011C000EF5CFA4F808161E08F730E94390CFF91D0
:1011D000EF91BF91AF919F918F917F916F915F91AF
:1011E0004F913F912F910F900BBE0F900FBE0F901C
:1011F0001F90189530917B02313208F04BC08091DE
:1012000079028111FCCF9091610622E0209379024E
:1012100021E0209378022FEF20933F0610923E06A4
:1012200030933D06E1E4F6E0ADE1B6E020E03217B0
:1012300021F041914D932F5FFACF10921C0620911F
:101240001C06990F922B90931C0690917702913077
:1012500061F41092770290911C069093BB009091DC
:10126000BC0093FDF8CF95EC01C095EE9093BC00C7
:10127000909179029230E1F390913F069F3F79F08F
:1012800080913F06803241F080913F06803331F0FB
:1012900084E005C081E003C082E001C083E01092D9
:1012A0007A0210927B0210924006089585ED809399
:1012B000BC008091BC0084FDFCCF1092790208959F
:1012C0004091F705262F30E0240F311D21323105E2
:1012D000DCF4209179022430C9F4FC0180E090E034
:1012E000861758F43091F7052191DC01A952BA4FC5
:1012F000A30FB11D2C930196F3CF8091F705680FD2
:101300006093F70580E0089581E0089582E00895F4
:10131000089508950895E091720280917102E8178E
:1013200030F4F0E0E954FA4F808190E008958FEFB7
:101330009FEF08959091720280917102981750F476
:10134000E92FF0E0E954FA4F208130E09F5F90935D
:10135000720202C02FEF3FEFC90108958091710220
:1013600090E020917202821B91090895CF92DF9242
:10137000EF92FF920F931F93CF93DF937C01CB01EA
:101380008A0120914006222389F0EB016B01C40EF3
:10139000D51ECC15DD0569F06991D701ED91FC9161
:1013A0000190F081E02DC7011995F3CF642F0E94C1
:1013B0006009C801DF91CF911F910F91FF90EF90CD
:1013C000DF90CF900895CF93DF931F92CDB7DEB714
:1013D0006983209140062223D1F020917B022032A4
:1013E00040F021E030E0FC013383228380E090E094
:1013F00015C080917A02E82FF0E0EF5BF94F9981F8
:1014000090838F5F80937A0280937B0205C061E0B6
:10141000CE0101960E94600981E090E00F90DF917B
:10142000CF910895E2ECF3E0A089B18982E08C933A
:10143000A485B5851C92A685B7858FEC8C93108EFC
:10144000A489B58986E08C93A289B3898C91806147
:101450008C93A289B3898C9188608C93A289B3897B
:101460008C9180688C930288F389E02D80818F7D38
:1014700080830895CF93DF93009779F0FC0101906A
:101480000020E9F73197AF01481B590BBC0182ECF2
:1014900093E00E946702EC0102C0C0E0D0E042E0AD
:1014A00050E065E472E082EC93E00E9467028C0FEA
:1014B0009D1FDF91CF9108950F931F93CF93DF93DB
:1014C000162F072FC0E8D5E09C8521E02093400629
:1014D0009093610610927A0210927B02AA85BB85D6
:1014E000ED91FC9111970190F081E02D682FCD01D5
:1014F00019958A859B85DC01ED91FC910190F08125
:10150000E02D602F19958A859B85DC01ED91FC917A
:101510000190F081E02D612F1995DF91CF911F91FE
:101520000F910C94FA08FC01248131E030934006BD
:101530002093610610927A0210927B028485682BB8
:101540008CE792E00E94E3090C94FA080F931F9332
:10155000CF938C01C62F64600E94930A6C2F6B7F1F
:10156000C8010E94930A83EC90E00197F1F7CF91B4
:101570001F910F910895FC01A089B1898C91A689D2
:10158000B78982FD0FC09C91818D8F5F8F73228DF3
:10159000821749F0218DDF01A20FB11D5D969C934A
:1015A000818F08958C9108951F920F920FB60F921C
:1015B00011240F900FBE0F901F9018951F920F923D
:1015C0000FB60F9211240BB60F922F933F934F93A8
:1015D0005F936F937F938F939F93AF93BF93EF939B
:1015E000FF938091B900887F803609F49CC068F52C
:1015F000883209F45BC090F4803109F454C038F4A7
:10160000882309F4F6C0883009F44DC0F6C088314B
:1016100009F44CC0803209F45DC0EFC0803409F495
:1016200068C048F4803309F455C0883309F0E5C038
:1016300080933F06D8C0803509F44FC0883509F43F
:101640005DC0883409F0D9C0D6C0883909F4C7C054
:10165000A8F4883709F467C038F4883609F463C001
:10166000803709F460C0C9C0883809F4B8C080392F
:1016700009F45FC0803809F0C0C05BC0803B09F44A
:1016800086C038F4803A09F466C0883A09F47FC00D
:10169000B4C0803C09F4A7C0883C09F4A4C0883BCE
:1016A00009F48AC0AAC080911C0610C090913E0621
:1016B00080913D06981770F5E0913E0681E08E0F0F
:1016C00080933E06F0E0E35EF94F80818093BB009B
:1016D00085EC86C080933F068EC0E0913E0681E097
:1016E0008E0F80933E068091BB00F0E0E35EF94FE1
:1016F000808390913E0680913D066EC0E0913E064B
:1017000081E08E0F80933E068091BB00F0E0E35EA7
:10171000F94F80838091780281116DC081E08093C0
:10172000770284EA61C083E08093790210921906FF
:10173000CFCF80911906803208F051C0E091190690
:1017400081E08E0F809319068091BB00F0E0E75096
:10175000FA4F8083BDCF85EC8093BC001092790254
:1017600080911906803230F4E0911906F0E0E750DC
:10177000FA4F10826091190670E0E0917502F091C5
:10178000760289EF95E019951092190636C084E02B
:10179000809379021092F8051092F705E091730298
:1017A000F091740219958091F705811105C081E0CF
:1017B0008093F7051092D705E091F80581E08E0F30
:1017C0008093F805F0E0E952FA4F80818093BB00E6
:1017D0009091F8058091F705981708F479CF85E87E
:1017E0008093BC000AC085EC8093BC001092790203
:1017F00004C010923F060E945609FF91EF91BF91DD
:10180000AF919F918F917F916F915F914F913F9198
:101810002F910F900BBE0F900FBE0F901F90189539
:10182000CF93DF93282F30E0F901E951FD4F8491E8
:10183000F901EF55FD4FD491F901E55AFD4FC491DF
:10184000CC2391F081110E945B05EC2FF0E0EE0FAC
:10185000FF1FEF5BFD4FA591B491EC91ED2381E06B
:1018600090E021F480E002C080E090E0DF91CF9131
:1018700008951F93CF93DF93282F30E0F901E951AA
:10188000FD4F8491F901EF55FD4FD491F901E55ACF
:10189000FD4FC491CC23C1F0162F81110E945B052E
:1018A000EC2FF0E0EE0FFF1FE95DFD4FA591B49125
:1018B0009FB7F894111104C08C91D095D82302C021
:1018C000EC91DE2BDC939FBFDF91CF911F910895A8
:1018D000789484B5826084BD84B5816084BD85B50B
:1018E000826085BD85B5816085BD80916E00816017
:1018F00080936E00109281008091810082608093BD
:1019000081008091810081608093810080918000BE
:101910008160809380008091B10084608093B100E9
:101920008091B00081608093B000809191008260CE
:1019300080939100809191008160809391008091CB
:1019400090008160809390008091A10082608093DC
:10195000A1008091A10081608093A1008091A000EE
:1019600081608093A0008091210182608093210199
:10197000809121018160809321018091200181600B
:101980008093200180917A00846080937A00809116
:101990007A00826080937A0080917A0081608093DF
:1019A0007A0080917A00806880937A001092C1005A
:1019B0000E94120A61E0809181050E94CC0160E0E2
:1019C000809181050E94390C60E0809180050E9421
:1019D000CC018CE792E090938B0580938A0510925E
:1019E00072021092710210927A0210927B0210928F
:1019F000790281E0809378021092770261E084E1BD
:101A00000E94390C61E085E10E94390C8091B90097
:101A10008E7F8093B9008091B9008D7F8093B9004B
:101A200088E48093B80085E48093BC0088E899E05E
:101A3000909374028093730289E899E09093760200
:101A40008093750280E090E1A0E0B0E080938D0586
:101A500090938E05A0938F05B09390058AE090E057
:101A6000A0E0B0E08093910590939205A093930538
:101A7000B093940580E090E0A0E0B0E480939505F9
:101A800090939605A0939705B093980560E070E158
:101A900085E00E945C0A6FE979E380E00E945C0ABD
:101AA000C0E8D5E08E0142E0742E50E9A52E52E048
:101AB000B52E66ED862E62E0962E7BECE72E77E063
:101AC000F72EEBE8CE2EDD24D394F80194818281A9
:101AD000898F9A8F61E00E94CC0161E08A8D0E941B
:101AE000CC01F801908586818D8F9E8F61E00E94E8
:101AF000CC0160E08E8D0E94CC0161E08D8D0E9452
:101B0000390C6FB6F89480916702811126C0F501F7
:101B10008491F4012491E82FF0E0EE0FFF1FE35FC2
:101B2000FD4FA591B4919C91822F892321F461E00E
:101B300085E30E94390C61E085E30E94CC018CB5FD
:101B400080618CBD8CB580648CBD61E084E30E94B3
:101B5000CC0161E083E30E94CC01809167028F5F3A
:101B6000809367026FBEC7010197F1F760E08D8D2A
:101B70000E94390C88E80E94AD0383E00E94AD0307
:101B800061E08D8D0E94390CC7010197F1F760E08B
:101B90008D8D0E94390C88E90E94AD0380E00E947F
:101BA000AD0380E00E94AD0380E00E94AD0380E0C1
:101BB0000E94AD0361E08D8D0E94390CC601019732
:101BC000F1F760E08D8D0E94390C80EE0E94AD032C
:101BD00061E08D8D0E94390C7A940F5F1F4F229621
:101BE000711073CFC5EAD5E009EA15E060E089918C
:101BF0000E94CC010C171D07C9F7C1EAD5E08E0180
:101C000085E0E82E9CE0C92E22E0D22E88898C3017
:101C100008F045C0F88461E08F2D0E94CC018889CE
:101C2000E89EF0011124EF5CFA4F9F2D9F732081F5
:101C3000207CF22EF92AF082138214826C2D0E94ED
:101C40001C12FCE08F9FA001112420E030E0BA01BB
:101C5000620F731FE69EF001E79EF00D1124EF5C0A
:101C6000FA4F908196FD12C02F5F3F4F2C30310507
:101C700071F781110BC010928000D09281001092F8
:101C8000850010928400D6BAD0926F00E889EE9E4B
:101C9000F0011124EF5CFA4F8081806480839E857F
:101CA0008C85F801828B938B60E00E94CC0161E00F
:101CB000F80183890E94CC0160E0F80183890E94C9
:101CC000390C21960E5F1F4FF5E0C33ADF0709F08C
:101CD0009DCFF8941092200189E08093210180E249
:101CE00093E090932901809328011092250110928E
:101CF000240182E080937300789480935F041092B3
:101D000063048091600460E00E94CC010E94120A8A
:101D10008FE392E00E943A0A61E082E00E94CC01E7
:101D200060E082E00E94390C61E083E00E94CC0117
:101D300060E083E00E94390C61E085E00E94CC0104
:101D400061E085E00E94390C60E085E20E94CC01F0
:101D50000E94EA0440E050E060E070E080E090E043
:101D60000E948204C0E0D0E0C0FD03C04FEF50E00D
:101D700002C040E050E060E070E080E090E00E944F
:101D8000820464EF71E080E090E00E942D022196D1
:101D9000CA30D10549F70E94EA0480916E05882374
:101DA00021F12FB7F8948091690290916A02A09175
:101DB0006B02B0916C022FBF40916F05509170057E
:101DC0006091710570917205841B950BA60BB70B82
:101DD0004091730550917405609175057091760579
:101DE00084179507A607B70718F40E948003D5CF7C
:101DF0002FB7F8948091690290916A02A0916B02CA
:101E0000B0916C022FBF80936F0590937005A093E3
:101E10007105B0937205E0917705F09178051995F9
:101E2000E4CF8091790590917A050C940313109278
:101E30007F0210927E0288EE93E0A0E0B0E08093F3
:101E4000800290938102A0938202B093830223E1E7
:101E500032E030937D0220937C0210928B0210922C
:101E60008A0280938C0290938D02A0938E02B0938D
:101E70008F0225E232E0309389022093880245E305
:101E800051E0509395024093940244E351E0509303
:101E900097024093960240E351E050939902409399
:101EA000980241E351E050939B0240939A0242E32F
:101EB00051E050939D0240939C0246E351E05093C1
:101EC0009F0240939E021092A1021092A2021092D1
:101ED000A3021092A4021092280310922703809369
:101EE000290390932A03A0932B03B0932C033093E0
:101EF00026032093250345ED50E050933203409391
:101F0000310344ED50E0509334034093330340EDEC
:101F100050E0509336034093350341ED50E0509329
:101F200038034093370342ED50E050933A03409317
:101F3000390346ED50E050933C0340933B0310922D
:101F40003E0310923F0310924003109241031092FF
:101F5000C5031092C4038093C6039093C703A09354
:101F6000C803B093C9033093C3032093C20385EC25
:101F700090E09093CF038093CE0384EC90E0909315
:101F8000D1038093D00380EC90E09093D3038093AF
:101F9000D20381EC90E09093D5038093D40382EC3C
:101FA00090E09093D7038093D60386EC90E09093D3
:101FB000D9038093D8031092DB031092DC031092B4
:101FC000DD031092DE038091070290910802A09138
:101FD0000902B0910A028093A1059093A205A093F3
:101FE000A305B093A40580910B0290910C02A091DF
:101FF0000D02B0910E028093A5059093A605A093C3
:10200000A705B093A80584E08093A90587E0809395
:10201000AA051092AB0584EB8093AC0586E1809312
:10202000AD0588E18093AE0587E18093AF0589E136
:102030008093B005E0916D05EC3020F08FEF809338
:10204000B10510C081E08E0F80936D05E093B1055E
:1020500085E0E89FF0011124EF5CFA4F88EB9BE0EC
:1020600092838183E0916D05EC3020F08FEF8093B7
:10207000B20510C081E08E0F80936D05E093B2052C
:1020800085E0E89FF0011124EF5CFA4F88EB9BE0BC
:10209000928381838CE08093800584E28093810524
:1020A00086E08093820585E0809383058FE18093AD
:1020B00084058EE18093850583E28093860582E224
:1020C0008093870585E48093880584E4809389055F
:1020D00080E480938C0510929105109292051092E5
:1020E0009305109294051092950510929605109202
:1020F000970510929805E1E7F6E02FE237E08FEFC1
:102100009FEFDC01128213821482158216821782DD
:102110001086118683879487A587B6878787908BDB
:10212000A18BB28B12861182108273962E173F07F5
:1021300049F78DE090E00E946B12FC01138212823D
:1021400087E392E091838083118687E2848384E130
:10215000828784E083871486F0936E06E0936D0691
:1021600010926F061092700685E2809360041092C0
:10217000620410927A051092790510927C051092F3
:102180007B0510927E0510927D0561E070E080E095
:1021900090E00E948C13009791F090937A058093C1
:1021A000790510927C0510927B0520917D05309178
:1021B0007E05232B09F051C0FC0110824EC0809196
:1021C000790590917A05009711F00E9403131092FF
:1021D0007A051092790510927E0510927D05109275
:1021E0007C0510927B0581E080936E0510926F054F
:1021F00010927005109271051092720542E350E042
:1022000060E070E04093730550937405609375052A
:10221000709376052FE235E03093780520937705AB
:10222000809362061092630610926406109265060F
:102230001092660684EF91E0A0E0B0E0809367061C
:1022400090936806A0936906B0936A0688EB93E0C2
:1022500090936C0680936B06089510927E05109201
:102260007D0567E472E08091790590917A050E947E
:102270007F14B9CF990F0008550FAA0BE0E8FEEFC5
:1022800016161706E807F907C0F012161306E4073A
:10229000F50798F0621B730B840B950B39F40A2633
:1022A00061F0232B242B252B21F408950A2609F411
:1022B000A140A6958FEF811D811D08950E94711187
:1022C0000C94E2110E94D41138F00E94DB1120F02E
:1022D000952311F00C94CB110C94D11111240C9472
:1022E00016120E94F31170F3959FC1F3950F50E001
:1022F000551F629FF001729FBB27F00DB11D639FB8
:10230000AA27F00DB11DAA1F649F6627B00DA11D5D
:10231000661F829F2227B00DA11D621F739FB00D03
:10232000A11D621F839FA00D611D221F749F332773
:10233000A00D611D231F849F600D211D822F762F0C
:102340006A2F11249F5750409AF0F1F088234AF0E9
:10235000EE0FFF1FBB1F661F771F881F9150504055
:10236000A9F79E3F510580F00C94CB110C941612E6
:102370005F3FE4F3983ED4F3869577956795B795DC
:10238000F795E7959F5FC1F7FE2B880F911D9695F6
:10239000879597F9089597F99F6780E870E060E066
:1023A00008959FEF80EC089500240A9416161706EE
:1023B00018060906089500240A9412161306140636
:1023C00005060895092E0394000C11F4882352F099
:1023D000BB0F40F4BF2B11F460FF04C06F5F7F4F51
:1023E0008F4F9F4F089557FD9058440F551F59F038
:1023F0005F3F71F04795880F97FB991F61F09F3FF2
:1024000079F087950895121613061406551FF2CF1A
:102410004695F1DF08C0161617061806991FF1CF6A
:1024200086957105610508940895E894BB27662791
:102430007727CB0197F90895991B79E004C0991F7C
:10244000961708F0961B881F7A95C9F7809508950E
:10245000EE0FFF1F881F8BBF0790F691E02D199498
:102460000E9437126894B1110C94161208950E94BC
:10247000FB1188F09F5798F0B92F9927B751B0F00A
:10248000E1F0660F771F881F991F1AF0BA95C9F7F8
:1024900014C0B13091F00E941512B1E008950C946F
:1024A0001512672F782F8827B85F39F0B93FCCF322
:1024B000869577956795B395D9F73EF49095809575
:1024C000709561957F4F8F4F9F4F08950E943A11ED
:1024D00008F48FEF08950F931F93CF93DF9382300B
:1024E000910510F482E090E0E0913107F09132071D
:1024F00020E030E0A0E0B0E0309719F14081518158
:102500000281138148175907C8F08417950769F4A9
:10251000109731F012960C93129713961C9327C0C4
:10252000009331071093320722C02115310519F0AD
:102530004217530718F49A01BD01EF01DF01F801BA
:10254000DBCF21153105F9F0281B390B243031057B
:1025500080F48A819B816115710521F0FB019383D1
:10256000828304C09093320780933107FE01329634
:1025700044C0FE01E20FF31F819391932250310971
:10258000398328833AC020912F0730913007232BBD
:1025900041F42091030230910402309330072093DC
:1025A0002F0720910102309102022115310541F4DB
:1025B0002DB73EB74091050250910602241B350B02
:1025C000E0912F07F0913007E217F307A0F42E1BDC
:1025D0003F0B2817390778F0AC014E5F5F4F241787
:1025E000350748F04E0F5F1F5093300740932F0779
:1025F0008193919302C0E0E0F0E0CF01DF91CF91B1
:102600001F910F910895CF93DF93009709F481C034
:10261000FC01329713821282A0913107B0913207E8
:10262000109781F420813181820F931F20912F0711
:10263000309130072817390751F5F0933007E093B0
:102640002F0767C0ED0120E030E0CE17DF0740F430
:102650004A815B819E0141155105F1F0EA01F5CFF8
:10266000D383C28340815181840F951FC817D90736
:1026700059F488819981840F951F029691838083F4
:102680008A819B81938382832115310529F4F093FC
:102690003207E09331073DC0E901FB83EA834991AA
:1026A0005991C40FD51FEC17FD0761F4808191810A
:1026B000840F951F0296E901998388838281938113
:1026C0009B838A83E0E0F0E012968D919C911397B2
:1026D000009719F0FD01DC01F7CF8D919C911197C6
:1026E0009D012E5F3F4F820F931F20912F07309146
:1026F00030072817390769F4309729F41092320708
:102700001092310702C013821282B0933007A09357
:102710002F07DF91CF9108956F927F928F929F92B2
:10272000AF92BF92CF92DF92EF92FF920F931F93DF
:10273000CF93DF93009789F4CB01DF91CF911F9165
:102740000F91FF90EF90DF90CF90BF90AF909F9050
:102750008F907F906F900C946B12FC01E60FF71F27
:102760009C0122503109E217F30708F4A9C0EC01DB
:10277000D9010D911C91119706171707B0F005307C
:10278000110508F49BC0C80104978617970708F441
:1027900095C002501109061B170B019311936D93FD
:1027A0007C93CF010E94031389C05B01A01AB10A78
:1027B0004C01800E911EA0913107B0913207612C1F
:1027C000712CE12CF12C109709F446C08D919C914D
:1027D0001197A815B905B1F56C0142E0C40ED11CE2
:1027E000CA14DB0478F14C018A189B08640142E0AA
:1027F000C40ED11C1296BC9012971396AC91B5E002
:10280000CB16D10440F0B282A38391828082D90199
:102810006D937C9309C00E5F1F4F800F911FF901CC
:1028200091838083EB2DFA2FE114F10431F0D7016D
:102830001396FC93EE93129741C0F0933207E09306
:1028400031073CC06816790608F43C017D011296F8
:102850000D90BC91A02DB7CF80912F07909130079C
:1028600088169906E1F466167706C8F4809101028D
:1028700090910202009741F48DB79EB740910502F6
:1028800050910602841B950BE817F907C8F4F093E2
:102890003007E0932F07F901718360830FC0CB01EC
:1028A0000E946B127C01009759F0A801BE010E94A2
:1028B0007614CE010E940313C70104C0CE0102C0EA
:1028C00080E090E0DF91CF911F910F91FF90EF900A
:1028D000DF90CF90BF90AF909F908F907F906F9040
:1028E000089581E090E0F8940C948614FB01DC01DB
:1028F00002C001900D9241505040D8F70895FB015D
:10290000DC0101900D920020E1F7089511E0C8E983
:10291000D1E000E006C0802FFE010E94281221961F
:10292000011DC939D10780E00807A9F7F894FFCF46
:10293000FF000033078000363738391B1D1A1C0092
:10294000000000E309B609B5038A09AE099A098BAC
:1029500009000000000E03670291025B03C202A09F
:1029600002B402000000000A056702B503B4037355
:0829700074617274000D0A008D
:00000001FF
