:100000000C9438020C9469020C9469020C946902F5
:100010000C9469020C9469020C9469020C946902B4
:100020000C9469020C9410150C9410150C94101576
:100030000C9469020C946E110C9469020C94690280
:100040000C9469020C944E100C9469020C94690291
:100050000C9469020C9469020C9469020C942411AA
:100060000C9469020C94180E0C94EE0D0C94690219
:100070000C9469020C9469020C9469020C94690254
:100080000C9469020C9469020C9469020C94690244
:100090000C9469020C9469020C9469020C941A1570
:1000A0000C9469020C9469020C9469020C94690224
:1000B0000C9469020C9469020C9469020C94760EFB
:1000C0000C9469020C9469020C9469020C94C40D9E
:1000D0000C949A0D0C9469020C94700D0C94460DBE
:1000E0000C946902DF04EC04EF04FA0407050A0526
:1000F000130516051D0522052D052D052D052D05BC
:100100002D052D052D05B0041D056304DF046B04CA
:100110006E041305D104EC047B04D104840492041E
:100120009204DF04A0042205B0040A05BA04CE0438
:10013000CE04CE04D104DA04EF042D052D052D05DF
:100140002D052D052D05B0045404630466046B04CD
:100150006E0473047604EC047B04D10484048B04E1
:100160008B049904A0042205A7040A05B304C30460
:10017000C304C304D104DA04EF04950F9A0F9F0F50
:10018000A90FB30F2C10BD0FC50FCD0FD70FE10F67
:10019000EB0FFA0F04102C100E10181022109914E7
:1001A0009C148B148F149514D314A014A414AA14A3
:1001B000AE14B214B814BC14C014D314C614CA14A8
:1001C000CE140C94F6130C94EB0F0C94B3040C9413
:1001D000AD1D0C94C0140C94B0040C949E050C94AA
:1001E0007B040C94CD0F0C94A8070C9406140C946B
:1001F000B4180C94A7040C946E040C94FA040C9498
:1002000022140C94F5130C94CE040C9472020C94EA
:100210006F070C9476040C941D050C94D2170C9463
:100220002C100C94FA0F0C94C50F0C94E10F0C9445
:1002300066040C94EC040C942D050C94A90F0C94FA
:1002400054040C9416080C9499040C9473040C94A4
:10025000DA040C948B140C94D70F0C94A0140C9407
:10026000D3140C94DF040C94AE140C949F0F0C94D4
:10027000D1040C94A4140C94AA140C9495140C940A
:100280005A090C940E100C9463080C94F4130C94FB
:10029000F7130C9463040C9413050C9422050C942E
:1002A0008B040C946C020C94BC070C94BA040C9450
:1002B000FD100C94BD0F0C940A050C9430090C949D
:1002C00004100C94C6140C9484040C9499140C948B
:1002D000C3040C946B040C9445090C9453070C94C0
:1002E00076020C94950F0C9499090C94CE140C94EE
:1002F000B30F0C944F140C9407050C9422100C941B
:10030000B8140C948F140C9418100C9416050C94BB
:10031000BC140C94B2140C94CA070C94BA090C9433
:10032000B2080C940C180C9492040C941A140C94AB
:100330009C140C94A0040C946B020C949A0F0C94D3
:10034000EF040C94CA140C949907020000210024B5
:100350000027002A002D00300033000101000004B6
:100360000107010A0100002200250028002B002EB1
:10037000003100340002010000050108010B0100FA
:100380000020002300260029002C002F003200004E
:10039000010000030106010901050505050705081F
:1003A000080808020202020A0A08080404040401F8
:1003B000010101010101010303030303030303041A
:1003C0000707070C0C0C0C0C0C0C0C0202020206AA
:1003D000060606060606060B0B0B0B0B0B0B0B019A
:1003E0000210202008081020401020408002010246
:1003F000010804020101020408102040808040200E
:100400001008040201800402018040201008040248
:1004100001080402010102040810204080010204C6
:10042000081020408000000A0B02090C0D0E08077E
:1004300003040100000000000000000000000000B4
:1004400000000000000000000000000000000000AC
:100450000012111000000000000000000000000069
:10046000000000000000000000000000AD1DD217D9
:1004700011241FBECFEFD1E2DEBFCDBF00E00CBF25
:1004800012E0A0E0B2E0E2E4F8E400E00BBF02C05A
:1004900007900D92A23FB107D9F728E0A2EFB2E092
:1004A00001C01D92A833B207E1F712E0C7E3D2E022
:1004B00000E006C021970109802FFE010E94B121B2
:1004C000C633D10780E00807A9F70E94BF180C9433
:1004D0000F240C940000089580E090E00895E0E07F
:1004E000F0E0199461E088E00C94FB16EF92FF9223
:1004F0000F931F93CF93DF9382E892E00E944712FD
:1005000041E064EF72E089EB96E00E94B20804EFEC
:1005100012E0C1E0D0E07801F801619171918F01A2
:1005200080E090E04AE00E948E1289E892E00E940A
:100530003512F701808191818139914030F4219603
:10054000C930D10541F7C0E0D0E0BE010D2E000C4E
:10055000880B990B0E94CF1289E892E00E94351215
:10056000209709F443C040E050E060E87EEB8DEA5C
:1005700097E00E94340F40E050E060E87EE38FEAAD
:1005800097E00E94340F64EF71E080E090E00E94F9
:10059000981725977CF440E050E060E87EE38FEA0E
:1005A00097E00E94340F40E050E060E87EE38DEA7F
:1005B00097E00EC040E050E060E87EEB8DEA97E007
:1005C0000E94340F40E050E060E87EEB8FEA97E055
:1005D0000E94340F64EF71E080E090E0DF91CF91F2
:1005E0001F910F91FF90EF900C94981740E050E00E
:1005F00060E87EE38DEA97E00E94340F40E050E02F
:1006000060E87EEB8FEA97E0DF91CF911F910F9129
:10061000FF90EF900C94340F2F923F924F925F9285
:100620006F927F928F929F92AF92BF92CF92DF9202
:10063000EF92FF920F931F93CF93DF93CDB7DEB767
:1006400064970FB6F894DEBF0FBECDBFCE01019602
:100650006C014E0195E1890E911CF60111921192E7
:10066000E815F905D9F786018AE0282E312C95E0A6
:10067000492E512C66246394712C0E94D41480E47A
:100680000E9496137C010E94D41482E40E94961367
:100690005C010E94D41484E40E949613AE14BF043B
:1006A00074F48A159B0554F58F35E1E09E074CF1F3
:1006B000F80171826082E816F906E4F022C0EA14BB
:1006C000FB047CF48E159F0564F48F35F1E09F07E1
:1006D00044F021E9E21621E0F2061CF0F801518213
:1006E00040828A159B0554F4E816F90654F48F35B8
:1006F00091403CF0F8013182208203C0F801118260
:1007000010820E5F1F4F8016910609F0B6CF80E071
:1007100090E0F601219131916F01820F931FE8154E
:10072000F905B9F78D329105C1F04CF48830910587
:10073000D4F08B309105D4F0889779F014C08035CF
:10074000910571F01CF4C29741F00DC08A359105F6
:1007500039F08436910521F006C022E030E008C06F
:1007600023E030E005C020E030E002C021E030E0CE
:100770008091F2029091F3022817390731F03093FB
:10078000F3022093F20280E090E064960FB6F894B2
:10079000DEBF0FBECDBFDF91CF911F910F91FF90B4
:1007A000EF90DF90CF90BF90AF909F908F907F9011
:1007B0006F905F904F903F902F900895EF92FF922F
:1007C0000F931F93CF93DF937C018B01EA01682F76
:1007D0008FE20E94FB16B701FF0C880B990B0E9459
:1007E000CF12602F80E30E94FB16B801110F880B17
:1007F000990B0E94CF126C2F81E30E94FB16BE0161
:10080000DD0F880B990B0E94CF1289E892E0DF91EF
:10081000CF911F910F91FF90EF900C94351240E013
:1008200050E060E070E081E090E00E94DE0340E094
:1008300050E0BA018DEA97E00E94340F40E050E0AA
:1008400060E070E88FEA97E00C94340F8F929F92EB
:10085000BF92CF92DF92EF92FF920F931F93CF93AD
:10086000DF93CDB7DEB72E970FB6F894DEBF0FBE7D
:10087000CDBF6C019FE0E92E92E0F92E01E010E07F
:10088000D601ED916D018E2FEE0F990BAA0BBB0BCC
:10089000FC01F097EB34F10508F0DFC08827EE5833
:1008A000FF4F8F4F0C94B1211A8219821C821B8238
:1008B0001E830D8318870F831A8709871C870B8770
:1008C0001E870D87D8C01A83098320C01A82198217
:1008D0001C830B8332C01A83098347C01A830983A0
:1008E0001C821B8231C01A83098366C01A82198256
:1008F0001C821B825AC01A8219821C830B831E839E
:100900000D8318870F83B1C01A8219821C821B8243
:100910001E821D825AC01A8219821C821B821E836B
:100920000D831BC01A8309831C830B831E830D83D5
:1009300027C01A8219821C821B821E830D8355C018
:100940001A8309831C830B831E821D8230C01A8286
:1009500019821C821B821E821D8218861F8247C03C
:100960001A83098320C01A8219821C821B821E826C
:100970001D82A0CF1A8309831C821B821E821D82C6
:1009800018861F8224C01A8219821C821B821E8331
:100990000D8318870F831A87098769C01A82198205
:1009A00010C01A8219821C830B831E830D83188644
:1009B0001F8282CF1A8219821C830B832FC01A8355
:1009C00009831C830B831E830D8318870F831A876B
:1009D00009871C870B874DC01A82198229C01A8388
:1009E00009831C830B831E821D8218870F831A873D
:1009F00009870AC01A8309831C830B831E830D8316
:100A000018870F831A8619861C861B8659CF1A826F
:100A100019821AC01A8309831C821B821E830D83CC
:100A200018870F8317C01A83098340CF1A8309835D
:100A30001C830B831E830D8316C01A8309831C83BA
:100A40000B8336CF1A8309831C830B831E830D838C
:100A500018861F821A86198631CF1A8219821C8243
:100A60001B821E821D8218861F821A8619861C868A
:100A70001B861E861D86F701B1907F0161E08DE126
:100A80000E94FB1661E080E20E94FB1661E085E2B5
:100A90000E94FB1661E086E20E94FB1661E087E29D
:100AA0000E94FB1660E08B2D0E94FB16CE01019682
:100AB0004C0186E1B82ED4016C91B2E08B0E911CF2
:100AC0008B2D0E94FB16B394EDE1BE12F4CF61E0D2
:100AD00070E080E090E00E949817F4E1EF16F2E0F9
:100AE000FF0609F0CDCE61E087E22E960FB6F894AE
:100AF000DEBF0FBECDBFDF91CF911F910F91FF9051
:100B0000EF90DF90CF90BF909F908F900C94FB164A
:100B1000CF93DF93EC010E940F048EE20E94D21665
:100B2000892B21F4CE010E942604F7CF68EE73E0F2
:100B300080E090E0DF91CF910C949817AF92BF9234
:100B4000CF92DF92EF92FF920F931F93CF93DF9399
:100B50008CE892E00E94471261E08091A0060E941A
:100B6000FB160E940C038C01892B09F449C10E94D9
:100B70000F0460E08091A0060E94FB1641E050E067
:100B800061E070E081E090E00E94DE0381E090E0AF
:100B90000E94FB120230110549F00330110541F0AB
:100BA0000130110541F43AE5B32E04C0B12C02C066
:100BB00044EBB42EA12C9091BF07B91620F0909170
:100BC000C0079B1528F484E992E00E94471248C0B0
:100BD000C091C507CC3008F043C085E0C89FE00154
:100BE0001124C95CD94F8B8128E830E06901C81A0B
:100BF000D10887FDD394CC0CDD1CCC0CDD1C0D2C56
:100C0000000CEE08FF088C8128E532E0281B310932
:100C100087FD3395220F331F220F331FC901330F76
:100C2000AA0BBB0B9C01AD012C193D094E095F09B4
:100C3000AB2DBA2D0E94582124EB30E040E050E06B
:100C40000E942E21C20ED31EE41EF51E86E0C81A95
:100C5000D108CC0CDD1C8FB7F894DA82C9828FBF23
:100C600068EC70E080E090E00E9498172FB7F8944D
:100C70008091610590916205A0916305B091640532
:100C80002FBF8093B2069093B306A093B406B0939F
:100C9000B50668E572E080E090E00E94CF1289E836
:100CA00092E00E94351261E08CE00E94FB1660E049
:100CB0008AE00E94FB16C7E5D2E085E996E00E9433
:100CC000420E61E08BE00E94FB1661E070E080E084
:100CD00090E00E94981760E088E00E94FB1660E0B8
:100CE0008BE00E94FB1661E070E080E090E00E94E3
:100CF0009817219711F782E090E00E94FB122FB71E
:100D0000F8948091610590916205A0916305B0917E
:100D100064052FBF8093B2069093B306A093B406E8
:100D2000B093B50668E572E080E090E00E94CF12D3
:100D300089E892E00E94351260E08CE00E94FB1688
:100D4000C7E5D2E085E996E00E94420E61E08BE0C3
:100D50000E94FB1661E070E080E090E00E9498172E
:100D600060E08BE00E94FB1661E070E080E090E0C4
:100D70000E949817219731F761E08AE00E94FB16E4
:100D80000230110581F003301105B9F00130110571
:100D9000E9F48091290390912A03019690932A0304
:100DA0008093290313C08091270390912803019613
:100DB000909328038093270309C080912503909185
:100DC000260301969093260380932503809129039F
:100DD00090912A03049754F580912703909128035A
:100DE00004976CF580912503909126030497BCF439
:100DF00040E050E061E070E080E090E00E94DE03BF
:100E000060E08091A006DF91CF911F910F91FF903C
:100E1000EF90DF90CF90BF90AF900C94FB161092A4
:100E200026031092250381EB92E006C010922A035C
:100E30001092290386EB92E00E948805D9CF109288
:100E40002803109227038CEB92E0F6CF82EC92E01D
:100E50000E94471240E050E060E070E081E090E0E6
:100E60000E94DE038EE20E94D216892B29F487ECC1
:100E700092E00E942604F6CF8DEC92E00E94471289
:100E80008EE20E94D2160197D9F362E370E080E00F
:100E900090E00E94981740E050E061E070E080E050
:100EA00090E00C94DE0383ED92E00E9447128EE204
:100EB0000E94D216019779F40E940F048EE20E94DC
:100EC000D2160197D9F362E370E080E090E00E94CF
:100ED00098170E94260760E08FE20C94FB16CF92D1
:100EE000DF92EF92FF920F931F93CF93DF936C01EA
:100EF0007A018B01C0E0D0E0CE15DF0581F0D8018A
:100F00006D918D01D601ED91FC910190F081E02D64
:100F1000C6011995892B11F02196EECF7E01C701EC
:100F2000DF91CF911F910F91FF90EF90DF90CF90C5
:100F30000895FC01538D448D252F30E0842F90E0DF
:100F4000821B930B541710F0CF96089501970895C4
:100F5000FC01918D828D981761F0828DDF01A80FC1
:100F6000B11D5D968C91928D9F5F9F73928F90E0E3
:100F700008958FEF9FEF0895FC01918D828D981752
:100F800031F0828DE80FF11D858D90E008958FEF8F
:100F90009FEF0895FC01918D228D892F90E0805C58
:100FA0009F4F821B91098F73992708958AE893E0D8
:100FB0000E94CA0721E0892B09F420E0822F0895BE
:100FC00087E294E00E94CA0721E0892B09F420E01F
:100FD000822F089584EC94E00E94CA0721E0892BB7
:100FE00009F420E0822F0895FC01848DDF01A80F11
:100FF000B11DA35ABF4F2C91848D90E001968F7341
:101000009927848FA689B7892C93A089B1898C915F
:10101000837080648C93938D848D981306C00288AE
:10102000F389E02D80818F7D80830895EF92FF9278
:101030000F931F93CF93DF93EC0181E0888F9B8DFB
:101040008C8D981305C0E889F989808185FD26C0BB
:10105000F62E0B8D10E00F5F1F4F0F731127E02E40
:101060008C8DE8120CC00FB607FCFACFE889F9891D
:10107000808185FFF5CFCE010E94F407F1CF8B8DE3
:10108000FE01E80FF11DE35AFF4FF0829FB7F8947D
:101090000B8FEA89FB89808180620AC09FB7F89430
:1010A000EE89FF896083E889F98980818370806493
:1010B00080839FBF81E090E0DF91CF911F910F91DE
:1010C000FF90EF900895CF93DF93EC01888D8823F4
:1010D000C9F0EA89FB89808185FD05C0A889B989A5
:1010E0008C9186FD0FC00FB607FCF5CF808185FF80
:1010F000F2CFA889B9898C9185FFEDCFCE010E94EE
:10110000F407E7CFDF91CF91089580E090E0892B3D
:1011100021F00E94EA07811119C080E090E0892B3C
:1011200041F080E090E0892B21F00E9400008111C5
:1011300010C00E94E00781110FC080E090E0892B71
:1011400081F00E94D60781110AC008950E94000014
:10115000E4CF0E940000EDCF0E946F02EECF0C940E
:1011600000000895DF92EF92FF920F931F93CF93A9
:10117000DF93CDB7DEB7EE970FB6F894DEBF0FBEA4
:10118000CDBF8C017B01D42E8FEF840FD801ED9160
:10119000FC91823020F40480F581E02D05C04111DE
:1011A00005C00280F381E02DC8011995D801ED91A9
:1011B000FC910084F185E02D20E041E0B701C801F9
:1011C0001995B5E0DB16F1F1D801ED91FC910280A3
:1011D000F381E02DC8011995B2E0DB1233C0D801CC
:1011E000ED91FC910084F185E02D20E041E0BE010D
:1011F0006F5F7F4FC801199540E0F801848548175B
:1012000008F5842F90E0880F991FF701E80FF91F68
:1012100021E030E02C0F3D1F820F931FD8011E9656
:101220002D913C911F97DC018D919C91B901681B18
:10123000790BCB0120813181820F931F91838083B1
:101240004F5FDBCFEE960FB6F894DEBF0FBECDBF7B
:10125000DF91CF911F910F91FF90EF90DF90089554
:10126000CF93DF93FC0185858F3F61F0EF0161E053
:101270000E945C1761E08D850E94FB168BE193E074
:101280000197F1F7DF91CF910895CF93DF93FC01A0
:1012900085858F3F61F0EF0161E00E945C1760E09F
:1012A0008D850E94FB168BE193E00197F1F7DF91AA
:1012B000CF910895FF920F931F93CF93DF93EC018B
:1012C0008B01F22E1B821A821D821C821F821E82BB
:1012D00019861886198A188A403218F08FE18C878F
:1012E00001C04C878A859B85892B11F080E009C05D
:1012F0008C8590E00E94F4219B878A87892BB1F727
:1013000012C09C85891770F4282F30E0F801E20F95
:10131000F31F90814A855B85FA01E20FF31F9083EA
:101320008F5FEFCFFD86DF91CF911F910F91FF90DF
:1013300008950F931F93CF93DF93EC01122F202F6B
:10134000E881F9813697808191818C0F9D1F0E94E1
:101350005A091A83E881F981369780819181C80FF3
:10136000D91F8FEF93E09F878E87DF91CF911F91D9
:101370000F9108950F931F93CF93DF938C01C62F86
:10138000D62FD07FD1606D2F0E94A8166D2FC80177
:101390000E94BD1680E1C89FB0011124C62FC16014
:1013A0006C2FC8010E94A8166C2FC8010E94BD16A0
:1013B00081E090E0DF91CF911F910F9108954F92BE
:1013C0005F926F927F928F929F92AF92BF92CF92D5
:1013D000DF92EF92FF920F931F93CF93DF9300D092
:1013E0001F921F92CDB7DEB78B0129013A01909170
:1013F0000002891721F09F3F09F032C305C0EAE4DB
:10140000F3E024912D83EFC080930002EAE4F3E03F
:1014100094919D839F3F09F423C3923009F473C0D4
:1014200048F5992309F452C0913009F0DCC01092BC
:1014300080001092810090918100986090938100CB
:1014400090918100916090938100282F30E0F90104
:10145000E756FC4FE491F0E0EE0FFF1FEB59FC4F15
:1014600045915491F901E152FC4FE491E093080356
:1014700091E093C02D81243009F491C008F46BC031
:10148000253009F0B0C010922001109221019091F6
:101490002101986090932101909121019160909396
:1014A0002101282F30E0F901E756FC4FE491F0E0EC
:1014B000EE0FFF1FEB59FC4F45915491F901E1529A
:1014C000FC4FE491E093050395E067C014BC15BCA4
:1014D00094B5926094BD95B5916095BD282F30E08C
:1014E000F901E756FC4FE491F0E0EE0FFF1FEB59D6
:1014F000FC4F45915491F901E152FC4FE491E09386
:1015000009031D82A9C21092B0001092B1009091FF
:10151000B00092609093B0009091B1009160909370
:10152000B100282F30E0F901E756FC4FE491F0E0DC
:10153000EE0FFF1FEB59FC4F4591549150931F0341
:1015400040931E03F901E152FC4FE491E093200324
:1015500022E02D8381C21092900010929100909110
:101560009100986090939100909191009160909378
:101570009100282F30E0F901E756FC4FE491F0E0AC
:10158000EE0FFF1FEB59FC4F45915491F901E152C9
:10159000FC4FE491E093070393E09D83ADC010926C
:1015A000A0001092A1009091A10098609093A100DA
:1015B0009091A10091609093A100282F30E0F90153
:1015C000E756FC4FE491F0E0EE0FFF1FEB59FC4FA4
:1015D00045915491F901E152FC4FE491E0930603E7
:1015E00024E02D8389C02D8127FD3AC261E00E944D
:1015F0005C178D818D7F09F082C04801A12CB12C30
:1016000060E072E18AE790E0A50194010E942E213A
:1016100029833A834B835C8369017A0181E0C81A8C
:10162000D108E108F1089FEFC916D104E104F104E3
:1016300009F008F44EC060E472E48FE090E0A50188
:1016400094010E942E2169017A0181E0C81AD10813
:10165000E108F1089D81923009F52FEFC216D104FF
:10166000E104F10409F008F4BEC160E970ED83E023
:1016700090E0A50194010E942E2169017A0181E088
:10168000C81AD108E108F1089FEFC916D104E10496
:10169000F10411F008F035C183E027C02FEFC21626
:1016A000D104E104F104B9F0B0F068E478EE81E02F
:1016B00090E0A50194010E942E2169017A0181E048
:1016C000C81AD108E108F1089D81992309F48FC156
:1016D00057C181E001C082E09D81911106C095B59E
:1016E000987F892B85BD7EC085E09091B100987F61
:1016F000892B8093B10076C061E00E945C1748019D
:10170000A12CB12C60E072E18AE790E0A501940180
:101710000E942E2169017A0181E0C81AD108E108EE
:10172000F108C114D10491E0E906F10488F068E4FD
:1017300078EE81E090E0A50194010E942E216901DC
:101740007A0181E0C81AD108E108F10883E001C0FC
:1017500081E09D81913081F490918100987F892B67
:1017600080938100411451046104710409F03FC069
:101770002FEF3FEFA9016DC02D81233079F49091B7
:101780009100987F892B809391004114510461044A
:10179000710469F52FEF3FEFA9017DC09D81943061
:1017A00079F49091A100987F892B8093A100411436
:1017B000510461047104D9F42FEF3FEFA9017DC0FA
:1017C0002D81253079F490912101987F892B809388
:1017D0002101411451046104710449F42FEF3FEFDA
:1017E000A9017DC0411451046104710471F0D80154
:1017F000AA0FBB1FA30192010E944D2128EE33E0E6
:1018000040E050E00E94602103C02FEF3FEFA901AC
:101810008D81823081F12CF4882361F08130C9F010
:101820001FC19D81943009F448C0ACF1953009F492
:1018300056C016C1C7BC20931A0330931B034093B4
:101840001C0350931D0380916E00826080936E0094
:1018500007C1D0928900C09288002093160330936C
:101860001703409318035093190380916F0082600F
:1018700080936F00F5C0C092B30020932103309392
:1018800022034093230350932403809170008260CD
:1018900080937000E5C0D0929900C0929800209388
:1018A0001203309313034093140350931503809154
:1018B0007100826080937100D3C0D092A900C09261
:1018C000A80020930E0330930F034093100350930E
:1018D000110380917200826080937200C1C0D09227
:1018E0002901C092280120930A0330930B034093EF
:1018F0000C0350930D0380917300826080937300FA
:10190000AFC068E478EE81E090E0A50194010E9408
:101910002E2169017A0181E0C81AD108E108F10895
:101920009FEFC916D104E104F10441F138F164E2FA
:1019300074EF80E090E0A50194010E942E216901DE
:101940007A0181E0C81AD108E108F1089FEFC916B1
:10195000D104E104F10409F008F4C6CE62E17AE7AB
:1019600080E090E0A50194010E942E2169017A0196
:1019700081E0C81AD108E108F10818C084E0B5CEAA
:101980002FEFC216D104E104F10479F170F162E1A4
:101990007AE780E090E0A50194010E942E21690180
:1019A0007A0191E0C91AD108E108F1088FEFC81651
:1019B000D104E104F104A9F0A0F089819A81AB81FE
:1019C000BC812AE0B595A795979587952A95D1F77B
:1019D0006C017D0121E0C21AD108E108F10887E01D
:1019E00084CE86E082CE82E080CE84E075CE2FEF7A
:1019F000C216D104E104F10469F160F162E17AE711
:101A000080E090E0A50194010E942E2169017A01F5
:101A100081E0C81AD108E108F1089FEFC916D10486
:101A2000E104F104A9F0A0F089819A81AB81BC8125
:101A30003AE0B595A795979587953A95D1F76C01BA
:101A40007D0121E0C21AD108E108F10885E047CE06
:101A500084E045CE83E043CE61E00E945C17CDCDAB
:101A60000F900F900F900F900F90DF91CF911F91DB
:101A70000F91FF90EF90DF90CF90BF90AF909F902D
:101A80008F907F906F905F904F9008951F920F926C
:101A90000FB60F9211240BB60F922F933F934F93D3
:101AA0005F936F937F938F939F93AF93BF93EF93C6
:101AB000FF938AE893E00E94F407FF91EF91BF91B2
:101AC000AF919F918F917F916F915F914F913F91D6
:101AD0002F910F900BBE0F900FBE0F901F90189577
:101AE0001F920F920FB60F9211240BB60F922F93E5
:101AF0003F934F935F936F937F938F939F93AF9396
:101B0000BF93EF93FF938AE893E00E94F714FF914D
:101B1000EF91BF91AF919F918F917F916F915F9165
:101B20004F913F912F910F900BBE0F900FBE0F90D2
:101B30001F9018951F920F920FB60F9211240BB69B
:101B40000F922F933F934F935F936F937F938F9356
:101B50009F93AF93BF93EF93FF9387E294E00E942C
:101B6000F407FF91EF91BF91AF919F918F917F917A
:101B70006F915F914F913F912F910F900BBE0F90FE
:101B80000FBE0F901F9018951F920F920FB60F92D5
:101B900011240BB60F922F933F934F935F936F9344
:101BA0007F938F939F93AF93BF93EF93FF9387E2BE
:101BB00094E00E94F714FF91EF91BF91AF919F9134
:101BC0008F917F916F915F914F913F912F910F90E6
:101BD0000BBE0F900FBE0F901F9018951F920F9283
:101BE0000FB60F9211240BB60F922F933F934F9382
:101BF0005F936F937F938F939F93AF93BF93EF9375
:101C0000FF9384EC94E00E94F407FF91EF91BF9161
:101C1000AF919F918F917F916F915F914F913F9184
:101C20002F910F900BBE0F900FBE0F901F90189525
:101C30001F920F920FB60F9211240BB60F922F9393
:101C40003F934F935F936F937F938F939F93AF9344
:101C5000BF93EF93FF9384EC94E00E94F714FF91FD
:101C6000EF91BF91AF919F918F917F916F915F9114
:101C70004F913F912F910F900BBE0F900FBE0F9081
:101C80001F901895FC018081882379F12FB7F89473
:101C90008091610590916205A0916305B091640502
:101CA0002FBF4181528163817481841B950BA60BE8
:101CB000B70B458156816781708584179507A60704
:101CC000B70798F02FB7F89480916105909162055D
:101CD000A0916305B09164052FBF81839283A38394
:101CE000B4830184F285E02D199408951F920F9218
:101CF0000FB60F9211240BB60F922F933F934F9371
:101D00005F936F937F938F939F93AF93BF93EF9363
:101D1000FF93809166050E94D21620916A0530914A
:101D20006B052F5F3F4F30936B0520936A059091B1
:101D30006905953618F096E09093650590916505D4
:101D40009430C9F128F4923069F09330D1F05EC03C
:101D5000953009F451C0963009F058C091E0909345
:101D6000360651C0811152C020916A0530916B0531
:101D70002436310508F442C01092360610926905E7
:101D80001CC0813009F042C0E091690591E09E0FCE
:101D900090936905F0E020916A0530916B05EE0F94
:101DA000FF1FEB59FA4F3087278310926B05109273
:101DB0006A0594E029C0811117C0E091690591E09E
:101DC0009E0F90936905F0E020916A0530916B05B4
:101DD000EE0FFF1FEB59FA4F3087278310926B05E8
:101DE00010926A0593E010C020916A0530916B054E
:101DF0002536310558F007C0811108C010926B05D7
:101E000010926A0503C095E090936505909168056E
:101E10009923B9F081110AC080916705882321F0C8
:101E20008091670561E009C02F9A0BC0809167051A
:101E3000882331F08091670560E00E94FB1601C0A5
:101E40002F98FF91EF91BF91AF919F918F917F91CB
:101E50006F915F914F913F912F910F900BBE0F901B
:101E60000FBE0F901F9018958F929F92AF92BF92C6
:101E7000CF92DF92EF92FF920F931F93CF93DF9356
:101E80008C016A017B0120E030E04FE753E4C70199
:101E9000B6010E9470204B015C0120E030E0A901F6
:101EA0000E94EF2118161CF4C501B40103C0C5013E
:101EB000B40190580E94B921EB0120E030E0A90163
:101EC000C701B6010E94EF21181614F460E001C0AA
:101ED00061E0F80181810E94FB16CF3FD10509F036
:101EE00014F4DD2702C0CFEFD0E0F801108161E0EB
:101EF000812F0E945C17209709F4B1C0CF3FD10514
:101F000009F4AFC0E12FF0E0EB5DFB4FE4918E2FC1
:101F100090E0FC013197E231F10508F09DC088277F
:101F2000E354FF4F8F4F0C94B12184B5806884BD7A
:101F3000C7BDA7C084B5806284BDC8BDA2C0809162
:101F40008000806880938000D0938900C0938800CF
:101F500098C080918000806280938000D0938B0035
:101F6000C0938A008EC0809180008860809380003A
:101F7000D0938D00C0938C0084C08091B0008068A5
:101F80008093B000C093B3007CC08091B0008062A9
:101F90008093B000C093B40074C0809190008068BA
:101FA00080939000D0939900C09398006AC080916C
:101FB0009000806280939000D0939B00C0939A0021
:101FC00060C080919000886080939000D0939D00C5
:101FD000C0939C0056C08091A00080688093A000B0
:101FE0008091A0008F7B8093A000D093A900C09324
:101FF000A80047C08091A00080628093A000D09389
:10200000AB00C093AA003DC08091A000886080937F
:10201000A000D093AD00C093AC0033C080912001EC
:10202000806880932001D0932901C093280129C0A2
:1020300080912001806280932001D0932B01C09376
:102040002A011FC080912001886080932001D093D5
:102050002D01C0932C0115C0C038D10514F460E0E7
:1020600001C061E0812FDF91CF911F910F91FF900F
:10207000EF90DF90CF90BF90AF909F908F900C9497
:10208000FB16DF91CF911F910F91FF90EF90DF90A2
:10209000CF90BF90AF909F908F9008951F920F9216
:1020A0000FB60F9211240BB60F922F933F934F93BD
:1020B0005F936F937F938F939F93AF93BF93EF93B0
:1020C000FF938091040387FF05C010928500109252
:1020D000840016C020910403022E000C330B809163
:1020E000730690E0281739075CF43091040325E06B
:1020F0003203F0011124E95CF94F808186FD15C09F
:10210000809104038F5F8093040320910403022EC7
:10211000000C330B8091730690E02817390794F474
:10212000809104038C302CF10DC0309104033203F4
:10213000F0011124E95CF94F808160E08F730E9407
:10214000FB16DECF809184009091850084349C49F9
:1021500018F480E49CE905C080918400909185008A
:10216000049690938900809388008FEF80930403F6
:102170002AC040918400509185003091040325E0ED
:102180003203F0011124E95CF94F81819281840FBF
:10219000951F909389008093880030910403320347
:1021A000F0011124E95CF94F808186FF0CC0309169
:1021B00004033203F0011124E95CF94F808161E0EE
:1021C0008F730E94FB16FF91EF91BF91AF919F918A
:1021D0008F917F916F915F914F913F912F910F90D0
:1021E0000BBE0F900FBE0F901F9018958EBD000074
:1021F0000DB407FEFDCF8EB508950E94FA233FB7B8
:10220000F89480912D0390912E03A0912F03B0910B
:10221000300326B5A89B05C02F3F19F00196A11DDC
:10222000B11D3FBFBA2FA92F982F8827820F911D6C
:10223000A11DB11DBC01CD0142E0660F771F881FB3
:10224000991F4A95D1F708951F920F920FB60F92DA
:1022500011242F933F938F939F93AF93BF938091BC
:10226000610590916205A0916305B091640530917C
:102270002C0323E0230F2D3720F40196A11DB11D5F
:1022800005C026E8230F0296A11DB11D20932C0343
:102290008093610590936205A0936305B0936405F4
:1022A00080912D0390912E03A0912F03B0913003C4
:1022B0000196A11DB11D80932D0390932E03A09331
:1022C0002F03B0933003BF91AF919F918F913F91B6
:1022D0002F910F900FBE0F901F9018951F920F9285
:1022E0000FB60F9211240BB60F922F933F934F937B
:1022F0005F936F937F938F939F93AF93BF93EF936E
:10230000FF938091210390912203A0912303B09128
:102310002403892B8A2B8B2B59F190912003E09178
:102320001E03F0911F038081892780838091210300
:1023300090912203A0912303B0912403181619064B
:102340001A061B060CF056C08091210390912203BF
:10235000A0912303B09124030197A109B1098093AF
:10236000210390932203A0932303B093240342C03C
:1023700080910002EAE4F3E0E4919FEF9093000281
:10238000E230C9F050F4EE2399F0E13081F59091FC
:102390006F009D7F90936F002AC0E43019F1E0F048
:1023A000E53029F5909173009D7F909373001FC0D5
:1023B00010926E001CC0909170009D7F90937000F1
:1023C00091E09093B0009091B100987F94609093C9
:1023D000B1001092B3000BC0909171009D7F90935B
:1023E000710005C0909172009D7F9093720060E033
:1023F0000E94FB16FF91EF91BF91AF919F918F913A
:102400007F916F915F914F913F912F910F900BBEF4
:102410000F900FBE0F901F901895E4ECF4E0A08988
:10242000B18982E08C93A485B5851C92A685B78579
:102430008FEC8C93108EA489B58986E08C93A28949
:10244000B3898C9180618C93A289B3898C918860C7
:102450008C93A289B3898C9180688C930288F389CC
:10246000E02D80818F7D80830895009769F0FC01C5
:1024700001900020E9F73197AF01481B590BBC01CF
:1024800084EC94E00C946F0780E090E00895CF9383
:10249000DF930E943512EC0189E892E00E94351228
:1024A0008C0F9D1FDF91CF9108950F931F93CF93B2
:1024B000DF93162F072FC4E9D7E09C8521E02093F6
:1024C0007D0390937C0310927B0310927A03AA857C
:1024D000BB85ED91FC9111970190F081E02D682F63
:1024E000CD0119958A859B85DC01ED91FC910190C8
:1024F000F081E02D602F19958A859B85DC01ED9197
:10250000FC910190F081E02D612F19958A859B85C2
:10251000DF91CF911F910F910C944C168F929F9247
:10252000AF92BF920F931F93CF93DF93CDB7DEB7D8
:10253000A1970FB6F894DEBF0FBECDBF19A24230EF
:1025400008F44AE08E010F5D1F4F842E912CA12CC0
:10255000B12CA50194010E946021E62FB901CA01A6
:1025600001501109EA3014F4E05D01C0E95CD801C2
:10257000EC93232B242B252B61F7C8010E943512E5
:10258000A1960FB6F894DEBF0FBECDBFDF91CF91FD
:102590001F910F91BF90AF909F908F900895CF9211
:1025A000DF92EF92FF92CF93DF9397FF1BC06B01F7
:1025B0007C016DE284EC94E00E941608EC01662731
:1025C0007727CB016C197D098E099F094AE00E948B
:1025D0008E128C0F9D1FDF91CF91FF90EF90DF90B7
:1025E000CF9008954AE0DF91CF91FF90EF90DF9078
:1025F000CF900C948E128F929F92AF92BF92CF92F7
:10260000DF92EF92FF92CF93DF93C2E3D0E04C01D1
:10261000092E000CAA08BB0824E130E06901C81AA1
:10262000D90A0D2C000CEE08FF0885E996E00E94FF
:10263000420E61E088E00E94FB16C501B4010E94D1
:10264000981760E088E00E94FB16C701B6010E945F
:102650009817219751F7DF91CF91FF90EF90DF907E
:10266000CF90BF90AF909F908F90089591E09093FE
:102670007D0394E790937C0310927B0310927A037E
:10268000682F8EE793E00E944F148EE793E00E943C
:102690004C16809157038111FCCF81E08093570342
:1026A000809356039FEF909355031092540310921A
:1026B00053038093520380915203886E8093520398
:1026C00080915103813061F4109251038091520343
:1026D0008093BB008091BC0083FDF8CF85EC01C0E6
:1026E00085EE8093BC00809157038130E1F38091A7
:1026F0005403811103C09091540301C091E0E1E3C0
:10270000F3E0AAE5B3E080E0891721F021912D9351
:102710008F5FFACF1092590380935803811101C043
:10272000FFCF8EE793E00E9406140895CF93DF93C6
:10273000C82F0E943613D82F81E08C0F0E943613C9
:1027400090E0982F88278D0F911DDF91CF910895EC
:10275000CF93C82F81E080937D0384E780937C032F
:1027600010927B0310927A038EE793E00E944F143D
:102770006C2F8EE793E00E944F148EE793E0CF9189
:102780000C944C1685ED8093BC008091BC0084FDB8
:10279000FCCF10925703089540910D08262F30E08A
:1027A000240F311D21323105DCF4209157032430F0
:1027B000C9F4FC0180E090E0861758F430910D08D0
:1027C0002191DC01A551B84FA30FB11D2C930196A7
:1027D000F3CF80910D08680F60930D0880E0089595
:1027E00081E0089582E00895089508950895E091A4
:1027F000590380915803E81730F4F0E0E65AFC4F93
:10280000808190E008958FEF9FEF08959091590394
:1028100080915803981750F4E92FF0E0E65AFC4FE6
:10282000208130E09F5F9093590302C02FEF3FEF6C
:10283000C90108958091580390E020915903821BAB
:1028400091090895CF92DF92EF92FF920F931F9319
:10285000CF93DF937C01CB018A0120917D0322235A
:1028600089F0EB016B01C40ED51ECC15DD0569F0B6
:102870006991D701ED91FC910190F081E02DC701A4
:102880001995F3CF642F0E94CC13C801DF91CF912B
:102890001F910F91FF90EF90DF90CF900895CF930D
:1028A000DF931F92CDB7DEB7698320917D0322238A
:1028B000D1F020917A03203240F021E030E0FC0199
:1028C0003383228380E090E015C080917B03E82F62
:1028D000F0E0E553F84F998190838F5F80937B03FD
:1028E00080937A0305C061E0CE0101960E94CC136B
:1028F00081E090E00F90DF91CF91089590E0FC018E
:102900003197E231F10508F04EC08827E153FF4FBF
:102910008F4F0C94B121809180008F7703C08091FC
:1029200080008F7D80938000089580918000877F54
:10293000F9CF84B58F7702C084B58F7D84BD0895AB
:102940008091B0008F7703C08091B0008F7D80931D
:10295000B0000895809190008F7707C0809190001B
:102960008F7D03C080919000877F809390000895B1
:102970008091A0008F7707C08091A0008F7D03C059
:102980008091A000877F8093A0000895809120010E
:102990008F7707C0809120018F7D03C08091200137
:1029A000877F80932001089560E081E00E94A81352
:1029B00080E00E9436138111FBCF08950F931F937F
:1029C000CF93611590E1790774F48B01C82F682FBC
:1029D000802F0E94A81361E06C0F812FCF911F916F
:1029E0000F910C94A813CF911F910F910895FC01A2
:1029F000A089B1898C91A689B78982FD0FC09C916D
:102A0000818D8F5F8F73228D821749F0218DDF01B9
:102A1000A20FB11D5D969C93818F08958C910895AE
:102A20001F920F920FB60F9211240F900FBE0F90AE
:102A30001F9018951F920F920FB60F9211240BB68C
:102A40000F922F933F934F935F936F937F938F9347
:102A50009F93AF93BF93EF93FF938091B900887FCB
:102A6000803609F49CC068F5883209F45BC090F4A4
:102A7000803109F454C038F4882309F4F6C0883052
:102A800009F44DC0F6C0883109F44CC0803209F415
:102A90005DC0EFC0803409F468C048F4803309F4A5
:102AA00055C0883309F0E5C080935503D8C0803500
:102AB00009F44FC0883509F45DC0883409F0D9C0E5
:102AC000D6C0883909F4C7C0A8F4883709F467C0AC
:102AD00038F4883609F463C0803709F460C0C9C08F
:102AE000883809F4B8C0803909F45FC0803809F02B
:102AF000C0C05BC0803B09F486C038F4803A09F45A
:102B000066C0883A09F47FC0B4C0803C09F4A7C00D
:102B1000883C09F4A4C0883B09F48AC0AAC080910B
:102B2000520310C09091540380915303981770F58D
:102B3000E091540381E08E0F80935403F0E0EF5C4A
:102B4000FC4F80818093BB0085EC86C08093550349
:102B50008EC0E091540381E08E0F809354038091E6
:102B6000BB00F0E0EF5CFC4F8083909154038091B8
:102B700053036EC0E091540381E08E0F80935403A1
:102B80008091BB00F0E0EF5CFC4F808380915603A6
:102B900081116DC081E08093510384EA61C083E0BC
:102BA0008093570310923108CFCF80913108803243
:102BB00008F051C0E091310881E08E0F8093310818
:102BC0008091BB00F0E0EF5EF74F8083BDCF85ECD6
:102BD0008093BC001092570380913108803230F40A
:102BE000E0913108F0E0EF5EF74F1082609131081C
:102BF00070E0E0910F08F091100881E198E01995DC
:102C00001092310836C084E08093570310920E086A
:102C100010920D08E0910B08F0910C081995809125
:102C20000D08811105C081E080930D081092EB071B
:102C3000E0910E0881E08E0F80930E08F0E0E551E0
:102C4000F84F80818093BB0090910E0880910D0811
:102C5000981708F479CF85E88093BC000AC085EC0A
:102C60008093BC001092570304C0109255030E9439
:102C7000C213FF91EF91BF91AF919F918F917F917F
:102C80006F915F914F913F912F910F900BBE0F90DD
:102C90000FBE0F901F90189530917A03313208F0D3
:102CA0004BC0809157038111FCCF90917C0322E0AF
:102CB0002093570321E0209356032FEF20935503D1
:102CC0001092540330935303EBECF7E0A1E3B3E02D
:102CD00020E0321721F041914D932F5FFACF1092EF
:102CE000520320915203990F922B9093520390918B
:102CF0005103913061F410925103909152039093DB
:102D0000BB009091BC0093FDF8CF95EC01C095EE0F
:102D10009093BC00909157039230E1F3909155034A
:102D20009F3F79F080915503803241F080915503A7
:102D3000803331F084E005C081E003C082E001C04F
:102D400083E010927B0310927A0310927D03089522
:102D5000FC01248131E030937D0320937C031092A9
:102D60007B0310927A038485682B8EE793E00E94A0
:102D70004F148EE793E00C944C160F931F93CF9350
:102D80008C01C62F64600E94A8166C2F6B7FC8014F
:102D90000E94A81683EC90E00197F1F7CF911F9164
:102DA0000F910895CF93DF93282F30E0F901EB5D69
:102DB000FB4F8491F901E152FC4FD491F901E756A0
:102DC000FC4FC491CC2391F081110E947E14EC2F12
:102DD000F0E0EE0FFF1FE158FC4FA591B491EC918C
:102DE000ED2381E090E021F480E002C080E090E0FB
:102DF000DF91CF9108951F93CF93DF93282F30E079
:102E0000F901EB5DFB4F8491F901E152FC4FD49144
:102E1000F901E756FC4FC491CC23C1F0162F811164
:102E20000E947E14EC2FF0E0EE0FFF1FEB59FC4FD9
:102E3000A591B4919FB7F894111104C08C91D095CD
:102E4000D82302C0EC91DE2BDC939FBFDF91CF91A2
:102E50001F910895109259031092580310927B030A
:102E600010927A031092570381E0809356031092D8
:102E7000510361E084E10E94FB1661E085E10E945C
:102E8000FB16E9EBF0E080818E7F808380818D7F6F
:102E9000808388E48093B80085E48093BC0084EF4D
:102EA00093E190930C0880930B0885EF93E1909346
:102EB000100880930F080895CF93DF9390E0FC01F2
:102EC000E152FC4F2491FC01E756FC4F849188238A
:102ED00061F190E0880F991FFC01E55BFC4FC59103
:102EE000D491FC01EB59FC4FA591B491611109C03B
:102EF0009FB7F8948881209582238883EC912E23B4
:102F00000BC0623061F49FB7F8948881322F3095FE
:102F100083238883EC912E2B2C939FBF06C08FB701
:102F2000F894E8812E2B28838FBFDF91CF910895ED
:102F30008F929F92AF92BF92CF92DF92EF92FF92C9
:102F40006B017C010E94FF104B015C01C114D10494
:102F5000E104F104F1F00E94FF10DC01CB018819BB
:102F60009909AA09BB09883E9340A105B10570F3F0
:102F700021E0C21AD108E108F10888EE880E83E04A
:102F8000981EA11CB11CC114D104E104F10419F76D
:102F9000DDCFFF90EF90DF90CF90BF90AF909F90EC
:102FA0008F9008958AE592E09093B7068093B606D5
:102FB0008AE492E09093BA068093B9068091C306A2
:102FC0009091C406009711F00E948C228091BD065A
:102FD0009091BE06009711F00E948C228091C1064C
:102FE0009091C206009711F00E948C228091BB063E
:102FF0009091BC06009711F00E948C228091BF0630
:103000009091C006009711F00E948C228091CB060F
:103010009091CC060C948C22CF92DF92EF92FF928B
:103020000F931F93CF93DF93FC01EB0160817181BC
:1030300066507109DB018D919C91DC01AE0FBF1FC1
:103040001A968D919C911B97892B09F484C0822F2D
:10305000DB010D911C91D801AE0FBF1F1C969C91F6
:10306000891710F050E04DC0DE01A80FB11DA80F68
:10307000B11D1D921C92840FEBCF032F10E01A9606
:103080008D919C911B97800F911FDC018C91863351
:1030900008F0865390917B00682F6870977F962B7D
:1030A00090937B008770806480937C0080917A008D
:1030B000806480937A0080917A0086FDFCCF8091B5
:1030C000780060917900D801AA0FBB1FAC0FBD1F1B
:1030D00090E0962B6D917C911197860F971F8D93A1
:1030E0009C93340FA081B18116978D919C918E0F86
:1030F0009F1FDC011C966C911C97361708F4BDCFFE
:103100005F5F8281581710F4322FECCFE080F1809E
:10311000B6E0EB1AF108D7018D919C91DC01AE0F5E
:10312000BF1F1C968C912817B0F48E01020F111D41
:10313000020F111D628170E06B01D594C794D80114
:103140008D919C918C0D9D1D0E949D21D8016D93A8
:103150007C93240FE0CFDF91CF911F910F91FF90CF
:10316000EF90DF90CF900895DC01ED91FC913E97B8
:103170000190F081E02D8E0F9F1F0C940C18CF93BF
:10318000DF9300D01F921F92CDB7DEB7789484B53D
:10319000826084BD84B5816084BD85B5826085BD53
:1031A00085B5816085BD80916E00816080936E00E1
:1031B00010928100809181008260809381008091D3
:1031C0008100816080938100809180008160809384
:1031D00080008091B10084608093B1008091B00044
:1031E00081608093B0008091910082608093910013
:1031F0008091910081608093910080919000816026
:10320000809390008091A10082608093A1008091C2
:10321000A10081608093A1008091A00081608093D3
:10322000A000809121018260809321018091210181
:103230008160809321018091200181608093200131
:1032400080917A00846080937A0080917A00826015
:1032500080937A0080917A00816080937A008091D7
:103260007A00806880937A001092C1000E940D124B
:1032700061E0809195070E945C1760E0809195075E
:103280000E94FB1660E0809194070E945C178EE715
:1032900093E090939F0780939E070E942A1780E0F7
:1032A00090E1A0E0B0E08093A1079093A207A093E3
:1032B000A307B093A4078AE090E0A0E0B0E0809379
:1032C000A5079093A607A093A707B093A80780E04F
:1032D00090E0A0E0B0E48093A9079093AA07A093A0
:1032E000AB07B093AC0760E070E185E00E94551237
:1032F0006FE979E380E00E94551204E917E0780154
:1033000042E0542E5EEC652E53E0752E64E1862E6D
:1033100064E0962E7BECC72E77E0D72EEBE8AE2E3E
:10332000BB24B394D70114969C91149712968C9158
:10333000F801818F928F61E00E945C1761E0D801F3
:103340005A968C910E945C17F70190858681D8016E
:103350005D968C935D975E969C9361E00E945C17EE
:1033600060E0F801868D0E945C1761E0D8015D96EF
:103370008C910E94FB164FB6F89480912B0381111B
:1033800026C0F3018491F4012491E82FF0E0EE0FC0
:10339000FF1FE55BFC4FA591B4919C91822F89237F
:1033A00021F461E085E30E94FB1661E085E30E9461
:1033B0005C178CB580618CBD8CB580648CBD61E080
:1033C00084E30E945C1761E083E30E945C178091B4
:1033D0002B038F5F80932B034FBEC6010197F1F73C
:1033E00060E0D8015D968C910E94FB1688E80E94EF
:1033F000F61083E00E94F61061E0F801858D0E94CE
:10340000FB16C6010197F1F760E0D8015D968C913B
:103410000E94FB1688E90E94F61080E00E94F610D8
:1034200080E00E94F61080E00E94F61080E00E948A
:10343000F61061E0F801858D0E94FB16C501019729
:10344000F1F760E0D8015D968C910E94FB1680EE4A
:103450000E94F61061E0F801858D0E94FB165A94D7
:10346000FFEFEF1AFF0A0E5F1F4F51105BCF99EB72
:10347000E92E97E0F92E0DEB17E060E0D7018D9172
:103480007D010E945C170E151F05B9F7F5EBEF2EB5
:10349000F7E0FF2EA5E0DA2EBCE0BB2E82E0C82EBE
:1034A000F801A1908F0187818C3008F048C061E05D
:1034B0008A2D0E945C17D80117968C91D89EF00136
:1034C0001124E95CF94F9A2D9F732081207CA22E54
:1034D000A92AA082138214826B2D0E949121BCE044
:1034E0008B9FA001112420E030E0BA01620F731F0E
:1034F000D69EF001D79EF00D1124E95CF94F908122
:1035000096FD12C02F5F3F4F2C30310571F78111AE
:103510000BC010928000C092810010928500109222
:103520008400C6BAC0926F00D8011796EC91DE9E57
:10353000F0011124E95CF94F808180648083F801F7
:1035400095818381D70152968C93529753969C9381
:1035500060E00E945C1761E0F70183890E945C17BC
:1035600060E0D70153968C910E94FB16B2E0EB0EFF
:10357000F11CE7E00F3B1E0709F092CFF894109280
:10358000200109E00093210180E293E0909329015A
:1035900080932801109225011092240112E01093CB
:1035A0007300789410936505109269058091660503
:1035B00060E00E945C1740E050E0BA018DEA97E0BD
:1035C0000E94340F40E050E060E070E88FEA97E03E
:1035D0000E94340F0E940D128AED92E00E94471261
:1035E00061E08FE20E945C1760E08FE20E94FB16B0
:1035F00061E080E30E945C1760E080E30E94FB16BC
:1036000061E081E30E945C1760E081E30E94FB16A9
:1036100060E08EE20E945C1761E08AE00E945C1725
:1036200061E08AE00E94FB1661E08CE00E945C177A
:1036300060E08CE00E94FB1661E08BE00E945C176A
:1036400060E08BE00E94FB1661E086E10E945C175F
:1036500061E087E10E945C1761E088E10E945C17ED
:1036600061E089E10E945C1761E08AE10E945C17D9
:1036700061E08BE10E945C1761E08CE10E945C17C5
:1036800061E08DE10E945C1761E080E20E945C17BE
:1036900061E085E20E945C1761E086E20E945C17AF
:1036A00061E087E20E945C1761E088E00E945C179D
:1036B00061E08DE10E94FB1661E080E20E94FB1652
:1036C00061E085E20E94FB1661E086E20E94FB1643
:1036D00061E087E20E94FB160E9426074FEF50E050
:1036E00060E070E080E090E00E94DE0361E08091A5
:1036F000A0060E945C178EE793E00E942A1761E003
:1037000070E080E090E00E9498170093A20600937A
:10371000A3061093A40685E08093A50666E089E0E1
:103720000E94A8138091A30667E08F700E94A813DF
:103730008091A40668E08F700E94A8138091A5066E
:1037400069E08F700E94A81380E098E09093A7062C
:103750008093A6069093A9068093A8069093AB0643
:103760008093AA069093AD068093AC066AE080E051
:103770000E94A8138091A6069091A7069F716BE006
:10378000892F0E94A8136EE08091AA060E94A813B8
:103790008091AA069091AB069F716FE0892F0E94DD
:1037A000A8136CE08091A8060E94A8138091A80637
:1037B0009091A9069F716DE0892F0E94A81360E186
:1037C0008091AC060E94A8138091AC069091AD0642
:1037D0009F7161E1892F0E94A81361E08091A0068A
:1037E0000E94FB1662E070E080E090E00E94981773
:1037F000E12CF12CC12CE0E1DE2E86010E191F090F
:1038000017FF02C00F5F1F4F159507950E0D1F1D67
:103810000E151F05D9F1B8018AE090E00E94DE1470
:10382000B8018CE090E00E94DE14B8018EE090E0D8
:103830000E94DE140E94D41480E40E94961397FD27
:1038400005C080E40E9496135C0102C0A12CB12C3B
:1038500082E40E9496138A159B0524F082E40E945C
:1038600096135C0184E40E9496138A159B0524F04C
:1038700084E40E9496135C01F9EEAF16F3E0BF06F4
:1038800064F528EEA21623E0B20649F5E12CF12CEE
:10389000C12C90E1D92E86010E191F0917FF02C015
:1038A0000F5F1F4F159507950E0D1F1D0E151F0558
:1038B000C1F0B80180E190E00E94DE140E94D414AF
:1038C00086E40E949613893E43E094070CF0B8C04A
:1038D000883E934009F0B2C004C0680187017801B6
:1038E0008CCF88E8282E83E1382EA12CB12C612CB6
:1038F000712C412C512C66E0842D0E94A81367E0A6
:10390000862D0E94A81368E08A2D0E94A8138AE0E1
:103910000E9496138C01BC018AE090E00E94DE14A4
:10392000B8018CE090E00E94DE14B8018EE090E0D7
:103930000E94DE1454E0852E912CC12CD12C00E085
:1039400010E0E12CF12C0E94D41480E40E94961324
:10395000E80EF91E82E40E949613080F191F84E4F2
:103960000E949613C80ED91EB1E08B1A910859F720
:10397000F7FE03C0E3E0EE0EF11CF594E794F59436
:10398000E79417FF02C00D5F1F4F1595079515951A
:103990000795D7FE03C0F3E0CF0ED11CD594C79492
:1039A000D594C7943E2D2F2DE016F10614F4302F38
:1039B000212F832F922F97FF02C080E090E08C157B
:1039C0009D050CF4C6015E2D4F2D0E151F0514F438
:1039D000502F412F252F342F213040E1340714F090
:1039E00020E030E1A6012C153D050CF4A9019C0155
:1039F000241B350B2215330539F1E816F90641F47D
:103A0000AFE04A16510424F4BFEF4B1A5B0A1AC008
:103A10000817190741F4EFE06E16710424F4FFEF64
:103A20006F1A7F0A0FC0C816D90661F44FE0A416BA
:103A3000B10444F48FEFA81AB80A04C078018601D3
:103A4000680129CF190157CF40E050E061E070E0F4
:103A500081E090E00E94DE038EE20E94D216892B64
:103A6000A9F40E940C038230910541F08330910546
:103A700041F0019789F780EE92E005C08CEB92E06F
:103A800002C086EE92E00E942604E6CF60E08091BC
:103A9000A0060E94FB1624EF31E040E050E064EF06
:103AA00071E0809195070E94DF0968EE73E080E085
:103AB00090E00E94981724EF31E040E050E064EF7E
:103AC00071E0809195070E94DF0968EE73E080E065
:103AD00090E00E94981724EF31E040E050E064EF5E
:103AE00071E0809195070E94DF0968EE73E080E045
:103AF00090E00E9498172CED35E040E050E068EE31
:103B000073E0809195070E94DF0985E996E00E94A5
:103B1000420E8FE796E00E94420E8CEE92E00E94E9
:103B2000471285E0E4E1F2E0DE01119601900D928A
:103B30008A95E1F780912903805D8983809127032D
:103B4000805D8B8380912503805D8D83CE010196FE
:103B50000E9426040E948508D8CF0F9310928103FB
:103B60001092800388EE93E0A0E0B0E0809382039F
:103B700090938303A0938403B093850326E232E0FD
:103B800030937F0320937E0310928D0310928C0359
:103B900080938E0390938F03A0939003B09391032F
:103BA00028E332E030938B0320938A0345E351E00E
:103BB000509397034093960344E351E05093990345
:103BC0004093980340E351E050939B0340939A0342
:103BD00041E351E050939D0340939C0342E351E045
:103BE00050939F0340939E0346E351E05093A103FB
:103BF0004093A0031092A3031092A4031092A50374
:103C00001092A60310922A041092290480932B0488
:103C100090932C04A0932D04B0932E043093280489
:103C20002093270445ED50E050933404409333042F
:103C300044ED50E0509336044093350440ED50E09D
:103C4000509338044093370441ED50E050933A04C8
:103C50004093390442ED50E050933C0440933B04C0
:103C600046ED50E050933E0440933D0410924004D2
:103C70001092410410924204109243041092C7041F
:103C80001092C6048093C8049093C904A093CA04F8
:103C9000B093CB043093C5042093C40485EC90E02A
:103CA0009093D1048093D00484EC90E09093D3045B
:103CB0008093D20480EC90E09093D5048093D40458
:103CC00081EC90E09093D7048093D60482EC90E04E
:103CD0009093D9048093D80486EC90E09093DB0411
:103CE0008093DA041092DD041092DE041092DF0457
:103CF0001092E00480911A0290911B02A0911C0284
:103D0000B0911D028093B5079093B607A093B707B3
:103D1000B093B80780911E0290911F02A0912002DB
:103D2000B09121028093B9079093BA07A093BB0783
:103D3000B093BC0784E08093BD0787E08093BE0703
:103D40001092BF0784EB8093C00786E18093C10780
:103D500088E18093C20787E18093C30789E180935C
:103D6000C407E0917306EC3020F08FEF8093C50715
:103D700010C081E08E0F80937306E093C50785E045
:103D8000E89FF0011124E95CF94F88EB9BE09283F6
:103D90008183E0917306EC3020F08FEF8093C607AB
:103DA00010C081E08E0F80937306E093C60785E014
:103DB000E89FF0011124E95CF94F88EB9BE09283C6
:103DC00081838CE08093940784E28093950786E05A
:103DD0008093960785E0809397078FE180939807FB
:103DE0008EE18093990783E280939A0782E2809321
:103DF0009B0785E480939C0784E480939D0780E47F
:103E00008093A0071092A5071092A6071092A7070B
:103E10001092A8071092A9071092AA071092AB0758
:103E20001092AC07E6EDF6E024E937E08FEF9FEF64
:103E3000DC01128213821482158216821782108688
:103E4000118683879487A587B6878787908BA18BF8
:103E5000B28B12861182108273962E173F0749F794
:103E60008DE090E00E94F421FC01138212828AE727
:103E700092E091838083118687E2848384E1828744
:103E800084E083871486F093D306E093D2061092E1
:103E9000D4061092D50685E28093660510926805D7
:103EA0001092CC061092CB061092CE061092CD0640
:103EB0001092D0061092CF0661E070E080E090E0B2
:103EC0000E941523009791F09093CC068093CB0627
:103ED0001092CE061092CD062091CF063091D006DA
:103EE000232B09F0CCC0FC011082C9C08091CB0605
:103EF0009091CC06009711F00E948C221092CC0673
:103F00001092CB061092D0061092CF061092CE06D9
:103F10001092CD061092BC061092BB061092BE06FF
:103F20001092BD061092C0061092BF061092C206F3
:103F30001092C1061092C4061092C3068AE592E060
:103F40009093B7068093B6068CE692E09093BA06FB
:103F50008093B90602E024E048E061E072E086EB7D
:103F600096E00E9499092FB7F8948091610590918D
:103F70006205A0916305B09164052FBF8093B206DE
:103F80009093B306A093B406B093B5068AE290E08E
:103F90009093A1068093A00681E0809395061092ED
:103FA000960610929706109298061092990642E390
:103FB00050E060E070E040939A0650939B06609357
:103FC0009C0670939D0623E537E030939F0620936F
:103FD0009E0680938A0610928B0610928C06109291
:103FE0008D0610928E0644E150E060E070E0409350
:103FF0008F0650939006609391067093920622E785
:1040000032E0309394062093930680937F061092BB
:10401000800610928106109282061092830644EF69
:1040200051E060E070E04093840650938506609311
:104030008606709387062EE935E030938906209333
:104040008806809374061092750610927606109278
:1040500077061092780684E690E0A0E0B0E08093C6
:10406000790690937A06A0937B06B0937C0686E748
:1040700092E090937E0680937D060F9108951092B2
:10408000D0061092CF066BE872E08091CB0690913B
:10409000CC060E9408243ECF990F0008550FAA0BAA
:1040A000E0E8FEEF16161706E807F907C0F012164B
:1040B0001306E407F50798F0621B730B840B950B4E
:1040C00039F40A2661F0232B242B252B21F40895A3
:1040D0000A2609F4A140A6958FEF811D811D089540
:1040E0000E9483200C94F4200E94E62038F00E9465
:1040F000ED2020F0952311F00C94DD200C94E320AA
:1041000011240C9428210E94052170F3959FC1F37E
:10411000950F50E0551F629FF001729FBB27F00D75
:10412000B11D639FAA27F00DB11DAA1F649F6627CA
:10413000B00DA11D661F829F2227B00DA11D621F19
:10414000739FB00DA11D621F839FA00D611D221FD3
:10415000749F3327A00D611D231F849F600D211DB7
:10416000822F762F6A2F11249F5750409AF0F1F03A
:1041700088234AF0EE0FFF1FBB1F661F771F881FA3
:1041800091505040A9F79E3F510580F00C94DD20DE
:104190000C9428215F3FE4F3983ED4F386957795FD
:1041A0006795B795F795E7959F5FC1F7FE2B880F49
:1041B000911D9695879597F9089597F99F6780E8DF
:1041C00070E060E008959FEF80EC089500240A9469
:1041D0001616170618060906089500240A941216E2
:1041E0001306140605060895092E0394000C11F415
:1041F000882352F0BB0F40F4BF2B11F460FF04C0C2
:104200006F5F7F4F8F4F9F4F089557FD9058440F1A
:10421000551F59F05F3F71F04795880F97FB991F25
:1042200061F09F3F79F087950895121613061406E2
:10423000551FF2CF4695F1DF08C01616170618066F
:10424000991FF1CF86957105610508940895E8944A
:10425000BB2766277727CB0197F90895052E97FB93
:104260001EF400940E94452157FD07D00E94602152
:1042700007FC03D04EF40C944521509540953095A1
:1042800021953F4F4F4F5F4F0895909580957095C2
:1042900061957F4F8F4F9F4F08950E948221A59F68
:1042A000900DB49F900DA49F800D911D1124089531
:1042B000B7FF0C944D210E944D21821B930B089552
:1042C000A1E21A2EAA1BBB1BFD010DC0AA1FBB1F1A
:1042D000EE1FFF1FA217B307E407F50720F0A21B8C
:1042E000B30BE40BF50B661F771F881F991F1A94F9
:1042F00069F760957095809590959B01AC01BD0123
:10430000CF010895A29FB001B39FC001A39F700D7C
:10431000811D1124911DB29F700D811D1124911DCD
:104320000895991B79E004C0991F961708F0961B11
:10433000881F7A95C9F780950895AA1BBB1B51E188
:1043400007C0AA1FBB1FA617B70710F0A61BB70B05
:10435000881F991F5A95A9F780959095BC01CD01AA
:104360000895EE0FFF1F881F8BBF0790F691E02D79
:1043700019940E94C0216894B1110C9428210895C9
:104380000E940D2188F09F5798F0B92F9927B751B7
:10439000B0F0E1F0660F771F881F991F1AF0BA95E9
:1043A000C9F714C0B13091F00E942721B1E00895FF
:1043B0000C942721672F782F8827B85F39F0B93FF1
:1043C000CCF3869577956795B395D9F73EF490959C
:1043D0008095709561957F4F8F4F9F4F08950E94F4
:1043E0004C2008F48FEF08950F931F93CF93DF9322
:1043F0008230910510F482E090E0E0913608F0916F
:10440000370820E030E0A0E0B0E0309719F14081BB
:1044100051810281138148175907C8F08417950705
:1044200069F4109731F012960C93129713961C931F
:1044300027C0009336081093370822C02115310594
:1044400019F04217530718F49A01BD01EF01DF017B
:10445000F801DBCF21153105F9F0281B390B243089
:10446000310580F48A819B816115710521F0FB0182
:104470009383828304C09093370880933608FE01AB
:10448000329644C0FE01E20FF31F819391932250B4
:104490003109398328833AC0209134083091350896
:1044A000232B41F420910B0230910C0230933508FC
:1044B000209334082091090230910A022115310518
:1044C00041F42DB73EB740910D0250910E02241BCE
:1044D000350BE0913408F0913508E217F307A0F4AA
:1044E0002E1B3F0B2817390778F0AC014E5F5F4F4A
:1044F0002417350748F04E0F5F1F5093350840933F
:1045000034088193919302C0E0E0F0E0CF01DF91A5
:10451000CF911F910F910895CF93DF93009709F4E6
:1045200081C0FC01329713821282A0913608B091AB
:104530003708109781F420813181820F931F2091D9
:104540003408309135082817390751F5F0933508AC
:10455000E093340867C0ED0120E030E0CE17DF07BC
:1045600040F44A815B819E0141155105F1F0EA0159
:10457000F5CFD383C28340815181840F951FC81723
:10458000D90759F488819981840F951F02969183E8
:1045900080838A819B81938382832115310529F44D
:1045A000F0933708E09336083DC0E901FB83EA83C6
:1045B00049915991C40FD51FEC17FD0761F4808113
:1045C0009181840F951F0296E901998388838281E6
:1045D00093819B838A83E0E0F0E012968D919C9119
:1045E0001397009719F0FD01DC01F7CF8D919C9195
:1045F00011979D012E5F3F4F820F931F209134082A
:10460000309135082817390769F4309729F410924A
:1046100037081092360802C013821282B093350810
:10462000A0933408DF91CF9108956F927F928F927B
:104630009F92AF92BF92CF92DF92EF92FF920F9331
:104640001F93CF93DF93009789F4CB01DF91CF9134
:104650001F910F91FF90EF90DF90CF90BF90AF90A0
:104660009F908F907F906F900C94F421FC01E60F47
:10467000F71F9C0122503109E217F30708F4A9C083
:10468000EC01D9010D911C91119706171707B0F095
:104690000530110508F49BC0C801049786179707D9
:1046A00008F495C002501109061B170B01931193D2
:1046B0006D937C93CF010E948C2289C05B01A01A6C
:1046C000B10A4C01800E911EA0913608B0913708B6
:1046D000612C712CE12CF12C109709F446C08D91BE
:1046E0009C911197A815B905B1F56C0142E0C40E73
:1046F000D11CCA14DB0478F14C018A189B086401B0
:1047000042E0C40ED11C1296BC9012971396AC9145
:10471000B5E0CB16D10440F0B282A38391828082AF
:10472000D9016D937C9309C00E5F1F4F800F911FBD
:10473000F90191838083EB2DFA2FE114F10431F01C
:10474000D7011396FC93EE93129741C0F09337086C
:10475000E09336083CC06816790608F43C017D01F8
:1047600012960D90BC91A02DB7CF809134089091F6
:10477000350888169906E1F466167706C8F4809124
:10478000090290910A02009741F48DB79EB74091BB
:104790000D0250910E02841B950BE817F907C8F41F
:1047A000F0933508E0933408F901718360830FC0FA
:1047B000CB010E94F4217C01009759F0A801BE01B1
:1047C0000E94FF23CE010E948C22C70104C0CE01AB
:1047D00002C080E090E0DF91CF911F910F91FF9098
:1047E000EF90DF90CF90BF90AF909F908F907F9091
:1047F0006F90089581E090E0F8940C940F24FB01F1
:10480000DC0102C001900D9241505040D8F708954C
:10481000FB01DC0101900D920020E1F7089512E008
:10482000C7E3D2E000E006C0802FFE010E94B12164
:104830002196011DC833D10780E00807A9F7F89435
:02484000FFCFA8
:10484200FF393A3B3C3D3E3F400000380880001DA6
:10485200202526272B2B2B2B2B00363738391B1DD7
:104862001A1C000000004F1422146C02F6131A14D2
:104872000614F7130000000016086F079907630873
:10488200CA07A807BC0700000000B20845093009A2
:104892005A09FD1003000000000099090C18FDFFE1
:1048A2000000000000000000FDFF0000B208450902
:1048B20030095A09B41800000000BA096F076C02E7
:1048C2006B02626F75676572000D0A00636F756C2B
:1048D20065757200536572766F20616E676C652034
:1048E2006973206F7574206F662072616E6765212F
:1048F20000426C655500726F754765004A61756EBE
:10490200650073746F700053746F702B0070657361
:10491200657200626F75746F6E00737461727400F9
:10492200526F75476500426C65552B006C6F6F7056
:02493200000083
:00000001FF
