:100000000C945D010C948E010C948E010C948E0165
:100010000C948E010C948E010C948E010C948E0124
:100020000C948E010C9412080C9412080C94120873
:100030000C948E010C948D030C948E010C948E0103
:100040000C948E010C940F060C948E010C948E016E
:100050000C948E010C948E010C948E010C9443032D
:100060000C948E010C94FE040C94D4040C948E0118
:100070000C948E010C948E010C948E010C948E01C4
:100080000C948E010C948E010C948E010C948E01B4
:100090000C948E010C948E010C948E010C941C080F
:1000A0000C948E010C948E010C948E010C948E0194
:1000B0000C948E010C948E010C948E010C942805E6
:1000C0000C948E010C948E010C948E010C94AA0455
:1000D0000C9480040C948E010C9456040C942C0403
:1000E0000C948E0169096C095B095F096509A30914
:1000F000700974097A097E09820988098C099009B6
:10010000A30996099A099E090C9465090C94A30900
:100110000C9474090C94F0020C94750C0C94E90680
:100120000C949A090C94F1020C940F070C94900112
:100130000C949E090C94F7010C946C090C9488099A
:100140000C947A090C94F8060C9497020C946909A3
:100150000C948C090C9482090C941E030C94700965
:100160000C9450020C943F070C9496090C94D40103
:100170000C946F0C0C945F090C94EA060C94E30148
:100180000C9407070C9405020C9490090C947E09BA
:100190000C945B09000020002300260029002C009D
:1001A0002F003200000100000301060109010200D6
:1001B000002100240027002A002D00300033000118
:1001C000010000040107010A0100002200250028A7
:1001D000002B002E00310034000201000005010850
:1001E000010B0105050505070508080808020202BC
:1001F000020A0A08080404040401010101010101C2
:10020000010303030303030303040707070C0C0C98
:100210000C0C0C0C0C020202020606060606060670
:10022000060B0B0B0B0B0B0B0B010210202008080D
:100230001020401020408002010201080402010148
:100240000204081020408080402010080402018031
:100250000402018040201008040201080402010188
:100260000204081020408001020408102040800091
:10027000000A0B02090C0D0E080703040100000020
:10028000000000000000000000000000000000006E
:10029000000000000000000000000012111000002B
:1002A000000000000000000000000000000000004E
:1002B000000000000000750C6F0C11241FBECFEF72
:1002C000D1E2DEBFCDBF00E00CBF12E0A0E0B2E0A3
:1002D000E2E4F1E200E00BBF02C007900D92A83308
:1002E000B107D9F726E0A8E3B2E001C01D92AF3E06
:1002F000B207E1F711E0CCE5D1E000E006C02197BC
:100300000109802FFE010E945C0ECB35D10780E0F1
:100310000807A9F70E94100A0C948F100C94000093
:10032000CF92DF92EF92FF920F931F93CF93DF93C1
:100330006C017A018B01C0E0D0E0CE15DF0589F0B9
:10034000D8016D918D01D601ED91FC910190F08164
:10035000E02DC6011995892B11F47E0102C021966A
:10036000ECCFC701DF91CF911F910F91FF90EF90DC
:10037000DF90CF900895FC01A089B1898C91A68966
:10038000B78982FD0FC09C91818D8F5F8F73228D05
:10039000821749F0218DDF01A20FB11D5D969C935C
:1003A000818F08958C910895FC01538D448D252FE4
:1003B00030E0842F90E0821B930B541710F0CF96FF
:1003C000089501970895FC01918D828D981761F031
:1003D000828DDF01A80FB11D5D968C91928D9F5F7C
:1003E0009F73928F90E008958FEF9FEF0895FC0127
:1003F000918D828D981731F0828DE80FF11D858DDA
:1004000090E008958FEF9FEF0895FC01918D228D6C
:10041000892F90E0805C9F4F821B91098F739927F1
:10042000089588E792E00E94050221E0892B09F4F3
:1004300020E0822F089585E193E00E94050221E0EB
:10044000892B09F420E0822F089582EB93E00E942B
:10045000050221E0892B09F420E0822F0895FC0198
:10046000848DDF01A80FB11DA35ABF4F2C91848D3D
:1004700090E001968F739927848FA689B7892C9372
:10048000A089B1898C9180648C93938D848D98130D
:1004900006C00288F389E02D80818F7D80830895D6
:1004A000EF92FF920F931F93CF93DF93EC0181E0C4
:1004B000888F9B8D8C8D981305C0E889F989808180
:1004C00085FD24C0F62E0B8D10E00F5F1F4F0F73BC
:1004D0001127E02E8C8DE8120CC00FB607FCFACF66
:1004E000E889F989808185FFF5CFCE010E942F022E
:1004F000F1CF8B8DFE01E80FF11DE35AFF4FF08223
:100500000B8FEA89FB898081806207C0EE89FF89B1
:100510006083E889F98980818064808381E090E04C
:10052000DF91CF911F910F91FF90EF900895CF939E
:10053000DF93EC01888D8823C9F0EA89FB898081EB
:1005400085FD05C0A889B9898C9186FD0FC00FB6BD
:1005500007FCF5CF808185FFF2CFA889B9898C91FE
:1005600085FFEDCFCE010E942F02E7CFDF91CF9123
:100570000895E0E0F0E0199480E090E0892B21F00C
:100580000E942502811119C080E090E0892B41F082
:1005900080E090E0892B21F00E940000811110C0C2
:1005A0000E941B0281110FC080E090E0892B81F036
:1005B0000E94110281110AC008950E940000E4CF38
:1005C0000E940000EDCF0E94B902EECF0C94000013
:1005D00008958EBD00000DB407FEFDCF8EB50895C1
:1005E000089580E090E008950E947A10FC01248133
:1005F00031E03093680220936A02109269021092EF
:100600006B028485682B8CE692E00E943F070C9475
:100610006E070F931F93CF938C01C62F64600E94C7
:10062000F6026C2F6B7FC8010E94F60283EC90E00B
:100630000197F1F7CF911F910F9108950F931F9399
:10064000CF93DF938C01C62FD62FD07FD1606D2F33
:100650000E94F6026D2FC8010E94090380E1C89F25
:10066000B0011124C62FC1606C2FC8010E94F60290
:100670006C2FC8010E94090381E090E0DF91CF91C7
:100680001F910F9108951F920F920FB60F92112490
:100690002F933F938F939F93AF93BF9380915F026C
:1006A00090916002A0916102B091620230915E026D
:1006B00023E0230F2D3720F40196A11DB11D05C0A5
:1006C00026E8230F0296A11DB11D20935E028093A0
:1006D0005F0290936002A0936102B09362028091E6
:1006E0005A0290915B02A0915C02B0915D0201966A
:1006F000A11DB11D80935A0290935B02A0935C02EE
:10070000B0935D02BF91AF919F918F913F912F91D7
:100710000F900FBE0F901F9018951F920F920FB65B
:100720000F9211240BB60F922F933F934F935F9329
:100730006F937F938F939F93AF93BF93EF93FF93A9
:100740008091550290915602A0915702B0915802A3
:10075000892B8A2B8B2B59F180915402E091520204
:10076000F091530290818927808380915502909166
:100770005602A0915702B0915802181619061A068F
:100780001B060CF056C08091550290915602A09124
:100790005702B09158020197A109B10980935502FF
:1007A00090935602A0935702B093580242C0809192
:1007B0000002EEEAF1E0E4919FEF90930002E23054
:1007C000C9F050F4EE2399F0E13081F590916F007B
:1007D0009D7F90936F002AC0E43019F1E0F0E5307E
:1007E00029F5909173009D7F909373001FC0109224
:1007F0006E001CC0909170009D7F9093700091E0FE
:100800009093B0009091B100987F94609093B10064
:100810001092B3000BC0909171009D7F9093710076
:1008200005C0909172009D7F9093720060E00E94DD
:10083000A409FF91EF91BF91AF919F918F917F910B
:100840006F915F914F913F912F910F900BBE0F9041
:100850000FBE0F901F9018951F920F920FB60F9218
:1008600011240BB60F922F933F934F935F936F9387
:100870007F938F939F93AF93BF93EF93FF9388E7FB
:1008800092E00E942F02FF91EF91BF91AF919F9153
:100890008F917F916F915F914F913F912F910F9029
:1008A0000BBE0F900FBE0F901F9018951F920F92C6
:1008B0000FB60F9211240BB60F922F933F934F93C5
:1008C0005F936F937F938F939F93AF93BF93EF93B8
:1008D000FF9388E792E00E94BB01FF91EF91BF91E7
:1008E000AF919F918F917F916F915F914F913F91C8
:1008F0002F910F900BBE0F900FBE0F901F90189569
:100900001F920F920FB60F9211240BB60F922F93D6
:100910003F934F935F936F937F938F939F93AF9387
:10092000BF93EF93FF9385E193E00E942F02FF9125
:10093000EF91BF91AF919F918F917F916F915F9157
:100940004F913F912F910F900BBE0F900FBE0F90C4
:100950001F9018951F920F920FB60F9211240BB68D
:100960000F922F933F934F935F936F937F938F9348
:100970009F93AF93BF93EF93FF9385E193E00E9422
:10098000BB01FF91EF91BF91AF919F918F917F91AB
:100990006F915F914F913F912F910F900BBE0F90F0
:1009A0000FBE0F901F9018951F920F920FB60F92C7
:1009B00011240BB60F922F933F934F935F936F9336
:1009C0007F938F939F93AF93BF93EF93FF9382EBAC
:1009D00093E00E942F02FF91EF91BF91AF919F9101
:1009E0008F917F916F915F914F913F912F910F90D8
:1009F0000BBE0F900FBE0F901F9018951F920F9275
:100A00000FB60F9211240BB60F922F933F934F9373
:100A10005F936F937F938F939F93AF93BF93EF9366
:100A2000FF9382EB93E00E94BB01FF91EF91BF9196
:100A3000AF919F918F917F916F915F914F913F9176
:100A40002F910F900BBE0F900FBE0F901F90189517
:100A50001F920F920FB60F9211240BB60F922F9385
:100A60003F934F935F936F937F938F939F93AF9336
:100A7000BF93CF93DF93EF93FF932091500430E027
:100A8000F901E159FD4F8491F901E75DFD4FD491E2
:100A9000F901ED51FE4FC491CC23A1F081110E94C8
:100AA0004E09EC2FF0E0EE0FFF1FEC56FE4FA59124
:100AB000B491EC91ED2331E020E009F430E0832F94
:100AC000922F02C080E090E02091540430915504B0
:100AD0002F5F3F4F309355042093540420915304CB
:100AE000253618F026E020934F0420914F0424303F
:100AF000D9F128F4223069F02330D9F060C02530D4
:100B000009F453C0263009F05AC021E02093200593
:100B100053C0009709F053C02091540430915504FC
:100B20002436310508F443C0109220051092530476
:100B30001DC08130910509F042C0E091530421E0CD
:100B40002E0F20935304F0E020915404309155046B
:100B5000EE0FFF1FE15BFB4F308727831092550498
:100B60001092540424E029C00097B9F4E091530492
:100B700021E02E0F20935304F0E020915404309193
:100B80005504EE0FFF1FE15BFB4F30872783109268
:100B900055041092540423E010C020915404309165
:100BA00055042536310558F007C0009741F41092DE
:100BB00055041092540403C025E020934F04209163
:100BC00052042223B9F0892B51F4809151048823D7
:100BD00021F08091510461E009C02F9A0BC08091EF
:100BE0005104882331F08091510460E00E94A409EF
:100BF00001C02F98FF91EF91DF91CF91BF91AF91FD
:100C00009F918F917F916F915F914F913F912F9124
:100C10000F900BBE0F900FBE0F901F9018951F9254
:100C20000F920FB60F9211240BB60F922F933F9392
:100C30004F935F936F937F938F939F93AF93BF93E4
:100C4000EF93FF938091510287FF05C010928500BA
:100C50001092840016C020915102022E000C330B1A
:100C600080915D0590E0281739075CF430915102BE
:100C700025E03203F0011124EF5DFA4F808186FDFB
:100C800015C0809151028F5F8093510220915102D3
:100C9000022E000C330B80915D0590E02817390778
:100CA00094F4809151028C302CF10DC0309151029E
:100CB0003203F0011124EF5DFA4F808160E08F7301
:100CC0000E94A409DECF8091840090918500843435
:100CD0009C4918F480E49CE905C0809184009091BF
:100CE0008500049690938900809388008FEF80930D
:100CF00051022AC0409184005091850030915102E8
:100D000025E03203F0011124EF5DFA4F81819281D9
:100D1000840F951F90938900809388003091510231
:100D20003203F0011124EF5DFA4F808186FF0CC081
:100D3000309151023203F0011124EF5DFA4F8081AE
:100D400061E08F730E94A409FF91EF91BF91AF9171
:100D50009F918F917F916F915F914F913F912F91D3
:100D60000F900BBE0F900FBE0F901F90189585ED42
:100D70008093BC008091BC0084FDFCCF1092670280
:100D8000089540918006262F30E0240F311D213236
:100D90003105DCF4209167022430C9F4FC0180E0C5
:100DA00090E0861758F4309180062191DC01A25A18
:100DB000B94FA30FB11D2C930196F3CF80918006FC
:100DC000680F6093800680E0089581E0089582E0D6
:100DD0000895089581E090E03091640220916302CB
:100DE000321710F480E090E0919581959109089573
:100DF0008091640290916302891730F48F5F809331
:100E0000640280E090E008958FEF9FEF0895809155
:100E1000630290E020916402821B91090895CF92B1
:100E2000DF92EF92FF920F931F93CF93DF937C019A
:100E3000262F972F8A0180916802882391F0C62F70
:100E4000D72F6E01C40ED51ECC15DD0571F069914A
:100E5000D701ED91FC910190F081E02DC70119952A
:100E6000F3CF642F822F0E94C106C801DF91CF917A
:100E70001F910F91FF90EF90DF90CF900895CF9347
:100E8000DF931F92CDB7DEB76983209168022223DA
:100E9000D1F020916B02203240F021E030E0FC01E3
:100EA0003383228380E090E015C080916902E82FAF
:100EB000F0E0E553F94F998190838F5F8093690249
:100EC00080936B0205C061E0CE0101960E94C106CD
:100ED00081E090E00F90DF91CF91089520916B0217
:100EE00090916A02213208F04AC080916702811114
:100EF000FCCF32E03093670231E0309366023FEF7F
:100F00003093CA061092C9062093C806ABECB6E02F
:100F100048EA56E0FA013E2F341B321718F43D918F
:100F20003193F9CF1092A7062091A706990F922B23
:100F30009093A70690916502913061F4109265023A
:100F40009091A7069093BB009091BC0093FDF8CFC1
:100F500095EC01C095EE9093BC00909167029230A1
:100F6000E1F39091CA069F3F79F08091CA068032E2
:100F700041F08091CA06803331F084E005C081E001
:100F800003C082E001C083E01092690210926B02FC
:100F9000109268020895EF92FF921F93CF93DF9310
:100FA0001F92CDB7DEB7162F97E2E92E96E0F92E05
:100FB000D7011C969C911C9721E020936802909386
:100FC0006A021092690210926B021A960D90BC91FF
:100FD000A02DED91FC9111970190F081E02D682FEB
:100FE000CD0179831995F70182859385DC01ED9117
:100FF000FC910190F081E02D7981672F1995F7011F
:1010000082859385DC01ED91FC910190F081E02DCA
:10101000612F19950F90DF91CF911F91FF90EF9065
:101020000C946E071F920F920FB60F9211240F901F
:101030000FBE0F901F9018951F920F920FB60F9230
:1010400011240BB60F922F933F934F935F936F939F
:101050007F938F939F93AF93BF93EF93FF93809171
:10106000B900887F803609F49CC068F5883209F49D
:101070005BC090F4803109F454C038F4882309F43B
:10108000F6C0883009F44DC0F6C0883109F44CC070
:10109000803209F45DC0EFC0803409F468C048F4C0
:1010A000803309F455C0883309F0E5C08093CA063F
:1010B000D8C0803509F44FC0883509F45DC0883444
:1010C00009F0D9C0D6C0883909F4C7C0A8F4883758
:1010D00009F467C038F4883609F463C0803709F42E
:1010E00060C0C9C0883809F4B8C0803909F45FC04D
:1010F000803809F0C0C05BC0803B09F486C038F47A
:10110000803A09F466C0883A09F47FC0B4C0803CD4
:1011100009F4A7C0883C09F4A4C0883B09F48AC03C
:10112000AAC08091A70610C09091C9068091C806F8
:10113000981770F5E091C90681E08E0F8093C9067B
:10114000F0E0E855F94F80818093BB0085EC86C0C4
:101150008093CA068EC0E091C90681E08E0F80930D
:10116000C9068091BB00F0E0E855F94F808390916B
:10117000C9068091C8066EC0E091C90681E08E0F55
:101180008093C9068091BB00F0E0E855F94F808359
:101190008091660281116DC081E08093650284EACE
:1011A00061C083E0809367021092A406CFCF809144
:1011B000A406803208F051C0E091A40681E08E0FB1
:1011C0008093A4068091BB00F0E0EC57F94F808338
:1011D000BDCF85EC8093BC00109267028091A4067D
:1011E000803230F4E091A406F0E0EC57F94F108221
:1011F0006091A40670E0E0918206F091830684E895
:1012000096E019951092A40636C084E08093670298
:101210001092810610928006E0917E06F0917F0682
:10122000199580918006811105C081E08093800628
:1012300010925E06E091810681E08E0F8093810618
:10124000F0E0E25AF94F80818093BB0090918106D3
:1012500080918006981708F479CF85E88093BC00C8
:101260000AC085EC8093BC001092670204C0109203
:10127000CA060E94B706FF91EF91BF91AF919F916F
:101280008F917F916F915F914F913F912F910F902F
:101290000BBE0F900FBE0F901F90189590E0FC01B1
:1012A0003197E231F10508F04EC08827EE58FF4F24
:1012B0008F4F0C945C0E809180008F7703C08091DB
:1012C00080008F7D80938000089580918000877FCB
:1012D000F9CF84B58F7702C084B58F7D84BD089522
:1012E0008091B0008F7703C08091B0008F7D809394
:1012F000B0000895809190008F7707C08091900092
:101300008F7D03C080919000877F80939000089527
:101310008091A0008F7707C08091A0008F7D03C0CF
:101320008091A000877F8093A00008958091200184
:101330008F7707C0809120018F7D03C080912001AD
:10134000877F8093200108951F93CF93DF93282FE9
:1013500030E0F901E159FD4F8491F901E75DFD4F5E
:10136000D491F901ED51FE4FC491CC23C9F0162F51
:1013700081110E944E09EC2FF0E0EE0FFF1FE753A2
:10138000FE4FA591B4918FB7F894111105C09C91AF
:10139000ED2FE095E92302C0EC91ED2BEC938FBF8C
:1013A000DF91CF911F910895CF93DF9390E0FC01DF
:1013B000E75DFD4F2491FC01ED51FE4F84918823A0
:1013C00061F190E0880F991FFC01E155FE4FC59136
:1013D000D491FC01E753FE4FA591B491611109C06E
:1013E0009FB7F8948881209582238883EC912E23DF
:1013F0000BC0623061F49FB7F8943881822F8095DA
:1014000083238883EC912E2B2C939FBF06C08FB72C
:10141000F894E8812E2B28838FBFDF91CF91089518
:10142000789484B5826084BD84B5816084BD85B5BF
:10143000826085BD85B5816085BD80916E008160CB
:1014400080936E0010928100809181008260809371
:101450008100809181008160809381008091800073
:101460008160809380008091B10084608093B1009E
:101470008091B00081608093B00080919100826083
:101480008093910080919100816080939100809180
:1014900090008160809390008091A1008260809391
:1014A000A1008091A10081608093A1008091A000A3
:1014B00081608093A000809121018260809321014E
:1014C00080912101816080932101809120018160C0
:1014D0008093200180917A00846080937A008091CB
:1014E0007A00826080937A0080917A008160809394
:1014F0007A0080917A00806880937A001092C1000F
:10150000E091C203F091C30382E08083E091BE03C7
:10151000F091BF031082E091C003F091C1038FEC02
:1015200080831092CA03E091C603F091C70386E05E
:101530008083E091C403F091C50380818061808342
:10154000E091C403F091C503808188608083E091BD
:10155000C403F091C503808180688083E091C40357
:10156000F091C50380818F7D808361E080912806A2
:101570000E94D40960E0809128060E94A40960E0DE
:10158000809127060E94D4098CE692E0909332065F
:1015900080933106109264021092630210926902E5
:1015A00010926B021092670281E0809366021092A3
:1015B000650261E084E10E94A40961E085E10E9486
:1015C000A4098091B9008E7F8093B9008091B90001
:1015D0008D7F8093B90088E48093B80085E4809380
:1015E000BC0080E090E1A0E0B0E0809334069093EE
:1015F0003506A0933606B09337068AE090E0A0E067
:10160000B0E08093380690933906A0933A06B093E1
:101610003B0680E090E0A0E0B0E480933C0690932D
:101620003D06A0933E06B0933F0660E070E185E082
:101630000E94CB076FE979E380E00E94CB07C4E406
:10164000D6E0C12CD12CE12CF12C58E1452E52E0F2
:10165000552E6EE5662E62E0762E7BECA72E77E0A7
:10166000B72EEBE88E2E99249394C701895D994F8C
:101670001C01FC01948182818601095D194FF801EA
:10168000818F928F61E00E94D40961E0F801828D20
:101690000E94D409F101908586818883F801968F94
:1016A00061E00E94D40960E0F801868D0E94D409AF
:1016B00061E088810E94A4091FB7F89480915902C3
:1016C000811125C0F2018491F3019491E82FF0E09B
:1016D000EE0FFF1FE155FE4FA591B4918C91982319
:1016E00021F461E085E30E94A40961E085E30E94A2
:1016F000D4098CB580618CBD8CB580648CBD61E0F3
:1017000084E30E94D40961E083E30E94D4098091BC
:1017100059028F5F809359021FBFC5010197F1F7EE
:1017200060E088810E94A40988E80E94E90283E0C1
:101730000E94E90261E088810E94A409C501019725
:10174000F1F760E088810E94A40988E90E94E9021B
:1017500080E00E94E90280E00E94E90280E00E94AD
:10176000E90280E00E94E90261E088810E94A40908
:10177000C4010197F1F760E088810E94A40980EE1E
:101780000E94E90261E088810E94A409F2E0CF0E84
:10179000D11C2296EA94EF2821F0EE24E394F12C58
:1017A00064CFCCE4D6E01C2F1C5F60E089910E94DE
:1017B000D4091C13FACF0BE516E0C8E5D6E085E0A6
:1017C000C82E9CE0E92E22E0B22EDC2ED394D394D6
:1017D000FE013897F08088818C3008F044C061E0C9
:1017E0008F2D0E94D4098881C89EF0011124EF5DDD
:1017F000FA4F9F2D9F732081207CF22EF92AF082D0
:10180000138214826E2D0E94500EECE08E9FA00178
:10181000112420E030E0B901640F751FC69EF0016D
:10182000C79EF00D1124EF5DFA4F908196FD12C016
:101830002F5F3F4F2C30310571F781110BC0109293
:101840008000B09281001092850010928400B6BA98
:10185000B0926F00E881CE9EF0011124EF5DFA4F47
:10186000808180648083FE013297908132978081ED
:10187000F80131978083F801908360E00E94D409D9
:1018800061E0F80180810E94D40960E0F801808164
:101890000E94A40921960E5F1F4FDC1299CFF89485
:1018A0001092200189E08093210180E293E09093DF
:1018B000290180932801109225011092240182E0D1
:1018C00080937300789480934F0410925304809116
:1018D000500460E00E94D4090E94BC02FDCF8091B8
:1018E0005E0590915F050C94F90E10926F021092B4
:1018F0006E0288EE93E0A0E0B0E0809370029093D7
:101900007102A0937202B09373022BE032E0309325
:101910006D0220936C0210927B0210927A028093E7
:101920007C0290937D02A0937E02B0937F022DE112
:1019300032E0309379022093780245E351E05093EE
:1019400085024093840244E351E050938702409320
:10195000860240E351E0509389024093880241E3BC
:1019600051E050938B0240938A0242E351E050933E
:101970008D0240938C0246E351E050938F024093D6
:101980008E02109291021092920210929302109283
:1019900094021092180310921703809319039093E6
:1019A0001A03A0931B03B0931C03309316032093D8
:1019B000150345ED50E0509322034093210344ED7D
:1019C00050E0509324034093230340ED50E05093A4
:1019D00026034093250341ED50E0509328034093A4
:1019E000270342ED50E050932A034093290346ED2C
:1019F00050E050932C0340932B0310922E0310922F
:101A00002F0310923003109231031092B5031092FD
:101A1000B4038093B6039093B703A093B803B09335
:101A2000B9033093B3032093B20385EC90E0909315
:101A3000BF038093BE0384EC90E09093C103809336
:101A4000C00380EC90E09093C3038093C20381ECC9
:101A500090E09093C5038093C40382EC90E0909350
:101A6000C7038093C60386EC90E09093C9038093EC
:101A7000C8031092CB031092CC031092CD031092A6
:101A8000CE0386E38093480687E38093490688E384
:101A900080934A0689E380934B068BE180934C0642
:101AA0008DE180934D068AE180934E068CE1809310
:101AB0004F0684E08093500687E080935106109291
:101AC000520684EB8093530686E18093540688E1A6
:101AD0008093550687E18093560689E180935706E7
:101AE000E0915D05EC3020F08FEF8093580610C038
:101AF00081E08E0F80935D05E093580625E0E29F1C
:101B0000F0011124EF5DFA4F88EB9BE09283818313
:101B1000E0915D05EC3020F08FEF8093590610C006
:101B200081E08E0F80935D05E093590685E0E89F84
:101B3000F0011124EF5DFA4F88EB9BE092838183E3
:101B40008CE08093270684E28093280686E08093C9
:101B5000290685E080932A068FE180932B068EE18B
:101B600080932C0683E280932D0682E280932E06DA
:101B700085E480932F0684E48093300680E480938C
:101B80003306109238061092390610923A061092D7
:101B90003B0610923C0610923D0610923E061092B3
:101BA0003F06E9E6F5E08FEF9FEFDC01128213823A
:101BB0001482158216821782108611868387948775
:101BC000A587B6878787908BA18BB28B12861182EF
:101BD0001082739626E0E732F20741F78DE090E03D
:101BE0000E94640EFC01138212828FE292E09183C4
:101BF0008083118687E2848384E1828784E08387FF
:101C00001486F0936605E0936505109267051092BF
:101C1000680585E2809350041092520410925F058B
:101C200010925E0510926105109260051092630596
:101C30001092620561E070E080E090E00E94910FF8
:101C4000009789F090935F0580935E05109261057F
:101C5000109260052091620530916305232BC1F439
:101C6000FC01108215C080915E0590915F05009780
:101C700011F00E94F90E10925F0510925E0510920D
:101C80006305109262051092610510926005089537
:101C9000109263051092620567E372E00C9488105D
:101CA000991B79E004C0991F961708F0961B881FAE
:101CB0007A95C9F780950895EE0FFF1F881F8BBF97
:101CC0000790F691E02D1994CF93DF938230910520
:101CD00010F482E090E0E091ED06F091EE0620E055
:101CE00030E0C0E0D0E0309711F1408151814817D9
:101CF0005907C0F04817590761F4828193812097F2
:101D000019F09B838A832BC09093EE068093ED0697
:101D100026C02115310519F04217530718F49A010E
:101D2000BE01DF01EF010280F381E02DDCCF211540
:101D3000310509F1281B390B2430310590F4129636
:101D40008D919C9113976115710521F0FB0193838F
:101D5000828304C09093EE068093ED06FD013296D7
:101D600044C0FD01E20FF31F81939193225031098A
:101D70002D933C933AC02091EB063091EC06232B37
:101D800041F420910302309104023093EC06209339
:101D9000EB0620910102309102022115310541F438
:101DA0002DB73EB74091050250910602241B350B1A
:101DB000E091EB06F091EC06E217F307A0F42E1B7E
:101DC0003F0B2817390778F0AC014E5F5F4F24179F
:101DD000350748F04E0F5F1F5093EC064093EB061B
:101DE0008193919302C0E0E0F0E0CF01DF91CF91C9
:101DF00008950F931F93CF93DF93009709F48CC03E
:101E0000FC013297138212820091ED061091EE06CA
:101E10000115110581F420813181820F931F2091DA
:101E2000EB063091EC062817390779F5F093EC06AC
:101E3000E093EB0671C0D80140E050E0AE17BF0759
:101E400050F412962D913C911397AD012115310557
:101E500009F1D901F3CF9D01DA0133832283608137
:101E60007181860F971F8217930769F4EC0128810F
:101E70003981260F371F2E5F3F4F318320838A81A0
:101E80009B8193838283452B29F4F093EE06E093A4
:101E9000ED0642C01396FC93EE931297ED01499123
:101EA00059919E01240F351FE217F30771F48081C9
:101EB0009181840F951F029611969C938E93828137
:101EC000938113969C938E931297E0E0F0E0D801F3
:101ED00012968D919C911397009719F0F8018C013F
:101EE000F6CF8D919C9198012E5F3F4F820F931FEB
:101EF0002091EB063091EC062817390769F43097EA
:101F000029F41092EE061092ED0602C0138212829E
:101F10001093EC060093EB06DF91CF911F910F9188
:101F200008956F927F928F929F92AF92BF92CF92BD
:101F3000DF92EF92FF920F931F93CF93DF93EC0109
:101F4000009789F4CB01DF91CF911F910F91FF9002
:101F5000EF90DF90CF90BF90AF909F908F907F9049
:101F60006F900C94640EFC01E60FF71F9C01225049
:101F70003109E217F30708F4ACC0D9010D911C91A7
:101F8000119706171707B0F00530110508F49FC028
:101F9000C80104978617970708F499C002501109E1
:101FA000061B170B019311936D937C93CF010E9435
:101FB000F90E8DC05B01A01AB10A4C01800E911E72
:101FC000A091ED06B091EE0640E050E0E12CF12C3E
:101FD000109709F44AC0A815B905D1F56D907C9009
:101FE0001197630182E0C80ED11CCA14DB0480F192
:101FF000A3014A195B096A0182E0C80ED11C12963E
:10200000BC9012971396AC91B5E0CB16D10440F07A
:10201000B282A38351834083D9016D937C930AC01C
:102020000E5F1F4FC301800F911FF90191838083C1
:10203000EB2DFA2FE114F10431F0D7011396FC9344
:10204000EE93129744C0F093EE06E093ED063FC086
:102050008D919C9111974817590708F4AC017D01A7
:1020600012960D90BC91A02DB3CF8091EB0690916C
:10207000EC0688159905E1F446175707C8F48091D6
:10208000010290910202009741F48DB79EB74091F2
:10209000050250910602841B950BE817F907C8F456
:1020A000F093EC06E093EB06F901718360830FC0B7
:1020B000CB010E94640E7C01009759F0A801BE017B
:1020C0000E947F10CE010E94F90EC70104C0CE010C
:1020D00002C080E090E0DF91CF911F910F91FF90BF
:1020E000EF90DF90CF90BF90AF909F908F907F90B8
:1020F0006F90089581E090E0F8940C948F10FB01AC
:10210000DC0102C001900D9241505040D8F7089573
:10211000FB01DC0101900D920020E1F7089511E030
:10212000CCE5D1E000E006C0802FFE010E945C0EED
:102130002196011DCD35D10780E00807A9F7F89455
:02214000FFCFCF
:10214200FF0000EF062000000000003F070F07F12C
:1021520002E9060707F806EA0600000000500290AE
:1021620001D40197020502E301F701000000001EFD
:08217200039001F102F00200EC
:00000001FF
