:100000000C9495010C94C6010C94C6010C94C60185
:100010000C94C6010C94C6010C94C6010C94C60144
:100020000C94C6010C94FE090C94FE090C94FE0974
:100030000C94C6010C944C050C94C6010C94C6019A
:100040000C94C6010C94A5070C94C6010C94C6012F
:100050000C94C6010C94C6010C94C6010C940205C4
:100060000C94C6010C94BD060C9493060C94C60126
:100070000C94C6010C94C6010C94C6010C94C601E4
:100080000C94C6010C94C6010C94C6010C94C601D4
:100090000C94C6010C94C6010C94C6010C94080A79
:1000A0000C94C6010C94C6010C94C6010C94C601B4
:1000B0000C94C6010C94C6010C94C6010C94E7067E
:1000C0000C94C6010C94C6010C94C6010C946906EC
:1000D0000C943F060C94C6010C9415060C94EB0589
:1000E0000C94C6018D0392039703A103AB03240470
:1000F000B503BD03C503CF03D903E303F203FC0338
:100100002404060410041A041F0922091109150900
:100110001B09590926092A093009340938093E09F9
:100120004209460959094C09500954090C944209DD
:100130000C94B5030C94E3030C947F080C941B02FD
:100140000C943E090C9430090C94A1030C94A5085E
:100150000C9410040C94B5040C940C020C945009EB
:100160000C941F090C942A090C94F2030C94540962
:100170000C948D030C9428030C942C030C94E10E26
:100180000C94FC030C94AB030C9406040C948802AE
:100190000C941B090C9411090C9415090C942F0252
:1001A0000C94BD030C9424040C9422090C9446096D
:1001B0000C9497030C94C5030C94CF030C94C801C2
:1001C0000C944C090C9426090C9429030C943809BE
:1001D0000C9434090C9459090C94D5080C9490048F
:1001E0000C943D020C9480080C94E70E0C949D082E
:1001F0000C94D9030C941A040C9492030C94CF021F
:100200000C948E080200002100240027002A002DF3
:10021000003000330001010000040107010A010061
:10022000002200250028002B002E0031003400029F
:10023000010000050108010B010000200023002639
:100240000029002C002F00320000010000030106ED
:10025000010901050505050705080808080202024D
:10026000020A0A0808040404040101010101010151
:10027000010303030303030303040707070C0C0C28
:100280000C0C0C0C0C020202020606060606060600
:10029000060B0B0B0B0B0B0B0B010210202008089D
:1002A00010204010204080020102010804020101D8
:1002B00002040810204080804020100804020180C1
:1002C0000402018040201008040201080402010118
:1002D0000204081020408001020408102040800021
:1002E000000A0B02090C0D0E0807030401000000B0
:1002F00000000000000000000000000000000000FE
:1003000000000000000000000000001211100000BA
:1003100000000000000000000000000000000000DD
:10032000000000000000E70EE10E11241FBECFEF19
:10033000D1E2DEBFCDBF00E00CBF12E0A0E0B2E032
:10034000E6EDF8E200E00BBF02C007900D92A83383
:10035000B107D9F727E0A8E3B2E001C01D92A530AC
:10036000B207E1F711E0C4E9D1E000E006C021974F
:100370000109802FFE010E94EB11C339D10780E0F3
:100380000807A9F70E94090C0C9459140C9400005A
:10039000CF92DF92EF92FF920F931F93CF93DF9351
:1003A0006C017A018B01C0E0D0E0CE15DF0589F049
:1003B000D8016D918D01D601ED91FC910190F081F4
:1003C000E02DC6011995892B11F47E0102C02196FA
:1003D000ECCFC701DF91CF911F910F91FF90EF906C
:1003E000DF90CF900895FC01A089B1898C91A689F6
:1003F000B78982FD0FC09C91818D8F5F8F73228D95
:10040000821749F0218DDF01A20FB11D5D969C93EB
:10041000818F08958C910895FC01538D448D252F73
:1004200030E0842F90E0821B930B541710F0CF968E
:10043000089501970895FC01918D828D981761F0C0
:10044000828DDF01A80FB11D5D968C91928D9F5F0B
:100450009F73928F90E008958FEF9FEF0895FC01B6
:10046000918D828D981731F0828DE80FF11D858D69
:1004700090E008958FEF9FEF0895FC01918D228DFC
:10048000892F90E0805C9F4F821B91098F73992781
:10049000089588E792E00E943D0221E0892B09F44B
:1004A00020E0822F089585E193E00E943D0221E043
:1004B000892B09F420E0822F089582EB93E00E94BB
:1004C0003D0221E0892B09F420E0822F0895FC01F0
:1004D000848DDF01A80FB11DA35ABF4F2C91848DCD
:1004E00090E001968F739927848FA689B7892C9302
:1004F000A089B1898C9180648C93938D848D98139D
:1005000006C00288F389E02D80818F7D8083089565
:10051000EF92FF920F931F93CF93DF93EC0181E053
:10052000888F9B8D8C8D981305C0E889F98980810F
:1005300085FD24C0F62E0B8D10E00F5F1F4F0F734B
:100540001127E02E8C8DE8120CC00FB607FCFACFF5
:10055000E889F989808185FFF5CFCE010E94670285
:10056000F1CF8B8DFE01E80FF11DE35AFF4FF082B2
:100570000B8FEA89FB898081806207C0EE89FF8941
:100580006083E889F98980818064808381E090E0DC
:10059000DF91CF911F910F91FF90EF900895CF932E
:1005A000DF93EC01888D8823C9F0EA89FB8980817B
:1005B00085FD05C0A889B9898C9186FD0FC00FB64D
:1005C00007FCF5CF808185FFF2CFA889B9898C918E
:1005D00085FFEDCFCE010E946702E7CFDF91CF917B
:1005E0000895E0E0F0E0199480E090E0892B21F09C
:1005F0000E945D02811119C080E090E0892B41F0DA
:1006000080E090E0892B21F00E940000811110C051
:100610000E94530281110FC080E090E0892B81F08D
:100620000E94490281110AC008950E940000E4CF8F
:100630000E940000EDCF0E94F102EECF0C9400006A
:1006400008958EBD00000DB407FEFDCF8EB5089550
:10065000089580E090E0089508958F929F92AF9260
:10066000BF92CF92DF92EF92FF920F931F93CF939F
:10067000DF93EC016A017B0120E030E04FE753E4B7
:10068000C701B6010E9421114B015C0120E030E05E
:10069000A9010E94291218161CF4C501B40103C057
:1006A000C501B40190580E94F3118B0120E030E0A5
:1006B000A901C701B6010E942912181614F460E0BE
:1006C00001C061E089810E94630B0F3F110509F0B1
:1006D00014F4112702C00FEF10E0C88161E08C2FE5
:1006E0000E94930B0115110509F4B1C00F3F1105CC
:1006F00009F4AFC0EC2FF0E0E152FD4FE4914E2F32
:1007000050E0FA013197E231F10508F09DC08827E9
:10071000EE58FF4F8F4F0C94EB1184B5806884BD69
:1007200007BDA7C084B5806284BD08BDA2C080910A
:100730008000806880938000109389000093880077
:1007400098C08091800080628093800010938B001D
:1007500000938A008EC08091800088608093800022
:1007600010938D0000938C0084C08091B00080684D
:100770008093B0000093B3007CC08091B000806291
:100780008093B0000093B40074C0809190008068A2
:100790008093900010939900009398006AC0809114
:1007A000900080628093900010939B0000939A00C9
:1007B00060C08091900088608093900010939D00AD
:1007C00000939C0056C08091A00080688093A00098
:1007D0008091A0008F7B8093A0001093A9000093CC
:1007E000A80047C08091A00080628093A000109371
:1007F000AB000093AA003DC08091A0008860809368
:10080000A0001093AD000093AC0033C08091200194
:10081000806880932001109329010093280129C04A
:100820008091200180628093200110932B0100931E
:100830002A011FC0809120018860809320011093BD
:100840002D0100932C0115C00038110514F460E04F
:1008500001C061E08C2FDF91CF911F910F91FF902C
:10086000EF90DF90CF90BF90AF909F908F900C94BF
:10087000630BDF91CF911F910F91FF90EF90DF906D
:10088000CF90BF90AF909F908F9008950E94441496
:1008900060E082E20E94630B61E087E20E94630BEA
:1008A00085E20E943A0B892BD9F385E20E943A0B2C
:1008B0000197D9F362E370E080E090E00E94CF0BF3
:1008C00060E087E20E94630B61E082E20C94630BBC
:1008D000FC01248131E03093680220936A02109277
:1008E000690210926B028485682B8CE692E00E946C
:1008F000D5080C945A090F931F93CF938C01C62FE0
:1009000064600E9468046C2F6B7FC8010E946804B9
:1009100083EC90E00197F1F7CF911F910F9108952B
:100920000F931F93CF93DF938C01C62FD62FD07FC9
:10093000D1606D2F0E9468046D2FC8010E947B0456
:1009400080E1C89FB0011124C62FC1606C2FC8017F
:100950000E9468046C2FC8010E947B0481E090E033
:10096000DF91CF911F910F91089585E20E943A0B7C
:100970000197F9F485E20E943A0B0197D9F361E0FF
:1009800087E20E94630B40E050E0BA0186E596E002
:100990000E942D0340E050E0BA0186E596E00E94F7
:1009A0002D0362E370E080E090E00E94CF0B0E9494
:1009B000480460E087E20C94630B3FB7F8948091A1
:1009C0005F0290916002A0916102B091620226B52F
:1009D000A89B05C02F3F19F00196A11DB11D3FBF77
:1009E000BA2FA92F982F8827820F911DA11DB11D05
:1009F000BC01CD0142E0660F771F881F991F4A9501
:100A0000D1F708951F920F920FB60F9211242F93D2
:100A10003F938F939F93AF93BF9380915B0290918D
:100A20005C02A0915D02B0915E0230915A0223E017
:100A3000230F2D3720F40196A11DB11D05C026E816
:100A4000230F0296A11DB11D20935A0280935B02D1
:100A500090935C02A0935D02B0935E0280915F026E
:100A600090916002A0916102B09162020196A11D75
:100A7000B11D80935F0290936002A0936102B093D6
:100A80006202BF91AF919F918F913F912F910F90F3
:100A90000FBE0F901F9018951F920F920FB60F92D6
:100AA00011240BB60F922F933F934F935F936F9345
:100AB0007F938F939F93AF93BF93EF93FF93809117
:100AC000550290915602A0915702B0915802892B7D
:100AD0008A2B8B2B59F180915402E0915202F091B4
:100AE000530290818927808380915502909156020C
:100AF000A0915702B0915802181619061A061B0643
:100B00000CF056C08091550290915602A091570268
:100B1000B09158020197A109B109809355029093B1
:100B20005602A0935702B093580242C0809100022F
:100B3000E4E0F2E0E4919FEF90930002E230C9F02C
:100B400050F4EE2399F0E13081F590916F009D7F94
:100B500090936F002AC0E43019F1E0F0E53029F5F8
:100B6000909173009D7F909373001FC010926E0050
:100B70001CC0909170009D7F9093700091E09093C5
:100B8000B0009091B100987F94609093B100109262
:100B9000B3000BC0909171009D7F9093710005C0D0
:100BA000909172009D7F9093720060E00E94630BB1
:100BB000FF91EF91BF91AF919F918F917F916F9135
:100BC0005F914F913F912F910F900BBE0F900FBEF1
:100BD0000F901F9018951F920F920FB60F9211242D
:100BE0000BB60F922F933F934F935F936F937F9327
:100BF0008F939F93AF93BF93EF93FF9388E792E018
:100C00000E946702FF91EF91BF91AF919F918F91E9
:100C10007F916F915F914F913F912F910F900BBEFC
:100C20000F900FBE0F901F9018951F920F920FB646
:100C30000F9211240BB60F922F933F934F935F9314
:100C40006F937F938F939F93AF93BF93EF93FF9394
:100C500088E792E00E94F301FF91EF91BF91AF917D
:100C60009F918F917F916F915F914F913F912F91C4
:100C70000F900BBE0F900FBE0F901F9018951F92F4
:100C80000F920FB60F9211240BB60F922F933F9332
:100C90004F935F936F937F938F939F93AF93BF9384
:100CA000EF93FF9385E193E00E946702FF91EF913C
:100CB000BF91AF919F918F917F916F915F914F9174
:100CC0003F912F910F900BBE0F900FBE0F901F9072
:100CD00018951F920F920FB60F9211240BB60F9218
:100CE0002F933F934F935F936F937F938F939F9334
:100CF000AF93BF93EF93FF9385E193E00E94F301DD
:100D0000FF91EF91BF91AF919F918F917F916F91E3
:100D10005F914F913F912F910F900BBE0F900FBE9F
:100D20000F901F9018951F920F920FB60F921124DB
:100D30000BB60F922F933F934F935F936F937F93D5
:100D40008F939F93AF93BF93EF93FF9382EB93E0C7
:100D50000E946702FF91EF91BF91AF919F918F9198
:100D60007F916F915F914F913F912F910F900BBEAB
:100D70000F900FBE0F901F9018951F920F920FB6F5
:100D80000F9211240BB60F922F933F934F935F93C3
:100D90006F937F938F939F93AF93BF93EF93FF9343
:100DA00082EB93E00E94F301FF91EF91BF91AF912D
:100DB0009F918F917F916F915F914F913F912F9173
:100DC0000F900BBE0F900FBE0F901F9018951F92A3
:100DD0000F920FB60F9211240BB60F922F933F93E1
:100DE0004F935F936F937F938F939F93AF93BF9333
:100DF000EF93FF93809150040E943A0B209154048A
:100E0000309155042F5F3F4F309355042093540485
:100E100090915304953618F096E090934F0490917A
:100E20004F049430C9F128F4923069F09330D1F036
:100E30005EC0953009F451C0963009F058C091E079
:100E40009093200551C0811152C0209154043091DB
:100E500055042436310508F442C010922005109242
:100E600053041CC0813009F042C0E091530491E06A
:100E70009E0F90935304F0E0209154043091550458
:100E8000EE0FFF1FE15BFB4F308727831092550465
:100E90001092540494E029C0811117C0E0915304CA
:100EA00091E09E0F90935304F0E020915404309110
:100EB0005504EE0FFF1FE15BFB4F30872783109235
:100EC00055041092540493E010C0209154043091C2
:100ED00055042536310558F007C0811108C010921D
:100EE00055041092540403C095E090934F049091E0
:100EF00052049923B9F081110AC0809151048823CA
:100F000021F08091510461E009C02F9A0BC08091BB
:100F10005104882331F08091510460E00E94630BFA
:100F200001C02F98FF91EF91BF91AF919F918F9149
:100F30007F916F915F914F913F912F910F900BBED9
:100F40000F900FBE0F901F9018951F920F920FB623
:100F50000F9211240BB60F922F933F934F935F93F1
:100F60006F937F938F939F93AF93BF93EF93FF9371
:100F70008091510287FF05C0109285001092840075
:100F800016C020915102022E000C330B80915D059A
:100F900090E0281739075CF43091510225E03203C4
:100FA000F0011124EF5DFA4F808186FD15C080911C
:100FB00051028F5F8093510220915102022E000C4A
:100FC000330B80915D0590E02817390794F48091E8
:100FD00051028C302CF10DC0309151023203F001DE
:100FE0001124EF5DFA4F808160E08F730E94630BE4
:100FF000DECF809184009091850084349C4918F460
:1010000080E49CE905C0809184009091850004965D
:1010100090938900809388008FEF809351022AC0BB
:1010200040918400509185003091510225E03203B7
:10103000F0011124EF5DFA4F81819281840F951F99
:101040009093890080938800309151023203F0011F
:101050001124EF5DFA4F808186FF0CC03091510260
:101060003203F0011124EF5DFA4F808161E08F734C
:101070000E94630BFF91EF91BF91AF919F918F9170
:101080007F916F915F914F913F912F910F900BBE88
:101090000F900FBE0F901F90189585ED8093BC00A8
:1010A0008091BC0084FDFCCF1092670208954091AE
:1010B0009606262F30E0240F311D21323105DCF455
:1010C000209167022430C9F4FC0180E090E086178B
:1010D00058F4309196062191DC01AC58B94FA30F1A
:1010E000B11D2C930196F3CF80919606680F609303
:1010F000960680E0089581E0089582E008950895BD
:1011000081E090E03091640220916302321710F484
:1011100080E090E091958195910908958091640215
:1011200090916302891730F48F5F8093640280E0AE
:1011300090E008958FEF9FEF08958091630290E013
:1011400020916402821B91090895CF92DF92EF9261
:10115000FF920F931F93CF93DF937C01262F972F3E
:101160008A0180916802882391F0C62FD72F6E01E3
:10117000C40ED51ECC15DD0571F06991D701ED9136
:10118000FC910190F081E02DC7011995F3CF642FF8
:10119000822F0E945708C801DF91CF911F910F91B4
:1011A000FF90EF90DF90CF900895CF93DF931F9241
:1011B000CDB7DEB76983209168022223D1F0209158
:1011C0006B02203240F021E030E0FC0133832283C7
:1011D00080E090E015C080916902E82FF0E0EF51C7
:1011E000F94F998190838F5F8093690280936B029E
:1011F00005C061E0CE0101960E94570881E090E0B1
:101200000F90DF91CF91089590E0FC013197E2318A
:10121000F10508F04EC08827EC57FF4F8F4F0C9414
:10122000EB11809180008F7703C0809180008F7DCB
:1012300080938000089580918000877FF9CF84B5E6
:101240008F7702C084B58F7D84BD08958091B000F2
:101250008F7703C08091B0008F7D8093B000089598
:10126000809190008F7707C0809190008F7D03C0A0
:1012700080919000877F8093900008958091A000D6
:101280008F7707C08091A0008F7D03C08091A00060
:10129000877F8093A0000895809120018F7707C0F9
:1012A000809120018F7D03C080912001877F8093F2
:1012B0002001089520916B0290916A02213208F07A
:1012C0004AC0809167028111FCCF32E030936702FF
:1012D00031E0309366023FEF3093E0061092DF0674
:1012E0002093DE06A1EEB6E04EEB56E0FA013E2F6B
:1012F000341B321718F43D913193F9CF1092BD068B
:101300002091BD06990F922B9093BD069091650296
:10131000913061F4109265029091BD069093BB00EC
:101320009091BC0093FDF8CF95EC01C095EE9093A1
:10133000BC00909167029230E1F39091E0069F3FEC
:1013400079F08091E006803241F08091E0068033B0
:1013500031F084E005C081E003C082E001C083E099
:101360001092690210926B02109268020895EF9237
:10137000FF921F93CF93DF931F92CDB7DEB7162F47
:101380009DE3E92E96E0F92ED7011C969C911C97BF
:1013900021E02093680290936A02109269021092F1
:1013A0006B021A960D90BC91A02DED91FC911197B6
:1013B0000190F081E02D682FCD0179831995F70117
:1013C00082859385DC01ED91FC910190F081E02D07
:1013D0007981672F1995F70182859385DC01ED915D
:1013E000FC910190F081E02D612F19950F90DF9114
:1013F000CF911F91FF90EF900C945A091F920F927A
:101400000FB60F9211240F900FBE0F901F901895DA
:101410001F920F920FB60F9211240BB60F922F93BB
:101420003F934F935F936F937F938F939F93AF936C
:10143000BF93EF93FF938091B900887F803609F4C2
:101440009CC068F5883209F45BC090F4803109F4DF
:1014500054C038F4882309F4F6C0883009F44DC02C
:10146000F6C0883109F44CC0803209F45DC0EFC089
:10147000803409F468C048F4803309F455C08833D7
:1014800009F0E5C08093E006D8C0803509F44FC06C
:10149000883509F45DC0883409F0D9C0D6C08839D0
:1014A00009F4C7C0A8F4883709F467C038F488364F
:1014B00009F463C0803709F460C0C9C0883809F4F2
:1014C000B8C0803909F45FC0803809F0C0C05BC083
:1014D000803B09F486C038F4803A09F466C0883A43
:1014E00009F47FC0B4C0803C09F4A7C0883C09F46B
:1014F000A4C0883B09F48AC0AAC08091BD0610C070
:101500009091DF068091DE06981770F5E091DF0676
:1015100081E08E0F8093DF06F0E0E254F94F808186
:101520008093BB0085EC86C08093E0068EC0E0917E
:10153000DF0681E08E0F8093DF068091BB00F0E034
:10154000E254F94F80839091DF068091DE066EC0F1
:10155000E091DF0681E08E0F8093DF068091BB0073
:10156000F0E0E254F94F80838091660281116DC0F2
:1015700081E08093650284EA61C083E08093670222
:101580001092BA06CFCF8091BA06803208F051C0CF
:10159000E091BA0681E08E0F8093BA068091BB007D
:1015A000F0E0E656F94F8083BDCF85EC8093BC0018
:1015B000109267028091BA06803230F4E091BA0648
:1015C000F0E0E656F94F10826091BA0670E0E091C3
:1015D0009806F09199068AE996E019951092BA0654
:1015E00036C084E0809367021092970610929606A8
:1015F000E0919406F09195061995809196068111D7
:1016000005C081E08093960610927406E0919706DB
:1016100081E08E0F80939706F0E0EC58F94F8081BF
:101620008093BB009091970680919606981708F4D6
:1016300079CF85E88093BC000AC085EC8093BC001C
:101640001092670204C01092E0060E944D08FF91BC
:10165000EF91BF91AF919F918F917F916F915F912A
:101660004F913F912F910F900BBE0F900FBE0F9097
:101670001F901895CF93DF93282F30E0F901E152A6
:10168000FD4F8491F901E756FD4FD491F901ED5AD0
:10169000FD4FC491CC2391F081110E940409EC2FDD
:1016A000F0E0EE0FFF1FE75CFD4FA591B491EC91C8
:1016B000ED2381E090E021F480E002C080E090E042
:1016C000DF91CF9108951F93CF93DF93282F30E0C0
:1016D000F901E152FD4F8491F901E756FD4FD49194
:1016E000F901ED5AFD4FC491CC23C9F0162F811199
:1016F0000E940409EC2FF0E0EE0FFF1FE15EFD4FAA
:10170000A591B4918FB7F894111105C09C91ED2F5C
:10171000E095E92302C0EC91ED2BEC938FBFDF91B4
:10172000CF911F910895CF93DF9390E0FC01E7568E
:10173000FD4F2491FC01ED5AFD4F8491882361F106
:1017400090E0880F991FFC01EB5FFD4FC591D4918C
:10175000FC01E15EFD4FA591B491611109C09FB7F5
:10176000F8948881209582238883EC912E230BC0E6
:10177000623061F49FB7F8943881822F809583237B
:101780008883EC912E2B2C939FBF06C08FB7F894C3
:10179000E8812E2B28838FBFDF91CF9108958F9200
:1017A0009F92AF92BF92CF92DF92EF92FF926B0126
:1017B0007C010E94DD044B015C01C114D104E104F1
:1017C000F104F1F00E94DD04DC01CB0188199909D4
:1017D000AA09BB09883E9340A105B10570F321E039
:1017E000C21AD108E108F10888EE880E83E0981E3D
:1017F000A11CB11CC114D104E104F10419F7DDCF1F
:10180000FF90EF90DF90CF90BF90AF909F908F9020
:101810000895789484B5826084BD84B5816084BD68
:1018200085B5826085BD85B5816085BD80916E007E
:10183000816080936E0010928100809181008260AF
:1018400080938100809181008160809381008091EC
:1018500080008160809380008091B10084608093DB
:10186000B1008091B00081608093B00080919100C0
:1018700082608093910080919100816080939100BB
:10188000809190008160809390008091A10082609F
:101890008093A1008091A10081608093A10080913C
:1018A000A00081608093A0008091210182608093DC
:1018B000210180912101816080932101809120018B
:1018C00081608093200180917A00846080937A0007
:1018D00080917A00826080937A0080917A008160A2
:1018E00080937A0080917A00806880937A001092C9
:1018F000C100E091C203F091C30382E08083E091D4
:10190000BE03F091BF031082E091C003F091C103C8
:101910008FEC80831092CA03E091C603F091C70355
:1019200086E08083E091C403F091C50380818061EB
:101930008083E091C403F091C50380818860808337
:10194000E091C403F091C503808180688083E091B9
:10195000C403F091C50380818F7D808361E0809115
:101960003E060E94930B60E080913E060E94630B4E
:1019700060E080913D060E94930B8CE692E090938C
:1019800048068093470610926402109263021092F8
:10199000690210926B021092670281E080936602E6
:1019A0001092650261E084E10E94630B61E085E1D1
:1019B0000E94630B8091B9008E7F8093B900809163
:1019C000B9008D7F8093B90088E48093B80085E4E6
:1019D0008093BC0080E090E1A0E0B0E080934A06F4
:1019E00090934B06A0934C06B0934D068AE090E08E
:1019F000A0E0B0E080934E0690934F06A09350066F
:101A0000B093510680E090E0A0E0B0E480935206ED
:101A100090935306A0935406B093550660E070E18E
:101A200085E00E94B7096FE979E380E00E94B70979
:101A3000CAE5D6E0C12CD12CE12CF12C58E8252E9A
:101A400052E0352E6EEC462E62E0562E7BECA72E31
:101A500077E0B72EEBE88E2E99249394C701835C30
:101A6000994F3C01FC01948182818601035C194FEE
:101A7000F801818F928F61E00E94930B61E0F80181
:101A8000828D0E94930BF301908586818883F801F3
:101A9000968F61E00E94930B60E0F801868D0E94B2
:101AA000930B61E088810E94630B1FB7F8948091CB
:101AB0005902811125C0F1018491F2019491E82F1E
:101AC000F0E0EE0FFF1FEB5FFD4FA591B4918C91FD
:101AD000982321F461E085E30E94630B61E085E3D4
:101AE0000E94930B8CB580618CBD8CB580648CBDDD
:101AF00061E084E30E94930B61E083E30E94930B17
:101B0000809159028F5F809359021FBFC5010197D1
:101B1000F1F760E088810E94630B88E80E9421034E
:101B200083E00E94210361E088810E94630BC5016C
:101B30000197F1F760E088810E94630B88E90E94B9
:101B4000210380E00E94210380E00E94210380E0C5
:101B50000E94210380E00E94210361E088810E94AD
:101B6000630BC4010197F1F760E088810E94630B69
:101B700080EE0E94210361E088810E94630BF2E005
:101B8000CF0ED11C2296EA94EF2821F0EE24E394A4
:101B9000F12C64CFC2E6D6E01C2F1C5F60E0899177
:101BA0000E94930B1C13FACF01E716E0CEE6D6E0B5
:101BB00085E0C82E9CE0E92E22E0B22EDC2ED394E4
:101BC000D394FE013897F08088818C3008F044C0AF
:101BD00061E08F2D0E94930B8881C89EF001112433
:101BE000EF5DFA4F9F2D9F732081207CF22EF92A02
:101BF000F082138214826E2D0E94DF11ECE08E9F22
:101C0000A001112420E030E0B901640F751FC69EC9
:101C1000F001C79EF00D1124EF5DFA4F908196FD03
:101C200012C02F5F3F4F2C30310571F781110BC06F
:101C300010928000B0928100109285001092840072
:101C4000B6BAB0926F00E881CE9EF0011124EF5D2C
:101C5000FA4F808180648083FE01329790813297B1
:101C60008081F80131978083F801908360E00E94C1
:101C7000930B61E0F80180810E94930B60E0F80112
:101C800080810E94630B21960E5F1F4FDC1299CF5B
:101C9000F8941092200189E08093210180E293E082
:101CA000909329018093280110922501109224011C
:101CB00082E080937300789480934F0410925304D1
:101CC0008091500460E00E94930B61E082E20E94E8
:101CD000930B60E082E20E94630B61E083E20E946A
:101CE000930B60E083E20E94630B61E087E20E9455
:101CF000930B61E087E20E94630B60E085E20E9443
:101D0000930B0E94480460E082E20E94630BC0E0F3
:101D1000D0E0C0FD02C061E001C060E083E20E944B
:101D2000630B64EF71E080E090E00E94CF0B21969E
:101D3000CA30D10571F70E94480480916905882353
:101D400021F12FB7F89480915B0290915C02A091F1
:101D50005D02B0915E022FBF40916A0550916B0504
:101D600060916C0570916D05841B950BA60BB70BEC
:101D700040916E0550916F056091700570917105ED
:101D800084179507A607B70718F40E94F402D5CF69
:101D90002FB7F89480915B0290915C02A0915D0254
:101DA000B0915E022FBF80936A0590936B05A0935C
:101DB0006C05B0936D05E0917205F091730519956E
:101DC000E4CF80917405909175050C94C312109224
:101DD0006F0210926E0288EE93E0A0E0B0E0809374
:101DE000700290937102A0937202B09373022BE081
:101DF00032E030936D0220936C0210927B021092BD
:101E00007A0280937C0290937D02A0937E02B0932D
:101E10007F022DE132E0309379022093780245E38E
:101E200051E0509385024093840244E351E0509383
:101E300087024093860240E351E050938902409329
:101E4000880241E351E050938B0240938A0242E3BF
:101E500051E050938D0240938C0246E351E0509341
:101E60008F0240938E021092910210929202109271
:101E70009302109294021092180310921703809309
:101E8000190390931A03A0931B03B0931C03309380
:101E900016032093150345ED50E050932203409321
:101EA000210344ED50E0509324034093230340ED7D
:101EB00050E0509326034093250341ED50E05093AA
:101EC00028034093270342ED50E050932A034093A8
:101ED000290346ED50E050932C0340932B031092BE
:101EE0002E0310922F0310923003109231031092A0
:101EF000B5031092B4038093B6039093B703A093F5
:101F0000B803B093B9033093B3032093B20385ECC5
:101F100090E09093BF038093BE0384EC90E0909395
:101F2000C1038093C00380EC90E09093C30380933F
:101F3000C20381EC90E09093C5038093C40382ECCC
:101F400090E09093C7038093C60386EC90E0909353
:101F5000C9038093C8031092CB031092CC03109254
:101F6000CD031092CE0386E380935E0687E38093D1
:101F70005F0688E38093600689E3809361068BE1C6
:101F8000809362068DE1809363068AE18093640604
:101F90008CE18093650684E08093660687E08093F9
:101FA00067061092680684EB8093690686E1809349
:101FB0006A0688E180936B0687E180936C0689E16D
:101FC00080936D06E0915D05EC3020F08FEF8093FB
:101FD0006E0610C081E08E0F80935D05E0936E0663
:101FE00025E0E29FF0011124EF5DFA4F88EB9BE0C2
:101FF00092838183E0915D05EC3020F08FEF809338
:102000006F0610C081E08E0F80935D05E0936F0630
:1020100085E0E89FF0011124EF5DFA4F88EB9BE02B
:10202000928381838CE080933D0684E280933E0618
:1020300086E080933F0685E0809340068FE18093A1
:1020400041068EE18093420683E28093430682E25A
:102050008093440685E48093450684E48093460695
:1020600080E48093490610924E0610924F0610921B
:10207000500610925106109252061092530610927A
:10208000540610925506EFE7F5E08FEF9FEFDC0165
:10209000128213821482158216821782108611868C
:1020A00083879487A587B6878787908BA18BB28B10
:1020B000128611821082739626E0ED33F20741F703
:1020C0008DE090E00E942E12FC01138212828FE2BA
:1020D00092E091838083118687E2848384E1828702
:1020E00084E083871486F0937C05E0937B0510924F
:1020F0007D0510927E0585E2809350041092520473
:10210000109275051092740510927705109276055D
:10211000109279051092780561E070E080E090E01F
:102120000E945B13009791F090937505809374055E
:1021300010927705109276052091780530917905F7
:10214000232B09F051C0FC0110824EC08091740510
:1021500090917505009711F00E94C31210927505B9
:1021600010927405109279051092780510927705F7
:102170001092760581E08093690510926A051092AD
:102180006B0510926C0510926D0542E350E060E023
:1021900070E040936E0550936F05609370057093E7
:1021A000710525EB34E0309373052093720580931D
:1021B0005E0510925F051092600510926105109205
:1021C000620584EF91E0A0E0B0E080936305909316
:1021D0006405A0936505B09366058CE293E0909347
:1021E0006805809367050895109279051092780527
:1021F00067E372E00E945214BDCF990F0008550F9B
:10220000AA0BE0E8FEEF16161706E807F907C0F07C
:1022100012161306E407F50798F0621B730B840B84
:10222000950B39F40A2661F0232B242B252B21F45E
:1022300008950A2609F4A140A6958FEF811D811DFE
:1022400008950E9434110C94A5110E94971138F042
:102250000E949E1120F0952311F00C948E110C9485
:10226000941111240C94D9110E94B61170F3959F0A
:10227000C1F3950F50E0551F629FF001729FBB277D
:10228000F00DB11D639FAA27F00DB11DAA1F649F19
:102290006627B00DA11D661F829F2227B00DA11DCC
:1022A000621F739FB00DA11D621F839FA00D611D52
:1022B000221F749F3327A00D611D231F849F600D73
:1022C000211D822F762F6A2F11249F5750409AF09C
:1022D000F1F088234AF0EE0FFF1FBB1F661F771F28
:1022E000881F91505040A9F79E3F510580F00C94F3
:1022F0008E110C94D9115F3FE4F3983ED4F3869588
:1023000077956795B795F795E7959F5FC1F7FE2B92
:10231000880F911D9695879597F9089597F99F676E
:1023200080E870E060E008959FEF80EC089500245D
:102330000A941616170618060906089500240A942A
:1023400012161306140605060895092E0394000CB0
:1023500011F4882352F0BB0F40F4BF2B11F460FF3F
:1023600004C06F5F7F4F8F4F9F4F089557FD905868
:10237000440F551F59F05F3F71F04795880F97FB49
:10238000991F61F09F3F79F0879508951216130603
:102390001406551FF2CF4695F1DF08C01616170632
:1023A0001806991FF1CF8695710561050894089567
:1023B000E894BB2766277727CB0197F90895991BE7
:1023C00079E004C0991F961708F0961B881F7A952C
:1023D000C9F780950895EE0FFF1F881F8BBF0790E8
:1023E000F691E02D19940E94FA116894B1110C94A1
:1023F000D91108950E94BE1188F09F5798F0B92F07
:102400009927B751B0F0E1F0660F771F881F991F29
:102410001AF0BA95C9F714C0B13091F00E94D811E2
:10242000B1E008950C94D811672F782F8827B85FF2
:1024300039F0B93FCCF3869577956795B395D9F781
:102440003EF490958095709561957F4F8F4F9F4F8B
:1024500008950E94FD1008F48FEF0895CF93DF9345
:102460008230910510F482E090E0E0910307F09152
:10247000040720E030E0C0E0D0E0309711F1408167
:10248000518148175907C0F04817590761F48281F4
:102490009381209719F09B838A832BC09093040724
:1024A0008093030726C02115310519F04217530701
:1024B00018F49A01BE01DF01EF010280F381E02DE3
:1024C000DCCF2115310509F1281B390B24303105EA
:1024D00090F412968D919C9113976115710521F0DE
:1024E000FB019383828304C09093040780930307C6
:1024F000FD01329644C0FD01E20FF31F81939193D9
:10250000225031092D933C933AC02091010730911C
:102510000207232B41F420910302309104023093EF
:102520000207209301072091010230910202211538
:10253000310541F42DB73EB7409105025091060296
:10254000241B350BE0910107F0910207E217F30716
:10255000A0F42E1B3F0B2817390778F0AC014E5F13
:102560005F4F2417350748F04E0F5F1F5093020747
:10257000409301078193919302C0E0E0F0E0CF0126
:10258000DF91CF9108950F931F93CF93DF9300971F
:1025900009F48CC0FC013297138212820091030768
:1025A000109104070115110581F420813181820FFA
:1025B000931F20910107309102072817390779F5F9
:1025C000F0930207E093010771C0D80140E050E0AA
:1025D000AE17BF0750F412962D913C911397AD01A1
:1025E0002115310509F1D901F3CF9D01DA013383BA
:1025F000228360817181860F971F8217930769F488
:10260000EC0128813981260F371F2E5F3F4F318320
:1026100020838A819B8193838283452B29F4F093C5
:102620000407E093030742C01396FC93EE931297BE
:10263000ED01499159919E01240F351FE217F307CF
:1026400071F480819181840F951F029611969C935D
:102650008E938281938113969C938E931297E0E0E0
:10266000F0E0D80112968D919C911397009719F084
:10267000F8018C01F6CF8D919C9198012E5F3F4F10
:10268000820F931F20910107309102072817390705
:1026900069F4309729F4109204071092030702C0DE
:1026A000138212821093020700930107DF91CF91EA
:1026B0001F910F9108956F927F928F929F92AF9288
:1026C000BF92CF92DF92EF92FF920F931F93CF931F
:1026D000DF93EC01009789F4CB01DF91CF911F913B
:1026E0000F91FF90EF90DF90CF90BF90AF909F90B1
:1026F0008F907F906F900C942E12FC01E60FF71FC5
:102700009C0122503109E217F30708F4ACC0D9014B
:102710000D911C91119706171707B0F005301105A0
:1027200008F49FC0C80104978617970708F499C05A
:1027300002501109061B170B019311936D937C93A3
:10274000CF010E94C3128DC05B01A01AB10A4C01D7
:10275000800E911EA0910307B091040740E050E065
:10276000E12CF12C109709F44AC0A815B905D1F550
:102770006D907C901197630182E0C80ED11CCA1441
:10278000DB0480F1A3014A195B096A0182E0C80EEB
:10279000D11C1296BC9012971396AC91B5E0CB1653
:1027A000D10440F0B282A38351834083D9016D9359
:1027B0007C930AC00E5F1F4FC301800F911FF90168
:1027C00091838083EB2DFA2FE114F10431F0D701CE
:1027D0001396FC93EE93129744C0F0930407E09392
:1027E00003073FC08D919C9111974817590708F432
:1027F000AC017D0112960D90BC91A02DB3CF8091BC
:1028000001079091020788159905E1F446175707CB
:10281000C8F48091010290910202009741F48DB7B3
:102820009EB74091050250910602841B950BE81754
:10283000F907C8F4F0930207E0930107F9017183E7
:1028400060830FC0CB010E942E127C01009759F0CB
:10285000A801BE010E944914CE010E94C312C70103
:1028600004C0CE0102C080E090E0DF91CF911F91C3
:102870000F91FF90EF90DF90CF90BF90AF909F901F
:102880008F907F906F90089581E090E0F8940C9481
:102890005914FB01DC0102C001900D9241505040DF
:1028A000D8F70895FB01DC0101900D920020E1F7BB
:1028B000089511E0C4E9D1E000E006C0802FFE01D8
:1028C0000E94EB112196011DC539D10780E0080750
:0628D000A9F7F894FFCF08
:1028D600FF00000507200000000000D508A5082914
:1028E600037F089D088E088008000000008802C843
:1028F600010C02CF023D021B022F020000000090D5
:0829060004C8012903280300A5
:00000001FF
