:100000000C9434020C9465020C9465020C94650205
:100010000C9465020C9465020C9465020C946502C4
:100020000C9465020C94DC110C94DC110C94DC1122
:100030000C9465020C9445070C9465020C946502BF
:100040000C9465020C94C8160C9465020C9465021D
:100050000C9465020C9465020C9465020C9477175D
:100060000C9465020C947A100C9450100C94650258
:100070000C9465020C9465020C9465020C94650264
:100080000C9465020C9465020C9465020C94650254
:100090000C9465020C9465020C9465020C94E611B4
:1000A0000C9465020C9465020C9465020C94650234
:1000B0000C9465020C9465020C9465020C94F11486
:1000C0000C9465020C9465020C9465020C94261045
:1000D0000C94FC0F0C9465020C94D20F0C94A80F96
:1000E0000C946502C604D304D604E104EE04F104C2
:1000F000FA04FD0404050905140514051405140586
:10010000140514051405970404054A04C604520492
:100110005504FA04B804D3046204B8046B047904E7
:100120007904C604870409059704F104A104B50401
:10013000B504B504B804C104D604140514051405A7
:1001400014051405140597043B044A044D04520495
:1001500055045A045D04D3046204B8046B047204A9
:1001600072048004870409058E04F1049A04AA0429
:10017000AA04AA04B804C104D6047C117F116E112C
:1001800072117811B611831187118D11911195118A
:100190009B119F11A311B611A911AD11B1110F1629
:1001A0001416191623162D16A61637163F164716BF
:1001B00051165B16651674167E16A61688169216CC
:1001C0009C160C94940A0C9483110C947C110C943E
:1001D000F41F0C9447160C946B040C9443070C9476
:1001E000A3110C94D7100C9478110C9479040C94EE
:1001F0005D040C94EE040C942D160C9491110C9447
:1002000052040C9414160C9487110C9404050C944D
:100210006E110C94A9110C949F110C9492160C94CD
:1002200088160C943F160C94AA0B0C943B040C9467
:1002300097040C94D4090C9484050C94210C0C9410
:1002400009050C946F140C9419160C94E6100C9478
:1002500065160C9427070C94C1040C94180A0C948E
:100260004D040C949C160C94B8040C944A040C9401
:10027000FA100C9462040C94C31C0C9451160C9448
:1002800055040C949B110C94D40B0C94A6160C944E
:10029000AA040C9472110C94FA040C947E160C941B
:1002A00037160C94E1040C94490A0C94BF0B0C947F
:1002B000B6110C94D6040C949A040C945B160C940E
:1002C00087040C94F1040C94FF1F0C946E140C948E
:1002D000D6100C9495110C948E040C9474160C94F6
:1002E0009C140C94D3040C9423160C940F160C94A9
:1002F0004C1F0C9472040C94C6040C94270A0C94A2
:10030000AD110C9432110C94DB0A0C94A1040C94E2
:100310002A0B0C9402110C9480040C9414050C9478
:10032000FD040C947F110C94B1110C943B0A0C94B5
:1003300000030C945A040C946A020C94B5040C94B7
:100340008D110200002100240027002A002D00301A
:1003500000330001010000040107010A010000222E
:1003600000250028002B002E00310034000201007F
:1003700000050108010B01000020002300260029D0
:10038000002C002F003200000100000301060109CB
:100390000105050505070508080808020202020A0A
:1003A0000A08080404040401010101010101010318
:1003B00003030303030303040707070C0C0C0C0CD3
:1003C0000C0C0C0202020206060606060606060BC6
:1003D0000B0B0B0B0B0B0B0102102020080810203D
:1003E00040102040800201020108040201010204C1
:1003F0000810204080804020100804020180040280
:1004000001804020100804020108040201010204D6
:100410000810204080010204081020408000000ADB
:100420000B02090C0D0E0807030401000000000078
:1004300000000000000000000000000000000000BC
:100440000000000000000000001211100000000079
:10045000000000000000000000000000000000009C
:1004600000000000C31CFF1F11241FBECFEFD1E20C
:10047000DEBFCDBF00E00CBF12E0A0E0B2E0ECE3D5
:10048000F8E400E00BBF02C007900D92AA3EB1074E
:10049000D9F728E0AAEEB2E001C01D92A833B20756
:1004A000E1F712E0C3E3D2E000E006C021970109C2
:1004B000802FFE010E949E21C233D10780E00807F1
:1004C000A9F70E94C1170C940C240C940000E0E0E2
:1004D000F0E01994EF92FF920F931F93CF93DF9365
:1004E0008AE792E00E947F0841E06AEE72E08CE8C1
:1004F00096E00E942A0B0AEE12E0C1E0D0E07801FB
:10050000F801619171918F0180E090E04AE00E94D2
:10051000D70881E892E00E946D08F70180819181FF
:100520008139914030F42196C930D10541F7C0E0BE
:10053000D0E0BE010D2E000C880B990B0E9418090B
:1005400081E892E00E946D08209709F443C040E0E2
:1005500050E060E87EEB80E897E00E94AF1540E055
:1005600050E060E87EE382E897E00E94AF1564EF18
:1005700071E080E090E00E94281425977CF440E030
:1005800050E060E87EE382E897E00E94AF1540E02B
:1005900050E060E87EE380E897E00EC040E050E085
:1005A00060E87EEB80E897E00E94AF1540E050E005
:1005B00060E87EEB82E897E00E94AF1564EF71E09F
:1005C00080E090E0DF91CF911F910F91FF90EF902D
:1005D0000C94281440E050E060E87EE380E897E067
:1005E0000E94AF1540E050E060E87EEB82E897E0C3
:1005F000DF91CF911F910F91FF90EF900C94AF1569
:1006000061E088E00C949E132F923F924F925F928C
:100610006F927F928F929F92AF92BF92CF92DF9212
:10062000EF92FF920F931F93CF93DF93CDB7DEB777
:1006300064970FB6F894DEBF0FBECDBFCE01019612
:100640007C012E0195E1490E511CF7011192119286
:10065000E415F505D9F7870185E0282E312C88248B
:100660008394912C2AE0622E712C0E94B20980E4BE
:100670000E9485096C010E94B20982E40E948509EA
:100680005C010E94B20984E40E948509AC14BD0497
:100690005CF48A159B05D4F48F35E1E09E07B4F035
:1006A000F8019182808212C0CA14DB047CF48C159C
:1006B0009D0564F48F35F1E09F0744F021E9C216EF
:1006C00021E0D2061CF0F801318220828A159B05B8
:1006D00054F4C816D90654F48F3591403CF0F80113
:1006E0007182608203C0F801118210820E5F1F4F79
:1006F0000415150509F0B9CF80E090E0F7012191CC
:1007000031917F01820F931FE415F505B9F78D3202
:100710009105C1F04CF488309105D4F08B309105EF
:10072000D4F0889779F014C08035910571F01CF4ED
:10073000C29741F00DC08A35910539F08436910594
:1007400021F006C082E090E008C083E090E005C0A0
:1007500080E090E002C081E090E064960FB6F894EB
:10076000DEBF0FBECDBFDF91CF911F910F91FF90E4
:10077000EF90DF90CF90BF90AF909F908F907F9041
:100780006F905F904F903F902F900895EF92FF925F
:100790000F931F93CF93DF937C018B01EA01682FA6
:1007A0008FE20E949E13B701FF0C880B990B0E94E9
:1007B0001809602F80E30E949E13B801110F880B67
:1007C000990B0E9418096C2F81E30E949E13BE01B1
:1007D000DD0F880B990B0E94180981E892E0DF91E8
:1007E000CF911F910F91FF90EF900C946D0840E016
:1007F00050E060E070E081E090E00E94C60340E0DD
:1008000050E0BA0180E897E00E94AF1540E050E068
:1008100060E070E882E897E00C94AF15AF92BF9269
:10082000CF92DF92EF92FF920F931F93CF93DF93BC
:10083000CDB7DEB72F970FB6F894DEBF0FBECDBF92
:100840006C018FE0E82E82E0F82E01E010E0D60186
:10085000ED916D014E2FEE0F550B660B770BFA01E4
:10086000F097EB34F10508F0DFC08827EE58FF4F12
:100870008F4F0C949E211A8219821C821B821E8328
:100880000D8318870F831A8709871C870B871E879C
:100890000D87D8C01A83098320C01A8219821C834D
:1008A0000B8332C01A83098347C01A8309831C82D1
:1008B0001B8231C01A83098366C01A8219821C8286
:1008C0001B825AC01A8219821C830B831E830D83DC
:1008D00018870F83B1C01A8219821C821B821E8264
:1008E0001D825AC01A8219821C821B821E830D83AC
:1008F0001BC01A8309831C830B831E830D8327C0AF
:100900001A8219821C821B821E830D8355C01A8392
:1009100009831C830B831E821D8230C01A821982B8
:100920001C821B821E821D8218861F8247C01A836A
:10093000098320C01A8219821C821B821E821D829A
:10094000A0CF1A8309831C821B821E821D821886F7
:100950001F8224C01A8219821C821B821E830D836F
:1009600018870F831A87098769C01A82198210C0F5
:100970001A8219821C830B831E830D8318861F82A3
:1009800082CF1A8219821C830B832FC01A8309839A
:100990001C830B831E830D8318870F831A87098797
:1009A0001C870B874DC01A82198229C01A830983BC
:1009B0001C830B831E821D8218870F831A87098769
:1009C0000AC01A8309831C830B831E830D83188737
:1009D0000F831A8619861C861B8659CF1A821982A4
:1009E0001AC01A8309831C821B821E830D831887F9
:1009F0000F8317C01A83098340CF1A8309831C838E
:100A00000B831E830D8316C01A8309831C830B83FB
:100A100036CF1A8309831C830B831E830D831886AC
:100A20001F821A86198631CF1A8219821C821B8274
:100A30001E821D8218861F821A8619861C861B86B6
:100A40001E861D86F701B1907F0161E08DE10E9455
:100A50009E1361E080E20E949E1361E085E20E94A5
:100A60009E1361E086E20E949E1361E087E20E948D
:100A70009E1360E08B2D0E949E13CE0101965C01B7
:100A800096E1D5016C91B2E0AB0EB11C892F9F8726
:100A90000E949E139F859F5F9D3199F761E070E0F2
:100AA00080E090E00E942814E4E1EE16E2E0FE0609
:100AB00009F0CDCE61E087E22F960FB6F894DEBF45
:100AC0000FBECDBFDF91CF911F910F91FF90EF909F
:100AD000DF90CF90BF90AF900C949E13CF93DF9395
:100AE000EC010E94F7038EE20E947513892B21F41A
:100AF000CE010E940E04F7CF68EE73E080E090E034
:100B0000DF91CF910C942814AF92BF92CF92DF92D5
:100B1000EF92FF920F931F93CF93DF9384E892E0BD
:100B20000E947F0861E0809173060E949E130E94DC
:100B300004038C01892B09F437C10E94F70360E09C
:100B4000809173060E949E1341E050E061E070E0E6
:100B500081E090E00E94C60381E090E00E944A0993
:100B60000E946214609385067093860680938706C0
:100B70009093880668E572E080E090E00E94180992
:100B800081E892E00E946D0861E08CE00E949E1373
:100B900060E08AE00E949E13C7E5D2E088E696E016
:100BA0000E94C11461E08BE00E949E1361E070E03E
:100BB00080E090E00E94281460E088E00E949E138C
:100BC00060E08BE00E949E1361E070E080E090E0C6
:100BD0000E942814219711F70230110549F00330C3
:100BE000110541F00130110541F43AE5B32E04C07E
:100BF000B12C02C044EBB42EA12C90919207B916EF
:100C000020F0909193079B1528F48CE892E00E94C5
:100C10007F0848C0C0919807CC3008F043C085E0F9
:100C2000C89FE0011124C65FD94F8B8128E830E0CE
:100C30006901C81AD10887FDD394CC0CDD1CCC0CFB
:100C4000DD1C0D2C000CEE08FF088C8128E532E03D
:100C5000281B310987FD3395220F331F220F331FC5
:100C6000C901330FAA0BBB0B9C01AD012C193D0927
:100C70004E095F09AB2DBA2D0E94452124EB30E0CF
:100C800040E050E00E941B21C20ED31EE41EF51E60
:100C900086E0C81AD108CC0CDD1C8FB7F894DA8234
:100CA000C9828FBF68EC70E080E090E00E94281459
:100CB00082E090E00E944A090E94621460938506D7
:100CC00070938606809387069093880668E572E0A5
:100CD00080E090E00E94180981E892E00E946D088F
:100CE00060E08CE00E949E13C7E5D2E088E696E0C3
:100CF0000E94C11461E08BE00E949E1361E070E0ED
:100D000080E090E00E94281460E08BE00E949E1337
:100D100061E070E080E090E00E942814219731F7B4
:100D200061E08AE00E949E130230110581F00330D9
:100D30001105B9F001301105E9F480910503909196
:100D400006030196909306038093050313C08091D8
:100D5000030390910403019690930403809303038B
:100D600009C08091010390910203019690930203C0
:100D7000809301038091050390910603049754F535
:100D8000809103039091040304976CF58091010313
:100D9000909102030497BCF440E050E061E070E001
:100DA00080E090E00E94C60360E080917306DF91CE
:100DB000CF911F910F91FF90EF90DF90CF90BF9058
:100DC000AF900C949E13109202031092010389EAD3
:100DD00092E006C010920603109205038EEA92E09C
:100DE0000E946E05D9CF109204031092030384EB86
:100DF00092E0F6CF8AEB92E00E947F0840E050E05C
:100E000060E070E081E090E00E94C6038EE20E9404
:100E10007513892B29F48FEB92E00E940E04F6CF14
:100E200085EC92E00E947F088EE20E947513019784
:100E3000D9F362E370E080E090E00E94281440E083
:100E400050E061E070E080E090E00C94C6038BEC31
:100E500092E00E947F088EE20E947513019779F458
:100E60000E94F7038EE20E9475130197D9F362E3A3
:100E700070E080E090E00E9428140E94FA0660E092
:100E80008FE20C949E130E94F7231F920F920FB6CD
:100E90000F9211240BB60F922F933F934F935F93B2
:100EA0006F937F938F939F93AF93BF93EF93FF9332
:100EB0008091FD029091FE02A091FF02B09100038B
:100EC000892B8A2B8B2B59F18091FC02E091FA023D
:100ED000F091FB029081892780838091FD0290919F
:100EE000FE02A091FF02B0910003181619061A061F
:100EF0001B060CF056C08091FD029091FE02A0915D
:100F0000FF02B09100030197A109B1098093FD028E
:100F10009093FE02A093FF02B093000342C0809121
:100F20000002E2E4F3E0E4919FEF90930002E230EC
:100F3000C9F050F4EE2399F0E13081F590916F0003
:100F40009D7F90936F002AC0E43019F1E0F0E53006
:100F500029F5909173009D7F909373001FC01092AC
:100F60006E001CC0909170009D7F9093700091E086
:100F70009093B0009091B100987F94609093B100ED
:100F80001092B3000BC0909171009D7F90937100FF
:100F900005C0909172009D7F9093720060E00E9466
:100FA0009E13FF91EF91BF91AF919F918F917F9190
:100FB0006F915F914F913F912F910F900BBE0F90CA
:100FC0000FBE0F901F90189591E09093540394E7F3
:100FD000909353031092520310925103682F85E5AA
:100FE00093E00E94321185E593E00E9418138091EE
:100FF0002E038111FCCF81E080932E0380932D037B
:101000009FEF90932C0310922B0310922A0380934E
:10101000290380912903886E8093290380912803F6
:10102000813061F410922803809129038093BB00E2
:101030008091BC0083FDF8CF85EC01C085EE8093E4
:10104000BC0080912E038130E1F380912B0381114C
:1010500003C080912B0301C081E0A8E0B3E021E34D
:1010600033E0F9019E2F921B981718F49D919193EC
:10107000F9CF1092300380932F03811101C0FFCF6D
:1010800085E593E00E94E6100895EBE9F4E0A0897D
:10109000B18982E08C93A485B5851C92A685B7851D
:1010A0008FEC8C93108EA489B58986E08C93A289ED
:1010B000B3898C9180618C93A289B3898C9188606B
:1010C0008C93A289B3898C9180688C930288F38970
:1010D000E02D80818F7D80830895009769F0FC0169
:1010E00001900020E9F73197AF01481B590BBC0173
:1010F0008BE994E00C94D40980E090E00895CF93BC
:10110000DF930E946D08EC0181E892E00E946D0877
:101110008C0F9D1FDF91CF910895EF92FF921F9347
:10112000CF93DF931F92CDB7DEB7162F97E6E92E48
:1011300097E0F92ED7011C969C911C9721E02093F3
:1011400054039093530310925203109251031A9632
:101150000D90BC91A02DED91FC9111970190F08123
:10116000E02D682FCD0179831995F701828593854C
:10117000DC01ED91FC910190F081E02D7981672FE8
:101180001995F70182859385DC01ED91FC91019021
:10119000F081E02D612F1995F701828593850F90DD
:1011A000DF91CF911F91FF90EF900C9418138F92C5
:1011B0009F92AF92BF920F931F93CF93DF93CDB7C0
:1011C000DEB7A1970FB6F894DEBF0FBECDBF19A250
:1011D000423008F44AE08E010F5D1F4F842E912C9F
:1011E000A12CB12CA50194010E944D21E62FB9013B
:1011F000CA0101501109EA3014F4E05D01C0E95C54
:10120000D801EC93232B242B252B61F7C8010E94D6
:101210006D08A1960FB6F894DEBF0FBECDBFDF916B
:10122000CF911F910F91BF90AF909F908F90089595
:10123000CF92DF92EF92FF92CF93DF9397FF21C07F
:101240006B017C01E0919B04F0919C040190F08182
:10125000E02D6DE28BE994E01995EC016627772784
:10126000CB016C197D098E099F094AE00E94D708BD
:101270008C0F9D1FDF91CF91FF90EF90DF90CF906B
:1012800008954AE0DF91CF91FF90EF90DF90CF90EB
:101290000C94D7088F929F92AF92BF92CF92DF9219
:1012A000EF92FF92CF93DF93C2E3D0E04C01092E7F
:1012B000000CAA08BB0824E130E06901C81AD90A69
:1012C0000D2C000CEE08FF0888E696E00E94C11481
:1012D00061E088E00E949E13C501B4010E942814B9
:1012E00060E088E00E949E13C701B6010E942814A6
:1012F000219751F7DF91CF91FF90EF90DF90CF9042
:10130000BF90AF909F908F900895CF93DF93C82F99
:101310000E94E407D82F81E08C0F0E94E407282F59
:1013200030E0922F88278D0F911DDF91CF91089586
:10133000CF93C82F81E08093540384E780935303B5
:10134000109252031092510385E593E00E943211EE
:101350006C2F85E593E00E94321185E593E0CF91F3
:101360000C94181360E081E00E94980980E00E94CC
:10137000E4078111FBCF08950F931F93CF93C82FDC
:101380008B016115704164F46C2F802F0E949809C5
:1013900061E06C0F812FCF911F910F910C949809F0
:1013A000CF911F910F910895CF92DF92EF92FF920C
:1013B0000F931F93CF93DF936C017A018B01C0E0F1
:1013C000D0E0CE15DF0589F0D8016D918D01D601F1
:1013D000ED91FC910190F081E02DC6011995892BCA
:1013E00011F47E0102C02196ECCFC701DF91CF91AD
:1013F0001F910F91FF90EF90DF90CF900895FC0127
:10140000A089B1898C91A689B78982FD0FC09C9172
:10141000818D8F5F8F73228D821749F0218DDF01BF
:10142000A20FB11D5D969C93818F08958C910895B4
:10143000FC01538D448D252F30E0842F90E0821BDA
:10144000930B541710F0CF96089501970895FC015F
:10145000918D828D981761F0828DDF01A80FB11DEB
:101460005D968C91928D9F5F9F73928F90E008950F
:101470008FEF9FEF0895FC01918D828D981731F0C9
:10148000828DE80FF11D858D90E008958FEF9FEF1D
:101490000895FC01918D228D892F90E0805C9F4FF3
:1014A000821B91098F739927089581E693E00E942A
:1014B000490A21E0892B09F420E0822F08958EEF5C
:1014C00093E00E94490A21E0892B09F420E0822F51
:1014D00008958BE994E00E94490A21E0892B09F4E0
:1014E00020E0822F0895FC01848DDF01A80FB11D3B
:1014F000A35ABF4F2C91848D90E001968F7399274A
:10150000848FA689B7892C93A089B1898C91806436
:101510008C93938D848D981306C00288F389E02DF7
:1015200080818F7D80830895EF92FF920F931F93A8
:10153000CF93DF93EC0181E0888F9B8D8C8D981386
:1015400005C0E889F989808185FD24C0F62E0B8DC0
:1015500010E00F5F1F4F0F731127E02E8C8DE812E4
:101560000CC00FB607FCFACFE889F989808185FFA6
:10157000F5CFCE010E94730AF1CF8B8DFE01E80FEB
:10158000F11DE35AFF4FF0820B8FEA89FB898081BE
:10159000806207C0EE89FF896083E889F9898081CC
:1015A0008064808381E090E0DF91CF911F910F9163
:1015B000FF90EF900895CF93DF93EC01888D8823FF
:1015C000C9F0EA89FB89808185FD05C0A889B989B0
:1015D0008C9186FD0FC00FB607FCF5CF808185FF8B
:1015E000F2CFA889B9898C9185FFEDCFCE010E94F9
:1015F000730AE7CFDF91CF91089580E090E0892BC7
:1016000021F00E94690A811119C080E090E0892BC5
:1016100041F080E090E0892B21F00E9400008111D0
:1016200010C00E945F0A81110FC080E090E0892BFA
:1016300081F00E94550A81110AC008950E9400009D
:10164000E4CF0E940000EDCF0E946702EECF0C9421
:1016500000000895DF92EF92FF920F931F93CF93B4
:10166000DF93CDB7DEB7EE970FB6F894DEBF0FBEAF
:10167000CDBF8C017B01D42E8FEF840FD801ED916B
:10168000FC91823020F40480F581E02D05C04111E9
:1016900005C00280F381E02DC8011995D801ED91B4
:1016A000FC910084F185E02D20E041E0B701C80104
:1016B0001995B5E0DB1609F43FC0D801ED91FC9116
:1016C0000280F381E02DC8011995B2E0DB1234C02D
:1016D000D801ED91FC910084F185E02D20E041E0FE
:1016E000BE016F5F7F4FC801199540E0D8011C967D
:1016F0008C91481708F5842F90E0880F991FF70107
:10170000E80FF91F21E030E02C0F3D1F820F931FDF
:10171000D8011E962D913C911F97DC018D919C91D3
:10172000B901681B790BCB0120813181820F931F96
:10173000918380834F5FDACFEE960FB6F894DEBFC9
:101740000FBECDBFDF91CF911F910F91FF90EF9012
:10175000DF900895CF93DF93FC0185858F3F61F083
:10176000EF0161E00E94EC1361E08D850E949E1301
:101770008BE193E00197F1F7DF91CF910895CF933B
:10178000DF93FC0185858F3F61F0EF0161E00E94EE
:10179000EC1360E08D850E949E138BE193E001972E
:1017A000F1F7DF91CF910895EF92FF920F931F937E
:1017B000CF93DF931F92CDB7DEB77C018B01FC0185
:1017C0001382128215821482178216821186108665
:1017D000118A108A403218F08FE1848702C0FC0120
:1017E0004487F70182859385892B11F080E00DC035
:1017F000F701848590E029830E94E121F701938716
:1018000082872981892B91F714C0F7019485891764
:1018100078F4482F50E0F801E40FF51F9081F701AC
:1018200062857385FB01E40FF51F90838F5FEDCF19
:1018300025870F90DF91CF911F910F91FF90EF902F
:1018400008950F931F93CF93DF93EC01122F202F56
:10185000E881F9813697808191818C0F9D1F0E94CC
:10186000D40B1A83E881F981369780819181C80F62
:10187000D91F8FEF93E09F878E87DF91CF911F91C4
:101880000F9108953F924F925F926F927F928F9245
:101890009F92AF92BF92CF92DF92EF92FF920F93FF
:1018A0001F93CF93DF9300D01F92CDB7DEB72901EE
:1018B0003A0190910002981721F09F3F09F032C33E
:1018C00004C0E2E4F3E0349004C180930002E2E457
:1018D000F3E0E491EF3F09F425C3E23009F480C05E
:1018E00074F5EE2309F45BC0E13009F0F1C0109209
:1018F0008000109281009091810098609093810007
:1019000090918100916090938100282F30E0F9013F
:10191000EF56FC4FE491F0E0EE0FFF1FE35AFC4F4F
:10192000459154915093A9074093A807F901E952B2
:10193000FC4FE491E093A70733243394CCC0E43008
:1019400009F49EC00CF474C0E53009F0C1C01092D7
:101950002001109221019091210198609093210122
:1019600090912101916090932101482F50E0FA015C
:10197000EF56FC4FE491F0E0EE0FFF1FE35AFC4FEF
:10198000259134913093A00720939F07FA01E952E3
:10199000FC4FE491E0939E07B5E03B2E9CC014BC45
:1019A00015BC94B5926094BD95B5916095BD282FF6
:1019B00030E0F901EF56FC4FE491F0E0EE0FFF1F2D
:1019C000E35AFC4F459154915093AC074093AB07B9
:1019D000F901E952FC4FE491E093AA07312C7BC056
:1019E0001092B0001092B1009091B000926090936C
:1019F000B0009091B10091609093B100282F30E039
:101A0000F901EF56FC4FE491F0E0EE0FFF1FE35AAF
:101A1000FC4F459154915093FB024093FA02F90117
:101A2000E952FC4FE491E093FC0252E0352E53C0A2
:101A30001092900010929100909191009860909374
:101A4000910090919100916090939100282F30E047
:101A5000F901EF56FC4FE491F0E0EE0FFF1FE35A5F
:101A6000FC4F459154915093A6074093A507F90167
:101A7000E952FC4FE491E093A40723E0322E2BC0FF
:101A80001092A0001092A1009091A10098609093F4
:101A9000A1009091A10091609093A100282F30E0C7
:101AA000F901EF56FC4FE491F0E0EE0FFF1FE35A0F
:101AB000FC4F459154915093A3074093A207F9011D
:101AC000E952FC4FE491E093A10704E0302E03C0FB
:101AD0003E2E37FC27C28B0161E00E94EC134801C7
:101AE000A12CB12C832D8D7F09F0BBC060E072E189
:101AF0008AE790E0A50194010E941B2129833A8383
:101B00004B835C8369017A0121E0C21AD108E108A4
:101B1000F1088FEFC816D104E104F10409F008F4CC
:101B20004CC060E472E48FE090E0A50194010E9453
:101B30001B2169017A0191E0C91AD108E108F10875
:101B4000E2E03E1220C0FFEFCF16D104E104F10421
:101B500009F008F4E5C160E970ED83E090E0A501CB
:101B600094010E941B2169017A0181E0C81AD10801
:101B7000E108F1089FEFC916D104E104F10409F06E
:101B8000D0F583E067C0EFEFCE16D104E104F10495
:101B9000B1F0A8F068E478EE81E090E0A50194014E
:101BA0000E941B2169017A01F1E0CF1AD108E108F6
:101BB000F108332009F45AC1AAC181E001C082E0D2
:101BC0003320A1F047C089819A81AB81BC812AE092
:101BD000B595A795979587952A95D1F76C017D01C5
:101BE000F1E0CF1AD108E108F10885E095B5987FBA
:101BF000892B85BDA6C068E478EE81E090E0A50160
:101C000094010E941B2169017A0181E0C81AD10860
:101C1000E108F1089FEFC916D104E104F10409F0CD
:101C200008F422C164E274EF80E090E0A501940121
:101C30000E941B2169017A0181E0C81AD108E108DC
:101C4000F1089FEFC916D104E104F10411F008F086
:101C50002FC185E09091B100987F892B8093B100CE
:101C600070C060E072E18AE790E0A50194010E94F3
:101C70001B2169017A01F1E0CF1AD108E108F108CE
:101C8000C114D10421E0E206F10488F068E478EEA2
:101C900081E090E0A50194010E941B2169017A0175
:101CA00081E0C81AD108E108F10883E001C081E0B1
:101CB00091E0391210C090918100987F892B809318
:101CC0008100411451046104710409F03FC02FEFF9
:101CD0003FEFA90171C0E3E03E120FC09091910067
:101CE000987F892B80939100411451046104710401
:101CF00069F52FEF3FEFA90181C0F4E03F120FC05B
:101D00009091A100987F892B8093A10041145104E8
:101D100061047104D9F42FEF3FEFA90181C025E0E0
:101D200032120FC090912101987F892B809321015D
:101D3000411451046104710449F42FEF3FEFA901EC
:101D400081C0411451046104710471F0D801AA0FDB
:101D5000BB1FA30192010E943A2128EE33E040E02C
:101D600050E00E944D2103C02FEF3FEFA90182E018
:101D70003816A1F1831534F0332079F091E039164B
:101D8000D9F0D0C0E4E03E1609F44AC03E16B4F1E2
:101D9000F5E03F1609F456C0C5C0C7BC2093BD0787
:101DA0003093BE074093BF075093C00780916E00E9
:101DB000826080936E00B6C0D0928900C092880085
:101DC0002093B9073093BA074093BB075093BC07E1
:101DD00080916F00826080936F00A4C0C092B300B6
:101DE0002093FD023093FE024093FF0250930003C4
:101DF0008091700082608093700094C0D0929900AE
:101E0000C09298002093B5073093B6074093B70768
:101E10005093B8078091710082608093710082C0F6
:101E2000D092A900C092A8002093B1073093B207C6
:101E30004093B3075093B4078091720082608093FF
:101E4000720070C0D0922901C09228012093AD0782
:101E50003093AE074093AF075093B0078091730063
:101E60008260809373005EC084E0F4CE2FEFC216D0
:101E7000D104E104F104D1F0C8F062E17AE780E036
:101E800090E0A50194010E941B2169017A01E1E023
:101E9000CE1AD108E108F108FFEFCF16D104E10412
:101EA000F10411F008F08FCE84E0A0CE83E09ECE46
:101EB00062E17AE780E090E0A50194010E941B2195
:101EC00069017A0181E0C81AD108E108F1089FEFA1
:101ED000C916D104E104F104C1F0B8F089819A81F6
:101EE000AB81BC814AE0B595A795979587954A95B2
:101EF000D1F76C017D01E1E0CE1AD108E108F108CB
:101F0000332009F472CE87E0A5CE86E059CEEFEFFC
:101F1000CE16D104E104F10409F050F684E050CE6D
:101F200082E098CE0F900F900F900F90DF91CF919D
:101F30001F910F91FF90EF90DF90CF90BF90AF90E7
:101F40009F908F907F906F905F904F903F900895FB
:101F50001F920F920FB60F9211240BB60F922F9370
:101F60003F934F935F936F937F938F939F93AF9321
:101F7000BF93EF93FF9381E693E00E94730AFF9172
:101F8000EF91BF91AF919F918F917F916F915F91F1
:101F90004F913F912F910F900BBE0F900FBE0F905E
:101FA0001F9018951F920F920FB60F9211240BB627
:101FB0000F922F933F934F935F936F937F938F93E2
:101FC0009F93AF93BF93EF93FF9381E693E00E94BB
:101FD000FF09FF91EF91BF91AF919F918F917F91F9
:101FE0006F915F914F913F912F910F900BBE0F908A
:101FF0000FBE0F901F9018951F920F920FB60F9261
:1020000011240BB60F922F933F934F935F936F93CF
:102010007F938F939F93AF93BF93EF93FF938EEF35
:1020200093E00E94730AFF91EF91BF91AF919F914E
:102030008F917F916F915F914F913F912F910F9071
:102040000BBE0F900FBE0F901F9018951F920F920E
:102050000FB60F9211240BB60F922F933F934F930D
:102060005F936F937F938F939F93AF93BF93EF9300
:10207000FF938EEF93E00E94FF09FF91EF91BF91D4
:10208000AF919F918F917F916F915F914F913F9110
:102090002F910F900BBE0F900FBE0F901F901895B1
:1020A0001F920F920FB60F9211240BB60F922F931F
:1020B0003F934F935F936F937F938F939F93AF93D0
:1020C000BF93EF93FF938BE994E00E94730AFF9113
:1020D000EF91BF91AF919F918F917F916F915F91A0
:1020E0004F913F912F910F900BBE0F900FBE0F900D
:1020F0001F9018951F920F920FB60F9211240BB6D6
:102100000F922F933F934F935F936F937F938F9390
:102110009F93AF93BF93EF93FF938BE994E00E945B
:10212000FF09FF91EF91BF91AF919F918F917F91A7
:102130006F915F914F913F912F910F900BBE0F9038
:102140000FBE0F901F90189585ED8093BC00809175
:10215000BC0084FDFCCF10922E03089540910B0823
:10216000262F30E0240F311D21323105DCF420917F
:102170002E032430C9F4FC0180E090E0861758F467
:1021800030910B082191DC01A751B84FA30FB11D6D
:102190002C930196F3CF80910B08680F60930B0886
:1021A00080E0089581E0089582E008950895E09127
:1021B000300380912F03E81730F4F0E0EF5CFC4F20
:1021C000808190E008958FEF9FEF08959091300304
:1021D00080912F03981750F4E92FF0E0EF5CFC4F4B
:1021E000208130E09F5F9093300302C02FEF3FEFDC
:1021F000C901089580912F0390E020913003821B44
:1022000091090895CF92DF92EF92FF920F931F935F
:10221000CF93DF937C01262F972F8A01809154035F
:10222000882391F0C62FD72F6E01C40ED51ECC1572
:10223000DD0571F06991D701ED91FC910190F0817C
:10224000E02DC7011995F3CF642F822F0E94AE10A5
:10225000C801DF91CF911F910F91FF90EF90DF9018
:10226000CF900895CF93DF931F92CDB7DEB76983E8
:10227000209154032223D1F020915103203240F0C9
:1022800021E030E0FC013383228380E090E015C040
:1022900080915203E82FF0E0E753F84F9981908343
:1022A0008F5F809352038093510305C061E0CE019C
:1022B00001960E94AE1081E090E00F90DF91CF91E7
:1022C000089590E0FC013197E231F10508F04EC02D
:1022D0008827E354FF4F8F4F0C949E2180918000FC
:1022E0008F7703C0809180008F7D80938000089558
:1022F00080918000877FF9CF84B58F7702C084B545
:102300008F7D84BD08958091B0008F7703C0809148
:10231000B0008F7D8093B0000895809190008F77FA
:1023200007C0809190008F7D03C080919000877FCF
:102330008093900008958091A0008F7707C08091CE
:10234000A0008F7D03C08091A000877F8093A000B4
:102350000895809120018F7707C0809120018F7DA3
:1023600003C080912001877F8093200108953FB7AB
:10237000F8948091C5079091C607A091C707B091C6
:10238000C80726B5A89B05C02F3F19F00196A11DCF
:10239000B11D3FBFBA2FA92F982F8827820F911DFB
:1023A000A11DB11DBC01CD0142E0660F771F881F42
:1023B000991F4A95D1F708951F920F920FB60F9269
:1023C00011240F900FBE0F901F9018951F920F921F
:1023D0000FB60F9211240BB60F922F933F934F938A
:1023E0005F936F937F938F939F93AF93BF93EF937D
:1023F000FF938091B900887F803609F49CC068F50E
:10240000883209F45BC090F4803109F454C038F488
:10241000882309F4F6C0883009F44DC0F6C088312D
:1024200009F44CC0803209F45DC0EFC0803409F477
:1024300068C048F4803309F455C0883309F0E5C01A
:1024400080932C03D8C0803509F44FC0883509F437
:102450005DC0883409F0D9C0D6C0883909F4C7C036
:10246000A8F4883709F467C038F4883609F463C0E3
:10247000803709F460C0C9C0883809F4B8C0803911
:1024800009F45FC0803809F0C0C05BC0803B09F42C
:1024900086C038F4803A09F466C0883A09F47FC0EF
:1024A000B4C0803C09F4A7C0883C09F4A4C0883BB0
:1024B00009F48AC0AAC08091290310C090912B030F
:1024C00080912A03981770F5E0912B0381E08E0F1D
:1024D00080932B03F0E0E85FFC4F80818093BB008A
:1024E00085EC86C080932C038EC0E0912B0381E0A5
:1024F0008E0F80932B038091BB00F0E0E85FFC4FD0
:10250000808390912B0380912A036EC0E0912B036E
:1025100081E08E0F80932B038091BB00F0E0E85F99
:10252000FC4F808380912D0381116DC081E08093E9
:10253000280384EA61C083E080932E0310922F0861
:10254000CFCF80912F08803208F051C0E0912F0842
:1025500081E08E0F80932F088091BB00F0E0E15F57
:10256000F74F8083BDCF85EC8093BC0010922E0383
:1025700080912F08803230F4E0912F08F0E0E15F85
:10258000F74F108260912F0870E0E0910D08F091F4
:102590000E088FE098E0199510922F0836C084E05D
:1025A00080932E0310920C0810920B08E0910908FA
:1025B000F0910A08199580910B08811105C081E0FE
:1025C00080930B081092E907E0910C0881E08E0FD0
:1025D00080930C08F0E0E751F84F80818093BB00B6
:1025E00090910C0880910B08981708F479CF85E832
:1025F0008093BC000AC085EC8093BC0010922E032F
:1026000004C010922C030E94A410FF91EF91BF917F
:10261000AF919F918F917F916F915F914F913F917A
:102620002F910F900BBE0F900FBE0F901F9018951B
:102630002091510390915303213208F04AC08091B8
:102640002E038111FCCF32E030932E0331E0309322
:102650002D033FEF30932C0310922B0320932A037A
:10266000A9ECB7E048E053E0FA013E2F341B3217E3
:1026700018F43D913193F9CF109229032091290349
:10268000990F922B9093290390912803913061F434
:1026900010922803909129039093BB009091BC0065
:1026A00093FDF8CF95EC01C095EE9093BC0090910E
:1026B0002E039230E1F390912C039F3F79F08091AB
:1026C0002C03803241F080912C03803331F084E080
:1026D00005C081E003C082E001C083E01092520394
:1026E00010925103109254030895CF93DF93282F33
:1026F00030E0F901E35EFB4F8491F901E952FC4FB0
:10270000D491F901EF56FC4FC491CC2391F0811183
:102710000E946111EC2FF0E0EE0FFF1FE958FC4F13
:10272000A591B491EC91ED2381E090E021F480E05B
:1027300002C080E090E0DF91CF9108951F93CF9386
:10274000DF93282F30E0F901E35EFB4F8491F9011C
:10275000E952FC4FD491F901EF56FC4FC491CC23C0
:10276000C9F0162F81110E946111EC2FF0E0EE0FDD
:10277000FF1FE35AFC4FA591B4918FB7F894111144
:1027800005C09C91ED2FE095E92302C0EC91ED2B63
:10279000EC938FBFDF91CF911F91089510922E037C
:1027A00081E080932D031092280361E084E10E9470
:1027B0009E1361E085E10E949E13E9EBF0E08081C9
:1027C0008E7F808380818D7F808388E48093B800B2
:1027D00085E48093BC000895CF93DF9390E0FC01E3
:1027E000E952FC4F2491FC01EF56FC4F8491882361
:1027F00061F190E0880F991FFC01ED5BFC4FC591E2
:10280000D491FC01E35AFC4FA591B491611109C028
:102810009FB7F8948881209582238883EC912E239A
:102820000BC0623061F49FB7F8943881822F809595
:1028300083238883EC912E2B2C939FBF06C08FB7E8
:10284000F894E8812E2B28838FBFDF91CF910895D4
:102850008F929F92AF92BF92CF92DF92EF92FF92B0
:102860006B017C010E94B7114B015C01C114D104C2
:10287000E104F104F1F00E94B711DC01CB018819E9
:102880009909AA09BB09883E9340A105B10570F3D7
:1028900021E0C21AD108E108F10888EE880E83E031
:1028A000981EA11CB11CC114D104E104F10419F754
:1028B000DDCFFF90EF90DF90CF90BF90AF909F90D3
:1028C0008F9008952FB7F8946091C1077091C20757
:1028D0008091C3079091C4072FBF0895089580E0A9
:1028E00090E00895FC01248131E03093540320935B
:1028F000530310925203109251038485682B85E58F
:1029000093E00E94321185E593E00C9418130F9325
:102910001F93CF938C01C62F64600E9472146C2F9A
:102920006B7FC8010E94721483EC90E00197F1F76D
:10293000CF911F910F9108950F931F93CF93DF9322
:102940008C01C62FD62FD07FD1606D2F0E947214BC
:102950006D2FC8010E94871480E1C89FB001112427
:10296000C62FC1606C2FC8010E9472146C2FC80161
:102970000E94871481E090E0DF91CF911F910F9129
:1029800008950F931F93CF93DF93FC01208122239F
:1029900019F1EC010E94621409811A812B813C819A
:1029A000DC01CB01801B910BA20BB30B0D811E81AF
:1029B0002F81388580179107A207B30768F00E941E
:1029C000621469837A838B839C83E985FA85DF911E
:1029D000CF911F910F911994DF91CF911F910F917A
:1029E00008951F920F920FB60F9211240BB60F92FB
:1029F0002F933F934F935F936F937F938F939F9307
:102A0000AF93BF93EF93FF93809139050E947513A5
:102A100020913D0530913E052F5F3F4F30933E059D
:102A200020933D0590913C05953618F096E09093E3
:102A30003805909138059430C9F128F4923069F046
:102A40009330D1F05EC0953009F451C0963009F052
:102A500058C091E09093090651C0811152C0209155
:102A60003D0530913E052436310508F442C01092F0
:102A7000090610923C051CC0813009F042C0E0916B
:102A80003C0591E09E0F90933C05F0E020913D05C0
:102A900030913E05EE0FFF1FE85CFA4F3087278329
:102AA00010923E0510923D0594E029C0811117C097
:102AB000E0913C0591E09E0F90933C05F0E0209161
:102AC0003D0530913E05EE0FFF1FE85CFA4F308761
:102AD000278310923E0510923D0593E010C020918F
:102AE0003D0530913E052536310558F007C081116E
:102AF00008C010923E0510923D0503C095E09093EA
:102B0000380590913B059923B9F081110AC0809155
:102B10003A05882321F080913A0561E009C02F9A97
:102B20000BC080913A05882331F080913A0560E02E
:102B30000E949E1301C02F98FF91EF91BF91AF911A
:102B40009F918F917F916F915F914F913F912F91C5
:102B50000F900BBE0F900FBE0F901F9018958F9285
:102B60009F92AF92BF92CF92DF92EF92FF920F931C
:102B70001F93CF93DF93EC016A017B0120E030E0EB
:102B80004FE753E4C701B6010E945D204B015C0191
:102B900020E030E0A9010E94DC2118161CF4C501D8
:102BA000B40103C0C501B40190580E94A6218B0155
:102BB00020E030E0A901C701B6010E94DC2118160F
:102BC00014F460E001C061E089810E949E130F3F10
:102BD000110509F014F4112702C00FEF10E0C881AD
:102BE00061E08C2F0E94EC130115110509F4B1C0AE
:102BF0000F3F110509F4AFC0EC2FF0E0E35EFB4F8F
:102C0000E4914E2F50E0FA013197E231F10508F0DE
:102C10009DC08827E153FF4F8F4F0C949E2184B5B0
:102C2000806884BD07BDA7C084B5806284BD08BD2F
:102C3000A2C08091800080688093800010938900FA
:102C40000093880098C0809180008062809380000B
:102C500010938B0000938A008EC080918000886062
:102C60008093800010938D0000938C0084C080912D
:102C7000B00080688093B0000093B3007CC0809166
:102C8000B00080628093B0000093B40074C0809163
:102C900090008068809390001093990000939800B2
:102CA0006AC08091900080628093900010939B0096
:102CB00000939A0060C0809190008860809390009B
:102CC00010939D0000939C0056C08091A0008068E6
:102CD0008093A0008091A0008F7B8093A000109330
:102CE000A9000093A80047C08091A0008062809353
:102CF000A0001093AB000093AA003DC08091A000FB
:102D000088608093A0001093AD000093AC0033C0A6
:102D10008091200180688093200110932901009305
:102D2000280129C0809120018062809320011093A6
:102D30002B0100932A011FC080912001886080939D
:102D4000200110932D0100932C0115C000381105AE
:102D500014F460E001C061E08C2FDF91CF911F91EE
:102D60000F91FF90EF90DF90CF90BF90AF909F902A
:102D70008F900C949E13DF91CF911F910F91FF9034
:102D8000EF90DF90CF90BF90AF909F908F9008957D
:102D90001F920F920FB60F9211240BB60F922F9322
:102DA0003F934F935F936F937F938F939F93AF93D3
:102DB000BF93EF93FF938091320887FF05C0109275
:102DC00085001092840016C020913208022E000C5B
:102DD000330B8091460690E0281739075CF4309158
:102DE000320825E03203F0011124E65FF94F8081BB
:102DF00086FD15C0809132088F5F80933208209144
:102E00003208022E000C330B8091460690E0281702
:102E1000390794F4809132088C302CF10DC0309138
:102E200032083203F0011124E65FF94F808160E03F
:102E30008F730E949E13DECF809184009091850055
:102E400084349C4918F480E49CE905C08091840096
:102E500090918500049690938900809388008FEF6D
:102E6000809332082AC040918400509185003091AF
:102E7000320825E03203F0011124E65FF94F818129
:102E80009281840F951F90938900809388003091E0
:102E900032083203F0011124E65FF94F808186FF8A
:102EA0000CC0309132083203F0011124E65FF94F73
:102EB000808161E08F730E949E13FF91EF91BF911B
:102EC000AF919F918F917F916F915F914F913F91C2
:102ED0002F910F900BBE0F900FBE0F901F90189563
:102EE0008EBD00000DB407FEFDCF8EB508951F9274
:102EF0000F920FB60F9211242F933F938F939F93AE
:102F0000AF93BF938091C1079091C207A091C3076F
:102F1000B091C4073091330823E0230F2D3720F4FC
:102F20000196A11DB11D05C026E8230F0296A11D23
:102F3000B11D209333088093C1079093C207A093DB
:102F4000C307B093C4078091C5079091C607A091AD
:102F5000C707B091C8070196A11DB11D8093C50791
:102F60009093C607A093C707B093C807BF91AF91CE
:102F70009F918F913F912F910F900FBE0F901F90B7
:102F80001895CF93DF9300D01F921F92CDB7DEB775
:102F9000789484B5826084BD84B5816084BD85B534
:102FA000826085BD85B5816085BD80916E00816040
:102FB00080936E00109281008091810082608093E6
:102FC00081008091810081608093810080918000E8
:102FD0008160809380008091B10084608093B10013
:102FE0008091B00081608093B000809191008260F8
:102FF00080939100809191008160809391008091F5
:1030000090008160809390008091A1008260809305
:10301000A1008091A10081608093A1008091A00017
:1030200081608093A00080912101826080932101C2
:103030008091210181608093210180912001816034
:103040008093200180917A00846080937A0080913F
:103050007A00826080937A0080917A008160809308
:103060007A0080917A00806880937A001092C10083
:103070000E94450861E0809168070E94EC1360E0BF
:10308000809168070E949E1360E0809167070E940C
:10309000EC1385E593E0909372078093710710928B
:1030A000300310922F0310925203109251030E948A
:1030B000CE1380E090E1A0E0B0E08093740790939D
:1030C0007507A0937607B09377078AE090E0A0E0B9
:1030D000B0E08093780790937907A0937A07B09334
:1030E0007B0780E090E0A0E0B0E480937C079093C1
:1030F0007D07A0937E07B0937F0760E070E185E0D5
:103100000E948D086FE979E380E00E948D0804E851
:1031100017E0A12CB12CC12CD12C56EC252E53E05C
:10312000352E6BEC862E67E0962E7BE8672E772493
:10313000739496012959384F2901D90114969C910D
:10314000149712968C91F501E959F84F7F01818F00
:10315000928F61E00E94EC1361E0D7015A968C9146
:103160000E94EC13F20190858681D8018C93F701BF
:10317000968F61E00E94EC1360E0D7015E968C911F
:103180000E94EC1361E0F80180810E949E13FFB65B
:10319000F89480910703811126C0F1018491ECE03D
:1031A000F4E09491E82FF0E0EE0FFF1FED5BFC4F91
:1031B000A591B4918C91982321F461E085E30E945C
:1031C0009E1361E085E30E94EC138CB580618CBD99
:1031D0008CB580648CBD61E084E30E94EC1361E0F7
:1031E00083E30E94EC13809107038F5F80930703B2
:1031F000FFBEC4010197F1F760E0D8018C910E94F5
:103200009E1388E80E94701783E00E94701761E0A7
:10321000F80180810E949E13C4010197F1F760E0DC
:10322000D8018C910E949E1388E90E94701780E05B
:103230000E94701780E00E94701780E00E94701753
:1032400080E00E94701761E0F80180810E949E1367
:10325000C3010197F1F760E0D8018C910E949E13A1
:1032600080EE0E94701761E0F80180810E949E1339
:10327000F2E0AF0EB11C0E5F1F4FCA94CD2821F0B3
:10328000CC24C394D12C55CF0CE817E024E0F22EC7
:10329000F00E60E0D8018D918D010E94EC13F012C8
:1032A000F8CFFBE9EF2EF7E0FF2E08E917E0A5E0E5
:1032B000AA2EBCE0CB2E82E0982E92E0B92EB00E62
:1032C000F8013897D080F80180818C3008F046C032
:1032D00061E08D2D0E94EC13D8018C91A89EF00125
:1032E0001124E65FF94F9D2D9F732081207CD22E03
:1032F000D92AD082138214826C2D0E947E21BCE0D8
:103300008B9FA001112420E030E0B901640F751FEC
:10331000A69EF001A79EF00D1124E65FF94F908163
:1033200096FD12C02F5F3F4F2C30310571F7811190
:103330000BC0109280009092810010928500109234
:10334000840096BA90926F00D801EC91AE9EF00185
:103350001124E65FF94F808180648083F801329701
:10336000908132978081F70131978083F7019083B4
:1033700060E00E94EC1361E0D7018C910E94EC1395
:1033800060E0F70180810E949E130F5F1F4FF2E003
:10339000EF0EF11CB01294CFF8941092200109E0C6
:1033A0000093210180E293E090932901809328010A
:1033B000109225011092240112E01093730078946A
:1033C0001093380510923C058091390560E00E9409
:1033D000EC1340E050E0BA0180E897E00E94AF159E
:1033E00040E050E060E070E882E897E00E94AF15AE
:1033F0000E94450882ED92E00E947F0861E08FE222
:103400000E94EC1360E08FE20E949E1361E080E373
:103410000E94EC1360E080E30E949E1361E081E370
:103420000E94EC1360E081E30E949E1360E08EE254
:103430000E94EC1361E08AE00E94EC1361E08AE0F4
:103440000E949E1361E08CE00E94EC1360E08CE02F
:103450000E949E1361E08BE00E94EC1360E08BE021
:103460000E949E1361E086E10E94EC1361E087E117
:103470000E94EC1361E088E10E94EC1361E089E1B5
:103480000E94EC1361E08AE10E94EC1361E08BE1A1
:103490000E94EC1361E08CE10E94EC1361E08DE18D
:1034A0000E94EC1361E080E20E94EC1361E085E28F
:1034B0000E94EC1361E086E20E94EC1361E087E277
:1034C0000E94EC1361E088E00E94EC1361E08DE162
:1034D0000E949E1361E080E20E949E1361E085E2FB
:1034E0000E949E1361E086E20E949E1361E087E2E3
:1034F0000E949E130E94FA064FEF50E060E070E0D9
:1035000080E090E00E94C60361E0809173060E9413
:10351000EC131092300310922F031092520310926A
:1035200051030E94CE1361E070E080E090E00E94C1
:10353000281400937506009376061093770685E0AD
:103540008093780666E089E00E949809809176066B
:1035500067E08F700E9498098091770668E08F700D
:103560000E9498098091780669E08F700E949809FE
:1035700080E098E090937A068093790690937C0699
:1035800080937B0690937E0680937D0690938006C1
:1035900080937F066AE080E00E9498098091790616
:1035A00090917A069F716BE0892F0E9498096EE0D6
:1035B00080917D060E94980980917D0690917E06FB
:1035C0009F716FE0892F0E9498096CE080917B06C3
:1035D0000E94980980917B0690917C069F716DE016
:1035E000892F0E94980960E180917F060E949809C6
:1035F00080917F06909180069F7161E1892F0E94E2
:10360000980961E0809173060E949E1362E070E069
:1036100080E090E00E942814E12CF12CC12CE0E124
:10362000DE2E86010E191F0917FF02C00F5F1F4F04
:10363000159507950E0D1F1D0E151F0509F43FC0AA
:10364000B8018AE090E00E94BC09B8018CE090E0EB
:103650000E94BC09B8018EE090E00E94BC090E9463
:10366000B20980E40E94850997FD05C080E40E94AC
:1036700085095C0102C0A12CB12C82E40E9485095D
:103680008A159B0524F082E40E9485095C0184E48C
:103690000E9485098A159B0524F084E40E9485090F
:1036A0005C0129EEA21623E0B2063CF438EEA31624
:1036B00033E0B30621F07801B4CF6801B2CFE12C3A
:1036C000F12CC12C90E1D92E86010E191F0917FF8C
:1036D00002C00F5F1F4F159507950E0D1F1D0E158C
:1036E0001F05A9F0B80180E190E00E94BC090E948A
:1036F000B20986E40E948509893E43E094072CF4D0
:10370000883E934021F07801DFCF6801DDCF88E863
:10371000282E83E1382E812C912CA12CB12C612CE8
:10372000712C66E0862D0E94980967E08A2D0E9420
:10373000980968E0882D0E9498098AE00E9485090E
:103740008C01BC018AE090E00E94BC09B8018CE0C9
:1037500090E00E94BC09B8018EE090E00E94BC0994
:1037600054E0452E512CC12CD12C00E010E0E12C6E
:10377000F12C0E94B20980E40E948509E80EF91E2E
:1037800082E40E948509080F191F84E40E948509BC
:10379000C80ED91E81E0481A510859F7F7FE03C038
:1037A00093E0E90EF11CF594E794F594E79417FF84
:1037B00002C00D5F1F4F1595079515950795D7FE0C
:1037C00003C0A3E0CA0ED11CD594C794D594C79466
:1037D0003E2D2F2DE016F10614F4302F212F832FCC
:1037E000922F97FF02C080E090E08C159D050CF4AD
:1037F000C6015E2D4F2D0E151F0514F4502F412FBD
:10380000252F342F2130B0E13B0714F020E030E1C8
:10381000C216D3060CF49601FC01E21BF30B9F01C8
:103820002E163F0611F18E159F0541F4FFE06F162D
:10383000710424F44FEF641A740A15C080179107BD
:1038400041F45FE0A516B10424F48FEFA81AB80A7A
:103850000AC08C159D0539F49FE0891691041CF46B
:10386000AFEF8A1A9A0A19015CCF40E050E061E09C
:1038700070E081E090E00E94C6038EE20E94751322
:10388000892BA9F40E9404038230910541F0833012
:10389000910541F0019789F788ED92E005C084EB2E
:1038A00092E002C08EED92E00E940E04E6CF60E04E
:1038B000809173060E949E1324EF31E040E050E0B7
:1038C00064EF71E0809168070E94420C68EE73E03B
:1038D00080E090E00E94281424EF31E040E050E0C6
:1038E00064EF71E0809168070E94420C68EE73E01B
:1038F00080E090E00E94281424EF31E040E050E0A6
:1039000064EF71E0809168070E94420C68EE73E0FA
:1039100080E090E00E9428142CED35E040E050E07B
:1039200068EE73E0809168070E94420C15E088E61B
:1039300096E00E94C11482E596E00E94C11487E4DB
:1039400096E00E94C11484EE92E00E947F08E4E1B8
:10395000F2E0DE011196812F01900D928A95E1F738
:1039600080910503805D898380910303805D8B8353
:1039700080910103805D8D83CE0101960E940E042B
:103980000E94FD0AD4CF0F93109258031092570350
:1039900088EE93E0A0E0B0E08093590390935A033F
:1039A000A0935B03B0935C032EE132E030935603A7
:1039B0002093550310926403109263038093650370
:1039C00090936603A0936703B093680320E332E00B
:1039D000309362032093610345E351E050936E03FB
:1039E00040936D0344E351E05093700340936F03A1
:1039F00040E351E0509372034093710341E351E07F
:103A0000509374034093730342E351E05093760361
:103A10004093750346E351E0509378034093770356
:103A200010927A0310927B0310927C0310927D0314
:103A300010920104109200048093020490930304F6
:103A4000A0930404B09305043093FF032093FE0376
:103A500045ED50E050930B0440930A0444ED50E0D0
:103A600050930D0440930C0440ED50E050930F042C
:103A700040930E0441ED50E0509311044093100424
:103A800042ED50E0509313044093120446ED50E091
:103A900050931504409314041092170410921804C4
:103AA0001092190410921A0410929E0410929D0410
:103AB00080939F049093A004A093A104B093A204C8
:103AC00030939C0420939B0485EC90E09093A80491
:103AD0008093A70484EC90E09093AA048093A904B7
:103AE00080EC90E09093AC048093AB0481EC90E088
:103AF0009093AE048093AD0482EC90E09093B00478
:103B00008093AF0486EC90E09093B2048093B1046C
:103B10001092B4041092B5041092B6041092B70437
:103B200086E38093880787E38093890788E38093FF
:103B30008A0789E380938B078BE180938C078DE163
:103B400080938D078AE180938E078CE180938F07A5
:103B500084E08093900787E080939107109292070A
:103B600084EB8093930786E18093940788E18093A8
:103B7000950787E18093960789E180939707E09105
:103B80004606EC3020F08FEF8093980710C081E05C
:103B90008E0F80934606E093980725E0E29FF001A0
:103BA0001124E65FF94F88EB9BE092838183E091DB
:103BB0004606EC3020F08FEF8093990710C081E02B
:103BC0008E0F80934606E093990785E0E89FF00109
:103BD0001124E65FF94F88EB9BE0928381838CE0B0
:103BE0008093670784E28093680786E08093690783
:103BF00085E080936A078FE180936B078EE1809365
:103C00006C0783E280936D0782E280936E0785E400
:103C100080936F0784E48093700780E48093730738
:103C2000109278071092790710927A0710927B070A
:103C300010927C0710927D0710927E0710927F07EA
:103C4000E9EAF6E08FEF9FEFDC0112821382148223
:103C50001582168217821086118683879487A5871E
:103C6000B6878787908BA18BB28B128611821082C8
:103C7000739627E0E736F20741F78DE090E00E9467
:103C8000E121FC011382128282E792E0918380831A
:103C9000118687E2848384E1828784E083871486A7
:103CA000F093A606E093A5061092A7061092A80628
:103CB00085E28093390510923B0510929F06109281
:103CC0009E061092A1061092A0061092A3061092D2
:103CD000A20661E070E080E090E00E940E23009771
:103CE00091F090939F0680939E061092A1061092E9
:103CF000A0062091A2063091A306232B09F0C3C091
:103D0000FC011082C0C080919E0690919F06009792
:103D100011F00E94762210929F0610929E06109239
:103D2000A3061092A2061092A1061092A00610926D
:103D30008F0610928E0610929106109290061092A5
:103D40009306109292061092950610929406109285
:103D500097061092960682E592E090938A068093E9
:103D6000890684E692E090938D0680938C0602E0AB
:103D700024E048E061E072E089E896E00E94210CCE
:103D80000E9462146093850670938606809387066E
:103D9000909388068AE290E090937406809373066D
:103DA00081E0809368061092690610926A0610926C
:103DB0006B0610926C0642E350E060E070E04093C6
:103DC0006D0650936E0660936F067093700627E23F
:103DD00037E0309372062093710680935D0610924F
:103DE0005E0610925F06109260061092610644E132
:103DF00050E060E070E04093620650936306609389
:103E000064067093650620E033E0309367062093E4
:103E10006606809352061092530610925406109232
:103E200055061092560644EF51E060E070E0409372
:103E30005706509358066093590670935A0624E823
:103E400035E030935C0620935B0680934706109222
:103E500048061092490610924A0610924B0684E6D4
:103E600090E0A0E0B0E080934C0690934D06A093C4
:103E70004E06B0934F068AE692E0909351068093E7
:103E800050060F9108951092A3061092A20663E8BF
:103E900072E00E9405244BCFCF92DF92EF92FF9207
:103EA0000F931F93CF93DF93FC01EB01608171812E
:103EB00066507109DB018D919C91DC01AE0FBF1F33
:103EC0001A968D919C911B97892B09F484C0822F9F
:103ED000DB010D911C91D801AE0FBF1F1C969C9168
:103EE000891748F4DE01A80FB11DA80FB11D1D925E
:103EF0001C92840FEDCF50E08281581708F046C025
:103F0000322FA081B18116978D919C918E0F9F1FAA
:103F1000DC011C966C913617B8F5032F10E0DC011C
:103F20001A968D919C911B97800F911FDC018C91AB
:103F3000863308F0865390917B00682F6870977FD6
:103F4000962B90937B008770806480937C00809197
:103F50007A00806480937A0080917A0086FDFCCF9D
:103F6000809178006091790090E0962BD801AA0F9B
:103F7000BB1FAC0FBD1F6D917C911197860F971FD2
:103F80008D939C93340FBDCF5F5FB6CFE080F180FF
:103F9000B6E0EB1AF108D7018D919C91DC01AE0FD0
:103FA000BF1F1C968C912817B0F48E01020F111DB3
:103FB000020F111D628170E06B01D594C794D80186
:103FC0008D919C918C0D9D1D0E948A21D8016D932D
:103FD0007C93240FE0CFDF91CF911F910F91FF9041
:103FE000EF90DF90CF900895DC01ED91FC913E972A
:103FF0000190F081E02D8E0F9F1F0C944C1F82E5E5
:1040000092E090938A068093890682E492E09093EE
:104010008D0680938C068091960690919706009766
:1040200011F00E947622809190069091910600975F
:1040300011F00E9476228091940690919506009747
:1040400011F00E94762280918E0690918F06009743
:1040500011F00E947622809192069091930600972B
:1040600011F00E94762280919E0690919F060C94FA
:104070007622990F0008550FAA0BE0E8FEEF1616FE
:104080001706E807F907C0F012161306E407F5074C
:1040900098F0621B730B840B950B39F40A2661F0C0
:1040A000232B242B252B21F408950A2609F4A14063
:1040B000A6958FEF811D811D08950E9470200C949C
:1040C000E1200E94D32038F00E94DA2020F09523CE
:1040D00011F00C94CA200C94D02011240C941521BA
:1040E0000E94F22070F3959FC1F3950F50E0551F89
:1040F000629FF001729FBB27F00DB11D639FAA273D
:10410000F00DB11DAA1F649F6627B00DA11D661F8B
:10411000829F2227B00DA11D621F739FB00DA11DAC
:10412000621F839FA00D611D221F749F3327A00D66
:10413000611D231F849F600D211D822F762F6A2F02
:1041400011249F5750409AF0F1F088234AF0EE0F67
:10415000FF1FBB1F661F771F881F91505040A9F794
:104160009E3F510580F00C94CA200C9415215F3FAE
:10417000E4F3983ED4F3869577956795B795F795D0
:10418000E7959F5FC1F7FE2B880F911D9695879548
:1041900097F9089597F99F6780E870E060E00895C7
:1041A0009FEF80EC089500240A941616170618064F
:1041B0000906089500240A9412161306140605062B
:1041C0000895092E0394000C11F4882352F0BB0FBC
:1041D00040F4BF2B11F460FF04C06F5F7F4F8F4F1F
:1041E0009F4F089557FD9058440F551F59F05F3F5A
:1041F00071F04795880F97FB991F61F09F3F79F009
:1042000087950895121613061406551FF2CF46958A
:10421000F1DF08C0161617061806991FF1CF86950C
:104220007105610508940895E894BB2766277727F0
:10423000CB0197F90895052E97FB1EF400940E9478
:10424000322157FD07D00E944D2107FC03D04EF4C8
:104250000C94322150954095309521953F4F4F4F0A
:104260005F4F089590958095709561957F4F8F4F22
:104270009F4F08950E946F21A59F900DB49F900DB0
:10428000A49F800D911D11240895B7FF0C943A212D
:104290000E943A21821B930B0895A1E21A2EAA1BB9
:1042A000BB1BFD010DC0AA1FBB1FEE1FFF1FA217E6
:1042B000B307E407F50720F0A21BB30BE40BF50BE3
:1042C000661F771F881F991F1A9469F7609570956C
:1042D000809590959B01AC01BD01CF010895A29FEF
:1042E000B001B39FC001A39F700D811D1124911DCA
:1042F000B29F700D811D1124911D0895991B79E0C5
:1043000004C0991F961708F0961B881F7A95C9F765
:1043100080950895AA1BBB1B51E107C0AA1FBB1FB4
:10432000A617B70710F0A61BB70B881F991F5A9541
:10433000A9F780959095BC01CD010895EE0FFF1F60
:10434000881F8BBF0790F691E02D19940E94AD2134
:104350006894B1110C94152108950E94FA2088F0F8
:104360009F5798F0B92F9927B751B0F0E1F0660F39
:10437000771F881F991F1AF0BA95C9F714C0B1307A
:1043800091F00E941421B1E008950C941421672F3C
:10439000782F8827B85F39F0B93FCCF386957795A9
:1043A0006795B395D9F73EF4909580957095619592
:1043B0007F4F8F4F9F4F08950E94392008F48FEF51
:1043C0000895CF93DF938230910510F482E090E05E
:1043D000E0913608F091370820E030E0C0E0D0E00E
:1043E000309711F14081518148175907C0F04817A3
:1043F000590761F482819381209719F09B838A8306
:104400002BC0909337088093360826C021153105BC
:1044100019F04217530718F49A01BE01DF01EF01AA
:104420000280F381E02DDCCF2115310509F1281B35
:10443000390B2430310590F412968D919C9113978D
:104440006115710521F0FB019383828304C0909371
:10445000370880933608FD01329644C0FD01E20F13
:10446000F31F81939193225031092D933C933AC0CD
:104470002091340830913508232B41F420910B0210
:1044800030910C02309335082093340820910902B2
:1044900030910A022115310541F42DB73EB7409104
:1044A0000D0250910E02241B350BE0913408F0915F
:1044B0003508E217F307A0F42E1B3F0B2817390726
:1044C00078F0AC014E5F5F4F2417350748F04E0F70
:1044D0005F1F50933508409334088193919302C035
:1044E000E0E0F0E0CF01DF91CF9108950F931F93AB
:1044F000CF93DF93009709F48CC0FC0132971382AD
:10450000128200913608109137080115110581F4C7
:1045100020813181820F931F20913408309135081A
:104520002817390779F5F0933508E093340871C0FE
:10453000D80140E050E0AE17BF0750F412962D911D
:104540003C911397AD012115310509F1D901F3CF44
:104550009D01DA013383228360817181860F971F69
:104560008217930769F4EC0128813981260F371FE0
:104570002E5F3F4F318320838A819B819383828387
:10458000452B29F4F0933708E093360842C0139680
:10459000FC93EE931297ED01499159919E01240FDE
:1045A000351FE217F30771F480819181840F951F05
:1045B000029611969C938E938281938113969C937D
:1045C0008E931297E0E0F0E0D80112968D919C91C5
:1045D0001397009719F0F8018C01F6CF8D919C91FB
:1045E00098012E5F3F4F820F931F20913408309126
:1045F00035082817390769F4309729F410923708DD
:104600001092360802C0138212821093350800936C
:104610003408DF91CF911F910F9108956F927F928F
:104620008F929F92AF92BF92CF92DF92EF92FF92C2
:104630000F931F93CF93DF93EC01009789F4CB0185
:10464000DF91CF911F910F91FF90EF90DF90CF906E
:10465000BF90AF909F908F907F906F900C94E121CE
:10466000FC01E60FF71F9C0122503109E217F30706
:1046700008F4ACC0D9010D911C91119706171707CA
:10468000B0F00530110508F49FC0C80104978617E3
:10469000970708F499C002501109061B170B0193E4
:1046A00011936D937C93CF010E9476228DC05B01A4
:1046B000A01AB10A4C01800E911EA0913608B0914B
:1046C000370840E050E0E12CF12C109709F44AC083
:1046D000A815B905D1F56D907C901197630182E022
:1046E000C80ED11CCA14DB0480F1A3014A195B096E
:1046F0006A0182E0C80ED11C1296BC9012971396E4
:10470000AC91B5E0CB16D10440F0B282A3835183C3
:104710004083D9016D937C930AC00E5F1F4FC30184
:10472000800F911FF90191838083EB2DFA2FE11403
:10473000F10431F0D7011396FC93EE93129744C025
:10474000F0933708E09336083FC08D919C91119704
:104750004817590708F4AC017D0112960D90BC91E1
:10476000A02DB3CF80913408909135088815990514
:10477000E1F446175707C8F48091090290910A02A4
:10478000009741F48DB79EB740910D0250910E02F3
:10479000841B950BE817F907C8F4F0933508E093EC
:1047A0003408F901718360830FC0CB010E94E121BD
:1047B0007C01009759F0A801BE010E94FC23CE01A4
:1047C0000E947622C70104C0CE0102C080E090E0C2
:1047D000DF91CF911F910F91FF90EF90DF90CF90DD
:1047E000BF90AF909F908F907F906F90089581E0E1
:1047F00090E0F8940C940C24FB01DC0102C00190C1
:104800000D9241505040D8F70895FB01DC01019012
:104810000D920020E1F7089512E0C3E3D2E000E03A
:1048200006C0802FFE010E949E212196011DC433E7
:0C483000D10780E00807A9F7F894FFCF3B
:10483C00FF393A3B3C3D3E3F400000380820001D0C
:10484C00202526272B2B2B2B2B00000000003211B0
:10485C0002116F14D610FA10E610D71000000000E9
:10486C00940AD409180ADB0A490A270A3B0A0000F1
:10487C0000002A0BBF0BAA0BD40B4307030000004C
:10488C000000210C4C1FFDFF000000000000000088
:10489C00FDFF00002A0BBF0BAA0BD40BF41F00006A
:1048AC0000009C14D4096F146E14626F75676572E6
:1048BC00000D0A00636F756C657572005365727636
:1048CC006F20616E676C65206973206F7574206F43
:1048DC00662072616E67652100426C655500726FCF
:1048EC00754765004A61756E650073746F7000538F
:1048FC00746F702B00706573657200626F75746FE6
:10490C006E00737461727400526F75476500426C6F
:0A491C0065552B006C6F6F700000F2
:00000001FF
