:100000000C9420020C9451020C9451020C94510255
:100010000C9451020C9451020C9451020C94510214
:100020000C9451020C940A090C940A090C940A09C4
:100030000C9451020C94EE0C0C9451020C9451024D
:100040000C9451020C94F7040C9451020C9451023C
:100050000C9451020C9451020C9451020C94A40C77
:100060000C9451020C945F0E0C94350E0C945102BA
:100070000C9451020C9451020C9451020C945102B4
:100080000C9451020C9451020C9451020C945102A4
:100090000C9451020C9451020C9451020C941409CA
:1000A0000C9451020C9451020C9451020C94510284
:1000B0000C9451020C9451020C9451020C9439048A
:1000C0000C9451020C9451020C9451020C940B0E9E
:1000D0000C94E10D0C9451020C94B70D0C948D0D01
:1000E0000C945102C006CD06D006DB06E806EB06EE
:1000F000F406F706FE0603070E070E070E070E07A7
:100100000E070E070E079106FE064406C0064C06B3
:100110004F06F406B206CD065C06B2066506730607
:100120007306C006810603079106EB069B06AF0621
:10013000AF06AF06B206BB06D0060E070E070E07C7
:100140000E070E070E0791063506440647064C06B5
:100150004F0654065706CD065C06B20665066C06C9
:100160006C067A06810603078806EB069406A40649
:10017000A406A406B206BB06D006660B690B580B94
:100180005C0B620BA00B6D0B710B770B7B0B7F0B6A
:10019000850B890B8D0BA00B930B970B9B0BCA0B3D
:1001A000CF0BD40BDE0BE80B610CF20BFA0B020C3D
:1001B0000C0C160C200C2F0C390C610C430C4D0C44
:1001C000570C0C9488060C94690B0C94A6070C949D
:1001D0002F0C0C9457060C94BD070C949B060C94A2
:1001E000E3030C94BB060C94F4060C94930B0C9450
:1001F000020C0C9465060C947B0B0C9447060C9433
:10020000570C0C9491060C94C0060C94F20B0C94B1
:10021000A4060C9454060C9498070C94DB060C94DA
:100220008D0B0C9497070C94F7060C94CF0B0C9441
:10023000890E0C944C060C949C030C947F0B0C942C
:10024000710B0C944D0C0C94C0020C94ED070C94A3
:10025000660B0C940C0C0C94DE0B0C946C060C943A
:1002600053020C9462020C94970B0C94FA0B0C94AE
:10027000200C0C94000B0C94B5070C94AF060C9456
:10028000430C0C94D40B0C943D030C94DC050C949F
:10029000CD060C94C1020C94850B0C948F0E0C941B
:1002A00044060C94160C0C9403070C94FE060C9454
:1002B00081060C9494060C94770B0C94C4020C9455
:1002C000890B0C9476020C947A060C9484020C949C
:1002D0006D0B0C94E80B0C949B0B0C94610C0C9420
:1002E00035060C94E8060C94CA0B0C94580B0C942D
:1002F0000E070C94D0060C9473060C94390C0C94D5
:10030000EB060C94620B0C94A00B0C944F060C940F
:100310005C0B0C94B2060C945C06000022002500D5
:1003200028002B002E0031003400020100000501DE
:1003300008010B01000020002300260029002C00EA
:100340002F0032000001000003010601090105052C
:100350000505070508080808020202020A0A08083B
:100360000404040401010101010101010303030369
:1003700003030303040707070C0C0C0C0C0C0C0CF8
:100380000202020206060606060606060B0B0B0B09
:100390000B0B0B0B0102102020080810204010202E
:1003A0004080020102010804020101020408102039
:1003B0004080804020100804020180040201804037
:1003C00020100804020108040201010204081020A0
:1003D0004080010204081020408000000A0B02093E
:1003E0000C0D0E08070304010000000000000000CF
:1003F00000000000000000000000000000000000FD
:1004000000000000000012111000000000000000B9
:1004100000000000000000000000000000000000DC
:100420000200002100240027002A002D00300033A4
:100430000001010000040107010A01008F0E890E6E
:1004400011241FBECFEFD1E2DEBFCDBF00E00CBF55
:1004500012E0A0E0B2E0E2E0FEE200E00BBF02C08A
:1004600007900D92AC34B107D9F727E0ACE4B2E0C5
:1004700001C01D92A931B207E1F712E0CFE1D2E04D
:1004800000E006C021970109802FFE010E9481141F
:10049000CE31D10780E00807A9F70E94A5100C947F
:1004A000EF160C940000FC01538D448D252F30E095
:1004B000842F90E0821B930B541710F0CF96089571
:1004C00001970895FC01918D828D981761F0828DBE
:1004D000DF01A80FB11D5D968C91928D9F5F9F7378
:1004E000928F90E008958FEF9FEF0895FC01918D1A
:1004F000828D981731F0828DE80FF11D858D90E087
:1005000008958FEF9FEF0895FC01918D228D892F23
:1005100090E0805C9F4F821B91098F73992708950B
:10052000E0E0F0E0199480E090E0892B21F00E9457
:10053000410B811119C080E090E0892B41F080E0EF
:1005400090E0892B21F00E940000811110C00E94D0
:10055000370B81110FC080E090E0892B81F00E9461
:100560002D0B81110AC008950E940000E4CF0E9463
:100570000000EDCF0E949002EECF0C940000089591
:10058000089580E090E0089508958F929F92AF9231
:10059000BF92CF92DF92EF92FF920F931F93CF9370
:1005A000DF93EC016A017B0120E030E04FE753E488
:1005B000C701B6010E94B7134B015C0120E030E097
:1005C000A9010E94BF1418161CF4C501B40103C090
:1005D000C501B40190580E9489148B0120E030E0DD
:1005E000A901C701B6010E94BF14181614F460E0F7
:1005F00001C061E089810E946F0A0F3F110509F077
:100600001CF4B801772702C06FEF70E08881DF919A
:10061000CF911F910F91FF90EF90DF90CF90BF90FF
:10062000AF909F908F900C94A10BFC01248131E03E
:1006300030936B0220936D0210926C0210926E0246
:100640008485682B8FE692E00E94ED070C94660883
:100650000F931F93CF938C01C62F64600E941503E4
:100660006C2F6B7FC8010E94150383EC90E001970B
:10067000F1F7CF911F910F9108950F931F93CF938F
:10068000DF938C01C62FD62FD07FD1606D2F0E94B3
:1006900015036D2FC8010E94280380E1C89FB00197
:1006A0001124C62FC1606C2FC8010E9415036C2F46
:1006B000C8010E94280381E090E0DF91CF911F9153
:1006C0000F910895FC01A089B1898C91A689B78901
:1006D00082FD0FC09C91818D8F5F8F73228D821759
:1006E00049F0218DDF01A20FB11D5D969C93818F92
:1006F00008958C910895FC01848DDF01A80FB11D30
:10070000A35ABF4F2C91848D90E001968F73992747
:10071000848FA689B7892C93A089B1898C91806434
:100720008C93938D848D981306C00288F389E02DF5
:1007300080818F7D80830895EF92FF920F931F93A6
:10074000CF93DF93EC0181E0888F9B8D8C8D981384
:1007500005C0E889F989808185FD24C0F62E0B8DBE
:1007600010E00F5F1F4F0F731127E02E8C8DE812E2
:100770000CC00FB607FCFACFE889F989808185FFA4
:10078000F5CFCE010E947B03F1CF8B8DFE01E80FE8
:10079000F11DE35AFF4FF0820B8FEA89FB898081BC
:1007A000806207C0EE89FF896083E889F9898081CA
:1007B0008064808381E090E0DF91CF911F910F9161
:1007C000FF90EF900895CF93DF93EC01888D8823FD
:1007D000C9F0EA89FB89808185FD05C0A889B989AE
:1007E0008C9186FD0FC00FB607FCF5CF808185FF89
:1007F000F2CFA889B9898C9185FFEDCFCE010E94F7
:100800007B03E7CFDF91CF910895FC01808188239E
:1008100079F12FB7F8948091040790910507A09182
:100820000607B09107072FBF418152816381748110
:10083000841B950BA60BB70B45815681678170858C
:1008400084179507A607B70798F02FB7F8948091FB
:10085000040790910507A0910607B09107072FBFE5
:1008600081839283A383B4830184F285E02D19945C
:1008700008951F920F920FB60F9211240BB60F928C
:100880002F933F934F935F936F937F938F939F9398
:10089000AF93BF93EF93FF93809153040E94460A56
:1008A00020915704309158042F5F3F4F30935804E4
:1008B0002093570490915604953618F096E0909343
:1008C0005204909152049430C9F128F4923069F0A6
:1008D0009330D1F05EC0953009F451C0963009F0E4
:1008E00058C091E09093230551C0811152C02091CE
:1008F0005704309158042436310508F442C0109250
:100900002305109256041CC0813009F042C0E091CA
:10091000560491E09E0F90935604F0E02091570406
:1009200030915804EE0FFF1FEE5AFB4F308727839C
:10093000109258041092570494E029C0811117C0F6
:10094000E091560491E09E0F90935604F0E02091C0
:10095000570430915804EE0FFF1FEE5AFB4F3087BB
:100960002783109258041092570493E010C02091EE
:100970005704309158042536310558F007C08111CD
:1009800008C0109258041092570403C095E0909349
:100990005204909155049923B9F081110AC08091B5
:1009A0005404882321F08091540461E009C02F9AF7
:1009B0000BC080915404882331F08091540460E08E
:1009C0000E946F0A01C02F98FF91EF91BF91AF91E4
:1009D0009F918F917F916F915F914F913F912F9157
:1009E0000F900BBE0F900FBE0F901F9018951F9287
:1009F0000F920FB60F9211240BB60F922F933F93C5
:100A00004F935F936F937F938F939F93AF93BF9316
:100A1000EF93FF938091650287FF05C010928500D8
:100A20001092840016C020916502022E000C330B38
:100A30008091600590E0281739075CF430916502D9
:100A400025E03203F0011124EC5DFA4F808186FD30
:100A500015C0809165028F5F8093650220916502C9
:100A6000022E000C330B8091600590E028173907A7
:100A700094F4809165028C302CF10DC030916502A8
:100A80003203F0011124EC5DFA4F808160E08F7336
:100A90000E946F0ADECF809184009091850084349B
:100AA0009C4918F480E49CE905C0809184009091F1
:100AB0008500049690938900809388008FEF80933F
:100AC00065022AC0409184005091850030916502F2
:100AD00025E03203F0011124EC5DFA4F818192810F
:100AE000840F951F90938900809388003091650250
:100AF0003203F0011124EC5DFA4F808186FF0CC0B7
:100B0000309165023203F0011124EC5DFA4F8081CF
:100B100061E08F730E946F0AFF91EF91BF91AF91D7
:100B20009F918F917F916F915F914F913F912F9105
:100B30000F900BBE0F900FBE0F901F9018958EBD9B
:100B400000000DB407FEFDCF8EB508950F931F93DF
:100B5000CF93DF938B01EA01BC0182E00E94A10BDD
:100B6000B80183E00E94A10BBE0185E0DF91CF9127
:100B70001F910F910C94A10B40E050E060E070E0F9
:100B80008FEF90E00E94A60585E20E94460A892B1D
:100B9000D9F385E20E94460A0197D9F362E370E037
:100BA00080E090E00E946A0C40E050E06FEF70E05F
:100BB00080E090E00C94A60585E20E94460A019729
:100BC00019F585E20E94460A0197D9F340E050E00A
:100BD00060E070E08FEF90E00E94A60540E050E0FA
:100BE000BA0189E596E00E94C50240E050E0BA01F2
:100BF00089E596E00E94C50262E370E080E090E043
:100C00000E946A0C0E94BC0560E082E00C946F0AAE
:100C1000AF92BF92CF92DF92EF92FF920F931F930A
:100C2000CF93DF93CDB7DEB72F970FB6F894DEBF23
:100C30000FBECDBF6C0187E0E82E82E0F82E01E008
:100C400010E0D601ED916D014E2FEE0F550B660BA6
:100C5000770BFA01F097EB34F10508F0DFC0882735
:100C6000EE58FF4F8F4F0C9481141A8219821C8208
:100C70001B821E830D8318870F831A8709871C87A1
:100C80000B871E870D87D8C01A83098320C01A825C
:100C900019821C830B8332C01A83098347C01A83CD
:100CA00009831C821B8231C01A83098366C01A82A1
:100CB00019821C821B825AC01A8219821C830B83E0
:100CC0001E830D8318870F83B1C01A8219821C827C
:100CD0001B821E821D825AC01A8219821C821B82AC
:100CE0001E830D831BC01A8309831C830B831E8301
:100CF0000D8327C01A8219821C821B821E830D83DA
:100D000055C01A8309831C830B831E821D8230C049
:100D10001A8219821C821B821E821D8218861F82E3
:100D200047C01A83098320C01A8219821C821B8241
:100D30001E821D82A0CF1A8309831C821B821E8201
:100D40001D8218861F8224C01A8219821C821B826F
:100D50001E830D8318870F831A87098769C01A823B
:100D6000198210C01A8219821C830B831E830D8383
:100D700018861F8282CF1A8219821C830B832FC090
:100D80001A8309831C830B831E830D8318870F83AB
:100D90001A8709871C870B874DC01A82198229C0C0
:100DA0001A8309831C830B831E821D8218870F837D
:100DB0001A8709870AC01A8309831C830B831E8341
:100DC0000D8318870F831A8619861C861B8659CFB8
:100DD0001A8219821AC01A8309831C821B821E83FD
:100DE0000D8318870F8317C01A83098340CF1A8396
:100DF00009831C830B831E830D8316C01A8309830A
:100E00001C830B8336CF1A8309831C830B831E83B9
:100E10000D8318861F821A86198631CF1A8219828D
:100E20001C821B821E821D8218861F821A861986CA
:100E30001C861B861E861D86F701B1907F0161E02E
:100E400089E00E946F0A61E08AE00E946F0A61E017
:100E50008BE00E946F0A61E08CE00E946F0A61E003
:100E60008DE00E946F0A60E08B2D0E946F0ACE0118
:100E700001965C0192E0D5016C91B2E0AB0EB11C21
:100E8000892F9F870E946F0A9F859F5F993099F7EE
:100E900064E070E080E090E00E946A0CECE0EE1606
:100EA000E2E0FE0609F0CDCE2F960FB6F894DEBF35
:100EB0000FBECDBFDF91CF911F910F91FF90EF90AB
:100EC000DF90CF90BF90AF90089585ED8093BC00E8
:100ED0008091BC0084FDFCCF10926A02089540917D
:100EE0009906262F30E0240F311D21323105DCF424
:100EF00020916A022430C9F4FC0180E090E086175A
:100F000058F4309199062191DC01A958B94FA30FEB
:100F1000B11D2C930196F3CF80919906680F6093D1
:100F2000990680E0089581E0089582E0089508958B
:100F300081E090E03091670220916602321710F450
:100F400080E090E0919581959109089580916702E4
:100F500090916602891730F48F5F8093670280E07A
:100F600090E008958FEF9FEF08958091660290E0E2
:100F700020916702821B91090895CF92DF92EF9230
:100F8000FF920F931F93CF93DF937C01262F972F10
:100F90008A0180916B02882391F0C62FD72F6E01B2
:100FA000C40ED51ECC15DD0571F06991D701ED9108
:100FB000FC910190F081E02DC7011995F3CF642FCA
:100FC000822F0E946F07C801DF91CF911F910F916F
:100FD000FF90EF90DF90CF900895CF93DF931F9213
:100FE000CDB7DEB7698320916B022223D1F0209127
:100FF0006E02203240F021E030E0FC013383228396
:1010000080E090E015C080916C02E82FF0E0EC5198
:10101000F94F998190838F5F80936C0280936E0269
:1010200005C061E0CE0101960E946F0781E090E06B
:101030000F90DF91CF910895E5EBF3E0A089B1899E
:1010400082E08C93A485B5851C92A685B7858FEC2C
:101050008C93108EA489B58986E08C93A289B3897C
:101060008C9180618C93A289B3898C9188608C93D8
:10107000A289B3898C9180688C930288F389E02DD2
:1010800080818F7D80830895CF93DF93009779F0DF
:10109000FC0101900020E9F73197AF01481B590B83
:1010A000BC0185EB93E00E94000BEC0102C0C0E0A4
:1010B000D0E042E050E062E472E085EB93E00E9411
:1010C000000B8C0F9D1FDF91CF91089520916E0230
:1010D00090916D02213208F04AC080916A0281111C
:1010E000FCCF32E030936A0231E0309369023FEF87
:1010F0003093E3061092E2062093E106A4EEB6E0F8
:1011000041EC56E0FA013E2F341B321718F43D91A2
:101110003193F9CF1092C0062091C006990F922BFF
:101120009093C00690916802913061F41092680229
:101130009091C0069093BB009091BC0093FDF8CFB6
:1011400095EC01C095EE9093BC0090916A029230AC
:10115000E1F39091E3069F3F79F08091E3068032BE
:1011600041F08091E306803331F084E005C081E0F6
:1011700003C082E001C083E010926C0210926E0204
:1011800010926B020895EF92FF921F93CF93DF931B
:101190001F92CDB7DEB7162F90E4E92E96E0F92E18
:1011A000D7011C969C911C9721E020936B02909391
:1011B0006D0210926C0210926E021A960D90BC9104
:1011C000A02DED91FC9111970190F081E02D682FF9
:1011D000CD0179831995F70182859385DC01ED9125
:1011E000FC910190F081E02D7981672F1995F7012D
:1011F00082859385DC01ED91FC910190F081E02DD9
:10120000612F19950F90DF91CF911F91FF90EF9073
:101210000C9466081F920F920FB60F9211240F9034
:101220000FBE0F901F9018951F920F920FB60F923E
:1012300011240BB60F922F933F934F935F936F93AD
:101240007F938F939F93AF93BF93EF93FF9380917F
:10125000B900887F803609F49CC068F5883209F4AB
:101260005BC090F4803109F454C038F4882309F449
:10127000F6C0883009F44DC0F6C0883109F44CC07E
:10128000803209F45DC0EFC0803409F468C048F4CE
:10129000803309F455C0883309F0E5C08093E30634
:1012A000D8C0803509F44FC0883509F45DC0883452
:1012B00009F0D9C0D6C0883909F4C7C0A8F4883766
:1012C00009F467C038F4883609F463C0803709F43C
:1012D00060C0C9C0883809F4B8C0803909F45FC05B
:1012E000803809F0C0C05BC0803B09F486C038F488
:1012F000803A09F466C0883A09F47FC0B4C0803CE3
:1013000009F4A7C0883C09F4A4C0883B09F48AC04A
:10131000AAC08091C00610C09091E2068091E106BB
:10132000981770F5E091E20681E08E0F8093E20657
:10133000F0E0EF53F94F80818093BB0085EC86C0CD
:101340008093E3068EC0E091E20681E08E0F8093E9
:10135000E2068091BB00F0E0EF53F94F808390915B
:10136000E2068091E1066EC0E091E20681E08E0F18
:101370008093E2068091BB00F0E0EF53F94F808349
:101380008091690281116DC081E08093680284EAD6
:1013900061C083E080936A021092BD06CFCF809136
:1013A000BD06803208F051C0E091BD0681E08E0F8D
:1013B0008093BD068091BB00F0E0E356F94F808337
:1013C000BDCF85EC8093BC0010926A028091BD066F
:1013D000803230F4E091BD06F0E0E356F94F108220
:1013E0006091BD0670E0E0919B06F0919C068DE94E
:1013F00096E019951092BD0636C084E080936A028B
:1014000010929A0610929906E0919706F09198062C
:10141000199580919906811105C081E08093990604
:1014200010927706E0919A0681E08E0F80939A06DB
:10143000F0E0E958F94F80818093BB0090919A06C3
:1014400080919906981708F479CF85E88093BC00BD
:101450000AC085EC8093BC0010926A0204C010920E
:10146000E3060E946507FF91EF91BF91AF919F91B5
:101470008F917F916F915F914F913F912F910F903D
:101480000BBE0F900FBE0F901F901895CF93DF9358
:10149000282F30E0F901E652FC4F8491F901EC5617
:1014A000FC4FD491F901E25BFC4FC491CC2391F045
:1014B00081110E944B0BEC2FF0E0EE0FFF1FEC5C54
:1014C000FC4FA591B491EC91ED2381E090E021F4E3
:1014D00080E002C080E090E0DF91CF9108951F93FB
:1014E000CF93DF93282F30E0F901E652FC4F84912F
:1014F000F901EC56FC4FD491F901E25BFC4FC49129
:10150000CC23C9F0162F81110E944B0BEC2FF0E079
:10151000EE0FFF1FE65EFC4FA591B4918FB7F894D4
:10152000111105C09C91ED2FE095E92302C0EC91CB
:10153000ED2BEC938FBFDF91CF911F910895CF9347
:10154000DF9390E0FC01EC56FC4F2491FC01E25B40
:10155000FC4F8491882361F190E0880F991FFC0172
:10156000EF5DFB4FC591D491FC01E65EFC4FA59168
:10157000B491611109C09FB7F894888120958223A6
:101580008883EC912E230BC0623061F49FB7F894EE
:101590003881822F809583238883EC912E2B2C9386
:1015A0009FBF06C08FB7F894E8812E2B28838FBF8A
:1015B000DF91CF9108953FB7F894809111079091F2
:1015C0001207A0911307B091140726B5A89B05C078
:1015D0002F3F19F00196A11DB11D3FBFBA2FA92FB2
:1015E000982F8827820F911DA11DB11DBC01CD012F
:1015F00042E0660F771F881F991F4A95D1F708951B
:10160000CF92DF92EF92FF920F931F93CF93DF93CE
:101610006C017A018B01C0E0D0E0CE15DF0589F0C6
:10162000D8016D918D01D601ED91FC910190F08171
:10163000E02DC6011995892B11F47E0102C0219677
:10164000ECCFC701DF91CF911F910F91FF90EF90E9
:10165000DF90CF9008950E94DA168BE792E00E9407
:10166000840221E0892B09F420E0822F089588E18B
:1016700093E00E94840221E0892B09F420E0822F6C
:10168000089585EB93E00E94840221E0892B09F400
:1016900020E0822F089590E0FC013197E231F105BE
:1016A00008F04EC08827E354FF4F8F4F0C948114ED
:1016B000809180008F7703C0809180008F7D809320
:1016C0008000089580918000877FF9CF84B58F775F
:1016D00002C084B58F7D84BD08958091B0008F775E
:1016E00003C08091B0008F7D8093B00008958091F9
:1016F00090008F7707C0809190008F7D03C080910C
:101700009000877F8093900008958091A0008F774C
:1017100007C08091A0008F7D03C08091A000877FCB
:101720008093A0000895809120018F7707C0809159
:1017300020018F7D03C080912001877F809320014D
:1017400008951F93CF93DF93182FEB0161E00E9460
:101750009F0A209711F460E004C0CF3FD10539F40F
:1017600061E0812FDF91CF911F910C946F0AE12FDF
:10177000F0E0E652FC4FE4914E2F50E0FA01319731
:10178000E231F10508F09DC08827E153FF4F8F4FEC
:101790000C94811484B5806884BDC7BD97C084B59E
:1017A000806284BDC8BD92C08091800080688093B3
:1017B0008000D0938900C093880088C08091800009
:1017C000806280938000D0938B00C0938A007EC09B
:1017D00080918000886080938000D0938D00C093BA
:1017E0008C0074C08091B00080688093B000C0937A
:1017F000B3006CC08091B00080628093B000C09351
:10180000B40064C080919000806880939000D09371
:101810009900C09398005AC0809190008062809394
:101820009000D0939B00C0939A0050C0809190008C
:10183000886080939000D0939D00C0939C0046C028
:101840008091A00080688093A0008091A0008F7B91
:101850008093A000D093A900C093A80037C08091C6
:10186000A00080628093A000D093AB00C093AA0038
:101870002DC08091A00088608093A000D093AD001F
:10188000C093AC0023C08091200180688093200128
:10189000D0932901C093280119C080912001806252
:1018A00080932001D0932B01C0932A010FC0809117
:1018B0002001886080932001D0932D01C0932C01DA
:1018C00005C0C038D1050CF04BCF45CFDF91CF918B
:1018D0001F9108958F929F92AF92BF92CF92DF9205
:1018E000EF92FF926B017C010E94DB0A4B015C01CD
:1018F000C114D104E104F104F1F00E94DB0ADC011F
:10190000CB0188199909AA09BB09883E9340A10512
:10191000B10570F321E0C21AD108E108F10888EEA0
:10192000880E83E0981EA11CB11CC114D104E104EF
:10193000F10419F7DDCFFF90EF90DF90CF90BF90CB
:10194000AF909F908F9008951F920F920FB60F92B5
:1019500011242F933F938F939F93AF93BF938091C5
:10196000040790910507A0910607B09107073091F1
:10197000100723E0230F2D3720F40196A11DB11D80
:1019800005C026E8230F0296A11DB11D2093100764
:101990008093040790930507A0930607B093070769
:1019A0008091110790911207A0911307B09114072D
:1019B0000196A11DB11D8093110790931207A0936A
:1019C0001307B0931407BF91AF919F918F913F91EF
:1019D0002F910F900FBE0F901F9018951F920F928E
:1019E0000FB60F9211240BB60F922F933F934F9384
:1019F0005F936F937F938F939F93AF93BF93EF9377
:101A0000FF9380910B0790910C07A0910D07B09167
:101A10000E07892B8A2B8B2B59F180910A07E091B5
:101A20000807F091090790818927808380910B072F
:101A300090910C07A0910D07B0910E07181619068A
:101A40001A061B060CF056C080910B0790910C07EC
:101A5000A0910D07B0910E070197A109B1098093DC
:101A60000B0790930C07A0930D07B0930E0742C08D
:101A700080910002E0E2F4E0E4919FEF9093000295
:101A8000E230C9F050F4EE2399F0E13081F5909105
:101A90006F009D7F90936F002AC0E43019F1E0F051
:101AA000E53029F5909173009D7F909373001FC0DE
:101AB00010926E001CC0909170009D7F90937000FA
:101AC00091E09093B0009091B100987F94609093D2
:101AD000B1001092B3000BC0909171009D7F909364
:101AE000710005C0909172009D7F9093720060E03C
:101AF0000E946F0AFF91EF91BF91AF919F918F91DB
:101B00007F916F915F914F913F912F910F900BBEFD
:101B10000F900FBE0F901F9018951F920F920FB647
:101B20000F9211240BB60F922F933F934F935F9315
:101B30006F937F938F939F93AF93BF93EF93FF9395
:101B40008BE792E00E947B03FF91EF91BF91AF91F1
:101B50009F918F917F916F915F914F913F912F91C5
:101B60000F900BBE0F900FBE0F901F9018951F92F5
:101B70000F920FB60F9211240BB60F922F933F9333
:101B80004F935F936F937F938F939F93AF93BF9385
:101B9000EF93FF938BE792E00E946203FF91EF9136
:101BA000BF91AF919F918F917F916F915F914F9175
:101BB0003F912F910F900BBE0F900FBE0F901F9073
:101BC00018951F920F920FB60F9211240BB60F9219
:101BD0002F933F934F935F936F937F938F939F9335
:101BE000AF93BF93EF93FF9388E193E00E947B0351
:101BF000FF91EF91BF91AF919F918F917F916F91E5
:101C00005F914F913F912F910F900BBE0F900FBEA0
:101C10000F901F9018951F920F920FB60F921124DC
:101C20000BB60F922F933F934F935F936F937F93D6
:101C30008F939F93AF93BF93EF93FF9388E193E0CC
:101C40000E946203FF91EF91BF91AF919F918F919D
:101C50007F916F915F914F913F912F910F900BBEAC
:101C60000F900FBE0F901F9018951F920F920FB6F6
:101C70000F9211240BB60F922F933F934F935F93C4
:101C80006F937F938F939F93AF93BF93EF93FF9344
:101C900085EB93E00E947B03FF91EF91BF91AF91A1
:101CA0009F918F917F916F915F914F913F912F9174
:101CB0000F900BBE0F900FBE0F901F9018951F92A4
:101CC0000F920FB60F9211240BB60F922F933F93E2
:101CD0004F935F936F937F938F939F93AF93BF9334
:101CE000EF93FF9385EB93E00E946203FF91EF91E6
:101CF000BF91AF919F918F917F916F915F914F9124
:101D00003F912F910F900BBE0F900FBE0F901F9021
:101D1000189580917705909178050C94591510923B
:101D200072021092710288EE93E0A0E0B0E080931E
:101D3000730290937402A0937502B093760220E12F
:101D400032E03093700220936F0210927E02109264
:101D50007D0280937F0290938002A0938102B093D2
:101D6000820222E232E030937C0220937B0245E340
:101D700051E0509388024093870244E351E050932E
:101D80008A024093890240E351E050938C024093D1
:101D90008B0241E351E050938E0240938D0242E367
:101DA00051E05093900240938F0246E351E05093EC
:101DB0009202409391021092940210929502109216
:101DC00096021092970210921B0310921A038093AE
:101DD0001C0390931D03A0931E03B0931F03309325
:101DE00019032093180345ED50E0509325034093C9
:101DF000240344ED50E0509327034093260340ED25
:101E000050E0509329034093280341ED50E0509354
:101E10002B0340932A0342ED50E050932D0340934F
:101E20002C0346ED50E050932F0340932E03109265
:101E30003103109232031092330310923403109244
:101E4000B8031092B7038093B9039093BA03A09399
:101E5000BB03B093BC033093B6032093B50385EC6A
:101E600090E09093C2038093C10384EC90E0909340
:101E7000C4038093C30380EC90E09093C6038093E7
:101E8000C50381EC90E09093C8038093C70382EC74
:101E900090E09093CA038093C90386EC90E09093FE
:101EA000CC038093CB031092CE031092CF031092F9
:101EB000D0031092D10386E38093610687E3809379
:101EC000620688E38093630689E3809364068BE16E
:101ED000809365068DE1809366068AE180936706AC
:101EE0008CE18093680684E08093690687E08093A4
:101EF0006A0610926B0684EB80936C0686E18093F1
:101F00006D0688E180936E0687E180936F0689E114
:101F100080937006E0916005EC3020F08FEF8093A5
:101F2000710610C081E08E0F80936005E09371060A
:101F300025E0E29FF0011124EC5DFA4F88EB9BE075
:101F400092838183E0916005EC3020F08FEF8093E5
:101F5000720610C081E08E0F80936005E0937206D8
:101F600085E0E89FF0011124EC5DFA4F88EB9BE0DF
:101F7000928381838CE08093400684E280934106C3
:101F800086E08093420685E0809343068FE180934C
:101F900044068EE18093450683E28093460682E202
:101FA0008093470685E48093480684E4809349063D
:101FB00080E480934C0610925106109252061092C3
:101FC000530610925406109255061092560610921F
:101FD000570610925806E2E8F5E08FEF9FEFDC011C
:101FE000128213821482158216821782108611863D
:101FF00083879487A587B6878787908BA18BB28BC1
:10200000128611821082739626E0E034F20741F7BF
:102010008DE090E00E94C414FC011382128284E3DC
:1020200092E091838083118687E2848384E18287B2
:1020300084E083871486F0937F05E0937E051092F9
:1020400080051092810585E2809353041092550417
:10205000109278051092770510927A051092790502
:1020600010927C0510927B0561E070E080E090E0CA
:102070000E94F115009791F0909378058093770571
:1020800010927A051092790520917B0530917C059C
:10209000232B09F051C0FC0110824EC080917705BE
:1020A00090917805009711F00E94591510927805CB
:1020B0001092770510927C0510927B0510927A059C
:1020C0001092790581E080936C0510926D05109255
:1020D0006E0510926F051092700542E350E060E0CB
:1020E00070E040937105509372056093730570938F
:1020F00074052CED35E030937605209375058093BB
:1021000061051092620510926305109264051092A9
:10211000650584EF91E0A0E0B0E0809366059093C0
:102120006705A0936805B093690584EC92E09093ED
:102130006B0580936A05089510927C0510927B05CB
:1021400064E472E00E94E816BDCFCF93DF9300D025
:102150001F921F92CDB7DEB7789484B5826084BD9C
:1021600084B5816084BD85B5826085BD85B581609B
:1021700085BD80916E00816080936E001092810019
:1021800080918100826080938100809181008160D4
:102190008093810080918000816080938000809195
:1021A000B10084608093B1008091B0008160809321
:1021B000B0008091910082608093910080919100A5
:1021C0008160809391008091900081608093900065
:1021D0008091A10082608093A1008091A100816024
:1021E0008093A1008091A00081608093A0008091E5
:1021F000210182608093210180912101816080937F
:1022000021018091200181608093200180917A00DA
:10221000846080937A0080917A00826080937A0053
:1022200080917A00816080937A0080917A00806842
:1022300080937A001092C1000E941C0861E0809196
:1022400041060E949F0A60E0809141060E946F0A49
:1022500060E0809140060E949F0A8FE692E0909392
:102260004B0680934A061092670210926602109203
:102270006C0210926E0210926A0281E080936902F1
:102280001092680261E084E10E946F0A61E085E1DA
:102290000E946F0A8091B9008E7F8093B90080916F
:1022A000B9008D7F8093B90088E48093B80085E4FD
:1022B0008093BC0080E090E1A0E0B0E080934D0608
:1022C00090934E06A0934F06B09350068AE090E09C
:1022D000A0E0B0E08093510690935206A09353067D
:1022E000B093540680E090E0A0E0B0E480935506FF
:1022F00090935606A0935706B093580660E070E19D
:1023000085E00E94C3086FE979E380E00E94C3087A
:102310000DE516E0A12CB12CC12CD12CE3E82E2E1A
:10232000E3E03E2EFBEC8F2EF7E09F2EABE86A2E0B
:10233000772473949601205C394F2901D9011496B2
:102340009C91149712968C91F501E05CF94F7F01F6
:10235000818F928F61E00E949F0A61E0D7015A96B7
:102360008C910E949F0AF20190858681D8018C93FE
:10237000F701968F61E00E949F0A60E0D7015E96A8
:102380008C910E949F0A61E0F80180810E946F0A8F
:10239000FFB6F89480910F07811126C0F101849156
:1023A000E9ECF3E09491E82FF0E0EE0FFF1FEF5D12
:1023B000FB4FA591B4918C91982321F461E085E3C2
:1023C0000E946F0A61E085E30E949F0A8CB58061DC
:1023D0008CBD8CB580648CBD61E084E30E949F0A53
:1023E00061E083E30E949F0A80910F078F5F8093D3
:1023F0000F07FFBEC4010197F1F760E0D8018C918F
:102400000E946F0A88E80E949F0583E00E949F0552
:1024100061E0F80180810E946F0AC4010197F1F721
:1024200060E0D8018C910E946F0A88E90E949F05A4
:1024300080E00E949F0580E00E949F0580E00E944E
:102440009F0580E00E949F0561E0F80180810E9465
:102450006F0AC3010197F1F760E0D8018C910E94E7
:102460006F0A80EE0E949F0561E0F80180810E9462
:102470006F0AF2E0AF0EB11C0E5F1F4FCA94CD2859
:1024800021F0CC24C394D12C55CF05E616E054E0BE
:10249000F52EF00E60E0D8018D918D010E949F0A0B
:1024A000F012F8CF84E7E82E86E0F82E01E716E078
:1024B00095E0A92E2CE0C22E32E0932E42E0B42EFD
:1024C000B00EF8013897D080F80180818C3008F088
:1024D00046C061E08D2D0E949F0AD8018C91A89E74
:1024E000F0011124EC5DFA4F9D2D9F732081207C1B
:1024F000D22ED92AD082138214826C2D0E94751498
:10250000BCE08B9FA001112420E030E0B901640FF2
:10251000751FA69EF001A79EF00D1124EC5DFA4FE9
:10252000908196FD12C02F5F3F4F2C30310571F71F
:1025300081110BC010928000909281001092850052
:102540001092840096BA90926F00D801EC91AE9EE2
:10255000F0011124EC5DFA4F808180648083F801E2
:102560003297908132978081F70131978083F7010C
:10257000908360E00E949F0A61E0D7018C910E94E5
:102580009F0A60E0F70180810E946F0A0F5F1F4F72
:10259000F2E0EF0EF11CB01294CFF89410922001EB
:1025A00089E08093210180E293E090932901809358
:1025B0002801109225011092240182E0809373007B
:1025C000789480935204109256048091530460E0F2
:1025D0000E949F0A0E941C0885E492E00E94440821
:1025E00061E082E00E949F0A60E082E00E946F0A40
:1025F00061E083E00E949F0A60E083E00E946F0A2E
:1026000061E085E00E949F0A61E085E00E946F0A18
:1026100060E085E20E949F0A61E082E00E949F0ADA
:1026200061E083E00E949F0A61E084E00E949F0ACB
:1026300061E085E00E949F0A61E086E00E949F0AB7
:1026400061E087E00E949F0A61E088E00E949F0AA3
:1026500061E089E00E949F0A61E08AE00E949F0A8F
:1026600061E08BE00E949F0A61E08CE00E949F0A7B
:1026700061E08DE00E949F0A61E089E00E946F0A9C
:1026800061E08AE00E946F0A61E08BE00E946F0ABD
:1026900061E08CE00E946F0A61E08DE00E946F0AA9
:1026A0000E94BC0540E050E060E070E080E090E017
:1026B0000E94A60500E010E000FD03C04FEF50E0CF
:1026C00002C040E050E060E070E080E090E00E94F6
:1026D000A60564EF71E080E090E00E946A0C0F5F55
:1026E0001F4F0A30110541F70E94BC0505E010E3B9
:1026F0008CE695E00E94050481E695E00E940504C1
:10270000ECE3F2E0DE011196802F01900D928A95A4
:10271000E1F719831B831D83CE0101960E940806F1
:102720000E949302E5CF990F0008550FAA0BE0E82D
:10273000FEEF16161706E807F907C0F01216130683
:10274000E407F50798F0621B730B840B950B39F4C3
:102750000A2661F0232B242B252B21F408950A2629
:1027600009F4A140A6958FEF811D811D08950E9457
:10277000CA130C943B140E942D1438F00E94341498
:1027800020F0952311F00C9424140C942A14112495
:102790000C946F140E944C1470F3959FC1F3950F25
:1027A00050E0551F629FF001729FBB27F00DB11DD5
:1027B000639FAA27F00DB11DAA1F649F6627B00D65
:1027C000A11D661F829F2227B00DA11D621F739F4E
:1027D000B00DA11D621F839FA00D611D221F749F5C
:1027E0003327A00D611D231F849F600D211D822FA3
:1027F000762F6A2F11249F5750409AF0F1F08823CA
:102800004AF0EE0FFF1FBB1F661F771F881F9150F6
:102810005040A9F79E3F510580F00C9424140C946D
:102820006F145F3FE4F3983ED4F3869577956795F0
:10283000B795F795E7959F5FC1F7FE2B880F911D20
:102840009695879597F9089597F99F6780E870E0C6
:1028500060E008959FEF80EC089500240A94161616
:10286000170618060906089500240A94121613067E
:10287000140605060895092E0394000C11F488230C
:1028800052F0BB0F40F4BF2B11F460FF04C06F5F28
:102890007F4F8F4F9F4F089557FD9058440F551FFE
:1028A00059F05F3F71F04795880F97FB991F61F0D2
:1028B0009F3F79F087950895121613061406551F49
:1028C000F2CF4695F1DF08C0161617061806991FB5
:1028D000F1CF86957105610508940895E894BB27AA
:1028E00066277727CB0197F90895991B79E004C0F3
:1028F000991F961708F0961B881F7A95C9F780953F
:102900000895EE0FFF1F881F8BBF0790F691E02DF3
:1029100019940E9490146894B1110C946F14089546
:102920000E94541488F09F5798F0B92F9927B751F7
:10293000B0F0E1F0660F771F881F991F1AF0BA9563
:10294000C9F714C0B13091F00E946E14B1E008953F
:102950000C946E14672F782F8827B85F39F0B93F31
:10296000CCF3869577956795B395D9F73EF4909516
:102970008095709561957F4F8F4F9F4F08950E946E
:10298000931308F48FEF0895CF93DF93823091056E
:1029900010F482E090E0E0911707F091180720E032
:1029A00030E0C0E0D0E0309711F14081518148170C
:1029B0005907C0F04817590761F482819381209725
:1029C00019F09B838A832BC0909318078093170775
:1029D00026C02115310519F04217530718F49A0142
:1029E000BE01DF01EF010280F381E02DDCCF211574
:1029F000310509F1281B390B2430310590F412966A
:102A00008D919C9113976115710521F0FB019383C2
:102A1000828304C09093180780931707FD013296B4
:102A200044C0FD01E20FF31F8193919322503109BD
:102A30002D933C933AC02091150730911607232B14
:102A400041F4209103023091040230931607209341
:102A5000150720910102309102022115310541F440
:102A60002DB73EB74091050250910602241B350B4D
:102A7000E0911507F0911607E217F307A0F42E1B5B
:102A80003F0B2817390778F0AC014E5F5F4F2417D2
:102A9000350748F04E0F5F1F5093160740931507F8
:102AA0008193919302C0E0E0F0E0CF01DF91CF91FC
:102AB00008950F931F93CF93DF93009709F48CC071
:102AC000FC013297138212820091170710911807A8
:102AD0000115110581F420813181820F931F20910E
:102AE0001507309116072817390779F5F09316075F
:102AF000E093150771C0D80140E050E0AE17BF0762
:102B000050F412962D913C911397AD01211531058A
:102B100009F1D901F3CF9D01DA013383228360816A
:102B20007181860F971F8217930769F4EC01288142
:102B30003981260F371F2E5F3F4F318320838A81D3
:102B40009B8193838283452B29F4F0931807E093AC
:102B5000170742C01396FC93EE931297ED0149912B
:102B600059919E01240F351FE217F30771F48081FC
:102B70009181840F951F029611969C938E9382816A
:102B8000938113969C938E931297E0E0F0E0D80126
:102B900012968D919C911397009719F0F8018C0172
:102BA000F6CF8D919C9198012E5F3F4F820F931F1E
:102BB00020911507309116072817390769F43097C7
:102BC00029F4109218071092170702C0138212827C
:102BD0001093160700931507DF91CF911F910F9166
:102BE00008956F927F928F929F92AF92BF92CF92F1
:102BF000DF92EF92FF920F931F93CF93DF93EC013D
:102C0000009789F4CB01DF91CF911F910F91FF9035
:102C1000EF90DF90CF90BF90AF909F908F907F907C
:102C20006F900C94C414FC01E60FF71F9C01225016
:102C30003109E217F30708F4ACC0D9010D911C91DA
:102C4000119706171707B0F00530110508F49FC05B
:102C5000C80104978617970708F499C00250110914
:102C6000061B170B019311936D937C93CF010E9468
:102C700059158DC05B01A01AB10A4C01800E911E3E
:102C8000A0911707B091180740E050E0E12CF12C1B
:102C9000109709F44AC0A815B905D1F56D907C903C
:102CA0001197630182E0C80ED11CCA14DB0480F1C5
:102CB000A3014A195B096A0182E0C80ED11C129671
:102CC000BC9012971396AC91B5E0CB16D10440F0AE
:102CD000B282A38351834083D9016D937C930AC050
:102CE0000E5F1F4FC301800F911FF90191838083F5
:102CF000EB2DFA2FE114F10431F0D7011396FC9378
:102D0000EE93129744C0F0931807E09317073FC063
:102D10008D919C9111974817590708F4AC017D01DA
:102D200012960D90BC91A02DB3CF80911507909174
:102D3000160788159905E1F446175707C8F48091DE
:102D4000010290910202009741F48DB79EB7409125
:102D5000050250910602841B950BE817F907C8F489
:102D6000F0931607E0931507F901718360830FC094
:102D7000CB010E94C4147C01009759F0A801BE0148
:102D80000E94DF16CE010E945915C70104C0CE0172
:102D900002C080E090E0DF91CF911F910F91FF90F2
:102DA000EF90DF90CF90BF90AF909F908F907F90EB
:102DB0006F90089581E090E0F8940C94EF16FB0179
:102DC000DC0102C001900D9241505040D8F70895A7
:102DD000FB01DC0101900D920020E1F7089512E063
:102DE000CFE1D2E000E006C0802FFE010E948114F6
:102DF0002196011DC032D10780E00807A9F7F89499
:022E0000FFCF02
:102E0200FF000019072000090A0B0C0D000000004A
:102E1200ED07BD07C1029707B507A607980700008F
:102E220000009C03000B5302E30384026202760259
:102E3200000000003D03000BC102C0022B2B2B2B14
:0C2E42002B000D0A007374617274000014
:00000001FF
