:100000000C94A7010C94D8010C94D8010C94D8013D
:100010000C94D8010C94D8010C94D8010C94D801FC
:100020000C94D8010C94240F0C94240F0C94240FDE
:100030000C94D8010C94BA020C94D8010C94D801F9
:100040000C94D8010C94A00B0C94D8010C94D801FA
:100050000C94D8010C94D8010C94D8010C94700223
:100060000C94D8010C948D080C9402090C94D801BE
:100070000C94D8010C94D8010C94D8010C94D8019C
:100080000C94D8010C94D8010C94D8010C94D8018C
:100090000C94D8010C94D8010C94D8010C942E0F18
:1000A0000C94D8010C94D8010C94D8010C94D8016C
:1000B0000C94D8010C94D8010C94D8010C94C90963
:1000C0000C94D8010C94D8010C94D8010C946308BA
:1000D0000C94D8080C94D8010C9483030C94590305
:1000E0000C94D801E70AEC0AF10AFB0A050B7E0B17
:1000F0000F0B170B1F0B290B330B3D0B4C0B560B28
:100100007E0B600B6A0B740BE90EEC0EDB0EDF0E40
:10011000E50E230FF00EF40EFA0EFE0E020F080F7E
:100120000C0F100F230F160F1A0F1E0F0C94B00395
:100130000C94EC0A0C9460070C94DA070C94290BCD
:100140000C9470060C940C170C94F10A0C94E50EA8
:100150000C94B7040C94560B0C9473090C94330B49
:100160000C94050B0C94230F0C94FB0A0C94080FB1
:100170000C94E90E0C9425080C945F070C946A0B00
:100180000C940F0B0C94DF0E0C947E0B0C942A0233
:100190000C94E70A0C94DB0E0C942C090C941E0FA3
:1001A0000C9461060C94170B0C9485040C948D0729
:1001B0000C94D2160C94440E0C94020F0C9463070A
:1001C0000C9492060C94740B0C94FE0E0C94EC0E92
:1001D0000C94530E0C943D0B0C941F0B0C940C0FB1
:1001E0000C941F160C94600B0C94C7160C94840688
:1001F0000C944C0B0C94160F0C94DF060C941A0FF5
:100200000C94FA0E0C949F0E0C946F0E0C94FF013C
:100210000C94430E0C9478070C94F40E0C94670E17
:100220000C94100F0C94F00E020000210024002703
:10023000002A002D003000330001010000040107F6
:10024000010A0100002200250028002B002E0031A9
:1002500000340002010000050108010B010000202C
:10026000002300260029002C002F0032000001008E
:100270000003010601090105050505070508080831
:1002800008020202020A0A08080404040401010127
:10029000010101010103030303030303030407072F
:1002A000070C0C0C0C0C0C0C0C02020202060606CD
:1002B00006060606060B0B0B0B0B0B0B0B010210B5
:1002C0002020080810204010204080020102010870
:1002D0000402010102040810204080804020100820
:1002E0000402018004020180402010080402010879
:1002F00004020101020408102040800102040810D9
:1003000020408000000A0B02090C0D0E08070304B0
:1003100001000000000000000000000000000000DC
:1003200000000000000000000000000000000012BB
:10033000111000000000000000000000000000009C
:10034000000000000000000000000C17D21611246D
:100350001FBECFEFD1E2DEBFCDBF00E00CBF12E089
:10036000A0E0B2E0E6E2FAE300E00BBF02C00790D3
:100370000D92A43CB107D9F727E0A4ECB2E001C08C
:100380001D92A93FB207E1F711E0C6EAD1E000E013
:1003900006C021970109802FFE010E94931AC53AD9
:1003A000D10780E00807A9F70E9470110C94011D85
:1003B0000C9400003FB7F8948091D7029091D80236
:1003C000A091D902B091DA0226B5A89B05C02F3FB3
:1003D00019F00196A11DB11D3FBFBA2FA92F982F6B
:1003E0008827820F911DA11DB11DBC01CD0142E0E6
:1003F000660F771F881F991F4A95D1F70895CF92EE
:10040000DF92EF92FF920F931F93CF93DF936C01D4
:100410007A018B01C0E0D0E0CE15DF0589F0D8016C
:100420006D918D01D601ED91FC910190F081E02D4F
:10043000C6011995892B11F47E0102C02196ECCFDB
:10044000C701DF91CF911F910F91FF90EF90DF9047
:10045000CF9008950E94EC1C8EE593E00E949206D6
:1004600021E0892B09F420E0822F08958F929F923A
:10047000AF92BF92CF92DF92EF92FF926B017C011D
:100480000E94DA014B015C01C114D104E104F104C2
:10049000F1F00E94DA01DC01CB0188199909AA095F
:1004A000BB09883E9340A105B10570F321E0C21A53
:1004B000D108E108F10888EE880E83E0981EA11C9F
:1004C000B11CC114D104E104F10419F7DDCFFF9090
:1004D000EF90DF90CF90BF90AF909F908F90089556
:1004E0001F920F920FB60F9211242F933F938F9369
:1004F0009F93AF93BF938091CA029091CB02A0913A
:10050000CC02B091CD023091D60223E0230F2D37DB
:1005100020F40196A11DB11D05C026E8230F029607
:10052000A11DB11D2093D6028093CA029093CB02E5
:10053000A093CC02B093CD028091D7029091D802C3
:10054000A091D902B091DA020196A11DB11D80934C
:10055000D7029093D802A093D902B093DA02BF9148
:10056000AF919F918F913F912F910F900FBE0F9060
:100570001F9018951F920F920FB60F9211240BB671
:100580000F922F933F934F935F936F937F938F932C
:100590009F93AF93BF93EF93FF938091D10290917C
:1005A000D202A091D302B091D402892B8A2B8B2B3B
:1005B00059F18091D002E091CE02F091CF0290816A
:1005C000892780838091D1029091D202A091D30299
:1005D000B091D402181619061A061B060CF056C064
:1005E0008091D1029091D202A091D302B091D40215
:1005F0000197A109B1098093D1029093D202A093EF
:10060000D302B093D40242C080910002E8E2F2E04B
:10061000E4919FEF90930002E230C9F050F4EE2392
:1006200099F0E13081F590916F009D7F90936F007C
:100630002AC0E43019F1E0F0E53029F5909173001B
:100640009D7F909373001FC010926E001CC090910C
:1006500070009D7F9093700091E09093B000909116
:10066000B100987F94609093B1001092B3000BC0DA
:10067000909171009D7F9093710005C090917200E0
:100680009D7F9093720060E00E94E610FF91EF91D1
:10069000BF91AF919F918F917F916F915F914F919A
:1006A0003F912F910F900BBE0F900FBE0F901F9098
:1006B00018951F920F920FB60F9211240BB60F923E
:1006C0002F933F934F935F936F937F938F939F935A
:1006D000AF93BF93EF93FF938EE593E00E94B7082B
:1006E000FF91EF91BF91AF919F918F917F916F910A
:1006F0005F914F913F912F910F900BBE0F900FBEC6
:100700000F901F9018951F920F920FB60F92112401
:100710000BB60F922F933F934F935F936F937F93FB
:100720008F939F93AF93BF93EF93FF938EE593E0E7
:100730000E944A08FF91EF91BF91AF919F918F91D5
:100740007F916F915F914F913F912F910F900BBED1
:100750000F900FBE0F901F901895E0E0F0E01994F5
:100760008EE892E00E94EA0C41E064EF72E08AE7D2
:1007700096E00E94DF06E4EFF2E081E090E0219154
:1007800031912132334040F005978CF040E050E049
:10079000BA018EE697E011C001968930910579F78C
:1007A00040E050E0BA018EE697E00E94870A40E000
:1007B00050E060E070E880E797E00C94870ACF9300
:1007C000DF93EC0161E088E00E94E610BE010D2E8F
:1007D000000C880B990B0E94360260E088E00E94B2
:1007E000E61064E170E06C1B7D0B072E000C880B9B
:1007F000990BDF91CF910C9436021F93CF93DF9327
:100800001F92CDB7DEB7162F682F82E349830E946F
:10081000E610612F83E30E94E6104981642F84E390
:100820000F90DF91CF911F910C94E61040E050E0C3
:1008300060E070E081E090E00E94FD0340E050E065
:10084000BA018EE697E00E94870A40E050E060E03F
:1008500070E880E797E00C94870A1F93CF93DF93AB
:10086000C5E1D2E0199161E080E20E94E61061E00A
:100870008DE10E94E61061E08CE10E94E61061E0EB
:100880008AE10E94E61061E081E20E94E61060E0E9
:10089000812F0E94E61061E070E080E090E00E940D
:1008A000360282E0CA31D807E9F661E081E2DF91E1
:1008B000CF911F910C94E61085E992E00E94EA0C1A
:1008C00040E050E060E070E081E090E00E94FD03D5
:1008D00085E20E94BD10892B29F48AE992E00E94EA
:1008E0002D04F6CF85E20E94BD100197D9F362E393
:1008F00070E080E090E00E94360240E050E061E06D
:1009000070E080E090E00C94FD0380EA92E00E94A9
:10091000EA0C85E20E94BD10019779F485E20E94FD
:10092000BD100197D9F30E94160462E370E080E0E5
:1009300090E00E9436020E945C0460E082E30C9426
:10094000E610CF93DF93EC010E94160485E20E942B
:10095000BD10892B21F4CE010E942D04F7CF68EE43
:1009600073E080E090E0DF91CF910C9436022F92FB
:100970003F924F925F926F927F928F929F92AF922F
:10098000BF92CF92DF92EF92FF920F931F93CF937C
:10099000DF93CDB7DEB764970FB6F894DEBF0FBE16
:1009A000CDBF87EA92E00E94EA0CCE0101967C015D
:1009B0002E0195E1490E511CF70111921192E41597
:1009C000F505D9F7870145E0242E312C882483943E
:1009D000912C6AE0662E712C0E94EF0D80E40E943B
:1009E000C20D6C010E94EF0D82E40E94C20D5C01F9
:1009F0000E94EF0D84E40E94C20DAC14BD045CF4AF
:100A00008A159B05D4F48F35E1E09E07B4F0F80118
:100A10009182808212C0CA14DB047CF48C159D057F
:100A200064F48F35F1E09F0744F021E9C21621E01C
:100A3000D2061CF0F801318220828A159B0554F4FD
:100A4000C816D90654F48F3591403CF0F8017182F4
:100A5000608203C0F801118210820E5F1F4F0415DF
:100A6000150509F0B9CF80E090E0F70121913191AF
:100A70007F01820F931FE415F505B9F78D329105BB
:100A8000C1F04CF488309105D4F08B309105D4F04E
:100A9000889779F014C08035910571F01CF4C297E5
:100AA00041F00DC08A35910539F08436910521F069
:100AB00006C002E010E008C003E010E005C000E05E
:100AC00010E002C001E010E00115110509F4E0C0DA
:100AD0000E94160441E050E061E070E081E090E0A7
:100AE0000E94FD0332E3E32EF12C82E090E00E94AD
:100AF000DF03F1E0EF1AF108C1F760E273E080E094
:100B000090E00E94420D61E08CE00E94E61060E0FF
:100B10008AE00E94E6102FE1E22E23E0F22E61E04F
:100B20008BE00E94E61061E070E080E090E00E94BF
:100B3000360260E08BE00E94E61061E070E080E049
:100B400090E00E94360221E0E21AF10841F792E3B8
:100B5000E92EF12C81E090E00E94DF0381E0E81AA9
:100B6000F108C1F760E273E080E090E00E94420D7E
:100B700060E08CE00E94E6108FE1E82E83E0F82E22
:100B800061E08BE00E94E61061E070E080E090E0C0
:100B90000E94360260E08BE00E94E61061E070E0A7
:100BA00080E090E00E94360291E0E91AF10841F7F6
:100BB00061E08AE00E94E6100230110569F003301E
:100BC0001105A1F08091C8029091C90201969093FD
:100BD000C9028093C80213C08091C6029091C702D7
:100BE00001969093C7028093C60209C08091C40207
:100BF0009091C50201969093C5028093C4028091A2
:100C0000C8029091C902039764F58091C602909141
:100C1000C70203976CF58091C4029091C5020397B7
:100C200074F540E050E061E070E080E090E06496B0
:100C30000FB6F894DEBF0FBECDBFDF91CF911F91ED
:100C40000F91FF90EF90DF90CF90BF90AF909F906B
:100C50008F907F906F905F904F903F902F900C946B
:100C6000FD031092C9021092C8028FEA92E00DC0F3
:100C70001092C7021092C60285EB92E006C0109255
:100C8000C5021092C4028BEB92E00E94A104C9CF6E
:100C900064960FB6F894DEBF0FBECDBFDF91CF9143
:100CA0001F910F91FF90EF90DF90CF90BF90AF908A
:100CB0009F908F907F906F905F904F903F902F907C
:100CC0000895FC01538D448D252F30E0842F90E052
:100CD000821B930B541710F0CF9608950197089537
:100CE000FC01918D828D981761F0828DDF01A80F34
:100CF000B11D5D968C91928D9F5F9F73928F90E056
:100D000008958FEF9FEF0895FC01918D828D9817C4
:100D100031F0828DE80FF11D858D90E008958FEF01
:100D20009FEF0895FC01918D228D892F90E0805CCA
:100D30009F4F821B91098F73992708958BEF93E042
:100D40000E94920621E0892B09F420E0822F089569
:100D500088E994E00E94920621E0892B09F420E0C2
:100D6000822F089580E090E0892B21F00E94A80650
:100D7000811119C080E090E0892B41F080E090E083
:100D8000892B21F00E940000811110C00E949E0654
:100D900081110FC080E090E0892B81F00E942C022D
:100DA00081110AC008950E940000E4CF0E94000053
:100DB000EDCF0E94AD03EECF0C9400000895DF92BA
:100DC000EF92FF920F931F93CF93DF93CDB7DEB7D0
:100DD000EE970FB6F894DEBF0FBECDBF8C017B013E
:100DE000D42E8FEF840FD801ED91FC91823020F446
:100DF0000480F581E02D05C0411105C00280F3811A
:100E0000E02DC8011995D801ED91FC910084F18580
:100E1000E02D20E041E0B701C8011995B5E0DB16EF
:100E200009F43FC0D801ED91FC910280F381E02DDF
:100E3000C8011995B2E0DB1234C0D801ED91FC91E4
:100E40000084F185E02D20E041E0BE016F5F7F4F1F
:100E5000C801199540E0D8011C968C91481708F5F7
:100E6000842F90E0880F991FF701E80FF91F21E008
:100E700030E02C0F3D1F820F931FD8011E962D913D
:100E80003C911F97DC018D919C91B901681B790BF6
:100E9000CB0120813181820F931F918380834F5F2B
:100EA000DACFEE960FB6F894DEBF0FBECDBFDF915E
:100EB000CF911F910F91FF90EF90DF9008950895CB
:100EC00080E090E00895CF93DF93FC0185858F3F0C
:100ED00061F0EF0161E00E94341161E08D850E94B4
:100EE000E6108BE193E00197F1F7DF91CF91089540
:100EF000CF93DF93FC0185858F3F61F0EF0161E0C7
:100F00000E94341160E08D850E94E6108BE193E031
:100F10000197F1F7DF91CF910895EF92FF920F9330
:100F20001F93CF93DF931F92CDB7DEB77C018B0168
:100F3000FC01138212821582148217821682118696
:100F40001086118A108A403218F08FE1848702C01F
:100F5000FC014487F70182859385892B11F080E09D
:100F60000DC0F701848590E029830E94D61AF7010D
:100F7000938782872981892B91F714C0F701948583
:100F8000891778F4482F50E0F801E40FF51F90819D
:100F9000F70162857385FB01E40FF51F90838F5F76
:100FA000EDCF25870F90DF91CF911F910F91FF908B
:100FB000EF9008950F931F93CF93DF93EC01122FBF
:100FC000202FE881F9813697808191818C0F9D1FB8
:100FD0000E948D071A83E881F9813697808191817B
:100FE000C80FD91F8FEF93E09F878E87DF91CF9136
:100FF0001F910F910895FC01248131E0309351033A
:101000002093500310924F0310924E038485682B57
:1010100082E593E00E949F0E82E593E00C946010BD
:101020000F931F93CF938C01C62F64600E94FB0720
:101030006C2F6B7FC8010E94FB0783EC90E0019747
:10104000F1F7CF911F910F9108950F931F93CF93B5
:10105000DF938C01C62FD62FD07FD1606D2F0E94D9
:10106000FB076D2FC8010E94100880E1C89FB001E6
:101070001124C62FC1606C2FC8010E94FB076C2F82
:10108000C8010E94100881E090E0DF91CF911F918C
:101090000F910895FC01A089B1898C91A689B78927
:1010A00082FD0FC09C91818D8F5F8F73228D82177F
:1010B00049F0218DDF01A20FB11D5D969C93818FB8
:1010C00008958C9108951F920F920FB60F921124DC
:1010D0000BB60F922F933F934F935F936F937F9332
:1010E0008F939F93AF93BF93EF93FF938BEF93E017
:1010F0000E944A08FF91EF91BF91AF919F918F910C
:101100007F916F915F914F913F912F910F900BBE07
:101110000F900FBE0F901F9018951F920F920FB651
:101120000F9211240BB60F922F933F934F935F931F
:101130006F937F938F939F93AF93BF93EF93FF939F
:1011400088E994E00E944A08FF91EF91BF91AF9126
:101150009F918F917F916F915F914F913F912F91CF
:101160000F900BBE0F900FBE0F901F901895FC01B3
:10117000848DDF01A80FB11DA35ABF4F2C91848D20
:1011800090E001968F739927848FA689B7892C9355
:10119000A089B1898C9180648C93938D848D9813F0
:1011A00006C00288F389E02D80818F7D80830895B9
:1011B0001F920F920FB60F9211240BB60F922F931E
:1011C0003F934F935F936F937F938F939F93AF93CF
:1011D000BF93EF93FF938BEF93E00E94B708FF91CB
:1011E000EF91BF91AF919F918F917F916F915F919F
:1011F0004F913F912F910F900BBE0F900FBE0F900C
:101200001F9018951F920F920FB60F9211240BB6D4
:101210000F922F933F934F935F936F937F938F938F
:101220009F93AF93BF93EF93FF9388E994E00E945D
:10123000B708FF91EF91BF91AF919F918F917F91EF
:101240006F915F914F913F912F910F900BBE0F9037
:101250000FBE0F901F901895EF92FF920F931F9360
:10126000CF93DF93EC0181E0888F9B8D8C8D981359
:1012700005C0E889F989808185FD24C0F62E0B8D93
:1012800010E00F5F1F4F0F731127E02E8C8DE812B7
:101290000CC00FB607FCFACFE889F989808185FF79
:1012A000F5CFCE010E94B708F1CF8B8DFE01E80F7C
:1012B000F11DE35AFF4FF0820B8FEA89FB89808191
:1012C000806207C0EE89FF896083E889F98980819F
:1012D0008064808381E090E0DF91CF911F910F9136
:1012E000FF90EF900895CF93DF93EC01888D8823D2
:1012F000C9F0EA89FB89808185FD05C0A889B98983
:101300008C9186FD0FC00FB607FCF5CF808185FF5D
:10131000F2CFA889B9898C9185FFEDCFCE010E94CB
:10132000B708E7CFDF91CF910895FC018081882332
:1013300079F12FB7F8948091CA029091CB02A091D5
:10134000CC02B091CD022FBF418152816381748163
:10135000841B950BA60BB70B458156816781708561
:1013600084179507A607B70798F02FB7F8948091D0
:10137000CA029091CB02A091CC02B091CD022FBFB6
:1013800081839283A383B4830184F285E02D199431
:1013900008951F920F920FB60F9211240BB60F9261
:1013A0002F933F934F935F936F937F938F939F936D
:1013B000AF93BF93EF93FF93809136050E94BD10CA
:1013C00020913A0530913B052F5F3F4F30933B050D
:1013D00020933A0590913905953618F096E0909350
:1013E0003505909135059430C9F128F4923069F0B3
:1013F0009330D1F05EC0953009F451C0963009F0B9
:1014000058C091E09093060651C0811152C02091BE
:101410003A0530913B052436310508F442C010925C
:101420000606109239051CC0813009F042C0E091D7
:10143000390591E09E0F90933905F0E020913A052F
:1014400030913B05EE0FFF1FEB5CFA4F308727838F
:1014500010923B0510923A0594E029C0811117C003
:10146000E091390591E09E0F90933905F0E02091CD
:101470003A0530913B05EE0FFF1FEB5CFA4F3087CA
:10148000278310923B0510923A0593E010C02091FB
:101490003A0530913B052536310558F007C08111DA
:1014A00008C010923B0510923A0503C095E0909356
:1014B0003505909138059923B9F081110AC08091C2
:1014C0003705882321F08091370561E009C02F9A04
:1014D0000BC080913705882331F08091370560E09B
:1014E0000E94E61001C02F98FF91EF91BF91AF913C
:1014F0009F918F917F916F915F914F913F912F912C
:101500000F900BBE0F900FBE0F901F9018958F92EB
:101510009F92AF92BF92CF92DF92EF92FF920F9382
:101520001F93CF93DF93EC016A017B0120E030E051
:101530004FE753E4C701B6010E9493194B015C01C8
:1015400020E030E0A9010E94D11A18161CF4C50150
:10155000B40103C0C501B40190580E949B1A8B01CD
:1015600020E030E0A901C701B6010E94D11A181687
:1015700014F460E001C061E089810E94E6100F3F31
:10158000110509F014F4112702C00FEF10E0C88113
:1015900061E08C2F0E9434110115110509F4B1C0CE
:1015A0000F3F110509F4AFC0EC2FF0E0ED5FFC4FE9
:1015B000E4914E2F50E0FA013197E231F10508F045
:1015C0009DC08827EE58FF4F8F4F0C94931A84B517
:1015D000806884BD07BDA7C084B5806284BD08BD96
:1015E000A2C0809180008068809380001093890061
:1015F0000093880098C08091800080628093800072
:1016000010938B0000938A008EC0809180008860C8
:101610008093800010938D0000938C0084C0809193
:10162000B00080688093B0000093B3007CC08091CC
:10163000B00080628093B0000093B40074C08091C9
:101640009000806880939000109399000093980018
:101650006AC08091900080628093900010939B00FC
:1016600000939A0060C08091900088608093900001
:1016700010939D0000939C0056C08091A00080684C
:101680008093A0008091A0008F7B8093A000109396
:10169000A9000093A80047C08091A00080628093B9
:1016A000A0001093AB000093AA003DC08091A00061
:1016B00088608093A0001093AD000093AC0033C00D
:1016C000809120018068809320011093290100936C
:1016D000280129C08091200180628093200110930D
:1016E0002B0100932A011FC0809120018860809304
:1016F000200110932D0100932C0115C00038110515
:1017000014F460E001C061E08C2FDF91CF911F9154
:101710000F91FF90EF90DF90CF90BF90AF909F9090
:101720008F900C94E610DF91CF911F910F91FF9055
:10173000EF90DF90CF90BF90AF909F908F900895E3
:101740001F920F920FB60F9211240BB60F922F9388
:101750003F934F935F936F937F938F939F93AF9339
:10176000BF93EF93FF938091040387FF05C010920E
:1017700085001092840016C020910403022E000CF4
:10178000330B8091430690E0281739075CF43091C1
:10179000040325E03203F0011124E95FF94F808151
:1017A00086FD15C0809104038F5F80930403209110
:1017B0000403022E000C330B8091430690E028179F
:1017C000390794F4809104038C302CF10DC03091D2
:1017D00004033203F0011124E95FF94F808160E0D6
:1017E0008F730E94E610DECF809184009091850077
:1017F00084349C4918F480E49CE905C080918400FD
:1018000090918500049690938900809388008FEFD3
:10181000809304032AC04091840050918500309148
:10182000040325E03203F0011124E95FF94F8181BF
:101830009281840F951F9093890080938800309146
:1018400004033203F0011124E95FF94F808186FF20
:101850000CC0309104033203F0011124E95FF94F09
:10186000808161E08F730E94E610FF91EF91BF913C
:10187000AF919F918F917F916F915F914F913F9128
:101880002F910F900BBE0F900FBE0F901F901895C9
:101890008EBD00000DB407FEFDCF8EB508950097F4
:1018A00069F0FC0101900020E9F73197AF01481B76
:1018B000590BBC0188E994E00C94FF0180E090E0B2
:1018C000089591E09093510394E790935003109200
:1018D0004F0310924E03682F82E593E00E949F0E03
:1018E00082E593E00E94601080912B038111FCCF70
:1018F00081E080932B0380932A039FEF9093290329
:1019000010922803109227038093260380912603C8
:10191000886E8093260380912503813061F41092B4
:101920002503809126038093BB008091BC0083FD3A
:10193000F8CF85EC01C085EE8093BC0080912B032D
:101940008130E1F380912803811103C08091280345
:1019500001C081E0A5E0B3E02EE233E0F9019E2F63
:10196000921B981718F49D919193F9CF10922D0323
:1019700080932C03811101C0FFCF82E593E00E9488
:10198000530E0895E8E9F4E0A089B18982E08C93D0
:10199000A485B5851C92A685B7858FEC8C93108E97
:1019A000A489B58986E08C93A289B3898C918061E2
:1019B0008C93A289B3898C9188608C93A289B38916
:1019C0008C9180688C930288F389E02D80818F7DD3
:1019D00080830895CF93DF930E944F0CEC0180EC3D
:1019E00092E00E944F0C8C0F9D1FDF91CF910895C4
:1019F000EF92FF921F93CF93DF931F92CDB7DEB785
:101A0000162F95E5E92E97E0F92ED7011C969C91AB
:101A10001C9721E0209351039093500310924F03A1
:101A200010924E031A960D90BC91A02DED91FC9151
:101A300011970190F081E02D682FCD0179831995E0
:101A4000F70182859385DC01ED91FC910190F08195
:101A5000E02D7981672F1995F70182859385DC0147
:101A6000ED91FC910190F081E02D612F1995F70126
:101A7000828593850F90DF91CF911F91FF90EF901A
:101A80000C9460108F929F92AF92BF92CF92DF9290
:101A9000EF92FF920F931F93CF93DF93CDB7DEB7F3
:101AA000A1970FB6F894DEBF0FBECDBF6B017C01CE
:101AB00097FF31C0E0919804F09199040190F08172
:101AC000E02D6DE288E994E019958C0122273327F7
:101AD000A9012C193D094E095F0919A2CE01819671
:101AE0007C019AE0892E912CA12CB12CCA01B9015C
:101AF000A50194010E94511A605DF70162937F0174
:101B0000211531054105510589F7CF010E944F0C80
:101B1000080F191F1EC09B01AC0119A28E010F5D99
:101B20001F4F8AE0C82ED12CE12CF12CCA01B9013B
:101B3000A70196010E94511A605DF80162938F011E
:101B4000211531054105510589F7CF010E944F0C40
:101B50008C0180EC92E00E944F0C800F911FA196A7
:101B60000FB6F894DEBF0FBECDBFDF91CF911F91AE
:101B70000F91FF90EF90DF90CF90BF90AF909F902C
:101B80008F900895CF93DF93C82F0E94610CD82FB8
:101B900081E08C0F0E94610C282F30E0922F882763
:101BA0008D0F911DDF91CF910895CF93C82F81E0C4
:101BB0008093510384E78093500310924F03109257
:101BC0004E0382E593E00E949F0E6C2F82E593E026
:101BD0000E949F0E82E593E0CF910C94601060E02C
:101BE00081E00E94D50D80E00E94610C8111FBCF45
:101BF00008950F931F93CF93C82F8B0161157041E8
:101C000064F46C2F802F0E94D50D61E06C0F812F42
:101C1000CF911F910F910C94D50DCF911F910F91E2
:101C2000089585ED8093BC008091BC0084FDFCCFBD
:101C300010922B0308954091CE07262F30E0240FF9
:101C4000311D21323105DCF420912B032430C9F4FD
:101C5000FC0180E090E0861758F43091CE07219186
:101C6000DC01A455B84FA30FB11D2C930196F3CFFF
:101C70008091CE07680F6093CE0780E0089581E0E1
:101C8000089582E008950895E0912D0380912C033A
:101C9000E81730F4F0E0E25DFC4F808190E00895B9
:101CA0008FEF9FEF089590912D0380912C0398174B
:101CB00050F4E92FF0E0E25DFC4F208130E09F5FBF
:101CC00090932D0302C02FEF3FEFC901089580913B
:101CD0002C0390E020912D03821B91090895CF924F
:101CE000DF92EF92FF920F931F93CF93DF937C01CC
:101CF000262F972F8A0180915103882391F0C62FB8
:101D0000D72F6E01C40ED51ECC15DD0571F069917B
:101D1000D701ED91FC910190F081E02DC70119955B
:101D2000F3CF642F822F0E941B0EC801DF91CF9149
:101D30001F910F91FF90EF90DF90CF900895CF9378
:101D4000DF931F92CDB7DEB7698320915103222321
:101D5000D1F020914E03203240F021E030E0FC0130
:101D60003383228380E090E015C080914F03E82FF9
:101D7000F0E0E457F84F998190838F5F80934F0391
:101D800080934E0305C061E0CE0101960E941B0EB8
:101D900081E090E00F90DF91CF91089590E0FC01F9
:101DA0003197E231F10508F04EC08827EC57FF4F1C
:101DB0008F4F0C94931A809180008F7703C080918D
:101DC00080008F7D80938000089580918000877FC0
:101DD000F9CF84B58F7702C084B58F7D84BD089517
:101DE0008091B0008F7703C08091B0008F7D809389
:101DF000B0000895809190008F7707C08091900087
:101E00008F7D03C080919000877F8093900008951C
:101E10008091A0008F7707C08091A0008F7D03C0C4
:101E20008091A000877F8093A00008958091200179
:101E30008F7707C0809120018F7D03C080912001A2
:101E4000877F8093200108951F920F920FB60F9203
:101E500011240F900FBE0F901F9018951F920F9294
:101E60000FB60F9211240BB60F922F933F934F93FF
:101E70005F936F937F938F939F93AF93BF93EF93F2
:101E8000FF938091B900887F803609F49CC068F583
:101E9000883209F45BC090F4803109F454C038F4FE
:101EA000882309F4F6C0883009F44DC0F6C08831A3
:101EB00009F44CC0803209F45DC0EFC0803409F4ED
:101EC00068C048F4803309F455C0883309F0E5C090
:101ED00080932903D8C0803509F44FC0883509F4B0
:101EE0005DC0883409F0D9C0D6C0883909F4C7C0AC
:101EF000A8F4883709F467C038F4883609F463C059
:101F0000803709F460C0C9C0883809F4B8C0803986
:101F100009F45FC0803809F0C0C05BC0803B09F4A1
:101F200086C038F4803A09F466C0883A09F47FC064
:101F3000B4C0803C09F4A7C0883C09F4A4C0883B25
:101F400009F48AC0AAC08091260310C0909128038A
:101F500080912703981770F5E091280381E08E0F98
:101F600080932803F0E0EB5FFC4F80818093BB00FF
:101F700085EC86C0809329038EC0E091280381E020
:101F80008E0F809328038091BB00F0E0EB5FFC4F45
:101F9000808390912803809127036EC0E0912803ED
:101FA00081E08E0F809328038091BB00F0E0EB5F0F
:101FB000FC4F808380912A0381116DC081E0809362
:101FC000250384EA61C083E080932B031092F2071B
:101FD000CFCF8091F207803208F051C0E091F20734
:101FE00081E08E0F8093F2078091BB00F0E0EE520B
:101FF000F84F8083BDCF85EC8093BC0010922B03FB
:102000008091F207803230F4E091F207F0E0EE5276
:10201000F84F10826091F20770E0E091D007F091E4
:10202000D10782ED97E019951092F20736C084E04F
:1020300080932B031092CF071092CE07E091CC072C
:10204000F091CD0719958091CE07811105C081E0EF
:102050008093CE071092AC07E091CF0781E08E0FFE
:102060008093CF07F0E0E455F84F80818093BB0068
:102070009091CF078091CE07981708F479CF85E823
:102080008093BC000AC085EC8093BC0010922B03A7
:1020900004C0109229030E94110EFF91EF91BF918D
:1020A000AF919F918F917F916F915F914F913F91F0
:1020B0002F910F900BBE0F900FBE0F901F90189591
:1020C00020914E0390915003213208F04AC0809134
:1020D0002B038111FCCF32E030932B0331E030939E
:1020E0002A033FEF309329031092280320932703FC
:1020F000ACE8B7E045E053E0FA013E2F341B32175D
:1021000018F43D913193F9CF1092260320912603C4
:10211000990F922B9093260390912503913061F4AF
:1021200010922503909126039093BB009091BC00E0
:1021300093FDF8CF95EC01C095EE9093BC00909183
:102140002B039230E1F3909129039F3F79F0809126
:102150002903803241F080912903803331F084E0FB
:1021600005C081E003C082E001C083E010924F030C
:1021700010924E03109251030895CF93DF93282FAE
:1021800030E0F901ED5FFC4F8491F901E354FD4F1C
:10219000D491F901E958FD4FC491CC2391F08111FC
:1021A0000E94CE0EEC2FF0E0EE0FFF1FE35AFD4F22
:1021B000A591B491EC91ED2381E090E021F480E0D1
:1021C00002C080E090E0DF91CF9108951F93CF93FC
:1021D000DF93282F30E0F901ED5FFC4F8491F90186
:1021E000E354FD4FD491F901E958FD4FC491CC233C
:1021F000C9F0162F81110E94CE0EEC2FF0E0EE0FE9
:10220000FF1FED5BFD4FA591B4918FB7F8941111AD
:1022100005C09C91ED2FE095E92302C0EC91ED2BD8
:10222000EC938FBFDF91CF911F91089510922B03F4
:1022300081E080932A031092250361E084E10E94EB
:10224000E61061E085E10E94E610E9EBF0E08081B4
:102250008E7F808380818D7F808388E48093B80027
:1022600085E48093BC000895CF93DF9390E0FC0158
:10227000E354FD4F2491FC01E958FD4F84918823DC
:1022800061F190E0880F991FFC01E75DFD4FC5915A
:10229000D491FC01ED5BFD4FA591B491611109C092
:1022A0009FB7F8948881209582238883EC912E2310
:1022B0000BC0623061F49FB7F8943881822F80950B
:1022C00083238883EC912E2B2C939FBF06C08FB75E
:1022D000F894E8812E2B28838FBFDF91CF9108954A
:1022E000CF93DF9300D01F921F92CDB7DEB77894C3
:1022F00084B5826084BD84B5816084BD85B582600B
:1023000085BD85B5816085BD80916E0081608093BB
:102310006E00109281008091810082608093810024
:102320008091810081608093810080918000816034
:10233000809380008091B10084608093B10080918F
:10234000B00081608093B0008091910082608093A2
:102350009100809191008160809391008091900024
:102360008160809390008091A10082608093A100A1
:102370008091A10081608093A1008091A000816084
:102380008093A0008091210182608093210180913F
:1023900021018160809321018091200181608093DF
:1023A000200180917A00846080937A0080917A0085
:1023B000826080937A0080917A00816080937A00B5
:1023C00080917A00806880937A001092C1000E9408
:1023D000C20C61E0809156070E94341160E0809148
:1023E00056070E94E61060E0809155070E94341164
:1023F00082E593E09093600780935F0710922D032E
:1024000010922C0310924F0310924E030E9416114B
:1024100080E090E1A0E0B0E08093620790936307D2
:10242000A0936407B09365078AE090E0A0E0B0E075
:102430008093660790936707A0936807B093690736
:1024400080E090E0A0E0B0E480936A0790936B078F
:10245000A0936C07B0936D0760E070E185E00E9487
:10246000F80C6FE979E380E00E94F80C02E717E0CE
:10247000A12CB12CC12CD12C5CEA252E52E0352E9A
:102480006BEC862E67E0962E7BE8672E772473949C
:1024900096012B5A384F2901D90114969C91149713
:1024A00012968C91F501EB5AF84F7F01818F928F34
:1024B00061E00E94341161E0D7015A968C910E942C
:1024C0003411F20190858681D8018C93F701968FA3
:1024D00061E00E94341160E0D7015E968C910E9409
:1024E000341161E0F80180810E94E610FFB6F89493
:1024F0008091D502811126C0F1018491E2EFF2E0D2
:102500009491E82FF0E0EE0FFF1FE75DFD4FA591DE
:10251000B4918C91982321F461E085E30E94E61048
:1025200061E085E30E9434118CB580618CBD8CB56F
:1025300080648CBD61E084E30E94341161E083E338
:102540000E9434118091D5028F5F8093D502FFBE27
:10255000C4010197F1F760E0D8018C910E94E61068
:1025600088E80E94480C83E00E94480C61E0F80172
:1025700080810E94E610C4010197F1F760E0D80164
:102580008C910E94E61088E90E94480C80E00E942D
:10259000480C80E00E94480C80E00E94480C80E0DB
:1025A0000E94480C61E0F80180810E94E610C3019E
:1025B0000197F1F760E0D8018C910E94E61080EE5F
:1025C0000E94480C61E0F80180810E94E610F2E070
:1025D000AF0EB11C0E5F1F4FCA94CD2821F0CC2442
:1025E000C394D12C55CF0AE717E024E0F22EF00E69
:1025F00060E0D8018D918D010E943411F012F8CF66
:10260000F9E8EF2EF7E0FF2E06E817E0A5E0AA2E86
:10261000BCE0CB2E82E0982E92E0B92EB00EF801ED
:102620003897D080F80180818C3008F046C061E096
:102630008D2D0E943411D8018C91A89EF001112497
:10264000E95FF94F9D2D9F732081207CD22ED92ADE
:10265000D082138214826C2D0E94731ABCE08B9F6F
:10266000A001112420E030E0B901640F751FA69E7F
:10267000F001A79EF00D1124E95FF94F908196FDBE
:1026800012C02F5F3F4F2C30310571F781110BC005
:102690001092800090928100109285001092840028
:1026A00096BA90926F00D801EC91AE9EF001112481
:1026B000E95FF94F808180648083F80132979081CF
:1026C00032978081F70131978083F701908360E032
:1026D0000E94341161E0D7018C910E94341160E0B6
:1026E000F70180810E94E6100F5F1F4FF2E0EF0EAE
:1026F000F11CB01294CFF8941092200109E00093DD
:10270000210180E293E090932901809328011092A7
:1027100025011092240112E0109373007894109315
:102720003505109239058091360560E00E9434111C
:1027300040E050E0BA018EE697E00E94870A40E050
:1027400050E060E070E880E797E00E94870A0E940E
:10275000C20C8AE792E00E94EA0C61E082E30E94E8
:10276000341160E082E30E94E61061E083E30E949E
:10277000341160E083E30E94E61061E084E30E948C
:10278000341160E084E30E94E61060E085E20E947C
:10279000341161E08AE00E94341161E08AE00E9415
:1027A000E61061E08CE00E94341160E08CE00E9451
:1027B000E61061E08BE00E94341160E08BE00E9443
:1027C000E61061E08FE10E94341161E08BE10E942C
:1027D000341161E088E10E94341161E087E10E94D8
:1027E000341161E086E10E94341161E08EE10E94C3
:1027F000341161E089E10E94341161E080E20E94BD
:10280000341161E08DE10E94341161E08CE10E949D
:10281000341161E08AE10E94341161E081E20E949A
:10282000341161E088E00E94341161E080E20E948E
:10283000E61061E08DE10E94E61061E08CE10E940B
:10284000E61061E08AE10E94E61061E081E20E9408
:10285000E6100E945C0480E892E00E94EA0C4FEFD0
:1028600050E060E070E080E090E00E94FD0361E0F5
:10287000809165060E94341110922D0310922C0352
:1028800010924F0310924E030E94161161E070E007
:1028900080E090E00E94360200936706009368068D
:1028A0001093690685E080936A0666E089E00E94DD
:1028B000D50D8091680667E08F700E94D50D8091DC
:1028C000690668E08F700E94D50D80916A0669E004
:1028D0008F700E94D50D80E098E090936C068093F5
:1028E0006B0690936E0680936D06909370068093AE
:1028F0006F0690937206809371066AE080E00E94F2
:10290000D50D80916B0690916C069F716BE0892FBD
:102910000E94D50D6EE080916F060E94D50D8091CA
:102920006F06909170069F716FE0892F0E94D50D00
:102930006CE080916D060E94D50D80916D0690919E
:102940006E069F716DE0892F0E94D50D60E1809128
:1029500071060E94D50D80917106909172069F714B
:1029600061E1892F0E94D50D61E0809165060E948A
:10297000E61062E070E080E090E00E943602E12C18
:10298000F12CC12CE0E1DE2E86010E191F0917FF84
:1029900002C00F5F1F4F159507950E0D1F1D0E15D9
:1029A0001F0509F43FC0B8018AE090E00E94F90DCC
:1029B000B8018CE090E00E94F90DB8018EE090E043
:1029C0000E94F90D0E94EF0D80E40E94C20D97FD58
:1029D00005C080E40E94C20D5C0102C0A12CB12C94
:1029E00082E40E94C20D8A159B0524F082E40E94B5
:1029F000C20D5C0184E40E94C20D8A159B0524F07F
:102A000084E40E94C20D5C0129EEA21623E0B20606
:102A10003CF438EEA31633E0B30621F07801B4CFCE
:102A20006801B2CFE12CF12CC12C90E1D92E8601A6
:102A30000E191F0917FF02C00F5F1F4F159507954D
:102A40000E0D1F1D0E151F05A9F0B80180E190E0C5
:102A50000E94F90D0E94EF0D86E40E94C20D893E8E
:102A600043E094072CF4883E934021F07801DFCFB7
:102A70006801DDCF88E8282E83E1382E812C912C47
:102A8000A12CB12C612C712C66E0862D0E94D50DF5
:102A900067E08A2D0E94D50D68E0882D0E94D50D33
:102AA0008AE00E94C20D8C01BC018AE090E00E9485
:102AB000F90DB8018CE090E00E94F90DB8018EE0AC
:102AC00090E00E94F90D54E0452E512CC12CD12CE0
:102AD00000E010E0E12CF12C0E94EF0D80E40E9458
:102AE000C20DE80EF91E82E40E94C20D080F191FE4
:102AF00084E40E94C20DC80ED91E81E0481A510814
:102B000059F7F7FE03C093E0E90EF11CF594E79442
:102B1000F594E79417FF02C00D5F1F4F15950795B9
:102B200015950795D7FE03C0A3E0CA0ED11CD59416
:102B3000C794D594C7943E2D2F2DE016F10614F4BA
:102B4000302F212F832F922F97FF02C080E090E03B
:102B50008C159D050CF4C6015E2D4F2D0E151F051D
:102B600014F4502F412F252F342F2130B0E13B0793
:102B700014F020E030E1C216D3060CF49601FC01FB
:102B8000E21BF30B9F012E163F0611F18E159F05D8
:102B900041F4FFE06F16710424F44FEF641A740AD5
:102BA00015C08017910741F45FE0A516B10424F425
:102BB0008FEFA81AB80A0AC08C159D0539F49FE05A
:102BC000891691041CF4AFEF8A1A9A0A19015CCF96
:102BD0008AE892E00E94EA0C0E945C048CE892E091
:102BE0000E94EA0C15E08AE596E00E9495098FE4C0
:102BF00096E00E94950984E496E00E94950985E894
:102C000092E00E94EA0CEFE0F2E0DE011196812FE3
:102C100001900D928A95E1F78091C802805D8983C9
:102C20008091C602805D8B838091C402805D8D831C
:102C3000CE0101960E942D040E94B206D4CFCF92FD
:102C4000DF92EF92FF920F931F93CF93DF93FC01DC
:102C5000EB016081718166507109DB018D919C915E
:102C6000DC01AE0FBF1F1A968D919C911B97892B8B
:102C700009F484C0822FDB010D911C91D801AE0FA5
:102C8000BF1F1C969C91891748F4DE01A80FB11D47
:102C9000A80FB11D1D921C92840FEDCF50E08281D0
:102CA000581708F046C0322FA081B18116978D9138
:102CB0009C918E0F9F1FDC011C966C913617B8F506
:102CC000032F10E0DC011A968D919C911B97800FC9
:102CD000911FDC018C91863308F0865390917B0024
:102CE000682F6870977F962B90937B008770806425
:102CF00080937C0080917A00806480937A00809138
:102D00007A0086FDFCCF809178006091790090E098
:102D1000962BD801AA0FBB1FAC0FBD1F6D917C91E4
:102D20001197860F971F8D939C93340FBDCF5F5FD4
:102D3000B6CFE080F180B6E0EB1AF108D7018D91B3
:102D40009C91DC01AE0FBF1F1C968C912817B0F42C
:102D50008E01020F111D020F111D628170E06B01C7
:102D6000D594C794D8018D919C918C0D9D1D0E9486
:102D70007F1AD8016D937C93240FE0CFDF91CF9120
:102D80001F910F91FF90EF90DF90CF900895DC019D
:102D9000ED91FC913E970190F081E02D8E0F9F1FE9
:102DA0000C941F1682E592E0909378068093770644
:102DB00082E492E090937B0680937A068091840669
:102DC00090918506009711F00E946B1B80917E0602
:102DD00090917F06009711F00E946B1B80918206F4
:102DE00090918306009711F00E946B1B80917C06E6
:102DF00090917D06009711F00E946B1B80918006D8
:102E000090918106009711F00E946B1B80918C06B7
:102E100090918D060C946B1B0F931092550310929A
:102E2000540388EE93E0A0E0B0E0809356039093C3
:102E30005703A0935803B09359032EE132E0309327
:102E40005303209352031092610310926003809306
:102E5000620390936303A0936403B093650320E33C
:102E600032E030935F0320935E0345E351E05093DB
:102E70006B0340936A0344E351E050936D03409326
:102E80006C0340E351E050936F0340936E0341E3C2
:102E900051E0509371034093700342E351E050932B
:102EA00073034093720346E351E0509375034093DC
:102EB00074031092770310927803109279031092A2
:102EC0007A031092FE031092FD038093FF03909308
:102ED0000004A0930104B09302043093FC032093F8
:102EE000FB0345ED50E0509308044093070444ED84
:102EF00050E050930A044093090440ED50E0509391
:102F00000C0440930B0441ED50E050930E044093A9
:102F10000D0442ED50E05093100440930F0446ED31
:102F200050E0509312044093110410921404109234
:102F30001504109216041092170410929B0410921C
:102F40009A0480939C0490939D04A0939E04B09354
:102F50009F04309399042093980485EC90E090931B
:102F6000A5048093A40484EC90E09093A70480933C
:102F7000A60480EC90E09093A9048093A80481ECCF
:102F800090E09093AB048093AA0482EC90E090933D
:102F9000AD048093AC0486EC90E09093AF048093F2
:102FA000AE041092B1041092B2041092B3041092C5
:102FB000B40486E38093760787E38093770788E3FA
:102FC0008093780789E3809379078BE180937A0770
:102FD0008DE180937B078AE180937C078CE180936D
:102FE0007D0784E080937E0787E080937F071092BF
:102FF000800784EB8093810786E18093820788E1D4
:103000008093830787E18093840789E18093850714
:10301000E0914306EC3020F08FEF8093860710C0DC
:1030200081E08E0F80934306E093860725E0E29FC0
:10303000F0011124E95FF94F88EB9BE092838183D3
:10304000E0914306EC3020F08FEF8093870710C0AB
:1030500081E08E0F80934306E093870785E0E89F29
:10306000F0011124E95FF94F88EB9BE092838183A3
:103070008CE08093550784E28093560786E0809326
:10308000570785E0809358078FE1809359078EE1B9
:1030900080935A0783E280935B0782E280935C0708
:1030A00085E480935D0784E480935E0780E48093E9
:1030B00061071092660710926707109268071092D6
:1030C000690710926A0710926B0710926C071092B2
:1030D0006D07E7E9F6E08FEF9FEFDC0112821382C4
:1030E0001482158216821782108611868387948730
:1030F000A587B6878787908BA18BB28B12861182AA
:103100001082739627E0E535F20741F78DE090E0F5
:103110000E94D61AFC011382128282E792E0918308
:103120008083118687E2848384E1828784E08387B9
:103130001486F0939406E0939306109295061092ED
:10314000960685E2809336051092380510928D061A
:1031500010928C0610928F0610928E061092910695
:103160001092900661E070E080E090E00E94031C05
:10317000009791F090938D0680938C0610928F06A5
:1031800010928E062091900630919106232B09F023
:103190009DC0FC0110829AC080918C0690918D0692
:1031A000009711F00E946B1B10928D0610928C06F6
:1031B000109291061092900610928F0610928E0631
:1031C00010927D0610927C0610927F0610927E0669
:1031D0001092810610928006109283061092820649
:1031E000109285061092840682E592E0909378060C
:1031F0008093770684E692E090937B0680937A062C
:1032000002E024E048E061E072E087E796E00E9497
:10321000DA078AE290E0909366068093650681E083
:1032200080935A0610925B0610925C0610925D061F
:1032300010925E0642E350E060E070E040935F066B
:1032400050936006609361067093620625E834E04F
:10325000309364062093630680934F0610925006C5
:1032600010925106109252061092530644EF51E00C
:1032700060E070E040935406509355066093560604
:103280007093570627EB34E0309359062093580685
:103290008093440610924506109246061092470607
:1032A0001092480684E690E0A0E0B0E080934906E2
:1032B00090934A06A0934B06B0934C0680EB93E0A4
:1032C00090934E0680934D060F91089510929106AB
:1032D0001092900662EC72E00E94FA1C71CF990F76
:1032E0000008550FAA0BE0E8FEEF16161706E807D0
:1032F000F907C0F012161306E407F50798F0621BF1
:10330000730B840B950B39F40A2661F0232B242BC5
:10331000252B21F408950A2609F4A140A6958FEFE4
:10332000811D811D08950E94A6190C94171A0E94F0
:10333000091A38F00E94101A20F0952311F00C940D
:10334000001A0C94061A11240C944B1A0E94281A85
:1033500070F3959FC1F3950F50E0551F629FF001E8
:10336000729FBB27F00DB11D639FAA27F00DB11D01
:10337000AA1F649F6627B00DA11D661F829F22278A
:10338000B00DA11D621F739FB00DA11D621F839F11
:10339000A00D611D221F749F3327A00D611D231FE7
:1033A000849F600D211D822F762F6A2F11249F5735
:1033B00050409AF0F1F088234AF0EE0FFF1FBB1F38
:1033C000661F771F881F91505040A9F79E3F5105F7
:1033D00080F00C94001A0C944B1A5F3FE4F3983E73
:1033E000D4F3869577956795B795F795E7959F5FA1
:1033F000C1F7FE2B880F911D9695879597F9089533
:1034000097F99F6780E870E060E008959FEF80EC97
:10341000089500240A94161617061806090608953A
:1034200000240A9412161306140605060895092EA0
:103430000394000C11F4882352F0BB0F40F4BF2B0F
:1034400011F460FF04C06F5F7F4F8F4F9F4F08954F
:1034500057FD9058440F551F59F05F3F71F0479545
:10346000880F97FB991F61F09F3F79F0879508952A
:10347000121613061406551FF2CF4695F1DF08C049
:10348000161617061806991FF1CF86957105610566
:1034900008940895E894BB2766277727CB0197F90E
:1034A0000895A1E21A2EAA1BBB1BFD010DC0AA1F85
:1034B000BB1FEE1FFF1FA217B307E407F50720F09D
:1034C000A21BB30BE40BF50B661F771F881F991F18
:1034D0001A9469F760957095809590959B01AC0161
:1034E000BD01CF010895991B79E004C0991F96177B
:1034F00008F0961B881F7A95C9F780950895AA1B36
:10350000BB1B51E107C0AA1FBB1FA617B70710F0CE
:10351000A61BB70B881F991F5A95A9F78095909500
:10352000BC01CD010895EE0FFF1F881F8BBF0790D0
:10353000F691E02D19940E94A21A6894B1110C948E
:103540004B1A08950E94301A88F09F5798F0B92FAF
:103550009927B751B0F0E1F0660F771F881F991FC8
:103560001AF0BA95C9F714C0B13091F00E944A1A06
:10357000B1E008950C944A1A672F782F8827B85F16
:1035800039F0B93FCCF3869577956795B395D9F720
:103590003EF490958095709561957F4F8F4F9F4F2A
:1035A00008950E946F1908F48FEF0895CF93DF9369
:1035B0008230910510F482E090E0E091F707F091FD
:1035C000F80720E030E0C0E0D0E0309711F1408112
:1035D000518148175907C0F04817590761F4828193
:1035E0009381209719F09B838A832BC09093F807CF
:1035F0008093F70726C02115310519F042175307AC
:1036000018F49A01BE01DF01EF010280F381E02D81
:10361000DCCF2115310509F1281B390B2430310588
:1036200090F412968D919C9113976115710521F07C
:10363000FB019383828304C09093F8078093F7077C
:10364000FD01329644C0FD01E20FF31F8193919377
:10365000225031092D933C933AC02091F5073091C7
:10366000F607232B41F420910B0230910C0230938A
:10367000F6072093F5072091090230910A022115DF
:10368000310541F42DB73EB740910D0250910E0225
:10369000241B350BE091F507F091F607E217F307CD
:1036A000A0F42E1B3F0B2817390778F0AC014E5FB2
:1036B0005F4F2417350748F04E0F5F1F5093F607F2
:1036C0004093F5078193919302C0E0E0F0E0CF01D1
:1036D000DF91CF9108950F931F93CF93DF930097BE
:1036E00009F48CC0FC013297138212820091F70713
:1036F0001091F8070115110581F420813181820FA5
:10370000931F2091F5073091F6072817390779F5AF
:10371000F093F607E093F50771C0D80140E050E060
:10372000AE17BF0750F412962D913C911397AD013F
:103730002115310509F1D901F3CF9D01DA01338358
:10374000228360817181860F971F8217930769F426
:10375000EC0128813981260F371F2E5F3F4F3183BF
:1037600020838A819B8193838283452B29F4F09364
:10377000F807E093F70742C01396FC93EE93129775
:10378000ED01499159919E01240F351FE217F3076E
:1037900071F480819181840F951F029611969C93FC
:1037A0008E938281938113969C938E931297E0E07F
:1037B000F0E0D80112968D919C911397009719F023
:1037C000F8018C01F6CF8D919C9198012E5F3F4FAF
:1037D000820F931F2091F5073091F60728173907BC
:1037E00069F4309729F41092F8071092F70702C095
:1037F000138212821093F6070093F507DF91CF91A1
:103800001F910F9108956F927F928F929F92AF9226
:10381000BF92CF92DF92EF92FF920F931F93CF93BD
:10382000DF93EC01009789F4CB01DF91CF911F91D9
:103830000F91FF90EF90DF90CF90BF90AF909F904F
:103840008F907F906F900C94D61AFC01E60FF71FB3
:103850009C0122503109E217F30708F4ACC0D901EA
:103860000D911C91119706171707B0F0053011053F
:1038700008F49FC0C80104978617970708F499C0F9
:1038800002501109061B170B019311936D937C9342
:10389000CF010E946B1B8DC05B01A01AB10A4C01C5
:1038A000800E911EA091F707B091F80740E050E01C
:1038B000E12CF12C109709F44AC0A815B905D1F5EF
:1038C0006D907C901197630182E0C80ED11CCA14E0
:1038D000DB0480F1A3014A195B096A0182E0C80E8A
:1038E000D11C1296BC9012971396AC91B5E0CB16F2
:1038F000D10440F0B282A38351834083D9016D93F8
:103900007C930AC00E5F1F4FC301800F911FF90106
:1039100091838083EB2DFA2FE114F10431F0D7016C
:103920001396FC93EE93129744C0F093F807E0933C
:10393000F7073FC08D919C9111974817590708F4DC
:10394000AC017D0112960D90BC91A02DB3CF80915A
:10395000F5079091F60788159905E1F44617570782
:10396000C8F48091090290910A02009741F48DB742
:103970009EB740910D0250910E02841B950BE817E3
:10398000F907C8F4F093F607E093F507F90171839E
:1039900060830FC0CB010E94D61A7C01009759F0BA
:1039A000A801BE010E94F11CCE010E946B1BC70141
:1039B00004C0CE0102C080E090E0DF91CF911F9162
:1039C0000F91FF90EF90DF90CF90BF90AF909F90BE
:1039D0008F907F906F90089581E090E0F8940C9420
:1039E000011DFB01DC0102C001900D9241505040CD
:1039F000D8F70895FB01DC0101900D920020E1F75A
:103A0000089511E0C6EAD1E000E006C0802FFE0173
:103A10000E94931A2196011DC73AD10780E008073A
:063A2000A9F7F894FFCFA6
:103A2600FF030405060708090A0000F90720002B12
:103A36002B2B2B2B00201D1C1A21000000009F0E93
:103A46006F0E6007430E670E530E440E0000000013
:103A56002C09FF01610673099206700684060000B0
:103A66000000DF06780763078D072A0203000000BF
:103A76000000DA071F16FDFF00000000000000002E
:103A8600FDFF0000DF06780763078D07C7160000F5
:103A960000002508FF0160075F07737461727400F8
:103AA60074657374006C6F6F700031003200626F62
:103AB600756765720073746F700053746F702B00B6
:103AC600626F75746F6E00636F756C6575720072E8
:103AD6006F754765004A61756E6500426C655500F5
:043AE6000D0A0000C5
:00000001FF
