:100000000C9432020C9463020C9463020C9463020D
:100010000C9463020C9463020C9463020C946302CC
:100020000C9463020C9454150C9454150C945415B0
:100030000C9463020C94B1020C9463020C9463025E
:100040000C9463020C944B0C0C9463020C946302AA
:100050000C9463020C9463020C9463020C94670288
:100060000C9463020C94A0130C9476130C9463020A
:100070000C9463020C9463020C9463020C9463026C
:100080000C9463020C9463020C9463020C9463025C
:100090000C9463020C9463020C9463020C945E153E
:1000A0000C9463020C9463020C9463020C9463023C
:1000B0000C9463020C9463020C9463020C94DE09AA
:1000C0000C9463020C9463020C9463020C944C1322
:1000D0000C9422130C9463020C94F8120C94CE121C
:1000E0000C94630222052F0532053D054A054D0596
:1000F00056055905600565057005700570057005A4
:10010000700570057005F3046005A6042205AE04B1
:10011000B104560514052F05BE041405C704D50403
:10012000D5042205E3046505F3044D05FD0411051E
:100130001105110514051D053205700570057005C2
:10014000700570057005F3049704A604A904AE04B5
:10015000B104B604B9042F05BE041405C704CE04C7
:10016000CE04DC04E3046505EA044D05F604060547
:100170000605060514051D053205FC0A010B060BD4
:10018000100B1A0B930B240B2C0B340B3E0B480B50
:10019000520B610B6B0B930B750B7F0B890BD214FE
:1001A000D514C414C814CE140C15D914DD14E314DA
:1001B000E714EB14F114F514F9140C15FF140315DE
:1001C00007150C94FF140C94BA0D0C941D050C9497
:1001D000F6040C94CE140C942D140C94CE040C94B0
:1001E00032050C94B1040C94FA0E0C94B9090C94D9
:1001F000010B0C9456050C943E0D0C948B090C9439
:10020000E0050C9458140C9497040C94610D0C9414
:10021000BE040C947F0B0C9411050C9465050C9492
:100220003C140C94100B0C9459050C94010E0C9476
:10023000E3040C943B200C94750B0C94D00E0C949E
:10024000930B0C943D050C94F3040C94E3140C9460
:10025000520B0C94931F0C942C140C94E50E0C94DC
:10026000340B0C94470F0C94A9040C944D0D0C9472
:10027000EB140C94DC040C9450140C9406050C94B0
:10028000D9140C946B0B0C94B6040C9422050C94AA
:1002900088140C94C8140C94890B0C94EC1C0C94CA
:1002A00007150C94C4140C94C7040C94610B0C94A3
:1002B000FA0C0C94FD040C94D2140C94EA040C94E3
:1002C0004A050C946F0D0C943E0B0C94591F0C9422
:1002D00070050C942F050C94FC0A0C943E070C94AA
:1002E000E7140C941A0B0C94500E0C94A6040C9466
:1002F0002C0B0C94D5040C9414050C94B9040C9498
:1003000003150C948C090C944D050C94480B0C941B
:10031000DD140C94240B0C9465020C94F9140C94C9
:10032000D5140C94AE040C94060B0C9460050C943C
:100330000C150C94F1140C94F5140C94B50B0200EC
:10034000002100240027002A002D00300033000186
:10035000010000040107010A010000220025002815
:10036000002B002E003100340002010000050108BE
:10037000010B01000020002300260029002C002F83
:100380000032000001000003010601090105050516
:1003900005070508080808020202020A0A080804FC
:1003A000040404010101010101010103030303032A
:1003B000030303040707070C0C0C0C0C0C0C0C02B9
:1003C00002020206060606060606060B0B0B0B0BC0
:1003D0000B0B0B01021020200808102040102040B9
:1003E00080020102010804020101020408102040F9
:1003F0008080402010080402018004020180402017
:10040000100804020108040201010204081020403F
:1004100080010204081020408000000A0B02090C31
:100420000D0E08070304010000000000000000009A
:1004300000000000000000000000000000000000BC
:100440000000000000121110000000000000000079
:10045000000000000000000000000000000000009C
:10046000EC1C591F11241FBECFEFD1E2DEBFCDBF60
:1004700000E00CBF12E0A0E0B2E0E6E4F8E400E047
:100480000BBF02C007900D92AC3FB107D9F728E02F
:10049000ACEFB2E001C01D92A134B207E1F712E067
:1004A000C1E3D2E000E006C021970109802FFE01E0
:1004B0000E94A321C033D10780E00807A9F70E945A
:1004C000E6170C9411240C9400000E94FC231F9248
:1004D0000F920FB60F9211242F933F938F939F93F8
:1004E000AF93BF938091CC079091CD07A091CE0799
:1004F000B091CF0730910A0323E0230F2D3720F46A
:100500000196A11DB11D05C026E8230F0296A11D6D
:10051000B11D20930A038093CC079093CD07A0933D
:10052000CE07B093CF078091D0079091D107A091CB
:10053000D207B091D3070196A11DB11D8093D007BA
:100540009093D107A093D207B093D307BF91AF91F7
:100550009F918F913F912F910F900FBE0F901F9001
:1005600018951F920F920FB60F9211240BB60F928F
:100570002F933F934F935F936F937F938F939F93AB
:10058000AF93BF93EF93FF938091FF02909100038D
:10059000A0910103B0910203892B8A2B8B2B59F177
:1005A0008091FE02E091FC02F091FD02908189278A
:1005B00080838091FF0290910003A0910103B0918C
:1005C0000203181619061A061B060CF056C0809175
:1005D000FF0290910003A0910103B09102030197E3
:1005E000A109B1098093FF0290930003A093010336
:1005F000B093020342C080910002EEE3F3E0E49185
:100600009FEF90930002E230C9F050F4EE2399F08E
:10061000E13081F590916F009D7F90936F002AC02B
:10062000E43019F1E0F0E53029F5909173009D7FF9
:10063000909373001FC010926E001CC090917000C8
:100640009D7F9093700091E09093B0009091B100E5
:10065000987F94609093B1001092B3000BC090917A
:1006600071009D7F9093710005C0909172009D7FF5
:100670009093720060E00E941617FF91EF91BF9176
:10068000AF919F918F917F916F915F914F913F912A
:100690002F910F900BBE0F900FBE0F901F901895CB
:1006A000E0E0F0E019942F923F924F925F926F92A8
:1006B0007F928F929F92AF92BF92CF92DF92EF92F2
:1006C000FF920F931F93CF93DF93CDB7DEB764975D
:1006D0000FB6F894DEBF0FBECDBFCE0101967C01F0
:1006E0002E0195E1490E511CF70111921192E4156A
:1006F000F505D9F7870185E0282E312C88248394CD
:10070000912C2AE0622E712C0E94321580E40E9406
:100710005E096C010E94321582E40E945E095C0150
:100720000E94321584E40E945E09AC14BD045CF49E
:100730008A159B05D4F48F35E1E09E07B4F0F801EB
:100740009182808212C0CA14DB047CF48C159D0552
:1007500064F48F35F1E09F0744F021E9C21621E0EF
:10076000D2061CF0F801318220828A159B0554F4D0
:10077000C816D90654F48F3591403CF0F8017182C7
:10078000608203C0F801118210820E5F1F4F0415B2
:10079000150509F0B9CF80E090E0F7012191319182
:1007A0007F01820F931FE415F505B9F78D3291058E
:1007B000C1F04CF488309105D4F08B309105D4F021
:1007C000889779F014C08035910571F01CF4C297B8
:1007D00041F00DC08A35910539F08436910521F03C
:1007E00006C022E030E008C023E030E005C020E091
:1007F00030E002C021E030E080910B0390910C03C7
:100800002817390731F030930C0320930B0380E055
:1008100090E064960FB6F894DEBF0FBECDBFDF91B7
:10082000CF911F910F91FF90EF90DF90CF90BF90ED
:10083000AF909F908F907F906F905F904F903F9080
:100840002F900895EF92FF920F931F93CF93DF9312
:100850007C018B01EA01682F8FE20E941617B70115
:10086000FF0C880B990B0E94CB08602F80E30E943D
:100870001617B801110F880B990B0E94CB086C2F2B
:1008800081E30E941617BE01DD0F880B990B0E94B1
:10089000CB0887E992E0DF91CF911F910F91FF90F4
:1008A000EF900C94820740E050E060E070E081E05F
:1008B00090E00E94220440E050E0BA018AE797E00D
:1008C0000E949C0A40E050E060E070E88CE797E00E
:1008D0000C949C0AAF92BF92CF92DF92EF92FF925C
:1008E0000F931F93CF93DF93CDB7DEB72F970FB63C
:1008F000F894DEBF0FBECDBF6C0185E1E82E82E02B
:10090000F82E01E010E0D601ED916D014E2FEE0FB3
:10091000550B660B770BFA01F097EB34F10508F0F5
:10092000DFC08827EE58FF4F8F4F0C94A3211A8207
:1009300019821C821B821E830D8318870F831A87DE
:1009400009871C870B871E870D87D8C01A830983E8
:1009500020C01A8219821C830B8332C01A83098338
:1009600047C01A8309831C821B8231C01A83098302
:1009700066C01A8219821C821B825AC01A8219828E
:100980001C830B831E830D8318870F83B1C01A82CB
:1009900019821C821B821E821D825AC01A821982F1
:1009A0001C821B821E830D831BC01A8309831C8338
:1009B0000B831E830D8327C01A8219821C821B821F
:1009C0001E830D8355C01A8309831C830B831E82EB
:1009D0001D8230C01A8219821C821B821E821D82D7
:1009E00018861F8247C01A83098320C01A82198281
:1009F0001C821B821E821D82A0CF1A8309831C8247
:100A00001B821E821D8218861F8224C01A821982B0
:100A10001C821B821E830D8318870F831A87098708
:100A200069C01A82198210C01A8219821C830B8332
:100A30001E830D8318861F8282CF1A8219821C831F
:100A40000B832FC01A8309831C830B831E830D83A2
:100A500018870F831A8709871C870B874DC01A8256
:100A6000198229C01A8309831C830B831E821D826D
:100A700018870F831A8709870AC01A8309831C8382
:100A80000B831E830D8318870F831A8619861C8695
:100A90001B8659CF1A8219821AC01A8309831C82B5
:100AA0001B821E830D8318870F8317C01A83098347
:100AB00040CF1A8309831C830B831E830D8316C0CA
:100AC0001A8309831C830B8336CF1A8309831C8303
:100AD0000B831E830D8318861F821A86198631CFD9
:100AE0001A8219821C821B821E821D8218861F8216
:100AF0001A8619861C861B861E861D86F701B190F4
:100B00007F0161E08DE10E94161761E080E20E94A2
:100B1000161761E085E20E94161761E086E20E94E6
:100B2000161761E087E20E94161760E08B2D0E9485
:100B30001617CE0101965C0196E1D5016C91B2E0E9
:100B4000AB0EB11C892F9F870E9416179F859F5F50
:100B50009D3199F761E070E080E090E00E94A0177D
:100B6000EAE1EE16E2E0FE0609F0CDCE61E087E2B2
:100B70002F960FB6F894DEBF0FBECDBFDF91CF9199
:100B80001F910F91FF90EF90DF90CF90BF90AF90AB
:100B90000C941617CF93DF93EC010E9453048EE25E
:100BA0000E94ED16892B21F4CE010E946A04F7CF32
:100BB00068EE73E080E090E0DF91CF910C94A01795
:100BC0000F931F93CF93DF938AE992E00E949407DB
:100BD00061E080916D060E9416170E945303EC019C
:100BE000892B09F4FEC00E94530460E080916D06D9
:100BF0000E94161741E050E061E070E081E090E073
:100C00000E94220412E882E696E00E94CA13612F35
:100C100081E00E94EC0767E070E080E090E00E94D5
:100C2000A01711501C3379F764E670E080E090E083
:100C30000E94A017C230D10541F0C330D10539F070
:100C4000C130D10529F40AE503C000E001C004EB7E
:100C5000602F80E00E94EC0768EC70E080E090E09C
:100C60000E94A0170E94DA1760937F067093800697
:100C7000809381069093820664E872E080E090E0C1
:100C80000E94CB0887E992E00E94820761E08CE035
:100C90000E94161760E08AE00E94161703E812E02F
:100CA00082E696E00E94CA1361E08BE00E9416176C
:100CB00061E070E080E090E00E94A01760E08BE0CF
:100CC0000E94161761E070E080E090E00E94A0179B
:100CD0000150110929F764E681E00E94EC0764EFF6
:100CE00071E080E090E00E94A01762E881E00E943D
:100CF000EC070E94DA1760937F067093800680935A
:100D000081069093820664E872E080E090E00E94A1
:100D1000CB0887E992E00E94820760E08CE00E94A5
:100D2000161703E812E082E696E00E94CA1361E01B
:100D30008BE00E94161761E070E080E090E00E9476
:100D4000A01760E08BE00E94161761E070E080E081
:100D500090E00E94A0170150110929F761E08AE094
:100D60000E941617C230D10579F0C330D105B1F019
:100D70002197E9F4809107039091080301969093DD
:100D800008038093070313C0809105039091060325
:100D90000196909306038093050309C08091030395
:100DA0009091040301969093040380930303809130
:100DB00007039091080304975CF5809105039091D7
:100DC00006030497BCF480910303909104030497F5
:100DD000C4F440E050E061E070E080E090E00E9408
:100DE000220460E080916D06DF91CF911F910F91F9
:100DF0000C941617109206031092050386E892E0F1
:100E00000DC0109204031092030382EA92E006C020
:100E1000109208031092070387EA92E00E94CA0525
:100E2000D8CF8DEA92E00E94940740E050E060E065
:100E300070E081E090E00E9422048EE20E94ED16B4
:100E4000892B29F482EB92E00E946A04F6CF88EBAA
:100E500092E00E9494078EE20E94ED160197D9F36A
:100E600062E370E080E090E00E94A01740E050E074
:100E700061E070E080E090E00C9422048EEB92E060
:100E80000E9494078EE20E94ED16019779F40E9469
:100E900053048EE20E94ED160197D9F362E370E0ED
:100EA00080E090E00E94A0170E94110760E08FE2AE
:100EB0000C941617E0EAF4E0A089B18982E08C93E3
:100EC000A485B5851C92A685B7858FEC8C93108E72
:100ED000A489B58986E08C93A289B3898C918061BD
:100EE0008C93A289B3898C9188608C93A289B389F1
:100EF0008C9180688C930288F389E02D80818F7DAE
:100F000080830895009769F0FC0101900020E9F7C3
:100F10003197AF01481B590BBC0180EA94E00C9457
:100F2000FA0C80E090E00895CF93DF930E9482074F
:100F3000EC0187E992E00E9482078C0F9D1FDF91F0
:100F4000CF910895EF92FF921F93CF93DF931F925B
:100F5000CDB7DEB7162F91E6E92E97E0F92ED7012F
:100F60001C969C911C9721E0209359039093580361
:100F700010925703109256031A960D90BC91A02D13
:100F8000ED91FC9111970190F081E02D682FCD013A
:100F900079831995F70182859385DC01ED91FC91A8
:100FA0000190F081E02D7981672F1995F7018285F5
:100FB0009385DC01ED91FC910190F081E02D612F92
:100FC0001995F701828593850F90DF91CF911F913D
:100FD000FF90EF900C949016CF92DF92EF92FF92D9
:100FE000CF93DF93823018F085EC92E00AC09091A5
:100FF0008C07691720F090918D07961750F487EDB4
:1010000092E0DF91CF91FF90EF90DF90CF900C9422
:101010009407E82FF0E0EE57F84FC089CC3008F085
:1010200072C0262F30E0D0E085E08C9FF0018D9FCC
:10103000F00D1124E15FF94F8381283C31059CF5C7
:1010400028E830E06901C81AD10887FDD394CC0C98
:10105000DD1CCC0CDD1C0D2C000CEE08FF0884817F
:1010600028E532E0281B310987FD3395220F331F15
:10107000220F331FC901330FAA0BBB0B9C01AD011B
:101080002C193D094E095F09A62FB0E00E944721A7
:1010900024EB30E040E050E00E942821C20ED31E35
:1010A000E41EF51E1EC048E850E06A01C81AD108C7
:1010B00087FDD394CC0CDD1CCC0CDD1C2C153D0520
:1010C00084F0448188E592E0841B910947FD939563
:1010D000880F991F880F991F69018C159D050CF4C5
:1010E0006C018FB7F89495E09C9FF0019D9FF00DE7
:1010F0001124E15FF94F96E0C91AD108CC0CDD1C30
:10110000D282C1828FBFDF91CF91FF90EF90DF90AD
:10111000CF9008958F929F92AF92BF920F931F939B
:10112000CF93DF93CDB7DEB7A1970FB6F894DEBFAC
:101130000FBECDBF19A2423008F44AE08E010F5D08
:101140001F4F842E912CA12CB12CA50194010E943B
:101150005221E62FB901CA0101501109EA3014F4F5
:10116000E05D01C0E95CD801EC93232B242B252BF7
:1011700061F7C8010E948207A1960FB6F894DEBFFE
:101180000FBECDBFDF91CF911F910F91BF90AF9058
:101190009F908F900895CF92DF92EF92FF92CF931E
:1011A000DF9397FF21C06B017C01E091A004F091D7
:1011B000A1040190F081E02D6DE280EA94E01995A0
:1011C000EC0166277727CB016C197D098E099F09F1
:1011D0004AE00E948A088C0F9D1FDF91CF91FF90FB
:1011E000EF90DF90CF9008954AE0DF91CF91FF908C
:1011F000EF90DF90CF900C948A0891E09093590380
:1012000094E7909358031092570310925603682F57
:101210008AE593E00E9488148AE593E00E94901684
:10122000809133038111FCCF81E08093330380935D
:1012300032039FEF909331031092300310922F03EB
:1012400080932E0380912E03886E80932E038091CD
:101250002D03813061F410922D0380912E03809331
:10126000BB008091BC0083FDF8CF85EC01C085EE0A
:101270008093BC00809133038130E1F3809130038F
:10128000811103C08091300301C081E0ADE0B3E083
:1012900026E333E0F9019E2F921B981718F49D91D5
:1012A0009193F9CF1092350380933403811101C0DB
:1012B000FFCF8AE593E00E943C140895CF93DF931B
:1012C000C82F0E94FD08D82F81E08C0F0E94FD08D6
:1012D000282F30E0922F88278D0F911DDF91CF911D
:1012E0000895CF93C82F81E08093590384E78093BA
:1012F000580310925703109256038AE593E00E9418
:1013000088146C2F8AE593E00E9488148AE593E0A4
:10131000CF910C949016089580E090E00895FC0120
:10132000248131E0309359032093580310925703DE
:10133000109256038485682B8AE593E00E948814F6
:101340008AE593E00C9490160F931F93CF938C0132
:10135000C62F64600E948F096C2F6B7FC8010E94AA
:101360008F0983EC90E00197F1F7CF911F910F91D6
:1013700008950F931F93CF93DF938C01C62FD62F21
:10138000D07FD1606D2F0E948F096D2FC8010E9400
:10139000A40980E1C89FB0011124C62FC1606C2F41
:1013A000C8010E948F096C2FC8010E94A40981E026
:1013B00090E0DF91CF911F910F9108951F920F92AE
:1013C0000FB60F9211240BB60F922F933F934F93AA
:1013D0005F936F937F938F939F93AF93BF93EF939D
:1013E000FF9380913E050E94ED16209142053091B9
:1013F00043052F5F3F4F3093430520934205909163
:101400004105953618F096E090933D0590913D0585
:101410009430C9F128F4923069F09330D1F05EC075
:10142000953009F451C0963009F058C091E090937E
:101430000E0651C0811152C02091420530914305E2
:101440002436310508F442C010920E061092410570
:101450001CC0813009F042C0E091410591E09E0F2F
:1014600090934105F0E02091420530914305EE0F45
:10147000FF1FE35CFA4F30872783109243051092D9
:10148000420594E029C0811117C0E091410591E027
:101490009E0F90934105F0E0209142053091430565
:1014A000EE0FFF1FE35CFA4F30872783109243054E
:1014B0001092420593E010C02091420530914305FF
:1014C0002536310558F007C0811108C01092430538
:1014D0001092420503C095E090933D059091400520
:1014E0009923B9F081110AC080913F05882321F02A
:1014F00080913F0561E009C02F9A0BC080913F05A4
:10150000882331F080913F0560E00E94161701C0EA
:101510002F98FF91EF91BF91AF919F918F917F9104
:101520006F915F914F913F912F910F900BBE0F9054
:101530000FBE0F901F9018958F929F92AF92BF92FF
:10154000CF92DF92EF92FF920F931F93CF93DF938F
:10155000EC016A017B0120E030E04FE753E4C70172
:10156000B6010E946A204B015C0120E030E0A90135
:101570000E94E12118161CF4C501B40103C0C50185
:10158000B40190580E94AB218B0120E030E0A9010A
:10159000C701B6010E94E121181614F460E001C0F1
:1015A00061E089810E9416170F3F110509F014F4BC
:1015B000112702C00FEF10E0C88161E08C2F0E945C
:1015C00064170115110509F4B1C00F3F110509F4A5
:1015D000AFC0EC2FF0E0E75EFB4FE4914E2F50E000
:1015E000FA013197E231F10508F09DC08827E354F4
:1015F000FF4F8F4F0C94A32184B5806884BD07BD35
:10160000A7C084B5806284BD08BDA2C0809180005F
:10161000806880938000109389000093880098C0B0
:101620008091800080628093800010938B000093F3
:101630008A008EC080918000886080938000109323
:101640008D0000938C0084C08091B00080688093EE
:10165000B0000093B3007CC08091B00080628093A2
:10166000B0000093B40074C08091900080688093B3
:10167000900010939900009398006AC080919000A8
:1016800080628093900010939B0000939A0060C04A
:101690008091900088608093900010939D0000934B
:1016A0009C0056C08091A00080688093A00080912B
:1016B000A0008F7B8093A0001093A9000093A80046
:1016C00047C08091A00080628093A0001093AB007F
:1016D0000093AA003DC08091A00088608093A00084
:1016E0001093AD000093AC0033C08091200180685E
:1016F00080932001109329010093280129C0809133
:10170000200180628093200110932B0100932A0115
:101710001FC08091200188608093200110932D01CB
:1017200000932C0115C00038110514F460E001C0CD
:1017300061E08C2FDF91CF911F910F91FF90EF907F
:10174000DF90CF90BF90AF909F908F900C94161722
:10175000DF91CF911F910F91FF90EF90DF90CF908D
:10176000BF90AF909F908F900895EF92FF920F934C
:101770001F93CF93DF9384EF92E00E94940741E0A0
:1017800068E977E086E896E00E94500E08E917E0E5
:10179000C1E0D0E07801F801619171918F0180E0A2
:1017A00090E04AE00E948A0887E992E00E9482075E
:1017B000F701808191818139914030F42196C930BF
:1017C000D10541F7C0E0D0E0BE010D2E000C880B22
:1017D000990B0E94CB0887E992E00E94820720972C
:1017E00009F443C040E050E060E87EEB8AE797E010
:1017F0000E949C0A40E050E060E87EE38CE797E0BE
:101800000E949C0A64EF71E080E090E00E94A017C3
:1018100025977CF440E050E060E87EE38CE797E0B9
:101820000E949C0A40E050E060E87EE38AE797E08F
:101830000EC040E050E060E87EEB8AE797E00E944F
:101840009C0A40E050E060E87EEB8CE797E00E9465
:101850009C0A64EF71E080E090E0DF91CF911F91EE
:101860000F91FF90EF900C94A01740E050E060E8DB
:101870007EE38AE797E00E949C0A40E050E060E83F
:101880007EEB8CE797E0DF91CF911F910F91FF9056
:10189000EF900C949C0A1F920F920FB60F92112496
:1018A0000BB60F922F933F934F935F936F937F935A
:1018B0008F939F93AF93BF93EF93FF938091A8076C
:1018C00087FF05C0109285001092840016C02091F9
:1018D000A807022E000C330B80914B0690E02817CE
:1018E00039075CF43091A80725E03203F001112498
:1018F000E15FF94F808186FD15C08091A8078F5F59
:101900008093A8072091A807022E000C330B80912A
:101910004B0690E02817390794F48091A8078C3083
:101920002CF10DC03091A8073203F0011124E15FC2
:10193000F94F808160E08F730E941617DECF80918F
:1019400084009091850084349C4918F480E49CE9DB
:1019500005C0809184009091850004969093890041
:10196000809388008FEF8093A8072AC0409184005D
:10197000509185003091A80725E03203F001112431
:10198000E15FF94F81819281840F951F90938900C7
:10199000809388003091A8073203F0011124E15FA1
:1019A000F94F808186FF0CC03091A8073203F00107
:1019B0001124E15FF94F808161E08F730E94161757
:1019C000FF91EF91BF91AF919F918F917F916F9117
:1019D0005F914F913F912F910F900BBE0F900FBED3
:1019E0000F901F9018958EBD00000DB407FEFDCF1F
:1019F0008EB50895CF92DF92EF92FF920F931F93CF
:101A0000CF93DF936C017A018B01C0E0D0E0CE155B
:101A1000DF0589F0D8016D918D01D601ED91FC9122
:101A20000190F081E02DC6011995892B11F47E01FA
:101A300002C02196ECCFC701DF91CF911F910F918A
:101A4000FF90EF90DF90CF900895FC01A089B189BD
:101A50008C91A689B78982FD0FC09C91818D8F5F83
:101A60008F73228D821749F0218DDF01A20FB11DE6
:101A70005D969C93818F08958C910895FC01538D00
:101A8000448D252F30E0842F90E0821B930B541758
:101A900010F0CF96089501970895FC01918D828DE5
:101AA000981761F0828DDF01A80FB11D5D968C91B2
:101AB000928D9F5F9F73928F90E008958FEF9FEFBD
:101AC0000895FC01918D828D981731F0828DE80F79
:101AD000F11D858D90E008958FEF9FEF0895FC0133
:101AE000918D228D892F90E0805C9F4F821B910900
:101AF0008F739927089586E693E00E946F0D21E089
:101B0000892B09F420E0822F089583E094E00E945D
:101B10006F0D21E0892B09F420E0822F089580EADF
:101B200094E00E946F0D21E0892B09F420E0822FC0
:101B30000895FC01848DDF01A80FB11DA35ABF4F8A
:101B40002C91848D90E001968F739927848FA689BC
:101B5000B7892C93A089B1898C9180648C93938DE3
:101B6000848D981306C00288F389E02D80818F7DD3
:101B700080830895EF92FF920F931F93CF93DF938B
:101B8000EC0181E0888F9B8D8C8D981305C0E889CE
:101B9000F989808185FD24C0F62E0B8D10E00F5F42
:101BA0001F4F0F731127E02E8C8DE8120CC00FB65B
:101BB00007FCFACFE889F989808185FFF5CFCE014E
:101BC0000E94990DF1CF8B8DFE01E80FF11DE35AB4
:101BD000FF4FF0820B8FEA89FB898081806207C00A
:101BE000EE89FF896083E889F98980818064808338
:101BF00081E090E0DF91CF911F910F91FF90EF90E6
:101C00000895CF93DF93EC01888D8823C9F0EA898A
:101C1000FB89808185FD05C0A889B9898C9186FDE5
:101C20000FC00FB607FCF5CF808185FFF2CFA889E2
:101C3000B9898C9185FFEDCFCE010E94990DE7CF38
:101C4000DF91CF91089580E090E0892B21F00E94F0
:101C50008F0D811119C080E090E0892B41F080E068
:101C600090E0892B21F00E940000811110C00E9499
:101C7000850D81110FC080E090E0892B81F00E94DA
:101C80007B0D81110AC008950E940000E4CF0E94DC
:101C90000000EDCF0E945003EECF0C940000089599
:101CA000DF92EF92FF920F931F93CF93DF93CDB705
:101CB000DEB7EE970FB6F894DEBF0FBECDBF8C0136
:101CC0007B01D42E8FEF840FD801ED91FC918230EF
:101CD00020F40480F581E02D05C0411105C002808B
:101CE000F381E02DC8011995D801ED91FC91008494
:101CF000F185E02D20E041E0B701C8011995B5E07C
:101D0000DB1609F43FC0D801ED91FC910280F3810C
:101D1000E02DC8011995B2E0DB1234C0D801ED9175
:101D2000FC910084F185E02D20E041E0BE016F5F71
:101D30007F4FC801199540E0D8011C968C91481737
:101D400008F5842F90E0880F991FF701E80FF91F1D
:101D500021E030E02C0F3D1F820F931FD8011E960B
:101D60002D913C911F97DC018D919C91B901681BCD
:101D7000790BCB0120813181820F931F9183808366
:101D80004F5FDACFEE960FB6F894DEBF0FBECDBF31
:101D9000DF91CF911F910F91FF90EF90DF90089509
:101DA000CF93DF93FC0185858F3F61F0EF0161E008
:101DB0000E94641761E08D850E9416178BE193E005
:101DC0000197F1F7DF91CF910895CF93DF93FC0155
:101DD00085858F3F61F0EF0161E00E94641760E04C
:101DE0008D850E9416178BE193E00197F1F7DF9143
:101DF000CF910895EF92FF920F931F93CF93DF93AC
:101E00001F92CDB7DEB77C018B01FC0113821282D9
:101E1000158214821782168211861086118A108A02
:101E2000403218F08FE1848702C0FC014487F7013B
:101E300082859385892B11F080E00DC0F7018485A0
:101E400090E029830E94E621F70193878287298108
:101E5000892B91F714C0F7019485891778F4482FDE
:101E600050E0F801E40FF51F9081F701628573855A
:101E7000FB01E40FF51F90838F5FEDCF25870F9057
:101E8000DF91CF911F910F91FF90EF9008950F93E5
:101E90001F93CF93DF93EC01122F202FE881F9815C
:101EA0003697808191818C0F9D1F0E94FA0E1A83B4
:101EB000E881F981369780819181C80FD91F8FEF12
:101EC00093E09F878E87DF91CF911F910F910895A7
:101ED0003F924F925F926F927F928F929F92AF92BA
:101EE000BF92CF92DF92EF92FF920F931F93CF9307
:101EF000DF9300D01F92CDB7DEB729013A01909150
:101F00000002981721F09F3F09F032C304C0EEE3AE
:101F1000F3E0349004C180930002EEE3F3E0E49137
:101F2000EF3F09F425C3E23009F480C074F5EE23D5
:101F300009F45BC0E13009F0F1C01092800010920A
:101F40008100909181009860909381009091810030
:101F5000916090938100282F30E0F901E357FC4F06
:101F6000E491F0E0EE0FFF1FE75AFC4F45915491CA
:101F70005093B4074093B307F901ED52FC4FE4913D
:101F8000E093B20733243394CCC0E43009F49EC00C
:101F90000CF474C0E53009F0C1C010922001109219
:101FA000210190912101986090932101909121014C
:101FB000916090932101482F50E0FA01E357FC4FC4
:101FC000E491F0E0EE0FFF1FE75AFC4F25913491AA
:101FD0003093AB072093AA07FA01ED52FC4FE4912E
:101FE000E093A907B5E03B2E9CC014BC15BC94B58A
:101FF000926094BD95B5916095BD282F30E0F901B0
:10200000E357FC4FE491F0E0EE0FFF1FE75AFC4F5F
:10201000459154915093B7074093B607F901ED529B
:10202000FC4FE491E093B507312C7BC01092B000D7
:102030001092B1009091B00092609093B000909196
:10204000B10091609093B100282F30E0F901E3577F
:10205000FC4FE491F0E0EE0FFF1FE75AFC4F459173
:1020600054915093FD024093FC02F901ED52FC4F54
:10207000E491E093FE0252E0352E53C0109290009E
:10208000109291009091910098609093910090919E
:102090009100916090939100282F30E0F901E3576F
:1020A000FC4FE491F0E0EE0FFF1FE75AFC4F459123
:1020B00054915093B1074093B007F901ED52FC4F92
:1020C000E491E093AF0723E0322E2BC01092A000E2
:1020D0001092A1009091A10098609093A10090911E
:1020E000A10091609093A100282F30E0F901E357FF
:1020F000FC4FE491F0E0EE0FFF1FE75AFC4F4591D3
:1021000054915093AE074093AD07F901ED52FC4F47
:10211000E491E093AC0704E0302E03C03E2E37FC80
:1021200027C28B0161E00E9464174801A12CB12CE9
:10213000832D8D7F09F0BBC060E072E18AE790E0FB
:10214000A50194010E94282129833A834B835C8353
:1021500069017A0121E0C21AD108E108F1088FEF84
:10216000C816D104E104F10409F008F44CC060E49D
:1021700072E48FE090E0A50194010E94282169019A
:102180007A0191E0C91AD108E108F108E2E03E12B3
:1021900020C0FFEFCF16D104E104F10409F008F4E8
:1021A000E5C160E970ED83E090E0A50194010E9433
:1021B000282169017A0181E0C81AD108E108F108F3
:1021C0009FEFC916D104E104F10409F0D0F583E0D2
:1021D00067C0EFEFCE16D104E104F104B1F0A8F02E
:1021E00068E478EE81E090E0A50194010E94282146
:1021F00069017A01F1E0CF1AD108E108F108332032
:1022000009F45AC1AAC181E001C082E03320A1F0E3
:1022100047C089819A81AB81BC812AE0B595A79599
:10222000979587952A95D1F76C017D01F1E0CF1A3A
:10223000D108E108F10885E095B5987F892B85BD27
:10224000A6C068E478EE81E090E0A50194010E94C8
:10225000282169017A0181E0C81AD108E108F10852
:102260009FEFC916D104E104F10409F008F422C17A
:1022700064E274EF80E090E0A50194010E942821BF
:1022800069017A0181E0C81AD108E108F1089FEFDD
:10229000C916D104E104F10411F008F02FC185E062
:1022A0009091B100987F892B8093B10070C060E05D
:1022B00072E18AE790E0A50194010E94282169015A
:1022C0007A01F1E0CF1AD108E108F108C114D10474
:1022D00021E0E206F10488F068E478EE81E090E025
:1022E000A50194010E94282169017A0181E0C81AA0
:1022F000D108E108F10883E001C081E091E03912E2
:1023000010C090918100987F892B809381004114A7
:1023100051046104710409F03FC02FEF3FEFA901A0
:1023200071C0E3E03E120FC090919100987F892B1D
:1023300080939100411451046104710469F52FEFF9
:102340003FEFA90181C0F4E03F120FC09091A100BE
:10235000987F892B8093A10041145104610471047A
:10236000D9F42FEF3FEFA90181C025E032120FC051
:1023700090912101987F892B809321014114510470
:102380006104710449F42FEF3FEFA90181C04114AA
:1023900051046104710471F0D801AA0FBB1FA3019D
:1023A00092010E94472128EE33E040E050E00E9475
:1023B000522103C02FEF3FEFA90182E03816A1F1AF
:1023C000831534F0332079F091E03916D9F0D0C07C
:1023D000E4E03E1609F44AC03E16B4F1F5E03F16BB
:1023E00009F456C0C5C0C7BC2093C8073093C907BD
:1023F0004093CA075093CB0780916E008260809310
:102400006E00B6C0D0928900C09288002093C407A5
:102410003093C5074093C6075093C70780916F005C
:10242000826080936F00A4C0C092B3002093FF022B
:102430003093000340930103509302038091700096
:1024400082608093700094C0D0929900C0929800EE
:102450002093C0073093C1074093C2075093C3072E
:102460008091710082608093710082C0D092A90037
:10247000C092A8002093BC073093BD074093BE07CD
:102480005093BF078091720082608093720070C089
:10249000D0922901C09228012093B8073093B90740
:1024A0004093BA075093BB0780917300826080937A
:1024B00073005EC084E0F4CE2FEFC216D104E104B5
:1024C000F104D1F0C8F062E17AE780E090E0A50184
:1024D00094010E94282169017A01E1E0CE1AD10815
:1024E000E108F108FFEFCF16D104E104F10411F087
:1024F00008F08FCE84E0A0CE83E09ECE62E17AE742
:1025000080E090E0A50194010E94282169017A01F0
:1025100081E0C81AD108E108F1089FEFC916D1047B
:10252000E104F104C1F0B8F089819A81AB81BC81EA
:102530004AE0B595A795979587954A95D1F76C018F
:102540007D01E1E0CE1AD108E108F108332009F459
:1025500072CE87E0A5CE86E059CEEFEFCE16D1043D
:10256000E104F10409F050F684E050CE82E098CE08
:102570000F900F900F900F90DF91CF911F910F91BF
:10258000FF90EF90DF90CF90BF90AF909F908F9093
:102590007F906F905F904F903F9008951F920F92A1
:1025A0000FB60F9211240BB60F922F933F934F93B8
:1025B0005F936F937F938F939F93AF93BF93EF93AB
:1025C000FF9386E693E00E94990DFF91EF91BF91F2
:1025D000AF919F918F917F916F915F914F913F91BB
:1025E0002F910F900BBE0F900FBE0F901F9018955C
:1025F0001F920F920FB60F9211240BB60F922F93CA
:102600003F934F935F936F937F938F939F93AF937A
:10261000BF93EF93FF9386E693E00E94250DFF9111
:10262000EF91BF91AF919F918F917F916F915F914A
:102630004F913F912F910F900BBE0F900FBE0F90B7
:102640001F9018951F920F920FB60F9211240BB680
:102650000F922F933F934F935F936F937F938F933B
:102660009F93AF93BF93EF93FF9383E094E00E9417
:10267000990DFF91EF91BF91AF919F918F917F91B4
:102680006F915F914F913F912F910F900BBE0F90E3
:102690000FBE0F901F9018951F920F920FB60F92BA
:1026A00011240BB60F922F933F934F935F936F9329
:1026B0007F938F939F93AF93BF93EF93FF9383E0A9
:1026C00094E00E94250DFF91EF91BF91AF919F91F2
:1026D0008F917F916F915F914F913F912F910F90CB
:1026E0000BBE0F900FBE0F901F9018951F920F9268
:1026F0000FB60F9211240BB60F922F933F934F9367
:102700005F936F937F938F939F93AF93BF93EF9359
:10271000FF9380EA94E00E94990DFF91EF91BF91A1
:10272000AF919F918F917F916F915F914F913F9169
:102730002F910F900BBE0F900FBE0F901F9018950A
:102740001F920F920FB60F9211240BB60F922F9378
:102750003F934F935F936F937F938F939F93AF9329
:10276000BF93EF93FF9380EA94E00E94250DFF91C1
:10277000EF91BF91AF919F918F917F916F915F91F9
:102780004F913F912F910F900BBE0F900FBE0F9066
:102790001F9018950F931F93CF93DF93FC01208117
:1027A000222319F1EC010E94DA1709811A812B8189
:1027B0003C81DC01CB01801B910BA20BB30B0D8183
:1027C0001E812F81388580179107A207B30768F013
:1027D0000E94DA1769837A838B839C83E985FA8563
:1027E000DF91CF911F910F911994DF91CF911F919C
:1027F0000F91089585ED8093BC008091BC0084FD0D
:10280000FCCF10923303089540911608262F30E034
:10281000240F311D21323105DCF4209133032430A3
:10282000C9F4FC0180E090E0861758F43091160856
:102830002191DC01AC50B84FA30FB11D2C93019630
:10284000F3CF80911608680F6093160880E0089512
:1028500081E0089582E008950895E0913503809124
:102860003403E81730F4F0E0EA5CFC4F808190E03C
:1028700008958FEF9FEF0895909135038091340371
:10288000981750F4E92FF0E0EA5CFC4F208130E02B
:102890009F5F9093350302C02FEF3FEFC90108956A
:1028A0008091340390E020913503821B91090895B3
:1028B000CF92DF92EF92FF920F931F93CF93DF930C
:1028C0007C01262F972F8A0180915903882391F04C
:1028D000C62FD72F6E01C40ED51ECC15DD0571F0A5
:1028E0006991D701ED91FC910190F081E02DC70134
:1028F0001995F3CF642F822F0E940414C801DF9131
:10290000CF911F910F91FF90EF90DF90CF9008959E
:10291000CF93DF931F92CDB7DEB769832091590320
:102920002223D1F020915603203240F021E030E004
:10293000FC013383228380E090E015C0809157032F
:10294000E82FF0E0EC52F84F998190838F5F8093ED
:1029500057038093560305C061E0CE0101960E94A3
:10296000041481E090E00F90DF91CF91089590E002
:10297000FC013197E231F10508F04EC08827E153A0
:10298000FF4F8F4F0C94A321809180008F7703C05D
:10299000809180008F7D80938000089580918000D9
:1029A000877FF9CF84B58F7702C084B58F7D84BDD2
:1029B00008958091B0008F7703C08091B0008F7D23
:1029C0008093B0000895809190008F7707C0809128
:1029D00090008F7D03C080919000877F809390004E
:1029E00008958091A0008F7707C08091A0008F7D0F
:1029F00003C08091A000877F8093A00008958091FC
:102A000020018F7707C0809120018F7D03C08091C6
:102A10002001877F8093200108953FB7F89480912B
:102A2000D0079091D107A091D207B091D30726B5D6
:102A3000A89B05C02F3F19F00196A11DB11D3FBFF6
:102A4000BA2FA92F982F8827820F911DA11DB11D84
:102A5000BC01CD0142E0660F771F881F991F4A9580
:102A6000D1F7089560E081E00E94710980E00E9442
:102A7000FD088111FBCF08950F931F93CF93C82FAB
:102A80008B016115704164F46C2F802F0E947109D5
:102A900061E06C0F812FCF911F910F910C94710900
:102AA000CF911F910F9108951F920F920FB60F9221
:102AB00011240F900FBE0F901F9018951F920F9228
:102AC0000FB60F9211240BB60F922F933F934F9393
:102AD0005F936F937F938F939F93AF93BF93EF9386
:102AE000FF938091B900887F803609F49CC068F517
:102AF000883209F45BC090F4803109F454C038F492
:102B0000882309F4F6C0883009F44DC0F6C0883136
:102B100009F44CC0803209F45DC0EFC0803409F480
:102B200068C048F4803309F455C0883309F0E5C023
:102B300080933103D8C0803509F44FC0883509F43B
:102B40005DC0883409F0D9C0D6C0883909F4C7C03F
:102B5000A8F4883709F467C038F4883609F463C0EC
:102B6000803709F460C0C9C0883809F4B8C080391A
:102B700009F45FC0803809F0C0C05BC0803B09F435
:102B800086C038F4803A09F466C0883A09F47FC0F8
:102B9000B4C0803C09F4A7C0883C09F4A4C0883BB9
:102BA00009F48AC0AAC080912E0310C0909130030E
:102BB00080912F03981770F5E091300381E08E0F1C
:102BC00080933003F0E0E35FFC4F80818093BB0093
:102BD00085EC86C0809331038EC0E091300381E0A4
:102BE0008E0F809330038091BB00F0E0E35FFC4FD9
:102BF00080839091300380912F036EC0E091300369
:102C000081E08E0F809330038091BB00F0E0E35FA2
:102C1000FC4F80838091320381116DC081E08093ED
:102C20002D0384EA61C083E08093330310923A0855
:102C3000CFCF80913A08803208F051C0E0913A0835
:102C400081E08E0F80933A088091BB00F0E0E65E51
:102C5000F74F8083BDCF85EC8093BC001092330387
:102C600080913A08803230F4E0913A08F0E0E65E74
:102C7000F74F108260913A0870E0E0911808F091E7
:102C800019088AE198E0199510923A0836C084E054
:102C9000809333031092170810921608E0911408DD
:102CA000F0911508199580911608811105C081E0F1
:102CB000809316081092F407E091170881E08E0FB8
:102CC00080931708F0E0EC50F84F80818093BB00B0
:102CD0009091170880911608981708F479CF85E825
:102CE0008093BC000AC085EC8093BC001092330333
:102CF00004C0109231030E94FA13FF91EF91BF912B
:102D0000AF919F918F917F916F915F914F913F9183
:102D10002F910F900BBE0F900FBE0F901F90189524
:102D20002091560390915803213208F04AC08091B7
:102D300033038111FCCF32E03093330331E0309321
:102D400032033FEF309331031092300320932F036F
:102D5000A4EDB7E04DE053E0FA013E2F341B3217EB
:102D600018F43D913193F9CF10922E0320912E0348
:102D7000990F922B90932E0390912D03913061F433
:102D800010922D0390912E039093BB009091BC0064
:102D900093FDF8CF95EC01C095EE9093BC00909117
:102DA00033039230E1F3909131039F3F79F08091AA
:102DB0003103803241F080913103803331F084E07F
:102DC00005C081E003C082E001C083E01092570398
:102DD00010925603109259030895CF93DF93282F32
:102DE00030E0F901E75EFB4F8491F901ED52FC4FB1
:102DF000D491F901E357FC4FC491CC2391F0811198
:102E00000E94B714EC2FF0E0EE0FFF1FED58FC4FBF
:102E1000A591B491EC91ED2381E090E021F480E064
:102E200002C080E090E0DF91CF9108951F93CF938F
:102E3000DF93282F30E0F901E75EFB4F8491F90121
:102E4000ED52FC4FD491F901E357FC4FC491CC23D0
:102E5000C9F0162F81110E94B714EC2FF0E0EE0F8D
:102E6000FF1FE75AFC4FA591B4918FB7F894111149
:102E700005C09C91ED2FE095E92302C0EC91ED2B6C
:102E8000EC938FBFDF91CF911F9108951092330380
:102E900081E08093320310922D0361E084E10E946F
:102EA000161761E085E10E941617E9EBF0E08081DA
:102EB0008E7F808380818D7F808388E48093B800BB
:102EC00085E48093BC000895CF93DF9390E0FC01EC
:102ED000ED52FC4F2491FC01E357FC4F8491882371
:102EE00061F190E0880F991FFC01E15CFC4FC591F6
:102EF000D491FC01E75AFC4FA591B491611109C02E
:102F00009FB7F8948881209582238883EC912E23A3
:102F10000BC0623061F49FB7F8943881822F80959E
:102F200083238883EC912E2B2C939FBF06C08FB7F1
:102F3000F894E8812E2B28838FBFDF91CF910895DD
:102F40008F929F92AF92BF92CF92DF92EF92FF92B9
:102F50006B017C010E940D154B015C01C114D10471
:102F6000E104F104F1F00E940D15DC01CB01881998
:102F70009909AA09BB09883E9340A105B10570F3E0
:102F800021E0C21AD108E108F10888EE880E83E03A
:102F9000981EA11CB11CC114D104E104F10419F75D
:102FA000DDCFFF90EF90DF90CF90BF90AF909F90DC
:102FB0008F9008952FB7F8946091CC077091CD074A
:102FC0008091CE079091CF072FBF0895CF93DF93C5
:102FD00000D01F921F92CDB7DEB7789484B582607F
:102FE00084BD84B5816084BD85B5826085BD85B5AD
:102FF000816085BD80916E00816080936E0010922B
:1030000081008091810082608093810080918100A5
:103010008160809381008091800081608093800036
:103020008091B10084608093B1008091B000816094
:103030008093B00080919100826080939100809194
:1030400091008160809391008091900081608093D5
:1030500090008091A10082608093A1008091A100E6
:1030600081608093A1008091A00081608093A00086
:1030700080912101826080932101809121018160F2
:1030800080932101809120018160809320018091B3
:103090007A00846080937A0080917A0082608093C5
:1030A0007A0080917A00816080937A0080917A0022
:1030B000806880937A001092C1000E945A0761E0F4
:1030C000809162070E94641760E0809162070E940D
:1030D000161760E0809161070E9464178AE593E00B
:1030E00090936C0780936B07109235031092340312
:1030F00010925703109256030E94461780E090E109
:10310000A0E0B0E080936E0790936F07A0937007E4
:10311000B09371078AE090E0A0E0B0E0809372077E
:1031200090937307A0937407B093750780E090E0C5
:10313000A0E0B0E48093760790937707A093780798
:10314000B093790760E070E185E00E94A2076FE923
:1031500079E380E00E94A2070EE717E0A12CB12CD2
:10316000C12CD12C52EC252E53E0352E6BEC862E43
:1031700067E0962E7BE8672E7724739496012F598B
:10318000384F2901D90114969C91149712968C916D
:10319000F501EF59F84F7F01818F928F61E00E9416
:1031A000641761E0D7015A968C910E946417F2016E
:1031B00090858681D8018C93F701968F61E00E94FB
:1031C000641760E0D7015E968C910E94641761E0FD
:1031D000F80180810E941617FFB6F89480910903C8
:1031E000811126C0F1018491E8E0F4E09491E82F88
:1031F000F0E0EE0FFF1FE15CFC4FA591B4918C91C4
:10320000982321F461E085E30E94161761E085E3CD
:103210000E9464178CB580618CBD8CB580648CBDB8
:1032200061E084E30E94641761E083E30E94641715
:10323000809109038F5F80930903FFBEC40101974A
:10324000F1F760E0D8018C910E94161788E80E947F
:10325000F30C83E00E94F30C61E0F80180810E948E
:103260001617C4010197F1F760E0D8018C910E9414
:10327000161788E90E94F30C80E00E94F30C80E0AE
:103280000E94F30C80E00E94F30C80E00E94F30C9B
:1032900061E0F80180810E941617C3010197F1F7E0
:1032A00060E0D8018C910E94161780EE0E94F30C0A
:1032B00061E0F80180810E941617F2E0AF0EB11CA8
:1032C0000E5F1F4FCA94CD2821F0CC24C394D12C7B
:1032D00055CF06E817E024E0F22EF00E60E0D801AA
:1032E0008D918D010E946417F012F8CFF5E9EF2E51
:1032F000F7E0FF2E02E917E0A5E0AA2EBCE0CB2EF6
:1033000082E0982E92E0B92EB00EF8013897D08066
:10331000F80180818C3008F046C061E08D2D0E945C
:103320006417D8018C91A89EF0011124E15FF94F38
:103330009D2D9F732081207CD22ED92AD08213828A
:1033400014826C2D0E948321BCE08B9FA00111246C
:1033500020E030E0B901640F751FA69EF001A79E22
:10336000F00D1124E15FF94F908196FD12C02F5F9F
:103370003F4F2C30310571F781110BC01092800046
:1033800090928100109285001092840096BA9092DB
:103390006F00D801EC91AE9EF0011124E15FF94F6E
:1033A000808180648083F801329790813297808198
:1033B000F70131978083F701908360E00E946417E2
:1033C00061E0D7018C910E94641760E0F701808171
:1033D0000E9416170F5F1F4FF2E0EF0EF11CB012A4
:1033E00094CFF8941092200109E00093210180E22B
:1033F00093E0909329018093280110922501109267
:10340000240112E010937300789410933D051092FC
:10341000410580913E0560E00E94641740E050E065
:10342000BA018AE797E00E949C0A40E050E060E021
:1034300070E88CE797E00E949C0A0E945A078AE78E
:1034400092E00E94940761E08FE20E94641760E0BE
:103450008FE20E94161761E080E30E94641760E02B
:1034600080E30E94161761E081E30E94641760E028
:1034700081E30E94161760E08EE20E94641761E00B
:103480008AE00E94641761E08AE00E94161761E0FA
:103490008CE00E94641760E08CE00E94161761E0E7
:1034A0008BE00E94641760E08BE00E94161761E0D9
:1034B00086E10E94641761E087E10E94641761E081
:1034C00088E10E94641761E089E10E94641761E06D
:1034D0008AE10E94641761E08BE10E94641761E059
:1034E0008CE10E94641761E08DE10E94641761E045
:1034F00080E20E94641761E085E20E94641761E047
:1035000086E20E94641761E087E20E94641761E02E
:1035100088E00E94641761E08DE10E94161761E067
:1035200080E20E94161761E085E20E94161761E0B2
:1035300086E20E94161761E087E20E94161762E891
:1035400081E00E94EC070E9411074FEF50E060E01D
:1035500070E080E090E00E94220461E080916D06BE
:103560000E9464171092350310923403109257038F
:10357000109256030E94461761E070E080E090E0F0
:103580000E94A01700936F060093700610937106B7
:1035900085E08093720666E089E00E94710980915F
:1035A000700667E08F700E9471098091710668E073
:1035B0008F700E9471098091720669E08F700E947D
:1035C000710980E098E0909374068093730690935D
:1035D000760680937506909378068093770690938D
:1035E0007A06809379066AE080E00E9471098091F2
:1035F0007306909174069F716BE0892F0E94710988
:103600006EE0809177060E94710980917706909113
:1036100078069F716FE0892F0E9471096CE080919C
:1036200075060E94710980917506909176069F71CA
:103630006DE0892F0E94710960E1809179060E94F6
:1036400071098091790690917A069F7161E1892FC5
:103650000E94710961E080916D060E94161762E078
:1036600070E080E090E00E94A017E12CF12CC12CCA
:10367000E0E1DE2E86010E191F0917FF02C00F5F61
:103680001F4F159507950E0D1F1D0E151F0509F4EB
:103690003FC0B8018AE090E00E943C15B8018CE080
:1036A00090E00E943C15B8018EE090E00E943C152D
:1036B0000E94321580E40E945E0997FD05C080E4F7
:1036C0000E945E095C0102C0A12CB12C82E40E9420
:1036D0005E098A159B0524F082E40E945E095C0164
:1036E00084E40E945E098A159B0524F084E40E940C
:1036F0005E095C0129EEA21623E0B2063CF438EE26
:10370000A31633E0B30621F07801B4CF6801B2CF3D
:10371000E12CF12CC12C90E1D92E86010E191F0944
:1037200017FF02C00F5F1F4F159507950E0D1F1D48
:103730000E151F05A9F0B80180E190E00E943C152C
:103740000E94321586E40E945E09893E43E0940798
:103750002CF4883E934021F07801DFCF6801DDCF63
:1037600088E8282E83E1382E812C912CA12CB12CB5
:10377000612C712C66E0862D0E94710967E08A2D0C
:103780000E94710968E0882D0E9471098AE00E94F8
:103790005E098C01BC018AE090E00E943C15B801F2
:1037A0008CE090E00E943C15B8018EE090E00E9411
:1037B0003C1554E0452E512CC12CD12C00E010E0DA
:1037C000E12CF12C0E94321580E40E945E09E80E83
:1037D000F91E82E40E945E09080F191F84E40E940A
:1037E0005E09C80ED91E81E0481A510859F7F7FE44
:1037F00003C093E0E90EF11CF594E794F594E79487
:1038000017FF02C00D5F1F4F15950795159507957A
:10381000D7FE03C0A3E0CA0ED11CD594C794D5949B
:10382000C7943E2D2F2DE016F10614F4302F212FD2
:10383000832F922F97FF02C080E090E08C159D05AA
:103840000CF4C6015E2D4F2D0E151F0514F4502FDC
:10385000412F252F342F2130B0E13B0714F020E019
:1038600030E1C216D3060CF49601FC01E21BF30B07
:103870009F012E163F0611F18E159F0541F4FFE0C2
:103880006F16710424F44FEF641A740A15C0801780
:10389000910741F45FE0A516B10424F48FEFA81A54
:1038A000B80A0AC08C159D0539F49FE08916910469
:1038B0001CF4AFEF8A1A9A0A19015CCF40E050E07D
:1038C00061E070E081E090E00E9422048EE20E94BC
:1038D000ED16892BA9F40E9453038230910541F023
:1038E0008330910541F0019789F780E892E005C0A7
:1038F00086E892E002C08CE892E00E946A04E6CF7B
:1039000060E080916D060E94161724EF31E040E0E0
:1039100050E064EF71E0809162070E94680F68EEEA
:1039200073E080E090E00E94A01724EF31E040E0D7
:1039300050E064EF71E0809162070E94680F68EECA
:1039400073E080E090E00E94A01724EF31E040E0B7
:1039500050E064EF71E0809162070E94680F68EEAA
:1039600073E080E090E00E94A0172CED35E040E08D
:1039700050E068EE73E0809162070E94680F15E0E6
:1039800082E696E00E94CA1387E596E00E94CA1379
:103990008CE496E00E94CA1382E992E00E949407A8
:1039A000EFE0F2E0DE011196812F01900D928A95F1
:1039B000E1F780910703805D898380910503805D35
:1039C0008B8380910303805D8D83CE0101960E94DD
:1039D0006A040E94230ED4CF0F9310925D031092BD
:1039E0005C0388EE93E0A0E0B0E080935E039093E8
:1039F0005F03A0936003B09361032EE132E0309344
:103A00005B0320935A03109269031092680380931A
:103A10006A0390936B03A0936C03B0936D0320E350
:103A200032E0309367032093660345E351E05093FF
:103A300073034093720344E351E050937503409342
:103A4000740340E351E0509377034093760341E3DE
:103A500051E0509379034093780342E351E050934F
:103A60007B0340937A0346E351E050937D034093F8
:103A70007C0310927F0310928003109281031092B6
:103A80008203109206041092050480930704909319
:103A90000804A0930904B0930A043093040420930B
:103AA000030445ED50E05093100440930F0444ED9F
:103AB00050E0509312044093110440ED50E05093B5
:103AC00014044093130441ED50E0509316044093C6
:103AD000150442ED50E0509318044093170446ED4E
:103AE00050E050931A044093190410921C04109251
:103AF0001D0410921E0410921F041092A304109231
:103B0000A2048093A4049093A504A093A604B09368
:103B1000A7043093A1042093A00485EC90E0909337
:103B2000AD048093AC0484EC90E09093AF04809358
:103B3000AE0480EC90E09093B1048093B00481ECEB
:103B400090E09093B3048093B20482EC90E0909361
:103B5000B5048093B40486EC90E09093B70480930E
:103B6000B6041092B9041092BA041092BB041092D9
:103B7000BC0486E38093820787E38093830788E30E
:103B80008093840789E3809385078BE18093860780
:103B90008DE1809387078AE1809388078CE1809389
:103BA000890784E080938A0787E080938B071092CF
:103BB0008C0784EB80938D0786E180938E0788E1E4
:103BC00080938F0787E18093900789E18093910725
:103BD000E0914B06EC3020F08FEF8093920710C0FD
:103BE00081E08E0F80934B06E093920725E0E29FE1
:103BF000F0011124E15FF94F88EB9BE09283818310
:103C0000E0914B06EC3020F08FEF8093930710C0CB
:103C100081E08E0F80934B06E093930785E0E89F49
:103C2000F0011124E15FF94F88EB9BE092838183DF
:103C30008CE08093610784E28093620786E0809342
:103C4000630785E0809364078FE1809365078EE1C9
:103C50008093660783E28093670782E28093680718
:103C600085E48093690784E480936A0780E4809305
:103C70006D071092720710927307109274071092DA
:103C800075071092760710927707109278071092B6
:103C90007907E3EAF6E08FEF9FEFDC0112821382EF
:103CA0001482158216821782108611868387948764
:103CB000A587B6878787908BA18BB28B12861182DE
:103CC0001082739627E0E136F20741F78DE090E02D
:103CD0000E94E621FC011382128282E792E0918326
:103CE0008083118687E2848384E1828784E08387EE
:103CF0001486F093A006E0939F061092A1061092FE
:103D0000A20685E280933E05109240051092990626
:103D10001092980610929B0610929A0610929D0699
:103D200010929C0661E070E080E090E00E94132316
:103D3000009791F0909399068093980610929B06B5
:103D400010929A0620919C0630919D06232B09F033
:103D5000A7C0FC011082A4C080919806909199069A
:103D6000009711F00E947B221092990610929806FB
:103D700010929D0610929C0610929B0610929A0635
:103D8000109289061092880610928B0610928A066D
:103D900010928D0610928C0610928F0610928E064D
:103DA000109291061092900682E592E0909384061C
:103DB0008093830684E692E090938706809386063C
:103DC00002E024E048E061E072E083E896E00E94CF
:103DD000470F0E94DA1760937F06709380068093E6
:103DE0008106909382068AE290E090936E0680931B
:103DF0006D0681E08093620610926306109264065D
:103E0000109265061092660642E350E060E070E0B2
:103E100040936706509368066093690670936A063C
:103E20002EE337E030936C0620936B0680935706A1
:103E3000109258061092590610925A0610925B067C
:103E400044EF51E060E070E040935C0650935D0603
:103E500060935E0670935F0620EE35E03093610656
:103E60002093600680934C0610924D0610924E06E9
:103E700010924F061092500684E690E0A0E0B0E069
:103E80008093510690935206A0935306B093540624
:103E900085EB9BE090935606809355060F9108950D
:103EA00010929D0610929C0669E972E00E940A2415
:103EB00067CF82E592E0909384068093830682E444
:103EC00092E0909387068093860680919006909169
:103ED0009106009711F00E947B2280918A069091B2
:103EE0008B06009711F00E947B2280918E069091A4
:103EF0008F06009711F00E947B2280918806909196
:103F00008906009711F00E947B2280918C06909187
:103F10008D06009711F00E947B2280919806909167
:103F200099060C947B22CF92DF92EF92FF920F932F
:103F30001F93CF93DF93FC01EB0160817181665089
:103F40007109DB018D919C91DC01AE0FBF1F1A96A8
:103F50008D919C911B97892B09F484C0822FDB01E2
:103F60000D911C91D801AE0FBF1F1C969C91891713
:103F700048F4DE01A80FB11DA80FB11D1D921C92BF
:103F8000840FEDCF50E08281581708F046C0322FE1
:103F9000A081B18116978D919C918E0F9F1FDC019E
:103FA0001C966C913617B8F5032F10E0DC011A96B9
:103FB0008D919C911B97800F911FDC018C91863312
:103FC00008F0865390917B00682F6870977F962B3E
:103FD00090937B008770806480937C0080917A004E
:103FE000806480937A0080917A0086FDFCCF809176
:103FF00078006091790090E0962BD801AA0FBB1F42
:10400000AC0FBD1F6D917C911197860F971F8D93FB
:104010009C93340FBDCF5F5FB6CFE080F180B6E0F8
:10402000EB1AF108D7018D919C91DC01AE0FBF1FF7
:104030001C968C912817B0F48E01020F111D020FEF
:10404000111D628170E06B01D594C794D8018D91E8
:104050009C918C0D9D1D0E948F21D8016D937C93A6
:10406000240FE0CFDF91CF911F910F91FF90EF9040
:10407000DF90CF900895DC01ED91FC913E97019087
:10408000F081E02D8E0F9F1F0C94931F990F000855
:10409000550FAA0BE0E8FEEF16161706E807F9071A
:1040A000C0F012161306E407F50798F0621B730BB5
:1040B000840B950B39F40A2661F0232B242B252B36
:1040C00021F408950A2609F4A140A6958FEF811DD9
:1040D000811D08950E947D200C94EE200E94E02016
:1040E00038F00E94E72020F0952311F00C94D7209F
:1040F0000C94DD2011240C9422210E94FF2070F3E7
:10410000959FC1F3950F50E0551F629FF001729F7C
:10411000BB27F00DB11D639FAA27F00DB11DAA1F8B
:10412000649F6627B00DA11D661F829F2227B00DD8
:10413000A11D621F739FB00DA11D621F839FA00D63
:10414000611D221F749F3327A00D611D231F849FB3
:10415000600D211D822F762F6A2F11249F5750400A
:104160009AF0F1F088234AF0EE0FFF1FBB1F661F85
:10417000771F881F91505040A9F79E3F510580F04E
:104180000C94D7200C9422215F3FE4F3983ED4F3A3
:10419000869577956795B795F795E7959F5FC1F7F2
:1041A000FE2B880F911D9695879597F9089597F99D
:1041B0009F6780E870E060E008959FEF80EC0895CD
:1041C00000240A94161617061806090608950024F6
:1041D0000A9412161306140605060895092E039470
:1041E000000C11F4882352F0BB0F40F4BF2B11F4E4
:1041F00060FF04C06F5F7F4F8F4F9F4F089557FD43
:104200009058440F551F59F05F3F71F04795880F44
:1042100097FB991F61F09F3F79F0879508951216DB
:1042200013061406551FF2CF4695F1DF08C0161687
:1042300017061806991FF1CF869571056105089438
:104240000895E894BB2766277727CB0197F908954F
:10425000052E97FB1EF400940E943F2157FD07D0C6
:104260000E94522107FC03D04EF40C943F2150953C
:104270004095309521953F4F4F4F5F4F0895909552
:104280008095709561957F4F8F4F9F4F08950E9445
:104290007421A59F900DB49F900DA49F800D911D3A
:1042A00011240895A1E21A2EAA1BBB1BFD010DC00B
:1042B000AA1FBB1FEE1FFF1FA217B307E407F507D6
:1042C00020F0A21BB30BE40BF50B661F771F881FB2
:1042D000991F1A9469F760957095809590959B0148
:1042E000AC01BD01CF010895A29FB001B39FC001F1
:1042F000A39F700D811D1124911DB29F700D811D12
:104300001124911D0895991B79E004C0991F9617F7
:1043100008F0961B881F7A95C9F780950895AA1B07
:10432000BB1B51E107C0AA1FBB1FA617B70710F0A0
:10433000A61BB70B881F991F5A95A9F780959095D2
:10434000BC01CD010895EE0FFF1F881F8BBF0790A2
:10435000F691E02D19940E94B2216894B1110C9449
:10436000222108950E94072188F09F5798F0B92FC5
:104370009927B751B0F0E1F0660F771F881F991F9A
:104380001AF0BA95C9F714C0B13091F00E942121FA
:10439000B1E008950C942121672F782F8827B85F0A
:1043A00039F0B93FCCF3869577956795B395D9F7F2
:1043B0003EF490958095709561957F4F8F4F9F4FFC
:1043C00008950E94462008F48FEF0895CF93DF935D
:1043D0008230910510F482E090E0E0913F08F09186
:1043E000400820E030E0C0E0D0E0309711F140819B
:1043F000518148175907C0F04817590761F4828165
:104400009381209719F09B838A832BC09093400857
:1044100080933F0826C02115310519F04217530734
:1044200018F49A01BE01DF01EF010280F381E02D53
:10443000DCCF2115310509F1281B390B243031055A
:1044400090F412968D919C9113976115710521F04E
:10445000FB019383828304C09093400880933F08BC
:10446000FD01329644C0FD01E20FF31F8193919349
:10447000225031092D933C933AC020913D08309150
:104480003E08232B41F420910B0230910C02309313
:104490003E0820933D082091090230910A0221151F
:1044A000310541F42DB73EB740910D0250910E02F7
:1044B000241B350BE0913D08F0913E08E217F3070D
:1044C000A0F42E1B3F0B2817390778F0AC014E5F84
:1044D0005F4F2417350748F04E0F5F1F50933E087B
:1044E00040933D088193919302C0E0E0F0E0CF015A
:1044F000DF91CF9108950F931F93CF93DF93009790
:1045000009F48CC0FC0132971382128200913F089B
:10451000109140080115110581F420813181820F2D
:10452000931F20913D0830913E082817390779F5EF
:10453000F0933E08E0933D0871C0D80140E050E0A0
:10454000AE17BF0750F412962D913C911397AD0111
:104550002115310509F1D901F3CF9D01DA0133832A
:10456000228360817181860F971F8217930769F4F8
:10457000EC0128813981260F371F2E5F3F4F318391
:1045800020838A819B8193838283452B29F4F09336
:104590004008E0933F0842C01396FC93EE931297B5
:1045A000ED01499159919E01240F351FE217F30740
:1045B00071F480819181840F951F029611969C93CE
:1045C0008E938281938113969C938E931297E0E051
:1045D000F0E0D80112968D919C911397009719F0F5
:1045E000F8018C01F6CF8D919C9198012E5F3F4F81
:1045F000820F931F20913D0830913E0828173907FC
:1046000069F4309729F41092400810923F0802C0D4
:104610001382128210933E0800933D08DF91CF91E0
:104620001F910F9108956F927F928F929F92AF92F8
:10463000BF92CF92DF92EF92FF920F931F93CF938F
:10464000DF93EC01009789F4CB01DF91CF911F91AB
:104650000F91FF90EF90DF90CF90BF90AF909F9021
:104660008F907F906F900C94E621FC01E60FF71F6E
:104670009C0122503109E217F30708F4ACC0D901BC
:104680000D911C91119706171707B0F00530110511
:1046900008F49FC0C80104978617970708F499C0CB
:1046A00002501109061B170B019311936D937C9314
:1046B000CF010E947B228DC05B01A01AB10A4C0180
:1046C000800E911EA0913F08B091400840E050E05C
:1046D000E12CF12C109709F44AC0A815B905D1F5C1
:1046E0006D907C901197630182E0C80ED11CCA14B2
:1046F000DB0480F1A3014A195B096A0182E0C80E5C
:10470000D11C1296BC9012971396AC91B5E0CB16C3
:10471000D10440F0B282A38351834083D9016D93C9
:104720007C930AC00E5F1F4FC301800F911FF901D8
:1047300091838083EB2DFA2FE114F10431F0D7013E
:104740001396FC93EE93129744C0F0934008E093C5
:104750003F083FC08D919C9111974817590708F465
:10476000AC017D0112960D90BC91A02DB3CF80912C
:104770003D0890913E0888159905E1F446175707C2
:10478000C8F48091090290910A02009741F48DB714
:104790009EB740910D0250910E02841B950BE817B5
:1047A000F907C8F4F0933E08E0933D08F9017183DE
:1047B00060830FC0CB010E94E6217C01009759F075
:1047C000A801BE010E940124CE010E947B22C701E4
:1047D00004C0CE0102C080E090E0DF91CF911F9134
:1047E0000F91FF90EF90DF90CF90BF90AF909F9090
:1047F0008F907F906F90089581E090E0F8940C94F2
:104800001124FB01DC0102C001900D924150504087
:10481000D8F70895FB01DC0101900D920020E1F72B
:10482000089512E0C1E3D2E000E006C0802FFE014F
:104830000E94A3212196011DC233D10780E0080701
:06484000A9F7F894FFCF78
:10484600FF393A3B3C3D3E3F400000410820002BEB
:104856002B2B2B2B001D202526270000000088145B
:1048660058148C092C1450143C142D14000000000C
:10487600BA0DFA0C3E0D010E6F0D4D0D610D0000C7
:104886000000500EE50ED00EFA0E65020300000081
:104896000000470F931FFDFF00000000000000000E
:1048A600FDFF0000500EE50ED00EFA0E3B20000074
:1048B6000000B909FA0C8C098B09737461727400D3
:1048C600526F754765004A61756E6500426C6555A5
:1048D6002B006C6F6F70000D0A00636F756C657549
:1048E6007200426C655500726F7547650073746F90
:1048F600700053746F702B00706573657200626F81
:1049060075746F6E00496E76616C696420736572AA
:10491600766F2069642100536572766F20616E6739
:104926006C65206973206F7574206F662072616EE6
:0C49360067652100626F75676572000004
:00000001FF
