:100000000C9461010C9492010C9492010C94920155
:100010000C9492010C9492010C9492010C94920114
:100020000C9492010C9472080C9472080C9472084F
:100030000C9492010C947B030C9492010C94920109
:100040000C9492010C94D2050C9492010C949201A0
:100050000C9492010C9492010C9492010C94310333
:100060000C9492010C94EA040C94C0040C94920138
:100070000C9492010C9492010C9492010C949201B4
:100080000C9492010C9492010C9492010C949201A4
:100090000C9492010C9492010C9492010C947C08A3
:1000A0000C9492010C9492010C9492010C94920184
:1000B0000C9492010C9492010C9492010C941405EE
:1000C0000C9492010C9492010C9492010C9496045D
:1000D0000C946C040C9492010C9442040C9418043B
:1000E0000C949201AD07B0079F07A307A907E70784
:1000F000B407B807BE07C207C607CC07D007D407A6
:10010000E707DA07DE07E2070C94AD070C94E1027B
:100110000C942E070C943B020C940A070C940907CC
:100120000C94700D0C9436070C94E2070C94E702C3
:100130000C9408070C94CD010C94BE070C94630733
:100140000C94CC070C94A9070C9488020C94B80763
:100150000C94760D0C94C2070C94B4070C94E7072A
:100160000C94D4070C94BE010C94EF010C949401F0
:100170000C941A070C94E2020C94B0070C94DE075E
:100180000C940B070C94A3070C949F070C94D007B6
:100190000C94DA070C94E1010C94C60702000021CC
:1001A00000240027002A002D003000330001010048
:1001B00000040107010A0100002200250028002B8D
:1001C000002E003100340002010000050108010B7F
:1001D00001000020002300260029002C002F0032FF
:1001E00000000100000301060109010505050507DE
:1001F0000508080808020202020A0A0808040404A2
:1002000004010101010101010103030303030303CD
:1002100003040707070C0C0C0C0C0C0C0C0202025C
:100220000206060606060606060B0B0B0B0B0B0B4F
:100230000B010210202008081020401020408002EE
:10024000010201080402010102040810204080801C
:1002500040201008040201800402018040201008A0
:100260000402010804020101020408102040800178
:100270000204081020408000000A0B02090C0D0E39
:100280000807030401000000000000000000000057
:10029000000000000000000000000000000000005E
:1002A000000000121110000000000000000000001B
:1002B0000000000000000000000000000000760DBB
:1002C000700D11241FBECFEFD1E2DEBFCDBF00E025
:1002D0000CBF12E0A0E0B2E0E2E8F3E200E00BBF06
:1002E00002C007900D92AE34B107D9F727E0AEE413
:1002F000B2E001C01D92A332B207E1F711E0C0E6FF
:10030000D1E000E006C021970109802FFE010E9484
:100310008C0FCF35D10780E00807A9F70E947C0A2F
:100320000C94AF110C940000CF92DF92EF92FF92E9
:100330000F931F93CF93DF936C017A018B01C0E081
:10034000D0E0CE15DF0581F0D8016D918D01D60189
:10035000ED91FC910190F081E02DC6011995892B5A
:1003600011F02196EECF7E01C701DF91CF911F9151
:100370000F91FF90EF90DF90CF900895FC01538D87
:10038000448D252F30E0842F90E0821B930B54176F
:1003900010F0CF96089501970895FC01918D828DFC
:1003A000981761F0828DDF01A80FB11D5D968C91C9
:1003B000928D9F5F9F73928F90E008958FEF9FEFD4
:1003C0000895FC01918D828D981731F0828DE80F90
:1003D000F11D858D90E008958FEF9FEF0895FC014A
:1003E000918D228D892F90E0805C9F4F821B910917
:1003F0008F73992708958EE892E00E94EF0121E023
:10040000892B09F420E0822F08958BE293E00E946B
:10041000EF0121E0892B09F420E0822F089588EC78
:1004200093E00E94EF0121E0892B09F420E0822F64
:100430000895FC01848DDF01A80FB11DA35ABF4FA1
:100440002C91848D90E001968F739927848FA689D3
:10045000B7892C93A089B1898C91837080648C9327
:10046000938D848D981306C00288F389E02D8081D6
:100470008F7D80830895EF92FF920F931F93CF9308
:10048000DF93EC0181E0888F9B8D8C8D981305C0E4
:10049000E889F989808185FD26C0F62E0B8D10E054
:1004A0000F5F1F4F0F731127E02E8C8DE8120CC0C9
:1004B0000FB607FCFACFE889F989808185FFF5CF6F
:1004C000CE010E941902F1CF8B8DFE01E80FF11DC4
:1004D000E35AFF4FF0829FB7F8940B8FEA89FB89AC
:1004E000808180620AC09FB7F894EE89FF8960839B
:1004F000E889F98980818370806480839FBF81E06F
:1005000090E0DF91CF911F910F91FF90EF900895B0
:10051000CF93DF93EC01888D8823C9F0EA89FB89AA
:10052000808185FD05C0A889B9898C9186FD0FC0A1
:100530000FB607FCF5CF808185FFF2CFA889B98976
:100540008C9185FFEDCFCE010E941902E7CFDF919C
:10055000CF910895E0E0F0E0199480E090E0892BDD
:1005600021F00E940F02811119C080E090E0892BD8
:1005700041F080E090E0892B21F00E940000811181
:1005800010C00E94050281110FC080E090E0892B0D
:1005900081F00E94FB0181110AC008950E940000B1
:1005A000E4CF0E940000EDCF0E94AA02EECF0C948F
:1005B000000008958EBD00000DB407FEFDCF8EB57E
:1005C0000895089580E090E008950E949A110F9395
:1005D0001F93CF93DF938C01C62FD62FD07FD1608E
:1005E0006D2F0E9431086D2FC8010E94440880E1E0
:1005F000C89FB0011124C62FC1606C2FC8010E9492
:1006000031086C2FC8010E94440881E090E0DF911E
:10061000CF911F910F9108953FB7F8948091730285
:1006200090917402A0917502B091760226B5A89BB4
:1006300005C02F3F19F00196A11DB11D3FBFBA2F74
:10064000A92F982F8827820F911DA11DB11DBC01D4
:10065000CD0142E0660F771F881F991F4A95D1F799
:1006600008951F920F920FB60F9211242F933F936C
:100670008F939F93AF93BF9380916F02909170027D
:10068000A0917102B091720230916E0223E0230FAB
:100690002D3720F40196A11DB11D05C026E8230FBA
:1006A0000296A11DB11D20936E0280936F0290935C
:1006B0007002A0937102B0937202809173029091C4
:1006C0007402A0917502B09176020196A11DB11D30
:1006D0008093730290937402A0937502B093760294
:1006E000BF91AF919F918F913F912F910F900FBE2E
:1006F0000F901F9018951F920F920FB60F92112412
:100700000BB60F922F933F934F935F936F937F930B
:100710008F939F93AF93BF93EF93FF938091690261
:1007200090916A02A0916B02B0916C02892B8A2B86
:100730008B2B49F19091680280910000892780936A
:1007400000008091690290916A02A0916B02B091C1
:100750006C02181619061A061B060CF056C080917A
:10076000690290916A02A0916B02B0916C020197AC
:10077000A109B1098093690290936A02A0936B0268
:10078000B0936C0242C080910002ECE9F1E0E49188
:100790009FEF90930002E230C9F050F4EE2399F0FD
:1007A000E13081F590916F009D7F90936F002AC09A
:1007B000E43019F1E0F0E53029F5909173009D7F68
:1007C000909373001FC010926E001CC09091700037
:1007D0009D7F9093700091E09093B0009091B10054
:1007E000987F94609093B1001092B3000BC09091E9
:1007F00071009D7F9093710005C0909172009D7F64
:100800009093720060E00E94D709FF91EF91BF9131
:10081000AF919F918F917F916F915F914F913F9198
:100820002F910F900BBE0F900FBE0F901F90189539
:100830001F920F920FB60F9211240BB60F922F93A7
:100840003F934F935F936F937F938F939F93AF9358
:10085000BF93EF93FF938EE892E00E941902FF91FD
:10086000EF91BF91AF919F918F917F916F915F9128
:100870004F913F912F910F900BBE0F900FBE0F9095
:100880001F9018951F920F920FB60F9211240BB65E
:100890000F922F933F934F935F936F937F938F9319
:1008A0009F93AF93BF93EF93FF938EE892E00E94E4
:1008B0005908FF91EF91BF91AF919F918F917F91D7
:1008C0006F915F914F913F912F910F900BBE0F90C1
:1008D0000FBE0F901F9018951F920F920FB60F9298
:1008E00011240BB60F922F933F934F935F936F9307
:1008F0007F938F939F93AF93BF93EF93FF938BE27D
:1009000093E00E941902FF91EF91BF91AF919F91E7
:100910008F917F916F915F914F913F912F910F90A8
:100920000BBE0F900FBE0F901F9018951F920F9245
:100930000FB60F9211240BB60F922F933F934F9344
:100940005F936F937F938F939F93AF93BF93EF9337
:10095000FF938BE293E00E945908FF91EF91BF91C2
:10096000AF919F918F917F916F915F914F913F9147
:100970002F910F900BBE0F900FBE0F901F901895E8
:100980001F920F920FB60F9211240BB60F922F9356
:100990003F934F935F936F937F938F939F93AF9307
:1009A000BF93EF93FF9388EC93E00E941902FF91AD
:1009B000EF91BF91AF919F918F917F916F915F91D7
:1009C0004F913F912F910F900BBE0F900FBE0F9044
:1009D0001F9018951F920F920FB60F9211240BB60D
:1009E0000F922F933F934F935F936F937F938F93C8
:1009F0009F93AF93BF93EF93FF9388EC93E00E9494
:100A00005908FF91EF91BF91AF919F918F917F9185
:100A10006F915F914F913F912F910F900BBE0F906F
:100A20000FBE0F901F9018951F920F920FB60F9246
:100A300011240BB60F922F933F934F935F936F93B5
:100A40007F938F939F93AF93BF93EF93FF93809187
:100A500066040E94AE0920916A0430916B042F5FF6
:100A60003F4F30936B0420936A049091690495364C
:100A700018F096E090936504909165049430C9F164
:100A800028F4923069F09330D1F05EC0953009F4CB
:100A900051C0963009F058C091E09093360551C08E
:100AA000811152C020916A0430916B0424363105C3
:100AB00008F442C010923605109269041CC08130BF
:100AC00009F042C0E091690491E09E0F909369049F
:100AD000F0E020916A0430916B04EE0FFF1FEB5998
:100AE000FB4F3087278310926B0410926A0494E0C6
:100AF00029C0811117C0E091690491E09E0F909385
:100B00006904F0E020916A0430916B04EE0FFF1F3E
:100B1000EB59FB4F3087278310926B0410926A04C5
:100B200093E010C020916A0430916B0425363105A2
:100B300058F007C0811108C010926B0410926A042B
:100B400003C095E090936504909168049923B9F0EF
:100B500081110AC080916704882321F08091670485
:100B600061E009C02F9A0BC080916704882331F09F
:100B70008091670460E00E94D70901C02F98FF911F
:100B8000EF91BF91AF919F918F917F916F915F9105
:100B90004F913F912F910F900BBE0F900FBE0F9072
:100BA0001F9018951F920F920FB60F9211240BB63B
:100BB0000F922F933F934F935F936F937F938F93F6
:100BC0009F93AF93BF93EF93FF938091670287FF4B
:100BD00005C0109285001092840016C02091670213
:100BE000022E000C330B8091730590E02817390713
:100BF0005CF43091670225E03203F0011124E95CD6
:100C0000FA4F808186FD15C0809167028F5F8093C7
:100C1000670220916702022E000C330B809173054E
:100C200090E02817390794F4809167028C302CF1FA
:100C30000DC0309167023203F0011124E95CFA4FD4
:100C4000808160E08F730E94D709DECF809184009D
:100C50009091850084349C4918F480E49CE905C097
:100C600080918400909185000496909389008093F0
:100C700088008FEF809367022AC0409184005091D2
:100C800085003091670225E03203F0011124E95C10
:100C9000FA4F81819281840F951F909389008093F0
:100CA0008800309167023203F0011124E95CFA4FA9
:100CB000808186FF0CC0309167023203F00111245D
:100CC000E95CFA4F808161E08F730E94D709FF9140
:100CD000EF91BF91AF919F918F917F916F915F91B4
:100CE0004F913F912F910F900BBE0F900FBE0F9021
:100CF0001F90189530918102313208F04BC08091DD
:100D00007F028111FCCF90915C0622E020937F024C
:100D100021E020937E022FEF20933A0610923906AD
:100D200030933806ECE3F6E0A8E1B6E020E03217B5
:100D300021F041914D932F5FFACF10921706209129
:100D40001706990F922B9093170690917D02913080
:100D500061F410927D02909117069093BB009091E0
:100D6000BC0093FDF8CF95EC01C095EE9093BC00CC
:100D700090917F029230E1F390913A069F3F79F093
:100D800080913A06803241F080913A06803331F00A
:100D900084E005C081E003C082E001C083E01092DE
:100DA00080021092810210923B06089585ED809397
:100DB000BC008091BC0084FDFCCF10927F0208959E
:100DC0004091F205262F30E0240F311D21323105EC
:100DD000DCF420917F022430C9F4FC0180E090E033
:100DE000861758F43091F2052191DC01AE52BA4FCA
:100DF000A30FB11D2C930196F3CF8091F205680FDC
:100E00006093F20580E0089581E0089582E00895FE
:100E1000089508950895E091780280917702E81787
:100E200030F4F0E0EE54FA4F808190E008958FEFB7
:100E30009FEF08959091780280917702981750F46F
:100E4000E92FF0E0EE54FA4F208130E09F5F90935D
:100E5000780202C02FEF3FEFC90108958091770219
:100E600090E020917802821B91090895CF92DF9241
:100E7000EF92FF920F931F93CF93DF937C01CB01EF
:100E80008A0120913B06222389F0EB016B01C40EFD
:100E9000D51ECC15DD0569F06991D701ED91FC9166
:100EA0000190F081E02DC7011995F3CF642F0E94C6
:100EB000E006C801DF91CF911F910F91FF90EF9055
:100EC000DF90CF900895CF93DF931F92CDB7DEB719
:100ED000698320913B062223D1F0209181022032A8
:100EE00040F021E030E0FC013383228380E090E099
:100EF00015C080918002E82FF0E0E45CF94F998101
:100F000090838F5F809380028093810205C061E0AF
:100F1000CE0101960E94E00681E090E00F90DF9103
:100F2000CF91089590E0FC013197E231F10508F08E
:100F30004EC08827EE58FF4F8F4F0C948C0F809136
:100F400080008F7703C0809180008F7D8093800028
:100F5000089580918000877FF9CF84B58F7702C094
:100F600084B58F7D84BD08958091B0008F7703C0D4
:100F70008091B0008F7D8093B000089580919000A3
:100F80008F7707C0809190008F7D03C08091900083
:100F9000877F8093900008958091A0008F7707C08D
:100FA0008091A0008F7D03C08091A000877F8093F7
:100FB000A0000895809120018F7707C080912001C3
:100FC0008F7D03C080912001877F80932001089549
:100FD000009769F0FC0101900020E9F73197AF011B
:100FE000481B590BBC0188EC93E00C94940180E001
:100FF00090E008950F931F93CF93DF93162F072F41
:10100000CBE7D5E09C8521E020933B0690935C06DE
:101010001092800210928102AA85BB85ED91FC910D
:1010200011970190F081E02D682FCD0119958A85E7
:101030009B85DC01ED91FC910190F081E02D602F0A
:1010400019958A859B85DC01ED91FC910190F081D9
:10105000E02D612F1995DF91CF911F910F910C9485
:101060007A06FC01248131E030933B0620935C0634
:1010700010928002109281028485682B82E892E0AF
:101080000E9463070C947A060F931F93CF938C01F1
:10109000C62F64600E9431086C2F6B7FC8010E94CC
:1010A000310883EC90E00197F1F7CF911F910F91F8
:1010B0000895FC01A089B1898C91A689B78982FD28
:1010C0000FC09C91818D8F5F8F73228D821749F0A5
:1010D000218DDF01A20FB11D5D969C93818F089534
:1010E0008C9108951F920F920FB60F9211240F90BA
:1010F0000FBE0F901F9018951F920F920FB60F9270
:1011000011240BB60F922F933F934F935F936F93DE
:101110007F938F939F93AF93BF93EF93FF938091B0
:10112000B900887F803609F49CC068F5883209F4DC
:101130005BC090F4803109F454C038F4882309F47A
:10114000F6C0883009F44DC0F6C0883109F44CC0AF
:10115000803209F45DC0EFC0803409F468C048F4FF
:10116000803309F455C0883309F0E5C080933A060E
:10117000D8C0803509F44FC0883509F45DC0883483
:1011800009F0D9C0D6C0883909F4C7C0A8F4883797
:1011900009F467C038F4883609F463C0803709F46D
:1011A00060C0C9C0883809F4B8C0803909F45FC08C
:1011B000803809F0C0C05BC0803B09F486C038F4B9
:1011C000803A09F466C0883A09F47FC0B4C0803C14
:1011D00009F4A7C0883C09F4A4C0883B09F48AC07C
:1011E000AAC08091170610C09091390680913806E8
:1011F000981770F5E091390681E08E0F80933906DB
:10120000F0E0E85EF94F80818093BB0085EC86C0FA
:1012100080933A068EC0E091390681E08E0F80936C
:1012200039068091BB00F0E0E85EF94F8083909131
:101230003906809138066EC0E091390681E08E0F44
:10124000809339068091BB00F0E0E85EF94F80831F
:1012500080917E0281116DC081E080937D0284EADD
:1012600061C083E080937F0210921406CFCF8091FB
:101270001406803208F051C0E091140681E08E0F10
:10128000809314068091BB00F0E0EC50FA4F80830D
:10129000BDCF85EC8093BC0010927F028091140634
:1012A000803230F4E0911406F0E0EC50FA4F1082F6
:1012B0006091140670E0E0917B02F0917C0284EF73
:1012C00095E019951092140636C084E080937F0251
:1012D0001092F3051092F205E0917902F0917A02F2
:1012E00019958091F205811105C081E08093F20586
:1012F0001092D205E091F30581E08E0F8093F30503
:10130000F0E0EE52FA4F80818093BB009091F3059C
:101310008091F205981708F479CF85E88093BC0096
:101320000AC085EC8093BC0010927F0204C010922A
:101330003A060E94D606FF91EF91BF91AF919F911F
:101340008F917F916F915F914F913F912F910F906E
:101350000BBE0F900FBE0F901F901895CF93DF9389
:10136000282F30E0F901E958FD4F8491F901EF5C35
:10137000FD4FD491F901E551FE4FC491CC2391F07A
:1013800081110E949207EC2FF0E0EE0FFF1FEF5249
:10139000FE4FA591B491EC91ED2381E090E021F412
:1013A00080E002C080E090E0DF91CF9108951F932C
:1013B000CF93DF93282F30E0F901E958FD4F849156
:1013C000F901EF5CFD4FD491F901E551FE4FC49155
:1013D000CC23C1F0162F81110E949207EC2FF0E070
:1013E000EE0FFF1FE954FE4FA591B4919FB7F894FB
:1013F000111104C08C91D095D82302C0EC91DE2B42
:10140000DC939FBFDF91CF911F910895CF93DF931E
:1014100090E0FC01EF5CFD4F2491FC01E551FE4F93
:101420008491882361F190E0880F991FFC01E356B5
:10143000FE4FC591D491FC01E954FE4FA591B491A2
:10144000611109C09FB7F894888120958223888311
:10145000EC912E230BC0623061F49FB7F894888121
:10146000322F309583238883EC912E2B2C939FBFB2
:1014700006C08FB7F894E8812E2B28838FBFDF91A9
:10148000CF9108958F929F92AF92BF92CF92DF92A9
:10149000EF92FF926B017C010E940C034B015C01F7
:1014A000C114D104E104F104F1F00E940C03DC0149
:1014B000CB0188199909AA09BB09883E9340A10567
:1014C000B10570F321E0C21AD108E108F10888EEF5
:1014D000880E83E0981EA11CB11CC114D104E10444
:1014E000F10419F7DDCFFF90EF90DF90CF90BF9020
:1014F000AF909F908F900895CF93DF93CDB7DEB7D5
:10150000A1970FB6F894DEBF0FBECDBF789484B517
:10151000826084BD84B5816084BD85B5826085BDEF
:1015200085B5816085BD80916E00816080936E007D
:10153000109281008091810082608093810080916F
:101540008100816080938100809180008160809320
:1015500080008091B10084608093B1008091B000E0
:1015600081608093B00080919100826080939100AF
:1015700080919100816080939100809190008160C2
:10158000809390008091A10082608093A10080915F
:10159000A10081608093A1008091A0008160809370
:1015A000A00080912101826080932101809121011E
:1015B00081608093210180912001816080932001CE
:1015C00080917A00846080937A0080917A008260B2
:1015D00080937A0080917A00816080937A00809174
:1015E0007A00806880937A001092C100E091D8035D
:1015F000F091D90382E08083E091D403F091D50388
:101600001082E091D603F091D7038FEC8083109283
:10161000E003E091DC03F091DD0386E08083E0915C
:10162000DA03F091DB03808180618083E091DA034B
:10163000F091DB03808188608083E091DA03F09190
:10164000DB03808180688083E091DA03F091DB0323
:1016500080818F7D808361E080917C050E94060AF5
:1016600060E080917C050E94D70960E080917B0555
:101670000E94060A82E892E0909386058093850591
:1016800010927802109277021092800210928102DA
:1016900010927F0281E080937E0210927D0261E0D1
:1016A00084E10E94D70961E085E10E94D709809119
:1016B000B9008E7F8093B9008091B9008D7F8093AF
:1016C000B90088E48093B80085E48093BC0088E08A
:1016D00097E090937A028093790289E097E0909363
:1016E0007C0280937B0280E090E1A0E0B0E08093F8
:1016F000880590938905A0938A05B0938B058AE0AD
:1017000090E0A0E0B0E080938C0590938D05A093CD
:101710008E05B0938F0580E090E0A0E0B0E4809368
:10172000900590939105A0939205B093930560E086
:1017300070E185E00E94FA076FE979E380E00E949A
:10174000FA070BE715E07801E2E05E2EF0E26F2E7B
:10175000F2E07F2EA6E68A2EA2E09A2EBBECCB2EDC
:10176000B7E0DB2E8BE8A82EBB24B394D7011496E8
:101770009C91149712968C91F801818F928F61E061
:101780000E94060A61E0D8015A968C910E94060ACE
:10179000F70190858681D8015D968C935D975E9662
:1017A0009C9361E00E94060A60E0F801868D0E9429
:1017B000060A61E0D8015D968C910E94D7094FB668
:1017C000F89480916D02811126C0F3018491F40197
:1017D0002491E82FF0E0EE0FFF1FE356FE4FA59196
:1017E000B4919C91822F892321F461E085E30E94CA
:1017F000D70961E085E30E94060A8CB580618CBD43
:101800008CB580648CBD61E084E30E94060A61E0CF
:1018100083E30E94060A80916D028F5F80936D02C0
:101820004FBEC6010197F1F760E0D8015D968C913B
:101830000E94D70988E80E94DA0283E00E94DA0257
:1018400061E0F801858D0E94D709C6010197F1F783
:1018500060E0D8015D968C910E94D70988E90E94CA
:10186000DA0280E00E94DA0280E00E94DA0280E080
:101870000E94DA0280E00E94DA0261E0F801858DC0
:101880000E94D709C5010197F1F760E0D8015D9684
:101890008C910E94D70980EE0E94DA0261E0F80183
:1018A000858D0E94D7095A94FFEFEF1AFF0A0E5F49
:1018B0001F4F51105BCF00EA15E064EAE62E65E0A9
:1018C000F62E60E0D8018D918D010E94060AE01687
:1018D000F106B9F79CE9E92E95E0F92E2EE9C22E22
:1018E00025E0D22E870135E0B32E4CE0942E52E055
:1018F000A52EF80180898C3008F049C0808461E011
:10190000882D0E94060AD80150968C91B89EF0014D
:101910001124E95CFA4F982D9F732081207C822E40
:10192000892A808213821482692D0E94800FBCE074
:101930008B9FA001112420E030E0BA01620F731FD9
:10194000B69EF001B79EF00D1124E95CFA4F90812C
:1019500096FD12C02F5F3F4F2C30310571F781117A
:101960000BC010928000A09281001092850010920E
:101970008400A6BAA0926F00D8015096EC91BE9E4A
:10198000F0011124E95CFA4F808180648083F801C2
:1019900096858485D70152968C93529753969C9343
:1019A00060E00E94060A61E0F70183890E94060A4E
:1019B00060E0D70153968C910E94D7090F5F1F4FAB
:1019C000B2E0EB0EF11CC016D10609F092CFF894EC
:1019D0001092200189E08093210180E293E09093AE
:1019E000290180932801109225011092240182E0A0
:1019F00080937300789480936504109269048091B9
:101A0000660460E00E94060A60E085E20E94060A21
:101A10008AE0882E912CA12CB12C85E20E94AE097F
:101A2000892B09F04CC06AE070E080E090E00E94F1
:101A3000420A85E20E94AE096C01990FEE08FF0888
:101A4000F7FE20C06DE288EC93E00E943B02222763
:101A50003327A9012C193D094E095F0919A28E01EE
:101A60000F5D1F4FCA01B901A50194010E945E0FCD
:101A7000605DF80162938F01211531054105510523
:101A800089F715C0A701960119A28E010F5D1F4F9E
:101A9000CA01B901A50194010E945E0F605DD801E1
:101AA0006E938D01211531054105510589F7C80156
:101AB0000E94E8078FE392E00E94E807AECF82E43D
:101AC00092E00E94E8078FE392E00E94E80768EE48
:101AD00073E080E090E00E94420A0E94AD02EFCFE6
:101AE00080917405909175050C942C1010928502CC
:101AF0001092840288EE93E0A0E0B0E0809386022A
:101B000090938702A0938802B093890223E132E088
:101B100030938302209382021092910210929002DD
:101B20008093920290939302A0939402B0939502B3
:101B300025E232E030938F0220938E0245E351E09C
:101B400050939B0240939A0244E351E050939D02CC
:101B500040939C0240E351E050939F0240939E02C9
:101B600041E351E05093A1024093A00242E351E0CF
:101B70005093A3024093A20246E351E05093A50282
:101B80004093A4021092A7021092A8021092A902F8
:101B90001092AA0210922E0310922D0380932F030D
:101BA00090933003A0933103B093320330932C030E
:101BB00020932B0345ED50E05093380340933703B7
:101BC00044ED50E050933A034093390340ED50E028
:101BD00050933C0340933B0341ED50E050933E0350
:101BE00040933D0342ED50E05093400340933F0348
:101BF00046ED50E05093420340934103109244035A
:101C00001092450310924603109247031092CB03A3
:101C10001092CA038093CC039093CD03A093CE037C
:101C2000B093CF033093C9032093C80385EC90E0B1
:101C30009093D5038093D40384EC90E09093D703E2
:101C40008093D60380EC90E09093D9038093D803DF
:101C500081EC90E09093DB038093DA0382EC90E0D8
:101C60009093DD038093DC0386EC90E09093DF0398
:101C70008093DE031092E1031092E2031092E303DB
:101C80001092E4038091070290910802A09109024A
:101C9000B0910A0280939C0590939D05A0939E05A8
:101CA000B0939F0580910B0290910C02A0910D02C0
:101CB000B0910E028093A0059093A105A093A20578
:101CC000B093A30584E08093A40587E08093A505E5
:101CD0001092A60584EB8093A70586E18093A80562
:101CE00088E18093A90587E18093AA0589E1809323
:101CF000AB05E0917305EC3020F08FEF8093AC05DD
:101D000010C081E08E0F80937305E093AC0585E0F1
:101D1000E89FF0011124E95CFA4F88EB9BE0928385
:101D20008183E0917305EC3020F08FEF8093AD0557
:101D300010C081E08E0F80937305E093AD0585E0C0
:101D4000E89FF0011124E95CFA4F88EB9BE0928355
:101D500081838CE080937B0584E280937C0586E020
:101D600080937D0585E080937E058FE180937F05DC
:101D70008EE18093800583E28093810582E28093E7
:101D8000820585E48093830584E48093840580E460
:101D90008093870510928C0510928D0510928E0508
:101DA00010928F0510929005109291051092920555
:101DB00010929305E1E6F6E02FE137E08FEF9FEF19
:101DC000DC01128213821482158216821782108619
:101DD000118683879487A587B6878787908BA18B89
:101DE000B28B12861182108273962E173F0749F725
:101DF0008DE090E00E94940FFC011382128287E331
:101E000092E091838083118687E2848384E18287D4
:101E100084E083871486F0935E06E0935D0610925B
:101E20005F061092600685E2809366041092680453
:101E30001092750510927405109277051092760530
:101E4000109279051092780561E070E080E090E0F2
:101E50000E94B510009789F09093750580937405E2
:101E600010927705109276052091780530917905CA
:101E7000232BC1F4FC01108215C080917405909150
:101E80007505009711F00E942C10109275051092A4
:101E900074051092790510927805109277051092CA
:101EA00076050895109279051092780561E472E044
:101EB00080917405909175050C94A811A1E21A2ED9
:101EC000AA1BBB1BFD010DC0AA1FBB1FEE1FFF1FDE
:101ED000A217B307E407F50720F0A21BB30BE40B2E
:101EE000F50B661F771F881F991F1A9469F7609575
:101EF0007095809590959B01AC01BD01CF0108952F
:101F0000991B79E004C0991F961708F0961B881F4B
:101F10007A95C9F780950895EE0FFF1F881F8BBF34
:101F20000790F691E02D19940F931F93CF93DF93B1
:101F30008230910510F482E090E0E0912107F09169
:101F4000220720E030E0A0E0B0E0309719F14081B6
:101F500051810281138148175907C8F084179507EA
:101F600069F4109731F012960C93129713961C9304
:101F700027C0009321071093220722C021153105A5
:101F800019F04217530718F49A01BD01EF01DF0160
:101F9000F801DBCF21153105F9F0281B390B24306E
:101FA000310580F48A819B816115710521F0FB0167
:101FB0009383828304C09093220780932107FE01BC
:101FC000329644C0FE01E20FF31F81939193225099
:101FD0003109398328833AC020911F0730912007A7
:101FE000232B41F420910302309104023093200707
:101FF00020931F0720910102309102022115310523
:1020000041F42DB73EB74091050250910602241BC2
:10201000350BE0911F07F0912007E217F307A0F4BA
:102020002E1B3F0B2817390778F0AC014E5F5F4F2E
:102030002417350748F04E0F5F1F50932007409339
:102040001F078193919302C0E0E0F0E0CF01DF91A0
:10205000CF911F910F910895CF93DF93009709F4CB
:1020600081C0FC01329713821282A0912107B091A6
:102070002207109781F420813181820F931F2091D4
:102080001F07309120072817390751F5F0932007D3
:10209000E0931F0767C0ED0120E030E0CE17DF07B7
:1020A00040F44A815B819E0141155105F1F0EA013E
:1020B000F5CFD383C28340815181840F951FC81708
:1020C000D90759F488819981840F951F02969183CD
:1020D00080838A819B81938382832115310529F432
:1020E000F0932207E09321073DC0E901FB83EA83D7
:1020F00049915991C40FD51FEC17FD0761F48081F8
:102100009181840F951F0296E901998388838281CA
:1021100093819B838A83E0E0F0E012968D919C91FD
:102120001397009719F0FD01DC01F7CF8D919C9179
:1021300011979D012E5F3F4F820F931F20911F0724
:10214000309120072817390769F4309729F4109245
:1021500022071092210702C013821282B093200737
:10216000A0931F07DF91CF9108956F927F928F9276
:102170009F92AF92BF92CF92DF92EF92FF920F9316
:102180001F93CF93DF93009789F4CB01DF91CF9119
:102190001F910F91FF90EF90DF90CF90BF90AF9085
:1021A0009F908F907F906F900C94940FFC01E60F9E
:1021B000F71F9C0122503109E217F30708F4A9C068
:1021C000EC01D9010D911C91119706171707B0F07A
:1021D0000530110508F49BC0C801049786179707BE
:1021E00008F495C002501109061B170B01931193B7
:1021F0006D937C93CF010E942C1089C05B01A01AC3
:10220000B10A4C01800E911EA0912107B0912207C6
:10221000612C712CE12CF12C109709F446C08D91A2
:102220009C911197A815B905B1F56C0142E0C40E57
:10223000D11CCA14DB0478F14C018A189B08640194
:1022400042E0C40ED11C1296BC9012971396AC912A
:10225000B5E0CB16D10440F0B282A3839182808294
:10226000D9016D937C9309C00E5F1F4F800F911FA2
:10227000F90191838083EB2DFA2FE114F10431F001
:10228000D7011396FC93EE93129741C0F093220767
:10229000E09321073CC06816790608F43C017D01F3
:1022A00012960D90BC91A02DB7CF80911F079091F1
:1022B000200788169906E1F466167706C8F480911F
:1022C000010290910202009741F48DB79EB74091B0
:1022D000050250910602841B950BE817F907C8F414
:1022E000F0932007E0931F07F901718360830FC00B
:1022F000CB010E94940F7C01009759F0A801BE0108
:102300000E949F11CE010E942C10C70104C0CE0173
:1023100002C080E090E0DF91CF911F910F91FF907C
:10232000EF90DF90CF90BF90AF909F908F907F9075
:102330006F90089581E090E0F8940C94AF11FB0148
:10234000DC0102C001900D9241505040D8F7089531
:10235000FB01DC0101900D920020E1F7089511E0EE
:10236000C0E6D1E000E006C0802FFE010E948C0F85
:102370002196011DC136D10780E00807A9F7F8941E
:02238000FFCF8D
:10238200FF000023078000363738391B1D1A1C0056
:1023920000000063073607E2020A072E071A070B3E
:1023A20007000000003B029401BE018802EF01CD4C
:1023B20001E10100000000E7029401E202E1020DE6
:0E23C2000A00737461727465727272720000A8
:00000001FF
